{
  "_format": "hh-sol-artifact-1",
  "contractName": "MarketTestApi",
  "sourceName": "contracts/my-data-dao/filecoin-solidity/v0.8/mocks/tests/market.test.sol",
  "abi": [
    {
      "inputs": [
        {
          "internalType": "address",
          "name": "_marketApiAddress",
          "type": "address"
        }
      ],
      "stateMutability": "nonpayable",
      "type": "constructor"
    },
    {
      "inputs": [],
      "name": "test_add_balance",
      "outputs": [],
      "stateMutability": "payable",
      "type": "function"
    },
    {
      "inputs": [],
      "name": "test_get_balance",
      "outputs": [],
      "stateMutability": "view",
      "type": "function"
    }
  ],
  "bytecode": "0x608060405234801561001057600080fd5b506040516106b83803806106b8833981810160405281019061003291906100db565b806000806101000a81548173ffffffffffffffffffffffffffffffffffffffff021916908373ffffffffffffffffffffffffffffffffffffffff16021790555050610108565b600080fd5b600073ffffffffffffffffffffffffffffffffffffffff82169050919050565b60006100a88261007d565b9050919050565b6100b88161009d565b81146100c357600080fd5b50565b6000815190506100d5816100af565b92915050565b6000602082840312156100f1576100f0610078565b5b60006100ff848285016100c6565b91505092915050565b6105a1806101176000396000f3fe6080604052600436106100295760003560e01c806333cfb2011461002e578063827ff44014610045575b600080fd5b34801561003a57600080fd5b5061004361004f565b005b61004d610132565b005b60006040518060400160405280600281526020017e66000000000000000000000000000000000000000000000000000000000000815250905060008060009054906101000a900473ffffffffffffffffffffffffffffffffffffffff1690508073ffffffffffffffffffffffffffffffffffffffff1663d0fc3501836040518263ffffffff1660e01b81526004016100e79190610290565b600060405180830381865afa158015610104573d6000803e3d6000fd5b505050506040513d6000823e3d601f19601f8201168201806040525081019061012d9190610522565b505050565b60006040518060400160405280600281526020017e66000000000000000000000000000000000000000000000000000000000000815250905060008060009054906101000a900473ffffffffffffffffffffffffffffffffffffffff1690508073ffffffffffffffffffffffffffffffffffffffff1663c9505aa2836040518263ffffffff1660e01b81526004016101ca9190610290565b600060405180830381600087803b1580156101e457600080fd5b505af11580156101f8573d6000803e3d6000fd5b505050505050565b600081519050919050565b600082825260208201905092915050565b60005b8381101561023a57808201518184015260208101905061021f565b60008484015250505050565b6000601f19601f8301169050919050565b600061026282610200565b61026c818561020b565b935061027c81856020860161021c565b61028581610246565b840191505092915050565b600060208201905081810360008301526102aa8184610257565b905092915050565b6000604051905090565b600080fd5b600080fd5b600080fd5b7f4e487b7100000000000000000000000000000000000000000000000000000000600052604160045260246000fd5b61030382610246565b810181811067ffffffffffffffff82111715610322576103216102cb565b5b80604052505050565b60006103356102b2565b905061034182826102fa565b919050565b600080fd5b600080fd5b600080fd5b600067ffffffffffffffff8211156103705761036f6102cb565b5b61037982610246565b9050602081019050919050565b600061039961039484610355565b61032b565b9050828152602081018484840111156103b5576103b4610350565b5b6103c084828561021c565b509392505050565b600082601f8301126103dd576103dc61034b565b5b81516103ed848260208601610386565b91505092915050565b60008115159050919050565b61040b816103f6565b811461041657600080fd5b50565b60008151905061042881610402565b92915050565b600060408284031215610444576104436102c6565b5b61044e604061032b565b9050600082015167ffffffffffffffff81111561046e5761046d610346565b5b61047a848285016103c8565b600083015250602061048e84828501610419565b60208301525092915050565b6000604082840312156104b0576104af6102c6565b5b6104ba604061032b565b9050600082015167ffffffffffffffff8111156104da576104d9610346565b5b6104e68482850161042e565b600083015250602082015167ffffffffffffffff81111561050a57610509610346565b5b6105168482850161042e565b60208301525092915050565b600060208284031215610538576105376102bc565b5b600082015167ffffffffffffffff811115610556576105556102c1565b5b6105628482850161049a565b9150509291505056fea2646970667358221220dd7cc9d991639ca52aad51a72e0092a035f80ca80073931fa459405d53ef28c464736f6c63430008110033",
  "linkReferences": {},
  "deployedLinkReferences": {}
}