{
  "_format": "hh-sol-artifact-1",
  "contractName": "MembershipNFT",
  "sourceName": "contracts/my-data-dao/MembershipNFT.sol",
  "abi": [
    {
      "inputs": [],
      "stateMutability": "nonpayable",
      "type": "constructor"
    },
    {
      "anonymous": false,
      "inputs": [
        {
          "indexed": true,
          "internalType": "address",
          "name": "owner",
          "type": "address"
        },
        {
          "indexed": true,
          "internalType": "address",
          "name": "approved",
          "type": "address"
        },
        {
          "indexed": true,
          "internalType": "uint256",
          "name": "tokenId",
          "type": "uint256"
        }
      ],
      "name": "Approval",
      "type": "event"
    },
    {
      "anonymous": false,
      "inputs": [
        {
          "indexed": true,
          "internalType": "address",
          "name": "owner",
          "type": "address"
        },
        {
          "indexed": true,
          "internalType": "address",
          "name": "operator",
          "type": "address"
        },
        {
          "indexed": false,
          "internalType": "bool",
          "name": "approved",
          "type": "bool"
        }
      ],
      "name": "ApprovalForAll",
      "type": "event"
    },
    {
      "anonymous": false,
      "inputs": [
        {
          "indexed": true,
          "internalType": "address",
          "name": "from",
          "type": "address"
        },
        {
          "indexed": true,
          "internalType": "address",
          "name": "to",
          "type": "address"
        },
        {
          "indexed": true,
          "internalType": "uint256",
          "name": "tokenId",
          "type": "uint256"
        }
      ],
      "name": "Transfer",
      "type": "event"
    },
    {
      "inputs": [
        {
          "internalType": "address",
          "name": "to",
          "type": "address"
        },
        {
          "internalType": "uint256",
          "name": "tokenId",
          "type": "uint256"
        }
      ],
      "name": "approve",
      "outputs": [],
      "stateMutability": "nonpayable",
      "type": "function"
    },
    {
      "inputs": [
        {
          "internalType": "address",
          "name": "owner",
          "type": "address"
        }
      ],
      "name": "balanceOf",
      "outputs": [
        {
          "internalType": "uint256",
          "name": "",
          "type": "uint256"
        }
      ],
      "stateMutability": "view",
      "type": "function"
    },
    {
      "inputs": [
        {
          "internalType": "uint256",
          "name": "tokenId",
          "type": "uint256"
        }
      ],
      "name": "burnNft",
      "outputs": [],
      "stateMutability": "nonpayable",
      "type": "function"
    },
    {
      "inputs": [
        {
          "internalType": "uint256",
          "name": "tokenId",
          "type": "uint256"
        }
      ],
      "name": "getApproved",
      "outputs": [
        {
          "internalType": "address",
          "name": "",
          "type": "address"
        }
      ],
      "stateMutability": "view",
      "type": "function"
    },
    {
      "inputs": [
        {
          "internalType": "uint256",
          "name": "tokenId",
          "type": "uint256"
        }
      ],
      "name": "getOwnerOf",
      "outputs": [
        {
          "internalType": "address",
          "name": "",
          "type": "address"
        }
      ],
      "stateMutability": "view",
      "type": "function"
    },
    {
      "inputs": [
        {
          "internalType": "address",
          "name": "owner",
          "type": "address"
        },
        {
          "internalType": "address",
          "name": "operator",
          "type": "address"
        }
      ],
      "name": "isApprovedForAll",
      "outputs": [
        {
          "internalType": "bool",
          "name": "",
          "type": "bool"
        }
      ],
      "stateMutability": "view",
      "type": "function"
    },
    {
      "inputs": [
        {
          "internalType": "address",
          "name": "to",
          "type": "address"
        }
      ],
      "name": "mint",
      "outputs": [
        {
          "internalType": "uint256",
          "name": "",
          "type": "uint256"
        }
      ],
      "stateMutability": "nonpayable",
      "type": "function"
    },
    {
      "inputs": [],
      "name": "name",
      "outputs": [
        {
          "internalType": "string",
          "name": "",
          "type": "string"
        }
      ],
      "stateMutability": "view",
      "type": "function"
    },
    {
      "inputs": [
        {
          "internalType": "uint256",
          "name": "tokenId",
          "type": "uint256"
        }
      ],
      "name": "ownerOf",
      "outputs": [
        {
          "internalType": "address",
          "name": "",
          "type": "address"
        }
      ],
      "stateMutability": "view",
      "type": "function"
    },
    {
      "inputs": [],
      "name": "returnCurrentNftId",
      "outputs": [
        {
          "internalType": "uint256",
          "name": "",
          "type": "uint256"
        }
      ],
      "stateMutability": "view",
      "type": "function"
    },
    {
      "inputs": [
        {
          "internalType": "address",
          "name": "from",
          "type": "address"
        },
        {
          "internalType": "address",
          "name": "to",
          "type": "address"
        },
        {
          "internalType": "uint256",
          "name": "tokenId",
          "type": "uint256"
        }
      ],
      "name": "safeTransferFrom",
      "outputs": [],
      "stateMutability": "nonpayable",
      "type": "function"
    },
    {
      "inputs": [
        {
          "internalType": "address",
          "name": "from",
          "type": "address"
        },
        {
          "internalType": "address",
          "name": "to",
          "type": "address"
        },
        {
          "internalType": "uint256",
          "name": "tokenId",
          "type": "uint256"
        },
        {
          "internalType": "bytes",
          "name": "_data",
          "type": "bytes"
        }
      ],
      "name": "safeTransferFrom",
      "outputs": [],
      "stateMutability": "nonpayable",
      "type": "function"
    },
    {
      "inputs": [
        {
          "internalType": "address",
          "name": "operator",
          "type": "address"
        },
        {
          "internalType": "bool",
          "name": "approved",
          "type": "bool"
        }
      ],
      "name": "setApprovalForAll",
      "outputs": [],
      "stateMutability": "nonpayable",
      "type": "function"
    },
    {
      "inputs": [
        {
          "internalType": "bytes4",
          "name": "interfaceId",
          "type": "bytes4"
        }
      ],
      "name": "supportsInterface",
      "outputs": [
        {
          "internalType": "bool",
          "name": "",
          "type": "bool"
        }
      ],
      "stateMutability": "view",
      "type": "function"
    },
    {
      "inputs": [],
      "name": "symbol",
      "outputs": [
        {
          "internalType": "string",
          "name": "",
          "type": "string"
        }
      ],
      "stateMutability": "view",
      "type": "function"
    },
    {
      "inputs": [],
      "name": "tokenCount",
      "outputs": [
        {
          "internalType": "uint256",
          "name": "",
          "type": "uint256"
        }
      ],
      "stateMutability": "view",
      "type": "function"
    },
    {
      "inputs": [
        {
          "internalType": "uint256",
          "name": "tokenId",
          "type": "uint256"
        }
      ],
      "name": "tokenURI",
      "outputs": [
        {
          "internalType": "string",
          "name": "",
          "type": "string"
        }
      ],
      "stateMutability": "view",
      "type": "function"
    },
    {
      "inputs": [
        {
          "internalType": "address",
          "name": "from",
          "type": "address"
        },
        {
          "internalType": "address",
          "name": "to",
          "type": "address"
        },
        {
          "internalType": "uint256",
          "name": "tokenId",
          "type": "uint256"
        }
      ],
      "name": "transferFrom",
      "outputs": [],
      "stateMutability": "nonpayable",
      "type": "function"
    },
    {
      "inputs": [
        {
          "internalType": "address",
          "name": "from",
          "type": "address"
        },
        {
          "internalType": "address",
          "name": "to",
          "type": "address"
        },
        {
          "internalType": "uint256",
          "name": "tokenId",
          "type": "uint256"
        }
      ],
      "name": "transferNft",
      "outputs": [
        {
          "internalType": "uint256",
          "name": "",
          "type": "uint256"
        }
      ],
      "stateMutability": "nonpayable",
      "type": "function"
    }
  ],
  "bytecode": "0x60806040523480156200001157600080fd5b506040518060400160405280600e81526020017f4d656d62657273686970204e46540000000000000000000000000000000000008152506040518060400160405280600481526020017f4d4e46540000000000000000000000000000000000000000000000000000000081525081600090816200008f919062000324565b508060019081620000a1919062000324565b5050506200040b565b600081519050919050565b7f4e487b7100000000000000000000000000000000000000000000000000000000600052604160045260246000fd5b7f4e487b7100000000000000000000000000000000000000000000000000000000600052602260045260246000fd5b600060028204905060018216806200012c57607f821691505b602082108103620001425762000141620000e4565b5b50919050565b60008190508160005260206000209050919050565b60006020601f8301049050919050565b600082821b905092915050565b600060088302620001ac7fffffffffffffffffffffffffffffffffffffffffffffffffffffffffffffffff826200016d565b620001b886836200016d565b95508019841693508086168417925050509392505050565b6000819050919050565b6000819050919050565b600062000205620001ff620001f984620001d0565b620001da565b620001d0565b9050919050565b6000819050919050565b6200022183620001e4565b6200023962000230826200020c565b8484546200017a565b825550505050565b600090565b6200025062000241565b6200025d81848462000216565b505050565b5b8181101562000285576200027960008262000246565b60018101905062000263565b5050565b601f821115620002d4576200029e8162000148565b620002a9846200015d565b81016020851015620002b9578190505b620002d1620002c8856200015d565b83018262000262565b50505b505050565b600082821c905092915050565b6000620002f960001984600802620002d9565b1980831691505092915050565b6000620003148383620002e6565b9150826002028217905092915050565b6200032f82620000aa565b67ffffffffffffffff8111156200034b576200034a620000b5565b5b62000357825462000113565b6200036482828562000289565b600060209050601f8311600181146200039c576000841562000387578287015190505b62000393858262000306565b86555062000403565b601f198416620003ac8662000148565b60005b82811015620003d657848901518255600182019150602085019450602081019050620003af565b86831015620003f65784890151620003f2601f891682620002e6565b8355505b6001600288020188555050505b505050505050565b612968806200041b6000396000f3fe608060405234801561001057600080fd5b50600436106101215760003560e01c806370a08231116100ad578063a22cb46511610071578063a22cb4651461032e578063b88d4fde1461034a578063c87b56dd14610366578063d11eccd614610396578063e985e9c5146103c657610121565b806370a0823114610274578063739a131a146102a457806383638710146102c257806395d89b41146102f25780639f181b5e1461031057610121565b806323b872dd116100f457806323b872dd146101c05780633d5efefe146101dc57806342842e0e146101f85780636352211e146102145780636a6278421461024457610121565b806301ffc9a71461012657806306fdde0314610156578063081812fc14610174578063095ea7b3146101a4575b600080fd5b610140600480360381019061013b9190611918565b6103f6565b60405161014d9190611960565b60405180910390f35b61015e6104d8565b60405161016b9190611a0b565b60405180910390f35b61018e60048036038101906101899190611a63565b61056a565b60405161019b9190611ad1565b60405180910390f35b6101be60048036038101906101b99190611b18565b6105ef565b005b6101da60048036038101906101d59190611b58565b610706565b005b6101f660048036038101906101f19190611a63565b610766565b005b610212600480360381019061020d9190611b58565b610772565b005b61022e60048036038101906102299190611a63565b610792565b60405161023b9190611ad1565b60405180910390f35b61025e60048036038101906102599190611bab565b610843565b60405161026b9190611be7565b60405180910390f35b61028e60048036038101906102899190611bab565b610870565b60405161029b9190611be7565b60405180910390f35b6102ac610927565b6040516102b99190611be7565b60405180910390f35b6102dc60048036038101906102d79190611a63565b610931565b6040516102e99190611ad1565b60405180910390f35b6102fa610943565b6040516103079190611a0b565b60405180910390f35b6103186109d5565b6040516103259190611be7565b60405180910390f35b61034860048036038101906103439190611c2e565b6109db565b005b610364600480360381019061035f9190611da3565b6109f1565b005b610380600480360381019061037b9190611a63565b610a53565b60405161038d9190611a0b565b60405180910390f35b6103b060048036038101906103ab9190611b58565b610afa565b6040516103bd9190611be7565b60405180910390f35b6103e060048036038101906103db9190611e26565b610b13565b6040516103ed9190611960565b60405180910390f35b60007f80ac58cd000000000000000000000000000000000000000000000000000000007bffffffffffffffffffffffffffffffffffffffffffffffffffffffff1916827bffffffffffffffffffffffffffffffffffffffffffffffffffffffff191614806104c157507f5b5e139f000000000000000000000000000000000000000000000000000000007bffffffffffffffffffffffffffffffffffffffffffffffffffffffff1916827bffffffffffffffffffffffffffffffffffffffffffffffffffffffff1916145b806104d157506104d082610ba7565b5b9050919050565b6060600080546104e790611e95565b80601f016020809104026020016040519081016040528092919081815260200182805461051390611e95565b80156105605780601f1061053557610100808354040283529160200191610560565b820191906000526020600020905b81548152906001019060200180831161054357829003601f168201915b5050505050905090565b600061057582610c11565b6105b4576040517f08c379a00000000000000000000000000000000000000000000000000000000081526004016105ab90611f38565b60405180910390fd5b6004600083815260200190815260200160002060009054906101000a900473ffffffffffffffffffffffffffffffffffffffff169050919050565b60006105fa82610792565b90508073ffffffffffffffffffffffffffffffffffffffff168373ffffffffffffffffffffffffffffffffffffffff160361066a576040517f08c379a000000000000000000000000000000000000000000000000000000000815260040161066190611fca565b60405180910390fd5b8073ffffffffffffffffffffffffffffffffffffffff16610689610c7d565b73ffffffffffffffffffffffffffffffffffffffff1614806106b857506106b7816106b2610c7d565b610b13565b5b6106f7576040517f08c379a00000000000000000000000000000000000000000000000000000000081526004016106ee9061205c565b60405180910390fd5b6107018383610c85565b505050565b610717610711610c7d565b82610d3e565b610756576040517f08c379a000000000000000000000000000000000000000000000000000000000815260040161074d906120ee565b60405180910390fd5b610761838383610e1c565b505050565b61076f81611077565b50565b61078d838383604051806020016040528060008152506109f1565b505050565b6000806002600084815260200190815260200160002060009054906101000a900473ffffffffffffffffffffffffffffffffffffffff169050600073ffffffffffffffffffffffffffffffffffffffff168173ffffffffffffffffffffffffffffffffffffffff160361083a576040517f08c379a000000000000000000000000000000000000000000000000000000000815260040161083190612180565b60405180910390fd5b80915050919050565b6000600160065461085491906121cf565b60068190555061086682600654611188565b6006549050919050565b60008073ffffffffffffffffffffffffffffffffffffffff168273ffffffffffffffffffffffffffffffffffffffff16036108e0576040517f08c379a00000000000000000000000000000000000000000000000000000000081526004016108d790612275565b60405180910390fd5b600360008373ffffffffffffffffffffffffffffffffffffffff1673ffffffffffffffffffffffffffffffffffffffff168152602001908152602001600020549050919050565b6000600654905090565b600061093c82610792565b9050919050565b60606001805461095290611e95565b80601f016020809104026020016040519081016040528092919081815260200182805461097e90611e95565b80156109cb5780601f106109a0576101008083540402835291602001916109cb565b820191906000526020600020905b8154815290600101906020018083116109ae57829003601f168201915b5050505050905090565b60065481565b6109ed6109e6610c7d565b83836111a6565b5050565b610a026109fc610c7d565b83610d3e565b610a41576040517f08c379a0000000000000000000000000000000000000000000000000000000008152600401610a38906120ee565b60405180910390fd5b610a4d84848484611312565b50505050565b6060610a5e82610c11565b610a9d576040517f08c379a0000000000000000000000000000000000000000000000000000000008152600401610a9490612307565b60405180910390fd5b6000610aa761136e565b90506000815111610ac75760405180602001604052806000815250610af2565b80610ad184611385565b604051602001610ae2929190612363565b6040516020818303038152906040525b915050919050565b6000610b07848484610e1c565b60065490509392505050565b6000600560008473ffffffffffffffffffffffffffffffffffffffff1673ffffffffffffffffffffffffffffffffffffffff16815260200190815260200160002060008373ffffffffffffffffffffffffffffffffffffffff1673ffffffffffffffffffffffffffffffffffffffff16815260200190815260200160002060009054906101000a900460ff16905092915050565b60007f01ffc9a7000000000000000000000000000000000000000000000000000000007bffffffffffffffffffffffffffffffffffffffffffffffffffffffff1916827bffffffffffffffffffffffffffffffffffffffffffffffffffffffff1916149050919050565b60008073ffffffffffffffffffffffffffffffffffffffff166002600084815260200190815260200160002060009054906101000a900473ffffffffffffffffffffffffffffffffffffffff1673ffffffffffffffffffffffffffffffffffffffff1614159050919050565b600033905090565b816004600083815260200190815260200160002060006101000a81548173ffffffffffffffffffffffffffffffffffffffff021916908373ffffffffffffffffffffffffffffffffffffffff160217905550808273ffffffffffffffffffffffffffffffffffffffff16610cf883610792565b73ffffffffffffffffffffffffffffffffffffffff167f8c5be1e5ebec7d5bd14f71427d1e84f3dd0314c0f7b2291e5b200ac8c7c3b92560405160405180910390a45050565b6000610d4982610c11565b610d88576040517f08c379a0000000000000000000000000000000000000000000000000000000008152600401610d7f906123f9565b60405180910390fd5b6000610d9383610792565b90508073ffffffffffffffffffffffffffffffffffffffff168473ffffffffffffffffffffffffffffffffffffffff161480610e0257508373ffffffffffffffffffffffffffffffffffffffff16610dea8461056a565b73ffffffffffffffffffffffffffffffffffffffff16145b80610e135750610e128185610b13565b5b91505092915050565b8273ffffffffffffffffffffffffffffffffffffffff16610e3c82610792565b73ffffffffffffffffffffffffffffffffffffffff1614610e92576040517f08c379a0000000000000000000000000000000000000000000000000000000008152600401610e899061248b565b60405180910390fd5b600073ffffffffffffffffffffffffffffffffffffffff168273ffffffffffffffffffffffffffffffffffffffff1603610f01576040517f08c379a0000000000000000000000000000000000000000000000000000000008152600401610ef89061251d565b60405180910390fd5b610f0c8383836114e5565b610f17600082610c85565b6001600360008573ffffffffffffffffffffffffffffffffffffffff1673ffffffffffffffffffffffffffffffffffffffff1681526020019081526020016000206000828254610f67919061253d565b925050819055506001600360008473ffffffffffffffffffffffffffffffffffffffff1673ffffffffffffffffffffffffffffffffffffffff1681526020019081526020016000206000828254610fbe91906121cf565b92505081905550816002600083815260200190815260200160002060006101000a81548173ffffffffffffffffffffffffffffffffffffffff021916908373ffffffffffffffffffffffffffffffffffffffff160217905550808273ffffffffffffffffffffffffffffffffffffffff168473ffffffffffffffffffffffffffffffffffffffff167fddf252ad1be2c89b69c2b068fc378daa952ba7f163c4a11628f55a4df523b3ef60405160405180910390a4505050565b600061108282610792565b9050611090816000846114e5565b61109b600083610c85565b6001600360008373ffffffffffffffffffffffffffffffffffffffff1673ffffffffffffffffffffffffffffffffffffffff16815260200190815260200160002060008282546110eb919061253d565b925050819055506002600083815260200190815260200160002060006101000a81549073ffffffffffffffffffffffffffffffffffffffff021916905581600073ffffffffffffffffffffffffffffffffffffffff168273ffffffffffffffffffffffffffffffffffffffff167fddf252ad1be2c89b69c2b068fc378daa952ba7f163c4a11628f55a4df523b3ef60405160405180910390a45050565b6111a28282604051806020016040528060008152506114ea565b5050565b8173ffffffffffffffffffffffffffffffffffffffff168373ffffffffffffffffffffffffffffffffffffffff1603611214576040517f08c379a000000000000000000000000000000000000000000000000000000000815260040161120b906125bd565b60405180910390fd5b80600560008573ffffffffffffffffffffffffffffffffffffffff1673ffffffffffffffffffffffffffffffffffffffff16815260200190815260200160002060008473ffffffffffffffffffffffffffffffffffffffff1673ffffffffffffffffffffffffffffffffffffffff16815260200190815260200160002060006101000a81548160ff0219169083151502179055508173ffffffffffffffffffffffffffffffffffffffff168373ffffffffffffffffffffffffffffffffffffffff167f17307eab39ab6107e8899845ad3d59bd9653f200f220920489ca2b5937696c31836040516113059190611960565b60405180910390a3505050565b61131d848484610e1c565b61132984848484611545565b611368576040517f08c379a000000000000000000000000000000000000000000000000000000000815260040161135f9061264f565b60405180910390fd5b50505050565b606060405180602001604052806000815250905090565b6060600082036113cc576040518060400160405280600181526020017f300000000000000000000000000000000000000000000000000000000000000081525090506114e0565b600082905060005b600082146113fe5780806113e79061266f565b915050600a826113f791906126e6565b91506113d4565b60008167ffffffffffffffff81111561141a57611419611c78565b5b6040519080825280601f01601f19166020018201604052801561144c5781602001600182028036833780820191505090505b5090505b600085146114d957600182611465919061253d565b9150600a856114749190612717565b603061148091906121cf565b60f81b81838151811061149657611495612748565b5b60200101907effffffffffffffffffffffffffffffffffffffffffffffffffffffffffffff1916908160001a905350600a856114d291906126e6565b9450611450565b8093505050505b919050565b505050565b6114f483836116cc565b6115016000848484611545565b611540576040517f08c379a00000000000000000000000000000000000000000000000000000000081526004016115379061264f565b60405180910390fd5b505050565b60006115668473ffffffffffffffffffffffffffffffffffffffff16611899565b156116bf578373ffffffffffffffffffffffffffffffffffffffff1663150b7a0261158f610c7d565b8786866040518563ffffffff1660e01b81526004016115b194939291906127cc565b6020604051808303816000875af19250505080156115ed57506040513d601f19601f820116820180604052508101906115ea919061282d565b60015b61166f573d806000811461161d576040519150601f19603f3d011682016040523d82523d6000602084013e611622565b606091505b506000815103611667576040517f08c379a000000000000000000000000000000000000000000000000000000000815260040161165e9061264f565b60405180910390fd5b805181602001fd5b63150b7a0260e01b7bffffffffffffffffffffffffffffffffffffffffffffffffffffffff1916817bffffffffffffffffffffffffffffffffffffffffffffffffffffffff1916149150506116c4565b600190505b949350505050565b600073ffffffffffffffffffffffffffffffffffffffff168273ffffffffffffffffffffffffffffffffffffffff160361173b576040517f08c379a0000000000000000000000000000000000000000000000000000000008152600401611732906128a6565b60405180910390fd5b61174481610c11565b15611784576040517f08c379a000000000000000000000000000000000000000000000000000000000815260040161177b90612912565b60405180910390fd5b611790600083836114e5565b6001600360008473ffffffffffffffffffffffffffffffffffffffff1673ffffffffffffffffffffffffffffffffffffffff16815260200190815260200160002060008282546117e091906121cf565b92505081905550816002600083815260200190815260200160002060006101000a81548173ffffffffffffffffffffffffffffffffffffffff021916908373ffffffffffffffffffffffffffffffffffffffff160217905550808273ffffffffffffffffffffffffffffffffffffffff16600073ffffffffffffffffffffffffffffffffffffffff167fddf252ad1be2c89b69c2b068fc378daa952ba7f163c4a11628f55a4df523b3ef60405160405180910390a45050565b600080823b905060008111915050919050565b6000604051905090565b600080fd5b600080fd5b60007fffffffff0000000000000000000000000000000000000000000000000000000082169050919050565b6118f5816118c0565b811461190057600080fd5b50565b600081359050611912816118ec565b92915050565b60006020828403121561192e5761192d6118b6565b5b600061193c84828501611903565b91505092915050565b60008115159050919050565b61195a81611945565b82525050565b60006020820190506119756000830184611951565b92915050565b600081519050919050565b600082825260208201905092915050565b60005b838110156119b557808201518184015260208101905061199a565b60008484015250505050565b6000601f19601f8301169050919050565b60006119dd8261197b565b6119e78185611986565b93506119f7818560208601611997565b611a00816119c1565b840191505092915050565b60006020820190508181036000830152611a2581846119d2565b905092915050565b6000819050919050565b611a4081611a2d565b8114611a4b57600080fd5b50565b600081359050611a5d81611a37565b92915050565b600060208284031215611a7957611a786118b6565b5b6000611a8784828501611a4e565b91505092915050565b600073ffffffffffffffffffffffffffffffffffffffff82169050919050565b6000611abb82611a90565b9050919050565b611acb81611ab0565b82525050565b6000602082019050611ae66000830184611ac2565b92915050565b611af581611ab0565b8114611b0057600080fd5b50565b600081359050611b1281611aec565b92915050565b60008060408385031215611b2f57611b2e6118b6565b5b6000611b3d85828601611b03565b9250506020611b4e85828601611a4e565b9150509250929050565b600080600060608486031215611b7157611b706118b6565b5b6000611b7f86828701611b03565b9350506020611b9086828701611b03565b9250506040611ba186828701611a4e565b9150509250925092565b600060208284031215611bc157611bc06118b6565b5b6000611bcf84828501611b03565b91505092915050565b611be181611a2d565b82525050565b6000602082019050611bfc6000830184611bd8565b92915050565b611c0b81611945565b8114611c1657600080fd5b50565b600081359050611c2881611c02565b92915050565b60008060408385031215611c4557611c446118b6565b5b6000611c5385828601611b03565b9250506020611c6485828601611c19565b9150509250929050565b600080fd5b600080fd5b7f4e487b7100000000000000000000000000000000000000000000000000000000600052604160045260246000fd5b611cb0826119c1565b810181811067ffffffffffffffff82111715611ccf57611cce611c78565b5b80604052505050565b6000611ce26118ac565b9050611cee8282611ca7565b919050565b600067ffffffffffffffff821115611d0e57611d0d611c78565b5b611d17826119c1565b9050602081019050919050565b82818337600083830152505050565b6000611d46611d4184611cf3565b611cd8565b905082815260208101848484011115611d6257611d61611c73565b5b611d6d848285611d24565b509392505050565b600082601f830112611d8a57611d89611c6e565b5b8135611d9a848260208601611d33565b91505092915050565b60008060008060808587031215611dbd57611dbc6118b6565b5b6000611dcb87828801611b03565b9450506020611ddc87828801611b03565b9350506040611ded87828801611a4e565b925050606085013567ffffffffffffffff811115611e0e57611e0d6118bb565b5b611e1a87828801611d75565b91505092959194509250565b60008060408385031215611e3d57611e3c6118b6565b5b6000611e4b85828601611b03565b9250506020611e5c85828601611b03565b9150509250929050565b7f4e487b7100000000000000000000000000000000000000000000000000000000600052602260045260246000fd5b60006002820490506001821680611ead57607f821691505b602082108103611ec057611ebf611e66565b5b50919050565b7f4552433732313a20617070726f76656420717565727920666f72206e6f6e657860008201527f697374656e7420746f6b656e0000000000000000000000000000000000000000602082015250565b6000611f22602c83611986565b9150611f2d82611ec6565b604082019050919050565b60006020820190508181036000830152611f5181611f15565b9050919050565b7f4552433732313a20617070726f76616c20746f2063757272656e74206f776e6560008201527f7200000000000000000000000000000000000000000000000000000000000000602082015250565b6000611fb4602183611986565b9150611fbf82611f58565b604082019050919050565b60006020820190508181036000830152611fe381611fa7565b9050919050565b7f4552433732313a20617070726f76652063616c6c6572206973206e6f74206f7760008201527f6e6572206e6f7220617070726f76656420666f7220616c6c0000000000000000602082015250565b6000612046603883611986565b915061205182611fea565b604082019050919050565b6000602082019050818103600083015261207581612039565b9050919050565b7f4552433732313a207472616e736665722063616c6c6572206973206e6f74206f60008201527f776e6572206e6f7220617070726f766564000000000000000000000000000000602082015250565b60006120d8603183611986565b91506120e38261207c565b604082019050919050565b60006020820190508181036000830152612107816120cb565b9050919050565b7f4552433732313a206f776e657220717565727920666f72206e6f6e657869737460008201527f656e7420746f6b656e0000000000000000000000000000000000000000000000602082015250565b600061216a602983611986565b91506121758261210e565b604082019050919050565b600060208201905081810360008301526121998161215d565b9050919050565b7f4e487b7100000000000000000000000000000000000000000000000000000000600052601160045260246000fd5b60006121da82611a2d565b91506121e583611a2d565b92508282019050808211156121fd576121fc6121a0565b5b92915050565b7f4552433732313a2062616c616e636520717565727920666f7220746865207a6560008201527f726f206164647265737300000000000000000000000000000000000000000000602082015250565b600061225f602a83611986565b915061226a82612203565b604082019050919050565b6000602082019050818103600083015261228e81612252565b9050919050565b7f4552433732314d657461646174613a2055524920717565727920666f72206e6f60008201527f6e6578697374656e7420746f6b656e0000000000000000000000000000000000602082015250565b60006122f1602f83611986565b91506122fc82612295565b604082019050919050565b60006020820190508181036000830152612320816122e4565b9050919050565b600081905092915050565b600061233d8261197b565b6123478185612327565b9350612357818560208601611997565b80840191505092915050565b600061236f8285612332565b915061237b8284612332565b91508190509392505050565b7f4552433732313a206f70657261746f7220717565727920666f72206e6f6e657860008201527f697374656e7420746f6b656e0000000000000000000000000000000000000000602082015250565b60006123e3602c83611986565b91506123ee82612387565b604082019050919050565b60006020820190508181036000830152612412816123d6565b9050919050565b7f4552433732313a207472616e73666572206f6620746f6b656e2074686174206960008201527f73206e6f74206f776e0000000000000000000000000000000000000000000000602082015250565b6000612475602983611986565b915061248082612419565b604082019050919050565b600060208201905081810360008301526124a481612468565b9050919050565b7f4552433732313a207472616e7366657220746f20746865207a65726f2061646460008201527f7265737300000000000000000000000000000000000000000000000000000000602082015250565b6000612507602483611986565b9150612512826124ab565b604082019050919050565b60006020820190508181036000830152612536816124fa565b9050919050565b600061254882611a2d565b915061255383611a2d565b925082820390508181111561256b5761256a6121a0565b5b92915050565b7f4552433732313a20617070726f766520746f2063616c6c657200000000000000600082015250565b60006125a7601983611986565b91506125b282612571565b602082019050919050565b600060208201905081810360008301526125d68161259a565b9050919050565b7f4552433732313a207472616e7366657220746f206e6f6e20455243373231526560008201527f63656976657220696d706c656d656e7465720000000000000000000000000000602082015250565b6000612639603283611986565b9150612644826125dd565b604082019050919050565b600060208201905081810360008301526126688161262c565b9050919050565b600061267a82611a2d565b91507fffffffffffffffffffffffffffffffffffffffffffffffffffffffffffffffff82036126ac576126ab6121a0565b5b600182019050919050565b7f4e487b7100000000000000000000000000000000000000000000000000000000600052601260045260246000fd5b60006126f182611a2d565b91506126fc83611a2d565b92508261270c5761270b6126b7565b5b828204905092915050565b600061272282611a2d565b915061272d83611a2d565b92508261273d5761273c6126b7565b5b828206905092915050565b7f4e487b7100000000000000000000000000000000000000000000000000000000600052603260045260246000fd5b600081519050919050565b600082825260208201905092915050565b600061279e82612777565b6127a88185612782565b93506127b8818560208601611997565b6127c1816119c1565b840191505092915050565b60006080820190506127e16000830187611ac2565b6127ee6020830186611ac2565b6127fb6040830185611bd8565b818103606083015261280d8184612793565b905095945050505050565b600081519050612827816118ec565b92915050565b600060208284031215612843576128426118b6565b5b600061285184828501612818565b91505092915050565b7f4552433732313a206d696e7420746f20746865207a65726f2061646472657373600082015250565b6000612890602083611986565b915061289b8261285a565b602082019050919050565b600060208201905081810360008301526128bf81612883565b9050919050565b7f4552433732313a20746f6b656e20616c7265616479206d696e74656400000000600082015250565b60006128fc601c83611986565b9150612907826128c6565b602082019050919050565b6000602082019050818103600083015261292b816128ef565b905091905056fea264697066735822122099421cd4924520fbb622b976b65cda7dd9833a989d221c496818ab0ca5bcdb0264736f6c63430008110033",
  "linkReferences": {},
  "deployedLinkReferences": {}
}