{
  "_format": "hh-sol-artifact-1",
  "contractName": "MinerMockAPI",
  "sourceName": "contracts/my-data-dao/filecoin-solidity/v0.8/mocks/MinerMockAPI.sol",
  "abi": [
    {
      "inputs": [
        {
          "internalType": "bytes",
          "name": "_owner",
          "type": "bytes"
        }
      ],
      "stateMutability": "nonpayable",
      "type": "constructor"
    },
    {
      "inputs": [
        {
          "components": [
            {
              "internalType": "bytes",
              "name": "new_beneficiary",
              "type": "bytes"
            },
            {
              "components": [
                {
                  "internalType": "bytes",
                  "name": "val",
                  "type": "bytes"
                },
                {
                  "internalType": "bool",
                  "name": "neg",
                  "type": "bool"
                }
              ],
              "internalType": "struct BigInt",
              "name": "new_quota",
              "type": "tuple"
            },
            {
              "internalType": "uint64",
              "name": "new_expiration",
              "type": "uint64"
            }
          ],
          "internalType": "struct MinerTypes.ChangeBeneficiaryParams",
          "name": "params",
          "type": "tuple"
        }
      ],
      "name": "changeBeneficiary",
      "outputs": [],
      "stateMutability": "nonpayable",
      "type": "function"
    },
    {
      "inputs": [
        {
          "internalType": "bytes",
          "name": "addr",
          "type": "bytes"
        }
      ],
      "name": "changeOwnerAddress",
      "outputs": [],
      "stateMutability": "nonpayable",
      "type": "function"
    },
    {
      "inputs": [],
      "name": "getAvailableBalance",
      "outputs": [
        {
          "components": [
            {
              "components": [
                {
                  "internalType": "bytes",
                  "name": "val",
                  "type": "bytes"
                },
                {
                  "internalType": "bool",
                  "name": "neg",
                  "type": "bool"
                }
              ],
              "internalType": "struct BigInt",
              "name": "available_balance",
              "type": "tuple"
            }
          ],
          "internalType": "struct MinerTypes.GetAvailableBalanceReturn",
          "name": "",
          "type": "tuple"
        }
      ],
      "stateMutability": "pure",
      "type": "function"
    },
    {
      "inputs": [],
      "name": "getBeneficiary",
      "outputs": [
        {
          "components": [
            {
              "components": [
                {
                  "internalType": "bytes",
                  "name": "beneficiary",
                  "type": "bytes"
                },
                {
                  "components": [
                    {
                      "components": [
                        {
                          "internalType": "bytes",
                          "name": "val",
                          "type": "bytes"
                        },
                        {
                          "internalType": "bool",
                          "name": "neg",
                          "type": "bool"
                        }
                      ],
                      "internalType": "struct BigInt",
                      "name": "quota",
                      "type": "tuple"
                    },
                    {
                      "components": [
                        {
                          "internalType": "bytes",
                          "name": "val",
                          "type": "bytes"
                        },
                        {
                          "internalType": "bool",
                          "name": "neg",
                          "type": "bool"
                        }
                      ],
                      "internalType": "struct BigInt",
                      "name": "used_quota",
                      "type": "tuple"
                    },
                    {
                      "internalType": "uint64",
                      "name": "expiration",
                      "type": "uint64"
                    }
                  ],
                  "internalType": "struct CommonTypes.BeneficiaryTerm",
                  "name": "term",
                  "type": "tuple"
                }
              ],
              "internalType": "struct CommonTypes.ActiveBeneficiary",
              "name": "active",
              "type": "tuple"
            },
            {
              "components": [
                {
                  "internalType": "bytes",
                  "name": "new_beneficiary",
                  "type": "bytes"
                },
                {
                  "components": [
                    {
                      "internalType": "bytes",
                      "name": "val",
                      "type": "bytes"
                    },
                    {
                      "internalType": "bool",
                      "name": "neg",
                      "type": "bool"
                    }
                  ],
                  "internalType": "struct BigInt",
                  "name": "new_quota",
                  "type": "tuple"
                },
                {
                  "internalType": "uint64",
                  "name": "new_expiration",
                  "type": "uint64"
                },
                {
                  "internalType": "bool",
                  "name": "approved_by_beneficiary",
                  "type": "bool"
                },
                {
                  "internalType": "bool",
                  "name": "approved_by_nominee",
                  "type": "bool"
                }
              ],
              "internalType": "struct CommonTypes.PendingBeneficiaryChange",
              "name": "proposed",
              "type": "tuple"
            }
          ],
          "internalType": "struct MinerTypes.GetBeneficiaryReturn",
          "name": "",
          "type": "tuple"
        }
      ],
      "stateMutability": "view",
      "type": "function"
    },
    {
      "inputs": [],
      "name": "getOwner",
      "outputs": [
        {
          "components": [
            {
              "internalType": "bytes",
              "name": "owner",
              "type": "bytes"
            },
            {
              "internalType": "bytes",
              "name": "proposed",
              "type": "bytes"
            }
          ],
          "internalType": "struct MinerTypes.GetOwnerReturn",
          "name": "",
          "type": "tuple"
        }
      ],
      "stateMutability": "view",
      "type": "function"
    },
    {
      "inputs": [],
      "name": "getSectorSize",
      "outputs": [
        {
          "components": [
            {
              "internalType": "uint64",
              "name": "sector_size",
              "type": "uint64"
            }
          ],
          "internalType": "struct MinerTypes.GetSectorSizeReturn",
          "name": "",
          "type": "tuple"
        }
      ],
      "stateMutability": "view",
      "type": "function"
    },
    {
      "inputs": [],
      "name": "getVestingFunds",
      "outputs": [
        {
          "components": [
            {
              "components": [
                {
                  "internalType": "int64",
                  "name": "epoch",
                  "type": "int64"
                },
                {
                  "components": [
                    {
                      "internalType": "bytes",
                      "name": "val",
                      "type": "bytes"
                    },
                    {
                      "internalType": "bool",
                      "name": "neg",
                      "type": "bool"
                    }
                  ],
                  "internalType": "struct BigInt",
                  "name": "amount",
                  "type": "tuple"
                }
              ],
              "internalType": "struct CommonTypes.VestingFunds[]",
              "name": "vesting_funds",
              "type": "tuple[]"
            }
          ],
          "internalType": "struct MinerTypes.GetVestingFundsReturn",
          "name": "",
          "type": "tuple"
        }
      ],
      "stateMutability": "pure",
      "type": "function"
    },
    {
      "inputs": [
        {
          "components": [
            {
              "internalType": "bytes",
              "name": "addr",
              "type": "bytes"
            }
          ],
          "internalType": "struct MinerTypes.IsControllingAddressParam",
          "name": "params",
          "type": "tuple"
        }
      ],
      "name": "isControllingAddress",
      "outputs": [
        {
          "components": [
            {
              "internalType": "bool",
              "name": "is_controlling",
              "type": "bool"
            }
          ],
          "internalType": "struct MinerTypes.IsControllingAddressReturn",
          "name": "",
          "type": "tuple"
        }
      ],
      "stateMutability": "pure",
      "type": "function"
    },
    {
      "inputs": [
        {
          "internalType": "bytes",
          "name": "addr",
          "type": "bytes"
        }
      ],
      "name": "mockSetOwner",
      "outputs": [],
      "stateMutability": "nonpayable",
      "type": "function"
    }
  ],
  "bytecode": "0x60806040526000600160006101000a81548160ff0219169083151502179055503480156200002c57600080fd5b506040516200201638038062002016833981810160405281019062000052919062000408565b8060009081620000639190620006a4565b50610800600860008060048111156200008157620000806200078b565b5b60048111156200009657620000956200078b565b5b815260200190815260200160002060006101000a81548167ffffffffffffffff021916908367ffffffffffffffff160217905550628000006008600060016004811115620000e957620000e86200078b565b5b6004811115620000fe57620000fd6200078b565b5b815260200190815260200160002060006101000a81548167ffffffffffffffff021916908367ffffffffffffffff160217905550632000000060086000600260048111156200015257620001516200078b565b5b60048111156200016757620001666200078b565b5b815260200190815260200160002060006101000a81548167ffffffffffffffff021916908367ffffffffffffffff1602179055506408000000006008600060036004811115620001bc57620001bb6200078b565b5b6004811115620001d157620001d06200078b565b5b815260200190815260200160002060006101000a81548167ffffffffffffffff021916908367ffffffffffffffff160217905550641000000000600860006004808111156200022557620002246200078b565b5b60048111156200023a57620002396200078b565b5b815260200190815260200160002060006101000a81548167ffffffffffffffff021916908367ffffffffffffffff16021790555050620007ba565b6000604051905090565b600080fd5b600080fd5b600080fd5b600080fd5b6000601f19601f8301169050919050565b7f4e487b7100000000000000000000000000000000000000000000000000000000600052604160045260246000fd5b620002de8262000293565b810181811067ffffffffffffffff821117156200030057620002ff620002a4565b5b80604052505050565b60006200031562000275565b9050620003238282620002d3565b919050565b600067ffffffffffffffff821115620003465762000345620002a4565b5b620003518262000293565b9050602081019050919050565b60005b838110156200037e57808201518184015260208101905062000361565b60008484015250505050565b6000620003a16200039b8462000328565b62000309565b905082815260208101848484011115620003c057620003bf6200028e565b5b620003cd8482856200035e565b509392505050565b600082601f830112620003ed57620003ec62000289565b5b8151620003ff8482602086016200038a565b91505092915050565b6000602082840312156200042157620004206200027f565b5b600082015167ffffffffffffffff81111562000442576200044162000284565b5b6200045084828501620003d5565b91505092915050565b600081519050919050565b7f4e487b7100000000000000000000000000000000000000000000000000000000600052602260045260246000fd5b60006002820490506001821680620004ac57607f821691505b602082108103620004c257620004c162000464565b5b50919050565b60008190508160005260206000209050919050565b60006020601f8301049050919050565b600082821b905092915050565b6000600883026200052c7fffffffffffffffffffffffffffffffffffffffffffffffffffffffffffffffff82620004ed565b620005388683620004ed565b95508019841693508086168417925050509392505050565b6000819050919050565b6000819050919050565b6000620005856200057f620005798462000550565b6200055a565b62000550565b9050919050565b6000819050919050565b620005a18362000564565b620005b9620005b0826200058c565b848454620004fa565b825550505050565b600090565b620005d0620005c1565b620005dd81848462000596565b505050565b5b818110156200060557620005f9600082620005c6565b600181019050620005e3565b5050565b601f82111562000654576200061e81620004c8565b6200062984620004dd565b8101602085101562000639578190505b620006516200064885620004dd565b830182620005e2565b50505b505050565b600082821c905092915050565b6000620006796000198460080262000659565b1980831691505092915050565b600062000694838362000666565b9150826002028217905092915050565b620006af8262000459565b67ffffffffffffffff811115620006cb57620006ca620002a4565b5b620006d7825462000493565b620006e482828562000609565b600060209050601f8311600181146200071c576000841562000707578287015190505b62000713858262000686565b86555062000783565b601f1984166200072c86620004c8565b60005b8281101562000756578489015182556001820191506020850194506020810190506200072f565b8683101562000776578489015162000772601f89168262000666565b8355505b6001600288020188555050505b505050505050565b7f4e487b7100000000000000000000000000000000000000000000000000000000600052602160045260246000fd5b61184c80620007ca6000396000f3fe608060405234801561001057600080fd5b50600436106100935760003560e01c806392287678116100665780639228767814610110578063aaf1320c1461012c578063c9f6ecd61461015c578063e8c6ccc914610178578063f7592b601461019657610093565b80633e46dc2914610098578063565a2e2c146100b6578063809dab6a146100d4578063893d20e8146100f2575b600080fd5b6100a06101b2565b6040516100ad9190610e07565b60405180910390f35b6100be6102af565b6040516100cb9190610fa8565b60405180910390f35b6100dc610559565b6040516100e99190610ff4565b60405180910390f35b6100fa6105c1565b604051610107919061105a565b60405180910390f35b61012a600480360381019061012591906111c5565b6106c2565b005b61014660048036038101906101419190611270565b6106d5565b60405161015391906112d5565b60405180910390f35b61017660048036038101906101719190611450565b61074b565b005b61018061095f565b60405161018d91906114b5565b60405180910390f35b6101b060048036038101906101ab91906111c5565b6109d1565b005b6101ba610a40565b6000600167ffffffffffffffff8111156101d7576101d661109a565b5b60405190808252806020026020018201604052801561021057816020015b6101fd610a53565b8152602001906001900390816101f55790505b5090506040518060400160405280636373840960070b815260200160405180604001604052806040518060400160405280600981526020017f6c6b935b8bbd40000000000000000000000000000000000000000000000000008152508152602001600015158152508152508160008151811061028f5761028e6114d0565b5b602002602001018190525060405180602001604052808281525091505090565b6102b7610a76565b600160009054906101000a900460ff166102d057600080fd5b6102d8610a9c565b604051806040016040528060026040518060400160405290816000820180546103009061152e565b80601f016020809104026020016040519081016040528092919081815260200182805461032c9061152e565b80156103795780601f1061034e57610100808354040283529160200191610379565b820191906000526020600020905b81548152906001019060200180831161035c57829003601f168201915b5050505050815260200160018201604051806060016040529081600082016040518060400160405290816000820180546103b29061152e565b80601f01602080910402602001604051908101604052809291908181526020018280546103de9061152e565b801561042b5780601f106104005761010080835404028352916020019161042b565b820191906000526020600020905b81548152906001019060200180831161040e57829003601f168201915b505050505081526020016001820160009054906101000a900460ff1615151515815250508152602001600282016040518060400160405290816000820180546104739061152e565b80601f016020809104026020016040519081016040528092919081815260200182805461049f9061152e565b80156104ec5780601f106104c1576101008083540402835291602001916104ec565b820191906000526020600020905b8154815290600101906020018083116104cf57829003601f168201915b505050505081526020016001820160009054906101000a900460ff16151515158152505081526020016004820160009054906101000a900467ffffffffffffffff1667ffffffffffffffff1667ffffffffffffffff16815250508152505081526020018281525091505090565b610561610adf565b604051806020016040528060405180604001604052806040518060400160405280600a81526020017f021e19e0c9bab240000000000000000000000000000000000000000000000000815250815260200160001515815250815250905090565b6105c9610af8565b60008080546105d79061152e565b9050036105e357600080fd5b60006040518060400160405280600481526020017f307830300000000000000000000000000000000000000000000000000000000081525090506040518060400160405280600080546106359061152e565b80601f01602080910402602001604051908101604052809291908181526020018280546106619061152e565b80156106ae5780601f10610683576101008083540402835291602001916106ae565b820191906000526020600020905b81548152906001019060200180831161069157829003601f168201915b505050505081526020018281525091505090565b80600090816106d19190611715565b5050565b6106dd610b12565b600060f81b82600001516000815181106106fa576106f96114d0565b5b602001015160f81c60f81b7effffffffffffffffffffffffffffffffffffffffffffffffffffffffffffff1916101561073257600080fd5b6040518060200160405280600015158152509050919050565b600160009054906101000a900460ff166108cb5760006107696109fe565b90506000604051806060016040528084602001518152602001604051806040016040528085600001518152602001856020015115158152508152602001846040015167ffffffffffffffff16815250905060405180604001604052808460000151815260200182815250600260008201518160000190816107ea9190611715565b5060208201518160010160008201518160000160008201518160000190816108129190611715565b5060208201518160010160006101000a81548160ff021916908315150217905550505060208201518160020160008201518160000190816108539190611715565b5060208201518160010160006101000a81548160ff021916908315150217905550505060408201518160040160006101000a81548167ffffffffffffffff021916908367ffffffffffffffff160217905550505090505060018060006101000a81548160ff021916908315150217905550505061095c565b8060000151600260000190816108e19190611715565b508060200151600260010160000160008201518160000190816109049190611715565b5060208201518160010160006101000a81548160ff0219169083151502179055509050508060400151600260010160040160006101000a81548167ffffffffffffffff021916908367ffffffffffffffff1602179055505b50565b610967610b27565b6040518060200160405280600860006001600481111561098a576109896117e7565b5b600481111561099c5761099b6117e7565b5b815260200190815260200160002060009054906101000a900467ffffffffffffffff1667ffffffffffffffff16815250905090565b60008080546109df9061152e565b9050146109eb57600080fd5b80600090816109fa9190611715565b5050565b610a06610b44565b6040518060600160405280604051806040016040528060208152602001600081525081526020016000151581526020016000815250905090565b6040518060200160405280606081525090565b6040518060400160405280600060070b8152602001610a70610b67565b81525090565b6040518060400160405280610a89610b83565b8152602001610a96610a9c565b81525090565b6040518060a0016040528060608152602001610ab6610b67565b8152602001600067ffffffffffffffff1681526020016000151581526020016000151581525090565b6040518060200160405280610af2610b67565b81525090565b604051806040016040528060608152602001606081525090565b60405180602001604052806000151581525090565b6040518060200160405280600067ffffffffffffffff1681525090565b604051806060016040528060608152602001600015158152602001600081525090565b6040518060400160405280606081526020016000151581525090565b604051806040016040528060608152602001610b9d610ba3565b81525090565b6040518060600160405280610bb6610b67565b8152602001610bc3610b67565b8152602001600067ffffffffffffffff1681525090565b600081519050919050565b600082825260208201905092915050565b6000819050602082019050919050565b60008160070b9050919050565b610c1c81610c06565b82525050565b600081519050919050565b600082825260208201905092915050565b60005b83811015610c5c578082015181840152602081019050610c41565b60008484015250505050565b6000601f19601f8301169050919050565b6000610c8482610c22565b610c8e8185610c2d565b9350610c9e818560208601610c3e565b610ca781610c68565b840191505092915050565b60008115159050919050565b610cc781610cb2565b82525050565b60006040830160008301518482036000860152610cea8282610c79565b9150506020830151610cff6020860182610cbe565b508091505092915050565b6000604083016000830151610d226000860182610c13565b5060208301518482036020860152610d3a8282610ccd565b9150508091505092915050565b6000610d538383610d0a565b905092915050565b6000602082019050919050565b6000610d7382610bda565b610d7d8185610be5565b935083602082028501610d8f85610bf6565b8060005b85811015610dcb5784840389528151610dac8582610d47565b9450610db783610d5b565b925060208a01995050600181019050610d93565b50829750879550505050505092915050565b60006020830160008301518482036000860152610dfa8282610d68565b9150508091505092915050565b60006020820190508181036000830152610e218184610ddd565b905092915050565b600067ffffffffffffffff82169050919050565b610e4681610e29565b82525050565b60006060830160008301518482036000860152610e698282610ccd565b91505060208301518482036020860152610e838282610ccd565b9150506040830151610e986040860182610e3d565b508091505092915050565b60006040830160008301518482036000860152610ec08282610c79565b91505060208301518482036020860152610eda8282610e4c565b9150508091505092915050565b600060a0830160008301518482036000860152610f048282610c79565b91505060208301518482036020860152610f1e8282610ccd565b9150506040830151610f336040860182610e3d565b506060830151610f466060860182610cbe565b506080830151610f596080860182610cbe565b508091505092915050565b60006040830160008301518482036000860152610f818282610ea3565b91505060208301518482036020860152610f9b8282610ee7565b9150508091505092915050565b60006020820190508181036000830152610fc28184610f64565b905092915050565b60006020830160008301518482036000860152610fe78282610ccd565b9150508091505092915050565b6000602082019050818103600083015261100e8184610fca565b905092915050565b600060408301600083015184820360008601526110338282610c79565b9150506020830151848203602086015261104d8282610c79565b9150508091505092915050565b600060208201905081810360008301526110748184611016565b905092915050565b6000604051905090565b600080fd5b600080fd5b600080fd5b600080fd5b7f4e487b7100000000000000000000000000000000000000000000000000000000600052604160045260246000fd5b6110d282610c68565b810181811067ffffffffffffffff821117156110f1576110f061109a565b5b80604052505050565b600061110461107c565b905061111082826110c9565b919050565b600067ffffffffffffffff8211156111305761112f61109a565b5b61113982610c68565b9050602081019050919050565b82818337600083830152505050565b600061116861116384611115565b6110fa565b90508281526020810184848401111561118457611183611095565b5b61118f848285611146565b509392505050565b600082601f8301126111ac576111ab611090565b5b81356111bc848260208601611155565b91505092915050565b6000602082840312156111db576111da611086565b5b600082013567ffffffffffffffff8111156111f9576111f861108b565b5b61120584828501611197565b91505092915050565b600080fd5b600080fd5b60006020828403121561122e5761122d61120e565b5b61123860206110fa565b9050600082013567ffffffffffffffff81111561125857611257611213565b5b61126484828501611197565b60008301525092915050565b60006020828403121561128657611285611086565b5b600082013567ffffffffffffffff8111156112a4576112a361108b565b5b6112b084828501611218565b91505092915050565b6020820160008201516112cf6000850182610cbe565b50505050565b60006020820190506112ea60008301846112b9565b92915050565b6112f981610cb2565b811461130457600080fd5b50565b600081359050611316816112f0565b92915050565b6000604082840312156113325761133161120e565b5b61133c60406110fa565b9050600082013567ffffffffffffffff81111561135c5761135b611213565b5b61136884828501611197565b600083015250602061137c84828501611307565b60208301525092915050565b61139181610e29565b811461139c57600080fd5b50565b6000813590506113ae81611388565b92915050565b6000606082840312156113ca576113c961120e565b5b6113d460606110fa565b9050600082013567ffffffffffffffff8111156113f4576113f3611213565b5b61140084828501611197565b600083015250602082013567ffffffffffffffff81111561142457611423611213565b5b6114308482850161131c565b60208301525060406114448482850161139f565b60408301525092915050565b60006020828403121561146657611465611086565b5b600082013567ffffffffffffffff8111156114845761148361108b565b5b611490848285016113b4565b91505092915050565b6020820160008201516114af6000850182610e3d565b50505050565b60006020820190506114ca6000830184611499565b92915050565b7f4e487b7100000000000000000000000000000000000000000000000000000000600052603260045260246000fd5b7f4e487b7100000000000000000000000000000000000000000000000000000000600052602260045260246000fd5b6000600282049050600182168061154657607f821691505b602082108103611559576115586114ff565b5b50919050565b60008190508160005260206000209050919050565b60006020601f8301049050919050565b600082821b905092915050565b6000600883026115c17fffffffffffffffffffffffffffffffffffffffffffffffffffffffffffffffff82611584565b6115cb8683611584565b95508019841693508086168417925050509392505050565b6000819050919050565b6000819050919050565b600061161261160d611608846115e3565b6115ed565b6115e3565b9050919050565b6000819050919050565b61162c836115f7565b61164061163882611619565b848454611591565b825550505050565b600090565b611655611648565b611660818484611623565b505050565b5b818110156116845761167960008261164d565b600181019050611666565b5050565b601f8211156116c95761169a8161155f565b6116a384611574565b810160208510156116b2578190505b6116c66116be85611574565b830182611665565b50505b505050565b600082821c905092915050565b60006116ec600019846008026116ce565b1980831691505092915050565b600061170583836116db565b9150826002028217905092915050565b61171e82610c22565b67ffffffffffffffff8111156117375761173661109a565b5b611741825461152e565b61174c828285611688565b600060209050601f83116001811461177f576000841561176d578287015190505b61177785826116f9565b8655506117df565b601f19841661178d8661155f565b60005b828110156117b557848901518255600182019150602085019450602081019050611790565b868310156117d257848901516117ce601f8916826116db565b8355505b6001600288020188555050505b505050505050565b7f4e487b7100000000000000000000000000000000000000000000000000000000600052602160045260246000fdfea2646970667358221220f1a537315c655ef38effc4c893b85bda0c9b5e305b57ae38461750e0a3a43be464736f6c63430008110033",
  "linkReferences": {},
  "deployedLinkReferences": {}
}