{
  "_format": "hh-sol-artifact-1",
  "contractName": "MinerTestApi",
  "sourceName": "contracts/my-data-dao/filecoin-solidity/v0.8/mocks/tests/miner.test.sol",
  "abi": [
    {
      "inputs": [
        {
          "internalType": "address",
          "name": "_minerApiAddress",
          "type": "address"
        }
      ],
      "stateMutability": "nonpayable",
      "type": "constructor"
    },
    {
      "inputs": [],
      "name": "test_get_owner",
      "outputs": [],
      "stateMutability": "view",
      "type": "function"
    },
    {
      "inputs": [],
      "name": "test_get_sector_size",
      "outputs": [],
      "stateMutability": "view",
      "type": "function"
    }
  ],
  "bytecode": "0x608060405234801561001057600080fd5b506040516105cc3803806105cc833981810160405281019061003291906100db565b806000806101000a81548173ffffffffffffffffffffffffffffffffffffffff021916908373ffffffffffffffffffffffffffffffffffffffff16021790555050610108565b600080fd5b600073ffffffffffffffffffffffffffffffffffffffff82169050919050565b60006100a88261007d565b9050919050565b6100b88161009d565b81146100c357600080fd5b50565b6000815190506100d5816100af565b92915050565b6000602082840312156100f1576100f0610078565b5b60006100ff848285016100c6565b91505092915050565b6104b5806101176000396000f3fe608060405234801561001057600080fd5b50600436106100365760003560e01c806335ac4b991461003b578063830dcd8314610045575b600080fd5b61004361004f565b005b61004d6100ed565b005b60008060009054906101000a900473ffffffffffffffffffffffffffffffffffffffff1690508073ffffffffffffffffffffffffffffffffffffffff1663893d20e86040518163ffffffff1660e01b8152600401600060405180830381865afa1580156100c0573d6000803e3d6000fd5b505050506040513d6000823e3d601f19601f820116820180604052508101906100e9919061038d565b5050565b60008060009054906101000a900473ffffffffffffffffffffffffffffffffffffffff1690508073ffffffffffffffffffffffffffffffffffffffff1663e8c6ccc96040518163ffffffff1660e01b8152600401602060405180830381865afa15801561015e573d6000803e3d6000fd5b505050506040513d601f19601f820116820180604052508101906101829190610452565b5050565b6000604051905090565b600080fd5b600080fd5b600080fd5b6000601f19601f8301169050919050565b7f4e487b7100000000000000000000000000000000000000000000000000000000600052604160045260246000fd5b6101e88261019f565b810181811067ffffffffffffffff82111715610207576102066101b0565b5b80604052505050565b600061021a610186565b905061022682826101df565b919050565b600080fd5b600080fd5b600080fd5b600067ffffffffffffffff821115610255576102546101b0565b5b61025e8261019f565b9050602081019050919050565b60005b8381101561028957808201518184015260208101905061026e565b60008484015250505050565b60006102a86102a38461023a565b610210565b9050828152602081018484840111156102c4576102c3610235565b5b6102cf84828561026b565b509392505050565b600082601f8301126102ec576102eb610230565b5b81516102fc848260208601610295565b91505092915050565b60006040828403121561031b5761031a61019a565b5b6103256040610210565b9050600082015167ffffffffffffffff8111156103455761034461022b565b5b610351848285016102d7565b600083015250602082015167ffffffffffffffff8111156103755761037461022b565b5b610381848285016102d7565b60208301525092915050565b6000602082840312156103a3576103a2610190565b5b600082015167ffffffffffffffff8111156103c1576103c0610195565b5b6103cd84828501610305565b91505092915050565b600067ffffffffffffffff82169050919050565b6103f3816103d6565b81146103fe57600080fd5b50565b600081519050610410816103ea565b92915050565b60006020828403121561042c5761042b61019a565b5b6104366020610210565b9050600061044684828501610401565b60008301525092915050565b60006020828403121561046857610467610190565b5b600061047684828501610416565b9150509291505056fea26469706673582212208fed5995dfeb9daaa75e701d8ad6a13441a78cc9d774fdfb9b2bed0394ad509264736f6c63430008110033",
  "linkReferences": {},
  "deployedLinkReferences": {}
}