{
  "_format": "hh-sol-artifact-1",
  "contractName": "ERC20PresetMinterPauser",
  "sourceName": "contracts/my-data-dao/openzeppelin/contracts/token/ERC20/presets/ERC20PresetMinterPauser.sol",
  "abi": [
    {
      "inputs": [
        {
          "internalType": "string",
          "name": "name",
          "type": "string"
        },
        {
          "internalType": "string",
          "name": "symbol",
          "type": "string"
        }
      ],
      "stateMutability": "nonpayable",
      "type": "constructor"
    },
    {
      "anonymous": false,
      "inputs": [
        {
          "indexed": true,
          "internalType": "address",
          "name": "owner",
          "type": "address"
        },
        {
          "indexed": true,
          "internalType": "address",
          "name": "spender",
          "type": "address"
        },
        {
          "indexed": false,
          "internalType": "uint256",
          "name": "value",
          "type": "uint256"
        }
      ],
      "name": "Approval",
      "type": "event"
    },
    {
      "anonymous": false,
      "inputs": [
        {
          "indexed": false,
          "internalType": "address",
          "name": "account",
          "type": "address"
        }
      ],
      "name": "Paused",
      "type": "event"
    },
    {
      "anonymous": false,
      "inputs": [
        {
          "indexed": true,
          "internalType": "bytes32",
          "name": "role",
          "type": "bytes32"
        },
        {
          "indexed": true,
          "internalType": "bytes32",
          "name": "previousAdminRole",
          "type": "bytes32"
        },
        {
          "indexed": true,
          "internalType": "bytes32",
          "name": "newAdminRole",
          "type": "bytes32"
        }
      ],
      "name": "RoleAdminChanged",
      "type": "event"
    },
    {
      "anonymous": false,
      "inputs": [
        {
          "indexed": true,
          "internalType": "bytes32",
          "name": "role",
          "type": "bytes32"
        },
        {
          "indexed": true,
          "internalType": "address",
          "name": "account",
          "type": "address"
        },
        {
          "indexed": true,
          "internalType": "address",
          "name": "sender",
          "type": "address"
        }
      ],
      "name": "RoleGranted",
      "type": "event"
    },
    {
      "anonymous": false,
      "inputs": [
        {
          "indexed": true,
          "internalType": "bytes32",
          "name": "role",
          "type": "bytes32"
        },
        {
          "indexed": true,
          "internalType": "address",
          "name": "account",
          "type": "address"
        },
        {
          "indexed": true,
          "internalType": "address",
          "name": "sender",
          "type": "address"
        }
      ],
      "name": "RoleRevoked",
      "type": "event"
    },
    {
      "anonymous": false,
      "inputs": [
        {
          "indexed": true,
          "internalType": "address",
          "name": "from",
          "type": "address"
        },
        {
          "indexed": true,
          "internalType": "address",
          "name": "to",
          "type": "address"
        },
        {
          "indexed": false,
          "internalType": "uint256",
          "name": "value",
          "type": "uint256"
        }
      ],
      "name": "Transfer",
      "type": "event"
    },
    {
      "anonymous": false,
      "inputs": [
        {
          "indexed": false,
          "internalType": "address",
          "name": "account",
          "type": "address"
        }
      ],
      "name": "Unpaused",
      "type": "event"
    },
    {
      "inputs": [],
      "name": "DEFAULT_ADMIN_ROLE",
      "outputs": [
        {
          "internalType": "bytes32",
          "name": "",
          "type": "bytes32"
        }
      ],
      "stateMutability": "view",
      "type": "function"
    },
    {
      "inputs": [],
      "name": "MINTER_ROLE",
      "outputs": [
        {
          "internalType": "bytes32",
          "name": "",
          "type": "bytes32"
        }
      ],
      "stateMutability": "view",
      "type": "function"
    },
    {
      "inputs": [],
      "name": "PAUSER_ROLE",
      "outputs": [
        {
          "internalType": "bytes32",
          "name": "",
          "type": "bytes32"
        }
      ],
      "stateMutability": "view",
      "type": "function"
    },
    {
      "inputs": [
        {
          "internalType": "address",
          "name": "owner",
          "type": "address"
        },
        {
          "internalType": "address",
          "name": "spender",
          "type": "address"
        }
      ],
      "name": "allowance",
      "outputs": [
        {
          "internalType": "uint256",
          "name": "",
          "type": "uint256"
        }
      ],
      "stateMutability": "view",
      "type": "function"
    },
    {
      "inputs": [
        {
          "internalType": "address",
          "name": "spender",
          "type": "address"
        },
        {
          "internalType": "uint256",
          "name": "amount",
          "type": "uint256"
        }
      ],
      "name": "approve",
      "outputs": [
        {
          "internalType": "bool",
          "name": "",
          "type": "bool"
        }
      ],
      "stateMutability": "nonpayable",
      "type": "function"
    },
    {
      "inputs": [
        {
          "internalType": "address",
          "name": "account",
          "type": "address"
        }
      ],
      "name": "balanceOf",
      "outputs": [
        {
          "internalType": "uint256",
          "name": "",
          "type": "uint256"
        }
      ],
      "stateMutability": "view",
      "type": "function"
    },
    {
      "inputs": [
        {
          "internalType": "uint256",
          "name": "amount",
          "type": "uint256"
        }
      ],
      "name": "burn",
      "outputs": [],
      "stateMutability": "nonpayable",
      "type": "function"
    },
    {
      "inputs": [
        {
          "internalType": "address",
          "name": "account",
          "type": "address"
        },
        {
          "internalType": "uint256",
          "name": "amount",
          "type": "uint256"
        }
      ],
      "name": "burnFrom",
      "outputs": [],
      "stateMutability": "nonpayable",
      "type": "function"
    },
    {
      "inputs": [],
      "name": "decimals",
      "outputs": [
        {
          "internalType": "uint8",
          "name": "",
          "type": "uint8"
        }
      ],
      "stateMutability": "view",
      "type": "function"
    },
    {
      "inputs": [
        {
          "internalType": "address",
          "name": "spender",
          "type": "address"
        },
        {
          "internalType": "uint256",
          "name": "subtractedValue",
          "type": "uint256"
        }
      ],
      "name": "decreaseAllowance",
      "outputs": [
        {
          "internalType": "bool",
          "name": "",
          "type": "bool"
        }
      ],
      "stateMutability": "nonpayable",
      "type": "function"
    },
    {
      "inputs": [
        {
          "internalType": "bytes32",
          "name": "role",
          "type": "bytes32"
        }
      ],
      "name": "getRoleAdmin",
      "outputs": [
        {
          "internalType": "bytes32",
          "name": "",
          "type": "bytes32"
        }
      ],
      "stateMutability": "view",
      "type": "function"
    },
    {
      "inputs": [
        {
          "internalType": "bytes32",
          "name": "role",
          "type": "bytes32"
        },
        {
          "internalType": "uint256",
          "name": "index",
          "type": "uint256"
        }
      ],
      "name": "getRoleMember",
      "outputs": [
        {
          "internalType": "address",
          "name": "",
          "type": "address"
        }
      ],
      "stateMutability": "view",
      "type": "function"
    },
    {
      "inputs": [
        {
          "internalType": "bytes32",
          "name": "role",
          "type": "bytes32"
        }
      ],
      "name": "getRoleMemberCount",
      "outputs": [
        {
          "internalType": "uint256",
          "name": "",
          "type": "uint256"
        }
      ],
      "stateMutability": "view",
      "type": "function"
    },
    {
      "inputs": [
        {
          "internalType": "bytes32",
          "name": "role",
          "type": "bytes32"
        },
        {
          "internalType": "address",
          "name": "account",
          "type": "address"
        }
      ],
      "name": "grantRole",
      "outputs": [],
      "stateMutability": "nonpayable",
      "type": "function"
    },
    {
      "inputs": [
        {
          "internalType": "bytes32",
          "name": "role",
          "type": "bytes32"
        },
        {
          "internalType": "address",
          "name": "account",
          "type": "address"
        }
      ],
      "name": "hasRole",
      "outputs": [
        {
          "internalType": "bool",
          "name": "",
          "type": "bool"
        }
      ],
      "stateMutability": "view",
      "type": "function"
    },
    {
      "inputs": [
        {
          "internalType": "address",
          "name": "spender",
          "type": "address"
        },
        {
          "internalType": "uint256",
          "name": "addedValue",
          "type": "uint256"
        }
      ],
      "name": "increaseAllowance",
      "outputs": [
        {
          "internalType": "bool",
          "name": "",
          "type": "bool"
        }
      ],
      "stateMutability": "nonpayable",
      "type": "function"
    },
    {
      "inputs": [
        {
          "internalType": "address",
          "name": "to",
          "type": "address"
        },
        {
          "internalType": "uint256",
          "name": "amount",
          "type": "uint256"
        }
      ],
      "name": "mint",
      "outputs": [],
      "stateMutability": "nonpayable",
      "type": "function"
    },
    {
      "inputs": [],
      "name": "name",
      "outputs": [
        {
          "internalType": "string",
          "name": "",
          "type": "string"
        }
      ],
      "stateMutability": "view",
      "type": "function"
    },
    {
      "inputs": [],
      "name": "pause",
      "outputs": [],
      "stateMutability": "nonpayable",
      "type": "function"
    },
    {
      "inputs": [],
      "name": "paused",
      "outputs": [
        {
          "internalType": "bool",
          "name": "",
          "type": "bool"
        }
      ],
      "stateMutability": "view",
      "type": "function"
    },
    {
      "inputs": [
        {
          "internalType": "bytes32",
          "name": "role",
          "type": "bytes32"
        },
        {
          "internalType": "address",
          "name": "account",
          "type": "address"
        }
      ],
      "name": "renounceRole",
      "outputs": [],
      "stateMutability": "nonpayable",
      "type": "function"
    },
    {
      "inputs": [
        {
          "internalType": "bytes32",
          "name": "role",
          "type": "bytes32"
        },
        {
          "internalType": "address",
          "name": "account",
          "type": "address"
        }
      ],
      "name": "revokeRole",
      "outputs": [],
      "stateMutability": "nonpayable",
      "type": "function"
    },
    {
      "inputs": [
        {
          "internalType": "bytes4",
          "name": "interfaceId",
          "type": "bytes4"
        }
      ],
      "name": "supportsInterface",
      "outputs": [
        {
          "internalType": "bool",
          "name": "",
          "type": "bool"
        }
      ],
      "stateMutability": "view",
      "type": "function"
    },
    {
      "inputs": [],
      "name": "symbol",
      "outputs": [
        {
          "internalType": "string",
          "name": "",
          "type": "string"
        }
      ],
      "stateMutability": "view",
      "type": "function"
    },
    {
      "inputs": [],
      "name": "totalSupply",
      "outputs": [
        {
          "internalType": "uint256",
          "name": "",
          "type": "uint256"
        }
      ],
      "stateMutability": "view",
      "type": "function"
    },
    {
      "inputs": [
        {
          "internalType": "address",
          "name": "recipient",
          "type": "address"
        },
        {
          "internalType": "uint256",
          "name": "amount",
          "type": "uint256"
        }
      ],
      "name": "transfer",
      "outputs": [
        {
          "internalType": "bool",
          "name": "",
          "type": "bool"
        }
      ],
      "stateMutability": "nonpayable",
      "type": "function"
    },
    {
      "inputs": [
        {
          "internalType": "address",
          "name": "sender",
          "type": "address"
        },
        {
          "internalType": "address",
          "name": "recipient",
          "type": "address"
        },
        {
          "internalType": "uint256",
          "name": "amount",
          "type": "uint256"
        }
      ],
      "name": "transferFrom",
      "outputs": [
        {
          "internalType": "bool",
          "name": "",
          "type": "bool"
        }
      ],
      "stateMutability": "nonpayable",
      "type": "function"
    },
    {
      "inputs": [],
      "name": "unpause",
      "outputs": [],
      "stateMutability": "nonpayable",
      "type": "function"
    }
  ],
  "bytecode": "0x60806040523480156200001157600080fd5b5060405162003b3b38038062003b3b8339818101604052810190620000379190620004e7565b818181600590816200004a9190620007b7565b5080600690816200005c9190620007b7565b5050506000600760006101000a81548160ff0219169083151502179055506200009e6000801b620000926200012860201b60201c565b6200013060201b60201c565b620000df7f9f2df0fed2c77648de5860a4cc508cd0818c85b8b8a1ab4ceeef8d981c8956a6620000d36200012860201b60201c565b6200013060201b60201c565b620001207f65d7a28e3265b37a6474929f336521b332c1681b933f6cb9f3376673440d862a620001146200012860201b60201c565b6200013060201b60201c565b50506200089e565b600033905090565b6200014282826200014660201b60201c565b5050565b6200015d82826200018e60201b62000f191760201c565b6200018981600160008581526020019081526020016000206200021560201b62000f971790919060201c565b505050565b620001a082826200024d60201b60201c565b6200021157600160008084815260200190815260200160002060000160008373ffffffffffffffffffffffffffffffffffffffff1673ffffffffffffffffffffffffffffffffffffffff16815260200190815260200160002060006101000a81548160ff0219169083151502179055505b5050565b600062000245836000018373ffffffffffffffffffffffffffffffffffffffff1660001b620002b760201b60201c565b905092915050565b600080600084815260200190815260200160002060000160008373ffffffffffffffffffffffffffffffffffffffff1673ffffffffffffffffffffffffffffffffffffffff16815260200190815260200160002060009054906101000a900460ff16905092915050565b6000620002cb83836200033160201b60201c565b620003265782600001829080600181540180825580915050600190039060005260206000200160009091909190915055826000018054905083600101600084815260200190815260200160002081905550600190506200032b565b600090505b92915050565b600080836001016000848152602001908152602001600020541415905092915050565b6000604051905090565b600080fd5b600080fd5b600080fd5b600080fd5b6000601f19601f8301169050919050565b7f4e487b7100000000000000000000000000000000000000000000000000000000600052604160045260246000fd5b620003bd8262000372565b810181811067ffffffffffffffff82111715620003df57620003de62000383565b5b80604052505050565b6000620003f462000354565b9050620004028282620003b2565b919050565b600067ffffffffffffffff82111562000425576200042462000383565b5b620004308262000372565b9050602081019050919050565b60005b838110156200045d57808201518184015260208101905062000440565b60008484015250505050565b6000620004806200047a8462000407565b620003e8565b9050828152602081018484840111156200049f576200049e6200036d565b5b620004ac8482856200043d565b509392505050565b600082601f830112620004cc57620004cb62000368565b5b8151620004de84826020860162000469565b91505092915050565b600080604083850312156200050157620005006200035e565b5b600083015167ffffffffffffffff81111562000522576200052162000363565b5b6200053085828601620004b4565b925050602083015167ffffffffffffffff81111562000554576200055362000363565b5b6200056285828601620004b4565b9150509250929050565b600081519050919050565b7f4e487b7100000000000000000000000000000000000000000000000000000000600052602260045260246000fd5b60006002820490506001821680620005bf57607f821691505b602082108103620005d557620005d462000577565b5b50919050565b60008190508160005260206000209050919050565b60006020601f8301049050919050565b600082821b905092915050565b6000600883026200063f7fffffffffffffffffffffffffffffffffffffffffffffffffffffffffffffffff8262000600565b6200064b868362000600565b95508019841693508086168417925050509392505050565b6000819050919050565b6000819050919050565b600062000698620006926200068c8462000663565b6200066d565b62000663565b9050919050565b6000819050919050565b620006b48362000677565b620006cc620006c3826200069f565b8484546200060d565b825550505050565b600090565b620006e3620006d4565b620006f0818484620006a9565b505050565b5b8181101562000718576200070c600082620006d9565b600181019050620006f6565b5050565b601f82111562000767576200073181620005db565b6200073c84620005f0565b810160208510156200074c578190505b620007646200075b85620005f0565b830182620006f5565b50505b505050565b600082821c905092915050565b60006200078c600019846008026200076c565b1980831691505092915050565b6000620007a7838362000779565b9150826002028217905092915050565b620007c2826200056c565b67ffffffffffffffff811115620007de57620007dd62000383565b5b620007ea8254620005a6565b620007f78282856200071c565b600060209050601f8311600181146200082f57600084156200081a578287015190505b62000826858262000799565b86555062000896565b601f1984166200083f86620005db565b60005b82811015620008695784890151825560018201915060208501945060208101905062000842565b8683101562000889578489015162000885601f89168262000779565b8355505b6001600288020188555050505b505050505050565b61328d80620008ae6000396000f3fe608060405234801561001057600080fd5b50600436106101c45760003560e01c806370a08231116100f9578063a457c2d711610097578063d539139311610071578063d53913931461052d578063d547741f1461054b578063dd62ed3e14610567578063e63ab1e914610597576101c4565b8063a457c2d71461049d578063a9059cbb146104cd578063ca15c873146104fd576101c4565b80639010d07c116100d35780639010d07c1461040157806391d148541461043157806395d89b4114610461578063a217fddf1461047f576101c4565b806370a08231146103ab57806379cc6790146103db5780638456cb59146103f7576101c4565b8063313ce567116101665780633f4ba83a116101405780633f4ba83a1461034b57806340c10f191461035557806342966c68146103715780635c975abb1461038d576101c4565b8063313ce567146102e157806336568abe146102ff578063395093511461031b576101c4565b806318160ddd116101a257806318160ddd1461024757806323b872dd14610265578063248a9ca3146102955780632f2ff15d146102c5576101c4565b806301ffc9a7146101c957806306fdde03146101f9578063095ea7b314610217575b600080fd5b6101e360048036038101906101de91906120ae565b6105b5565b6040516101f091906120f6565b60405180910390f35b61020161062f565b60405161020e91906121a1565b60405180910390f35b610231600480360381019061022c9190612257565b6106c1565b60405161023e91906120f6565b60405180910390f35b61024f6106df565b60405161025c91906122a6565b60405180910390f35b61027f600480360381019061027a91906122c1565b6106e9565b60405161028c91906120f6565b60405180910390f35b6102af60048036038101906102aa919061234a565b6107e1565b6040516102bc9190612386565b60405180910390f35b6102df60048036038101906102da91906123a1565b610800565b005b6102e9610829565b6040516102f691906123fd565b60405180910390f35b610319600480360381019061031491906123a1565b610832565b005b61033560048036038101906103309190612257565b6108b5565b60405161034291906120f6565b60405180910390f35b610353610961565b005b61036f600480360381019061036a9190612257565b6109db565b005b61038b60048036038101906103869190612418565b610a59565b005b610395610a6d565b6040516103a291906120f6565b60405180910390f35b6103c560048036038101906103c09190612445565b610a84565b6040516103d291906122a6565b60405180910390f35b6103f560048036038101906103f09190612257565b610acd565b005b6103ff610b48565b005b61041b60048036038101906104169190612472565b610bc2565b60405161042891906124c1565b60405180910390f35b61044b600480360381019061044691906123a1565b610bf1565b60405161045891906120f6565b60405180910390f35b610469610c5b565b60405161047691906121a1565b60405180910390f35b610487610ced565b6040516104949190612386565b60405180910390f35b6104b760048036038101906104b29190612257565b610cf4565b6040516104c491906120f6565b60405180910390f35b6104e760048036038101906104e29190612257565b610ddf565b6040516104f491906120f6565b60405180910390f35b6105176004803603810190610512919061234a565b610dfd565b60405161052491906122a6565b60405180910390f35b610535610e21565b6040516105429190612386565b60405180910390f35b610565600480360381019061056091906123a1565b610e45565b005b610581600480360381019061057c91906124dc565b610e6e565b60405161058e91906122a6565b60405180910390f35b61059f610ef5565b6040516105ac9190612386565b60405180910390f35b60007f5a05180f000000000000000000000000000000000000000000000000000000007bffffffffffffffffffffffffffffffffffffffffffffffffffffffff1916827bffffffffffffffffffffffffffffffffffffffffffffffffffffffff19161480610628575061062782610fc7565b5b9050919050565b60606005805461063e9061254b565b80601f016020809104026020016040519081016040528092919081815260200182805461066a9061254b565b80156106b75780601f1061068c576101008083540402835291602001916106b7565b820191906000526020600020905b81548152906001019060200180831161069a57829003601f168201915b5050505050905090565b60006106d56106ce611041565b8484611049565b6001905092915050565b6000600454905090565b60006106f6848484611212565b6000600360008673ffffffffffffffffffffffffffffffffffffffff1673ffffffffffffffffffffffffffffffffffffffff1681526020019081526020016000206000610741611041565b73ffffffffffffffffffffffffffffffffffffffff1673ffffffffffffffffffffffffffffffffffffffff168152602001908152602001600020549050828110156107c1576040517f08c379a00000000000000000000000000000000000000000000000000000000081526004016107b8906125ee565b60405180910390fd5b6107d5856107cd611041565b858403611049565b60019150509392505050565b6000806000838152602001908152602001600020600101549050919050565b610809826107e1565b61081a81610815611041565b611494565b6108248383611531565b505050565b60006012905090565b61083a611041565b73ffffffffffffffffffffffffffffffffffffffff168173ffffffffffffffffffffffffffffffffffffffff16146108a7576040517f08c379a000000000000000000000000000000000000000000000000000000000815260040161089e90612680565b60405180910390fd5b6108b18282611565565b5050565b60006109576108c2611041565b8484600360006108d0611041565b73ffffffffffffffffffffffffffffffffffffffff1673ffffffffffffffffffffffffffffffffffffffff16815260200190815260200160002060008873ffffffffffffffffffffffffffffffffffffffff1673ffffffffffffffffffffffffffffffffffffffff1681526020019081526020016000205461095291906126cf565b611049565b6001905092915050565b6109927f65d7a28e3265b37a6474929f336521b332c1681b933f6cb9f3376673440d862a61098d611041565b610bf1565b6109d1576040517f08c379a00000000000000000000000000000000000000000000000000000000081526004016109c890612775565b60405180910390fd5b6109d9611599565b565b610a0c7f9f2df0fed2c77648de5860a4cc508cd0818c85b8b8a1ab4ceeef8d981c8956a6610a07611041565b610bf1565b610a4b576040517f08c379a0000000000000000000000000000000000000000000000000000000008152600401610a4290612807565b60405180910390fd5b610a55828261163b565b5050565b610a6a610a64611041565b8261179b565b50565b6000600760009054906101000a900460ff16905090565b6000600260008373ffffffffffffffffffffffffffffffffffffffff1673ffffffffffffffffffffffffffffffffffffffff168152602001908152602001600020549050919050565b6000610ae083610adb611041565b610e6e565b905081811015610b25576040517f08c379a0000000000000000000000000000000000000000000000000000000008152600401610b1c90612899565b60405180910390fd5b610b3983610b31611041565b848403611049565b610b43838361179b565b505050565b610b797f65d7a28e3265b37a6474929f336521b332c1681b933f6cb9f3376673440d862a610b74611041565b610bf1565b610bb8576040517f08c379a0000000000000000000000000000000000000000000000000000000008152600401610baf9061292b565b60405180910390fd5b610bc0611973565b565b6000610be98260016000868152602001908152602001600020611a1690919063ffffffff16565b905092915050565b600080600084815260200190815260200160002060000160008373ffffffffffffffffffffffffffffffffffffffff1673ffffffffffffffffffffffffffffffffffffffff16815260200190815260200160002060009054906101000a900460ff16905092915050565b606060068054610c6a9061254b565b80601f0160208091040260200160405190810160405280929190818152602001828054610c969061254b565b8015610ce35780601f10610cb857610100808354040283529160200191610ce3565b820191906000526020600020905b815481529060010190602001808311610cc657829003601f168201915b5050505050905090565b6000801b81565b60008060036000610d03611041565b73ffffffffffffffffffffffffffffffffffffffff1673ffffffffffffffffffffffffffffffffffffffff16815260200190815260200160002060008573ffffffffffffffffffffffffffffffffffffffff1673ffffffffffffffffffffffffffffffffffffffff16815260200190815260200160002054905082811015610dc0576040517f08c379a0000000000000000000000000000000000000000000000000000000008152600401610db7906129bd565b60405180910390fd5b610dd4610dcb611041565b85858403611049565b600191505092915050565b6000610df3610dec611041565b8484611212565b6001905092915050565b6000610e1a60016000848152602001908152602001600020611a30565b9050919050565b7f9f2df0fed2c77648de5860a4cc508cd0818c85b8b8a1ab4ceeef8d981c8956a681565b610e4e826107e1565b610e5f81610e5a611041565b611494565b610e698383611565565b505050565b6000600360008473ffffffffffffffffffffffffffffffffffffffff1673ffffffffffffffffffffffffffffffffffffffff16815260200190815260200160002060008373ffffffffffffffffffffffffffffffffffffffff1673ffffffffffffffffffffffffffffffffffffffff16815260200190815260200160002054905092915050565b7f65d7a28e3265b37a6474929f336521b332c1681b933f6cb9f3376673440d862a81565b610f238282610bf1565b610f9357600160008084815260200190815260200160002060000160008373ffffffffffffffffffffffffffffffffffffffff1673ffffffffffffffffffffffffffffffffffffffff16815260200190815260200160002060006101000a81548160ff0219169083151502179055505b5050565b6000610fbf836000018373ffffffffffffffffffffffffffffffffffffffff1660001b611a45565b905092915050565b60007f7965db0b000000000000000000000000000000000000000000000000000000007bffffffffffffffffffffffffffffffffffffffffffffffffffffffff1916827bffffffffffffffffffffffffffffffffffffffffffffffffffffffff1916148061103a575061103982611ab5565b5b9050919050565b600033905090565b600073ffffffffffffffffffffffffffffffffffffffff168373ffffffffffffffffffffffffffffffffffffffff16036110b8576040517f08c379a00000000000000000000000000000000000000000000000000000000081526004016110af90612a4f565b60405180910390fd5b600073ffffffffffffffffffffffffffffffffffffffff168273ffffffffffffffffffffffffffffffffffffffff1603611127576040517f08c379a000000000000000000000000000000000000000000000000000000000815260040161111e90612ae1565b60405180910390fd5b80600360008573ffffffffffffffffffffffffffffffffffffffff1673ffffffffffffffffffffffffffffffffffffffff16815260200190815260200160002060008473ffffffffffffffffffffffffffffffffffffffff1673ffffffffffffffffffffffffffffffffffffffff168152602001908152602001600020819055508173ffffffffffffffffffffffffffffffffffffffff168373ffffffffffffffffffffffffffffffffffffffff167f8c5be1e5ebec7d5bd14f71427d1e84f3dd0314c0f7b2291e5b200ac8c7c3b9258360405161120591906122a6565b60405180910390a3505050565b600073ffffffffffffffffffffffffffffffffffffffff168373ffffffffffffffffffffffffffffffffffffffff1603611281576040517f08c379a000000000000000000000000000000000000000000000000000000000815260040161127890612b73565b60405180910390fd5b600073ffffffffffffffffffffffffffffffffffffffff168273ffffffffffffffffffffffffffffffffffffffff16036112f0576040517f08c379a00000000000000000000000000000000000000000000000000000000081526004016112e790612c05565b60405180910390fd5b6112fb838383611b1f565b6000600260008573ffffffffffffffffffffffffffffffffffffffff1673ffffffffffffffffffffffffffffffffffffffff16815260200190815260200160002054905081811015611382576040517f08c379a000000000000000000000000000000000000000000000000000000000815260040161137990612c97565b60405180910390fd5b818103600260008673ffffffffffffffffffffffffffffffffffffffff1673ffffffffffffffffffffffffffffffffffffffff1681526020019081526020016000208190555081600260008573ffffffffffffffffffffffffffffffffffffffff1673ffffffffffffffffffffffffffffffffffffffff168152602001908152602001600020600082825461141791906126cf565b925050819055508273ffffffffffffffffffffffffffffffffffffffff168473ffffffffffffffffffffffffffffffffffffffff167fddf252ad1be2c89b69c2b068fc378daa952ba7f163c4a11628f55a4df523b3ef8460405161147b91906122a6565b60405180910390a361148e848484611b2f565b50505050565b61149e8282610bf1565b61152d576114c38173ffffffffffffffffffffffffffffffffffffffff166014611b34565b6114d18360001c6020611b34565b6040516020016114e2929190612d8b565b6040516020818303038152906040526040517f08c379a000000000000000000000000000000000000000000000000000000000815260040161152491906121a1565b60405180910390fd5b5050565b61153b8282610f19565b6115608160016000858152602001908152602001600020610f9790919063ffffffff16565b505050565b61156f8282611d70565b6115948160016000858152602001908152602001600020611e5190919063ffffffff16565b505050565b6115a1610a6d565b6115e0576040517f08c379a00000000000000000000000000000000000000000000000000000000081526004016115d790612e11565b60405180910390fd5b6000600760006101000a81548160ff0219169083151502179055507f5db9ee0a495bf2e6ff9c91a7834c1ba4fdd244a5e8aa4e537bd38aeae4b073aa611624611041565b60405161163191906124c1565b60405180910390a1565b600073ffffffffffffffffffffffffffffffffffffffff168273ffffffffffffffffffffffffffffffffffffffff16036116aa576040517f08c379a00000000000000000000000000000000000000000000000000000000081526004016116a190612e7d565b60405180910390fd5b6116b660008383611b1f565b80600460008282546116c891906126cf565b9250508190555080600260008473ffffffffffffffffffffffffffffffffffffffff1673ffffffffffffffffffffffffffffffffffffffff168152602001908152602001600020600082825461171e91906126cf565b925050819055508173ffffffffffffffffffffffffffffffffffffffff16600073ffffffffffffffffffffffffffffffffffffffff167fddf252ad1be2c89b69c2b068fc378daa952ba7f163c4a11628f55a4df523b3ef8360405161178391906122a6565b60405180910390a361179760008383611b2f565b5050565b600073ffffffffffffffffffffffffffffffffffffffff168273ffffffffffffffffffffffffffffffffffffffff160361180a576040517f08c379a000000000000000000000000000000000000000000000000000000000815260040161180190612f0f565b60405180910390fd5b61181682600083611b1f565b6000600260008473ffffffffffffffffffffffffffffffffffffffff1673ffffffffffffffffffffffffffffffffffffffff1681526020019081526020016000205490508181101561189d576040517f08c379a000000000000000000000000000000000000000000000000000000000815260040161189490612fa1565b60405180910390fd5b818103600260008573ffffffffffffffffffffffffffffffffffffffff1673ffffffffffffffffffffffffffffffffffffffff1681526020019081526020016000208190555081600460008282546118f59190612fc1565b92505081905550600073ffffffffffffffffffffffffffffffffffffffff168373ffffffffffffffffffffffffffffffffffffffff167fddf252ad1be2c89b69c2b068fc378daa952ba7f163c4a11628f55a4df523b3ef8460405161195a91906122a6565b60405180910390a361196e83600084611b2f565b505050565b61197b610a6d565b156119bb576040517f08c379a00000000000000000000000000000000000000000000000000000000081526004016119b290613041565b60405180910390fd5b6001600760006101000a81548160ff0219169083151502179055507f62e78cea01bee320cd4e420270b5ea74000d11b0c9f74754ebdbfc544b05a2586119ff611041565b604051611a0c91906124c1565b60405180910390a1565b6000611a258360000183611e81565b60001c905092915050565b6000611a3e82600001611eac565b9050919050565b6000611a518383611ebd565b611aaa578260000182908060018154018082558091505060019003906000526020600020016000909190919091505582600001805490508360010160008481526020019081526020016000208190555060019050611aaf565b600090505b92915050565b60007f01ffc9a7000000000000000000000000000000000000000000000000000000007bffffffffffffffffffffffffffffffffffffffffffffffffffffffff1916827bffffffffffffffffffffffffffffffffffffffffffffffffffffffff1916149050919050565b611b2a838383611ee0565b505050565b505050565b606060006002836002611b479190613061565b611b5191906126cf565b67ffffffffffffffff811115611b6a57611b696130a3565b5b6040519080825280601f01601f191660200182016040528015611b9c5781602001600182028036833780820191505090505b5090507f300000000000000000000000000000000000000000000000000000000000000081600081518110611bd457611bd36130d2565b5b60200101907effffffffffffffffffffffffffffffffffffffffffffffffffffffffffffff1916908160001a9053507f780000000000000000000000000000000000000000000000000000000000000081600181518110611c3857611c376130d2565b5b60200101907effffffffffffffffffffffffffffffffffffffffffffffffffffffffffffff1916908160001a90535060006001846002611c789190613061565b611c8291906126cf565b90505b6001811115611d22577f3031323334353637383961626364656600000000000000000000000000000000600f861660108110611cc457611cc36130d2565b5b1a60f81b828281518110611cdb57611cda6130d2565b5b60200101907effffffffffffffffffffffffffffffffffffffffffffffffffffffffffffff1916908160001a905350600485901c945080611d1b90613101565b9050611c85565b5060008414611d66576040517f08c379a0000000000000000000000000000000000000000000000000000000008152600401611d5d90613176565b60405180910390fd5b8091505092915050565b611d7a8282610bf1565b15611e4d57600080600084815260200190815260200160002060000160008373ffffffffffffffffffffffffffffffffffffffff1673ffffffffffffffffffffffffffffffffffffffff16815260200190815260200160002060006101000a81548160ff021916908315150217905550611df2611041565b73ffffffffffffffffffffffffffffffffffffffff168173ffffffffffffffffffffffffffffffffffffffff16837ff6391f5c32d9c69d2a47ea670b442974b53935d1edc7fd64eb21e047a839171b60405160405180910390a45b5050565b6000611e79836000018373ffffffffffffffffffffffffffffffffffffffff1660001b611f38565b905092915050565b6000826000018281548110611e9957611e986130d2565b5b9060005260206000200154905092915050565b600081600001805490509050919050565b600080836001016000848152602001908152602001600020541415905092915050565b611eeb83838361204c565b611ef3610a6d565b15611f33576040517f08c379a0000000000000000000000000000000000000000000000000000000008152600401611f2a90613208565b60405180910390fd5b505050565b60008083600101600084815260200190815260200160002054905060008114612040576000600182611f6a9190612fc1565b9050600060018660000180549050611f829190612fc1565b9050818114611ff1576000866000018281548110611fa357611fa26130d2565b5b9060005260206000200154905080876000018481548110611fc757611fc66130d2565b5b90600052602060002001819055508387600101600083815260200190815260200160002081905550505b8560000180548061200557612004613228565b5b600190038181906000526020600020016000905590558560010160008681526020019081526020016000206000905560019350505050612046565b60009150505b92915050565b505050565b600080fd5b60007fffffffff0000000000000000000000000000000000000000000000000000000082169050919050565b61208b81612056565b811461209657600080fd5b50565b6000813590506120a881612082565b92915050565b6000602082840312156120c4576120c3612051565b5b60006120d284828501612099565b91505092915050565b60008115159050919050565b6120f0816120db565b82525050565b600060208201905061210b60008301846120e7565b92915050565b600081519050919050565b600082825260208201905092915050565b60005b8381101561214b578082015181840152602081019050612130565b60008484015250505050565b6000601f19601f8301169050919050565b600061217382612111565b61217d818561211c565b935061218d81856020860161212d565b61219681612157565b840191505092915050565b600060208201905081810360008301526121bb8184612168565b905092915050565b600073ffffffffffffffffffffffffffffffffffffffff82169050919050565b60006121ee826121c3565b9050919050565b6121fe816121e3565b811461220957600080fd5b50565b60008135905061221b816121f5565b92915050565b6000819050919050565b61223481612221565b811461223f57600080fd5b50565b6000813590506122518161222b565b92915050565b6000806040838503121561226e5761226d612051565b5b600061227c8582860161220c565b925050602061228d85828601612242565b9150509250929050565b6122a081612221565b82525050565b60006020820190506122bb6000830184612297565b92915050565b6000806000606084860312156122da576122d9612051565b5b60006122e88682870161220c565b93505060206122f98682870161220c565b925050604061230a86828701612242565b9150509250925092565b6000819050919050565b61232781612314565b811461233257600080fd5b50565b6000813590506123448161231e565b92915050565b6000602082840312156123605761235f612051565b5b600061236e84828501612335565b91505092915050565b61238081612314565b82525050565b600060208201905061239b6000830184612377565b92915050565b600080604083850312156123b8576123b7612051565b5b60006123c685828601612335565b92505060206123d78582860161220c565b9150509250929050565b600060ff82169050919050565b6123f7816123e1565b82525050565b600060208201905061241260008301846123ee565b92915050565b60006020828403121561242e5761242d612051565b5b600061243c84828501612242565b91505092915050565b60006020828403121561245b5761245a612051565b5b60006124698482850161220c565b91505092915050565b6000806040838503121561248957612488612051565b5b600061249785828601612335565b92505060206124a885828601612242565b9150509250929050565b6124bb816121e3565b82525050565b60006020820190506124d660008301846124b2565b92915050565b600080604083850312156124f3576124f2612051565b5b60006125018582860161220c565b92505060206125128582860161220c565b9150509250929050565b7f4e487b7100000000000000000000000000000000000000000000000000000000600052602260045260246000fd5b6000600282049050600182168061256357607f821691505b6020821081036125765761257561251c565b5b50919050565b7f45524332303a207472616e7366657220616d6f756e742065786365656473206160008201527f6c6c6f77616e6365000000000000000000000000000000000000000000000000602082015250565b60006125d860288361211c565b91506125e38261257c565b604082019050919050565b60006020820190508181036000830152612607816125cb565b9050919050565b7f416363657373436f6e74726f6c3a2063616e206f6e6c792072656e6f756e636560008201527f20726f6c657320666f722073656c660000000000000000000000000000000000602082015250565b600061266a602f8361211c565b91506126758261260e565b604082019050919050565b600060208201905081810360008301526126998161265d565b9050919050565b7f4e487b7100000000000000000000000000000000000000000000000000000000600052601160045260246000fd5b60006126da82612221565b91506126e583612221565b92508282019050808211156126fd576126fc6126a0565b5b92915050565b7f45524332305072657365744d696e7465725061757365723a206d75737420686160008201527f76652070617573657220726f6c6520746f20756e706175736500000000000000602082015250565b600061275f60398361211c565b915061276a82612703565b604082019050919050565b6000602082019050818103600083015261278e81612752565b9050919050565b7f45524332305072657365744d696e7465725061757365723a206d75737420686160008201527f7665206d696e74657220726f6c6520746f206d696e7400000000000000000000602082015250565b60006127f160368361211c565b91506127fc82612795565b604082019050919050565b60006020820190508181036000830152612820816127e4565b9050919050565b7f45524332303a206275726e20616d6f756e74206578636565647320616c6c6f7760008201527f616e636500000000000000000000000000000000000000000000000000000000602082015250565b600061288360248361211c565b915061288e82612827565b604082019050919050565b600060208201905081810360008301526128b281612876565b9050919050565b7f45524332305072657365744d696e7465725061757365723a206d75737420686160008201527f76652070617573657220726f6c6520746f207061757365000000000000000000602082015250565b600061291560378361211c565b9150612920826128b9565b604082019050919050565b6000602082019050818103600083015261294481612908565b9050919050565b7f45524332303a2064656372656173656420616c6c6f77616e63652062656c6f7760008201527f207a65726f000000000000000000000000000000000000000000000000000000602082015250565b60006129a760258361211c565b91506129b28261294b565b604082019050919050565b600060208201905081810360008301526129d68161299a565b9050919050565b7f45524332303a20617070726f76652066726f6d20746865207a65726f2061646460008201527f7265737300000000000000000000000000000000000000000000000000000000602082015250565b6000612a3960248361211c565b9150612a44826129dd565b604082019050919050565b60006020820190508181036000830152612a6881612a2c565b9050919050565b7f45524332303a20617070726f766520746f20746865207a65726f20616464726560008201527f7373000000000000000000000000000000000000000000000000000000000000602082015250565b6000612acb60228361211c565b9150612ad682612a6f565b604082019050919050565b60006020820190508181036000830152612afa81612abe565b9050919050565b7f45524332303a207472616e736665722066726f6d20746865207a65726f20616460008201527f6472657373000000000000000000000000000000000000000000000000000000602082015250565b6000612b5d60258361211c565b9150612b6882612b01565b604082019050919050565b60006020820190508181036000830152612b8c81612b50565b9050919050565b7f45524332303a207472616e7366657220746f20746865207a65726f206164647260008201527f6573730000000000000000000000000000000000000000000000000000000000602082015250565b6000612bef60238361211c565b9150612bfa82612b93565b604082019050919050565b60006020820190508181036000830152612c1e81612be2565b9050919050565b7f45524332303a207472616e7366657220616d6f756e742065786365656473206260008201527f616c616e63650000000000000000000000000000000000000000000000000000602082015250565b6000612c8160268361211c565b9150612c8c82612c25565b604082019050919050565b60006020820190508181036000830152612cb081612c74565b9050919050565b600081905092915050565b7f416363657373436f6e74726f6c3a206163636f756e7420000000000000000000600082015250565b6000612cf8601783612cb7565b9150612d0382612cc2565b601782019050919050565b6000612d1982612111565b612d238185612cb7565b9350612d3381856020860161212d565b80840191505092915050565b7f206973206d697373696e6720726f6c6520000000000000000000000000000000600082015250565b6000612d75601183612cb7565b9150612d8082612d3f565b601182019050919050565b6000612d9682612ceb565b9150612da28285612d0e565b9150612dad82612d68565b9150612db98284612d0e565b91508190509392505050565b7f5061757361626c653a206e6f7420706175736564000000000000000000000000600082015250565b6000612dfb60148361211c565b9150612e0682612dc5565b602082019050919050565b60006020820190508181036000830152612e2a81612dee565b9050919050565b7f45524332303a206d696e7420746f20746865207a65726f206164647265737300600082015250565b6000612e67601f8361211c565b9150612e7282612e31565b602082019050919050565b60006020820190508181036000830152612e9681612e5a565b9050919050565b7f45524332303a206275726e2066726f6d20746865207a65726f2061646472657360008201527f7300000000000000000000000000000000000000000000000000000000000000602082015250565b6000612ef960218361211c565b9150612f0482612e9d565b604082019050919050565b60006020820190508181036000830152612f2881612eec565b9050919050565b7f45524332303a206275726e20616d6f756e7420657863656564732062616c616e60008201527f6365000000000000000000000000000000000000000000000000000000000000602082015250565b6000612f8b60228361211c565b9150612f9682612f2f565b604082019050919050565b60006020820190508181036000830152612fba81612f7e565b9050919050565b6000612fcc82612221565b9150612fd783612221565b9250828203905081811115612fef57612fee6126a0565b5b92915050565b7f5061757361626c653a2070617573656400000000000000000000000000000000600082015250565b600061302b60108361211c565b915061303682612ff5565b602082019050919050565b6000602082019050818103600083015261305a8161301e565b9050919050565b600061306c82612221565b915061307783612221565b925082820261308581612221565b9150828204841483151761309c5761309b6126a0565b5b5092915050565b7f4e487b7100000000000000000000000000000000000000000000000000000000600052604160045260246000fd5b7f4e487b7100000000000000000000000000000000000000000000000000000000600052603260045260246000fd5b600061310c82612221565b91506000820361311f5761311e6126a0565b5b600182039050919050565b7f537472696e67733a20686578206c656e67746820696e73756666696369656e74600082015250565b600061316060208361211c565b915061316b8261312a565b602082019050919050565b6000602082019050818103600083015261318f81613153565b9050919050565b7f45524332305061757361626c653a20746f6b656e207472616e7366657220776860008201527f696c652070617573656400000000000000000000000000000000000000000000602082015250565b60006131f2602a8361211c565b91506131fd82613196565b604082019050919050565b60006020820190508181036000830152613221816131e5565b9050919050565b7f4e487b7100000000000000000000000000000000000000000000000000000000600052603160045260246000fdfea264697066735822122099be7b7fff1c31c6bc9ee326f39d10cdfaa1a43009a8f51aac5f6276a853ac5764736f6c63430008110033",
  "linkReferences": {},
  "deployedLinkReferences": {}
}