{
	"data": {
		"bytecode": {
			"linkReferences": {},
			"object": "60806040523480156200001157600080fd5b5060405162004715380380620047158339818101604052810190620000379190620003e6565b8160005b81518160ff161015620000a6576200009a7fa49807205ce4d355092ef5a8a18f56e8913cf4a201fbe287825b095693c21775838360ff16815181106200008657620000856200044c565b5b6020026020010151620000f160201b60201c565b8060010190506200003b565b505080600360006101000a81548173ffffffffffffffffffffffffffffffffffffffff021916908373ffffffffffffffffffffffffffffffffffffffff16021790555050506200047b565b6200010382826200010760201b60201c565b5050565b6200011982826200018e60201b60201c565b6200018a57600160008084815260200190815260200160002060000160008373ffffffffffffffffffffffffffffffffffffffff1673ffffffffffffffffffffffffffffffffffffffff16815260200190815260200160002060006101000a81548160ff0219169083151502179055505b5050565b600080600084815260200190815260200160002060000160008373ffffffffffffffffffffffffffffffffffffffff1673ffffffffffffffffffffffffffffffffffffffff16815260200190815260200160002060009054906101000a900460ff16905092915050565b6000604051905090565b600080fd5b600080fd5b600080fd5b6000601f19601f8301169050919050565b7f4e487b7100000000000000000000000000000000000000000000000000000000600052604160045260246000fd5b6200025c8262000211565b810181811067ffffffffffffffff821117156200027e576200027d62000222565b5b80604052505050565b600062000293620001f8565b9050620002a1828262000251565b919050565b600067ffffffffffffffff821115620002c457620002c362000222565b5b602082029050602081019050919050565b600080fd5b600073ffffffffffffffffffffffffffffffffffffffff82169050919050565b60006200030782620002da565b9050919050565b6200031981620002fa565b81146200032557600080fd5b50565b60008151905062000339816200030e565b92915050565b6000620003566200035084620002a6565b62000287565b905080838252602082019050602084028301858111156200037c576200037b620002d5565b5b835b81811015620003a9578062000394888262000328565b8452602084019350506020810190506200037e565b5050509392505050565b600082601f830112620003cb57620003ca6200020c565b5b8151620003dd8482602086016200033f565b91505092915050565b600080604083850312156200040057620003ff62000202565b5b600083015167ffffffffffffffff81111562000421576200042062000207565b5b6200042f85828601620003b3565b9250506020620004428582860162000328565b9150509250929050565b7f4e487b7100000000000000000000000000000000000000000000000000000000600052603260045260246000fd5b61428a806200048b6000396000f3fe60806040526004361061011f5760003560e01c806391d14854116100a0578063d547741f11610064578063d547741f1461042a578063e5fcd6b814610453578063f49124501461047c578063f63d13d7146104b9578063f7e88663146104d05761011f565b806391d1485414610317578063985d0b1e14610354578063a217fddf1461037f578063b22e8569146103aa578063bfbd58fc146103ed5761011f565b80632f2ff15d116100e75780632f2ff15d1461025557806336568abe1461027e57806362f9f841146102a75780636763ccbd146102d257806377da63c4146102fb5761011f565b806301ffc9a714610124578063166d4c6f146101615780631a7fd6c61461019e5780631e7f7e09146101db578063248a9ca314610218575b600080fd5b34801561013057600080fd5b5061014b60048036038101906101469190612b29565b6104f9565b6040516101589190612b71565b60405180910390f35b34801561016d57600080fd5b5061018860048036038101906101839190612cd2565b610573565b6040516101959190612d3e565b60405180910390f35b3480156101aa57600080fd5b506101c560048036038101906101c09190612d85565b6105b0565b6040516101d29190612b71565b60405180910390f35b3480156101e757600080fd5b5061020260048036038101906101fd9190612cd2565b6105f5565b60405161020f9190612dfa565b60405180910390f35b34801561022457600080fd5b5061023f600480360381019061023a9190612e4b565b610623565b60405161024c9190612e87565b60405180910390f35b34801561026157600080fd5b5061027c60048036038101906102779190612f00565b610642565b005b34801561028a57600080fd5b506102a560048036038101906102a09190612f00565b61066b565b005b3480156102b357600080fd5b506102bc6106ee565b6040516102c99190612b71565b60405180910390f35b3480156102de57600080fd5b506102f960048036038101906102f49190612cd2565b6107a4565b005b61031560048036038101906103109190612f6c565b610839565b005b34801561032357600080fd5b5061033e60048036038101906103399190612f00565b6108d6565b60405161034b9190612b71565b60405180910390f35b34801561036057600080fd5b50610369610940565b604051610376919061304e565b60405180910390f35b34801561038b57600080fd5b50610394610966565b6040516103a19190612e87565b60405180910390f35b3480156103b657600080fd5b506103d160048036038101906103cc9190612cd2565b61096d565b6040516103e4979695949392919061316e565b60405180910390f35b3480156103f957600080fd5b50610414600480360381019061040f9190612cd2565b610a7a565b60405161042191906131e4565b60405180910390f35b34801561043657600080fd5b50610451600480360381019061044c9190612f00565b610b8c565b005b34801561045f57600080fd5b5061047a600480360381019061047591906131ff565b610bb5565b005b34801561048857600080fd5b506104a3600480360381019061049e919061322c565b610c35565b6040516104b09190612dfa565b60405180910390f35b3480156104c557600080fd5b506104ce610c70565b005b3480156104dc57600080fd5b506104f760048036038101906104f291906132ad565b610d7a565b005b60007f7965db0b000000000000000000000000000000000000000000000000000000007bffffffffffffffffffffffffffffffffffffffffffffffffffffffff1916827bffffffffffffffffffffffffffffffffffffffffffffffffffffffff1916148061056c575061056b82610df1565b5b9050919050565b6006818051602081018201805184825260208301602085012081835280955050505050506000915054906101000a900467ffffffffffffffff1681565b6002828051602081018201805184825260208301602085012081835280955050505050506020528060005260406000206000915091509054906101000a900460ff1681565b6005818051602081018201805184825260208301602085012081835280955050505050506000915090505481565b6000806000838152602001908152602001600020600101549050919050565b61064b82610623565b61065c81610657610e5b565b610e63565b6106668383610f00565b505050565b610673610e5b565b73ffffffffffffffffffffffffffffffffffffffff168173ffffffffffffffffffffffffffffffffffffffff16146106e0576040517f08c379a00000000000000000000000000000000000000000000000000000000081526004016106d79061338c565b60405180910390fd5b6106ea8282610f7e565b5050565b600080600360009054906101000a900473ffffffffffffffffffffffffffffffffffffffff1673ffffffffffffffffffffffffffffffffffffffff166370a08231336040518263ffffffff1660e01b815260040161074c91906133ac565b602060405180830381865afa158015610769573d6000803e3d6000fd5b505050506040513d601f19601f8201168201806040525081019061078d91906133dc565b111561079c57600190506107a1565b600090505b90565b6004808111156107b7576107b66130f7565b5b6107c082610a7a565b60048111156107d2576107d16130f7565b5b146107dc57600080fd5b6108366006826040516107ef9190613445565b908152602001604051809103902060009054906101000a900467ffffffffffffffff166005836040516108229190613445565b90815260200160405180910390205461105f565b50565b6108637f829b824e2329e205435d941c9f13baf578548505283d29261236d8e6596d4636336108d6565b6108a2576040517f08c379a0000000000000000000000000000000000000000000000000000000008152600401610899906134a8565b60405180910390fd5b6108ad848484611090565b806005856040516108be9190613445565b90815260200160405180910390208190555050505050565b600080600084815260200190815260200160002060000160008373ffffffffffffffffffffffffffffffffffffffff1673ffffffffffffffffffffffffffffffffffffffff16815260200190815260200160002060009054906101000a900460ff16905092915050565b600360009054906101000a900473ffffffffffffffffffffffffffffffffffffffff1681565b6000801b81565b6001818051602081018201805184825260208301602085012081835280955050505050506000915090508060000160009054906101000a900473ffffffffffffffffffffffffffffffffffffffff16908060010180546109cc906134f7565b80601f01602080910402602001604051908101604052809291908181526020018280546109f8906134f7565b8015610a455780601f10610a1a57610100808354040283529160200191610a45565b820191906000526020600020905b815481529060010190602001808311610a2857829003601f168201915b5050505050908060020154908060030154908060040154908060050154908060060160009054906101000a900460ff16905087565b600060036004811115610a9057610a8f6130f7565b5b600183604051610aa09190613445565b908152602001604051809103902060060160009054906101000a900460ff166004811115610ad157610ad06130f7565b5b148015610b475750600182604051610ae99190613445565b908152602001604051809103902060050154610b4462015180610b36600186604051610b159190613445565b908152602001604051809103902060040154426111cf90919063ffffffff16565b6111e590919063ffffffff16565b10155b15610b555760049050610b87565b600182604051610b659190613445565b908152602001604051809103902060060160009054906101000a900460ff1690505b919050565b610b9582610623565b610ba681610ba1610e5b565b610e63565b610bb08383610f7e565b505050565b6000610bc0826111fb565b90506000610be560405180602001604052808567ffffffffffffffff16815250611313565b90508160068260000151604051610bfc9190613445565b908152602001604051809103902060006101000a81548167ffffffffffffffff021916908367ffffffffffffffff160217905550505050565b600482805160208101820180518482526020830160208501208183528095505050505050602052806000526040600020600091509150505481565b6000600360009054906101000a900473ffffffffffffffffffffffffffffffffffffffff1673ffffffffffffffffffffffffffffffffffffffff166370a08231336040518263ffffffff1660e01b8152600401610ccd91906133ac565b602060405180830381865afa158015610cea573d6000803e3d6000fd5b505050506040513d601f19601f82011682018060405250810190610d0e91906133dc565b11610d4e576040517f08c379a0000000000000000000000000000000000000000000000000000000008152600401610d459061359a565b60405180910390fd5b610d78337f829b824e2329e205435d941c9f13baf578548505283d29261236d8e6596d4636611397565b565b610da47fa49807205ce4d355092ef5a8a18f56e8913cf4a201fbe287825b095693c21775336108d6565b610de3576040517f08c379a0000000000000000000000000000000000000000000000000000000008152600401610dda90613606565b60405180910390fd5b610ded82826113a5565b5050565b60007f01ffc9a7000000000000000000000000000000000000000000000000000000007bffffffffffffffffffffffffffffffffffffffffffffffffffffffff1916827bffffffffffffffffffffffffffffffffffffffffffffffffffffffff1916149050919050565b600033905090565b610e6d82826108d6565b610efc57610e928173ffffffffffffffffffffffffffffffffffffffff166014611452565b610ea08360001c6020611452565b604051602001610eb1929190613705565b6040516020818303038152906040526040517f08c379a0000000000000000000000000000000000000000000000000000000008152600401610ef39190613778565b60405180910390fd5b5050565b610f0a82826108d6565b610f7a57600160008084815260200190815260200160002060000160008373ffffffffffffffffffffffffffffffffffffffff1673ffffffffffffffffffffffffffffffffffffffff16815260200190815260200160002060006101000a81548160ff0219169083151502179055505b5050565b610f8882826108d6565b1561105b57600080600084815260200190815260200160002060000160008373ffffffffffffffffffffffffffffffffffffffff1673ffffffffffffffffffffffffffffffffffffffff16815260200190815260200160002060006101000a81548160ff021916908315150217905550611000610e5b565b73ffffffffffffffffffffffffffffffffffffffff168173ffffffffffffffffffffffffffffffffffffffff16837ff6391f5c32d9c69d2a47ea670b442974b53935d1edc7fd64eb21e047a839171b60405160405180910390a45b5050565b600060405180602001604052806000815250905060609050611087600083600080858861168e565b50505050505050565b60006040518060e001604052803373ffffffffffffffffffffffffffffffffffffffff1681526020018581526020018481526020016000815260200160008152602001838152602001600060048111156110ed576110ec6130f7565b5b8152509050806001856040516111039190613445565b908152602001604051809103902060008201518160000160006101000a81548173ffffffffffffffffffffffffffffffffffffffff021916908373ffffffffffffffffffffffffffffffffffffffff160217905550602082015181600101908161116d919061393c565b5060408201518160020155606082015181600301556080820151816004015560a0820151816005015560c08201518160060160006101000a81548160ff021916908360048111156111c1576111c06130f7565b5b021790555090505050505050565b600081836111dd9190613a3d565b905092915050565b600081836111f39190613aa0565b905092915050565b60008061121f60405180602001604052808567ffffffffffffffff16815250611313565b9050600061124460405180602001604052808667ffffffffffffffff1681525061177c565b905061126782600001518260000151846020015167ffffffffffffffff16611800565b600061128a60405180602001604052808767ffffffffffffffff1681525061196c565b90506003600184600001516040516112a29190613445565b908152602001604051809103902060060160006101000a81548160ff021916908360048111156112d5576112d46130f7565b5b021790555042600184600001516040516112ef9190613445565b90815260200160405180910390206004018190555080600001519350505050919050565b61131b612a25565b6000611326836119f0565b9050600061136f634505760a6040518060400160405280600281526020017e05000000000000000000000000000000000000000000000000000000000000815250846071611a28565b9050611379612a25565b61138c8282611a5390919063ffffffff16565b809350505050919050565b6113a18183611ad4565b5050565b600160048111156113b9576113b86130f7565b5b8160048111156113cc576113cb6130f7565b5b14806113fc5750600260048111156113e7576113e66130f7565b5b8160048111156113fa576113f96130f7565b5b145b61140557600080fd5b806001836040516114169190613445565b908152602001604051809103902060060160006101000a81548160ff02191690836004811115611449576114486130f7565b5b02179055505050565b6060600060028360026114659190613ad1565b61146f9190613b13565b67ffffffffffffffff81111561148857611487612ba7565b5b6040519080825280601f01601f1916602001820160405280156114ba5781602001600182028036833780820191505090505b5090507f3000000000000000000000000000000000000000000000000000000000000000816000815181106114f2576114f1613b47565b5b60200101907effffffffffffffffffffffffffffffffffffffffffffffffffffffffffffff1916908160001a9053507f78000000000000000000000000000000000000000000000000000000000000008160018151811061155657611555613b47565b5b60200101907effffffffffffffffffffffffffffffffffffffffffffffffffffffffffffff1916908160001a905350600060018460026115969190613ad1565b6115a09190613b13565b90505b6001811115611640577f3031323334353637383961626364656600000000000000000000000000000000600f8616601081106115e2576115e1613b47565b5b1a60f81b8282815181106115f9576115f8613b47565b5b60200101907effffffffffffffffffffffffffffffffffffffffffffffffffffffffffffff1916908160001a905350600485901c94508061163990613b76565b90506115a3565b5060008414611684576040517f08c379a000000000000000000000000000000000000000000000000000000000815260040161167b90613beb565b60405180910390fd5b8091505092915050565b6000806000606060008073fe0000000000000000000000000000000000000573ffffffffffffffffffffffffffffffffffffffff168c8c8c8c8c8c6040516020016116de96959493929190613c0b565b6040516020818303038152906040526040516116fa9190613445565b600060405180830381855af49150503d8060008114611735576040519150601f19603f3d011682016040523d82523d6000602084013e61173a565b606091505b50915091506000806000838060200190518101906117589190613d2e565b92509250925084838383985098509850985050505050509650965096509692505050565b611784612a49565b600061178f83611ae2565b905060006117d86337bc36da6040518060400160405280600281526020017e05000000000000000000000000000000000000000000000000000000000000815250846071611a28565b90506117e2612a49565b6117f58282611b1a90919063ffffffff16565b809350505050919050565b60016004811115611814576118136130f7565b5b6001846040516118249190613445565b908152602001604051809103902060060160009054906101000a900460ff166004811115611855576118546130f7565b5b1461185f57600080fd5b806001846040516118709190613445565b908152602001604051809103902060020154146118c2576040517f08c379a00000000000000000000000000000000000000000000000000000000081526004016118b990613de9565b60405180910390fd5b6118cc8383611b55565b61190b576040517f08c379a000000000000000000000000000000000000000000000000000000000815260040161190290613e7b565b60405180910390fd5b600160028460405161191d9190613445565b908152602001604051809103902060008467ffffffffffffffff1667ffffffffffffffff16815260200190815260200160002060006101000a81548160ff021916908315150217905550505050565b611974612a66565b600061197f83611bb6565b905060006119c86307a1f0516040518060400160405280600281526020017e05000000000000000000000000000000000000000000000000000000000000815250846071611a28565b90506119d2612a66565b6119e58282611bee90919063ffffffff16565b809350505050919050565b606060006119fe6040611c29565b9050611a17836000015182611c5090919063ffffffff16565b611a2081611c60565b915050919050565b6060611a49611a3686611cb9565b67ffffffffffffffff1685858534611cc3565b9050949350505050565b600080611a698284611d6890919063ffffffff16565b80935081925050506000811115611ace57611a8d8284611db790919063ffffffff16565b856000018194508290525050611aac8284611f6190919063ffffffff16565b856020018194508267ffffffffffffffff1667ffffffffffffffff1681525050505b50505050565b611ade8282610f00565b5050565b60606000611af06040611c29565b9050611b09836000015182611c5090919063ffffffff16565b611b1281611c60565b915050919050565b6000611b2f8183611f6190919063ffffffff16565b846000018193508267ffffffffffffffff1667ffffffffffffffff168152505050505050565b600080600284604051611b689190613445565b908152602001604051809103902060008467ffffffffffffffff1667ffffffffffffffff16815260200190815260200160002060009054906101000a900460ff169050801591505092915050565b60606000611bc46040611c29565b9050611bdd836000015182611c5090919063ffffffff16565b611be681611c60565b915050919050565b6000611c038183611f6190919063ffffffff16565b846000018193508267ffffffffffffffff1667ffffffffffffffff168152505050505050565b611c31612a83565b611c3f816000015183611fb0565b506000816020018181525050919050565b611c5c82600083612029565b5050565b60606000826020015114611ca9576040517f08c379a0000000000000000000000000000000000000000000000000000000008152600401611ca090613ee7565b60405180910390fd5b8160000151600001519050919050565b6000819050919050565b6060600080600080611ce2611cd78b611cb9565b8760008a8c8e6121d2565b935093509350935060008314611cf7846122c0565b604051602001611d079190613f2d565b60405160208183030381529060405290611d57576040517f08c379a0000000000000000000000000000000000000000000000000000000008152600401611d4e9190613778565b60405180910390fd5b508094505050505095945050505050565b600080600080611d78868661238e565b8167ffffffffffffffff169150809750819350829450505050600460ff168260ff1614611da857611da7613f53565b5b80859350935050509250929050565b60606000806000611dc8868661238e565b8167ffffffffffffffff169150809750819350829450505050600660ff168260ff161480611dfc5750600260ff168260ff16145b611e0957611e08613f53565b5b600660ff168260ff1603611e5257611e21868661238e565b8167ffffffffffffffff169150809750819350829450505050600260ff168260ff1614611e5157611e50613f53565b5b5b60008186611e609190613b13565b905060008267ffffffffffffffff811115611e7e57611e7d612ba7565b5b6040519080825280601f01601f191660200182016040528015611eb05781602001600182028036833780820191505090505b5090506000808890505b83811015611f4357898181518110611ed557611ed4613b47565b5b602001015160f81c60f81b838381518110611ef357611ef2613b47565b5b60200101907effffffffffffffffffffffffffffffffffffffffffffffffffffffffffffff1916908160001a9053508180611f2d90613f82565b9250508080611f3b90613f82565b915050611eba565b50818489611f519190613b13565b9650965050505050509250929050565b600080600080611f71868661238e565b8167ffffffffffffffff169150809750819350829450505050600060ff168260ff1614611fa157611fa0613f53565b5b80859350935050509250929050565b611fb8612aa3565b6000602083611fc79190613fca565b14611ff357602082611fd99190613fca565b6020611fe59190613a3d565b82611ff09190613b13565b91505b81836020018181525050604051808452600081528281016020018181101561201a57600080fd5b80604052505082905092915050565b60178167ffffffffffffffff16116120645761205e8160058460ff16901b60ff1617846000015161251c90919063ffffffff16565b506121cd565b60ff8167ffffffffffffffff16116120c257612097601860058460ff16901b17846000015161251c90919063ffffffff16565b506120bc8167ffffffffffffffff16600185600001516125869092919063ffffffff16565b506121cc565b61ffff8167ffffffffffffffff1611612121576120f6601960058460ff16901b17846000015161251c90919063ffffffff16565b5061211b8167ffffffffffffffff16600285600001516125869092919063ffffffff16565b506121cb565b63ffffffff8167ffffffffffffffff161161218257612157601a60058460ff16901b17846000015161251c90919063ffffffff16565b5061217c8167ffffffffffffffff16600485600001516125869092919063ffffffff16565b506121ca565b6121a3601b60058460ff16901b17846000015161251c90919063ffffffff16565b506121c88167ffffffffffffffff16600885600001516125869092919063ffffffff16565b505b5b5b5b505050565b6000806000606060008073fe0000000000000000000000000000000000000373ffffffffffffffffffffffffffffffffffffffff168c8c8c8c8c8c60405160200161222296959493929190613ffb565b60405160208183030381529060405260405161223e9190613445565b600060405180830381855af49150503d8060008114612279576040519150601f19603f3d011682016040523d82523d6000602084013e61227e565b606091505b509150915060008060008380602001905181019061229c9190613d2e565b92509250925084838383985098509850985050505050509650965096509692505050565b6060600060016122cf84612613565b01905060008167ffffffffffffffff8111156122ee576122ed612ba7565b5b6040519080825280601f01601f1916602001820160405280156123205781602001600182028036833780820191505090505b509050600082602001820190505b600115612383578080600190039150507f3031323334353637383961626364656600000000000000000000000000000000600a86061a8153600a858161237757612376613a71565b5b0494506000850361232e575b819350505050919050565b60008060008061239e8686612766565b90506001856123ad9190613b13565b94506000600560e0831660ff16901c90506000601f83169050601c8160ff16106123da576123d9613f53565b5b60188160ff1610156123fd578181888160ff169150955095509550505050612515565b60188160ff16036124525760006124148989612766565b90506001886124239190613b13565b975060188160ff16101561243a57612439613f53565b5b8281898160ff16915096509650965050505050612515565b60198160ff160361249357600061246989896127cd565b90506002886124789190613b13565b97508281898161ffff16915096509650965050505050612515565b601a8160ff16036124d65760006124aa8989612834565b90506004886124b99190613b13565b97508281898163ffffffff16915096509650965050505050612515565b601b8160ff16146124ea576124e9613f53565b5b60006124f6898961289b565b90506008886125059190613b13565b9750828189965096509650505050505b9250925092565b612524612aa3565b60008360000151519050600060018261253d9190613b13565b905084602001518210612561576125608560028361255b9190613ad1565b612902565b5b84516020838201018581538151831115612579578282525b5050849250505092915050565b61258e612aa3565b60008460000151519050600081846125a69190613b13565b905085602001518111156125cb576125ca866002836125c59190613ad1565b612902565b5b60006001856101006125dd919061419d565b6125e79190613a3d565b905086518281018783198251161781528151841115612604578382525b50508693505050509392505050565b600080600090507a184f03e93ff9f4daa797ed6e38ed64bf6a1f0100000000000000008310612671577a184f03e93ff9f4daa797ed6e38ed64bf6a1f010000000000000000838161266757612666613a71565b5b0492506040810190505b6d04ee2d6d415b85acef810000000083106126ae576d04ee2d6d415b85acef810000000083816126a4576126a3613a71565b5b0492506020810190505b662386f26fc1000083106126dd57662386f26fc1000083816126d3576126d2613a71565b5b0492506010810190505b6305f5e1008310612706576305f5e10083816126fc576126fb613a71565b5b0492506008810190505b612710831061272b57612710838161272157612720613a71565b5b0492506004810190505b6064831061274e576064838161274457612743613a71565b5b0492506002810190505b600a831061275d576001810190505b80915050919050565b60006001826127759190613b13565b835110156127b8576040517f08c379a00000000000000000000000000000000000000000000000000000000081526004016127af90614234565b60405180910390fd5b60008260010184015190508091505092915050565b60006002826127dc9190613b13565b8351101561281f576040517f08c379a000000000000000000000000000000000000000000000000000000000815260040161281690614234565b60405180910390fd5b60008260020184015190508091505092915050565b60006004826128439190613b13565b83511015612886576040517f08c379a000000000000000000000000000000000000000000000000000000000815260040161287d90614234565b60405180910390fd5b60008260040184015190508091505092915050565b60006008826128aa9190613b13565b835110156128ed576040517f08c379a00000000000000000000000000000000000000000000000000000000081526004016128e490614234565b60405180910390fd5b60008260080184015190508091505092915050565b6000826000015190506129158383611fb0565b506129208382612926565b50505050565b61292e612aa3565b61293a83838451612942565b905092915050565b61294a612aa3565b825182111561295857600080fd5b60008460000151519050600083826129709190613b13565b90508560200151811115612995576129948660028361298f9190613ad1565b612902565b5b600080875180518560208301019350808511156129b0578482525b60208901925050505b602086106129f757805182526020826129d29190613b13565b91506020816129e19190613b13565b90506020866129f09190613a3d565b95506129b9565b60006001876020036101000a0390508019825116818451168181178552505050879450505050509392505050565b604051806040016040528060608152602001600067ffffffffffffffff1681525090565b6040518060200160405280600067ffffffffffffffff1681525090565b6040518060200160405280600067ffffffffffffffff1681525090565b6040518060400160405280612a96612aa3565b8152602001600081525090565b604051806040016040528060608152602001600081525090565b6000604051905090565b600080fd5b600080fd5b60007fffffffff0000000000000000000000000000000000000000000000000000000082169050919050565b612b0681612ad1565b8114612b1157600080fd5b50565b600081359050612b2381612afd565b92915050565b600060208284031215612b3f57612b3e612ac7565b5b6000612b4d84828501612b14565b91505092915050565b60008115159050919050565b612b6b81612b56565b82525050565b6000602082019050612b866000830184612b62565b92915050565b600080fd5b600080fd5b6000601f19601f8301169050919050565b7f4e487b7100000000000000000000000000000000000000000000000000000000600052604160045260246000fd5b612bdf82612b96565b810181811067ffffffffffffffff82111715612bfe57612bfd612ba7565b5b80604052505050565b6000612c11612abd565b9050612c1d8282612bd6565b919050565b600067ffffffffffffffff821115612c3d57612c3c612ba7565b5b612c4682612b96565b9050602081019050919050565b82818337600083830152505050565b6000612c75612c7084612c22565b612c07565b905082815260208101848484011115612c9157612c90612b91565b5b612c9c848285612c53565b509392505050565b600082601f830112612cb957612cb8612b8c565b5b8135612cc9848260208601612c62565b91505092915050565b600060208284031215612ce857612ce7612ac7565b5b600082013567ffffffffffffffff811115612d0657612d05612acc565b5b612d1284828501612ca4565b91505092915050565b600067ffffffffffffffff82169050919050565b612d3881612d1b565b82525050565b6000602082019050612d536000830184612d2f565b92915050565b612d6281612d1b565b8114612d6d57600080fd5b50565b600081359050612d7f81612d59565b92915050565b60008060408385031215612d9c57612d9b612ac7565b5b600083013567ffffffffffffffff811115612dba57612db9612acc565b5b612dc685828601612ca4565b9250506020612dd785828601612d70565b9150509250929050565b6000819050919050565b612df481612de1565b82525050565b6000602082019050612e0f6000830184612deb565b92915050565b6000819050919050565b612e2881612e15565b8114612e3357600080fd5b50565b600081359050612e4581612e1f565b92915050565b600060208284031215612e6157612e60612ac7565b5b6000612e6f84828501612e36565b91505092915050565b612e8181612e15565b82525050565b6000602082019050612e9c6000830184612e78565b92915050565b600073ffffffffffffffffffffffffffffffffffffffff82169050919050565b6000612ecd82612ea2565b9050919050565b612edd81612ec2565b8114612ee857600080fd5b50565b600081359050612efa81612ed4565b92915050565b60008060408385031215612f1757612f16612ac7565b5b6000612f2585828601612e36565b9250506020612f3685828601612eeb565b9150509250929050565b612f4981612de1565b8114612f5457600080fd5b50565b600081359050612f6681612f40565b92915050565b60008060008060808587031215612f8657612f85612ac7565b5b600085013567ffffffffffffffff811115612fa457612fa3612acc565b5b612fb087828801612ca4565b9450506020612fc187828801612f57565b9350506040612fd287828801612f57565b9250506060612fe387828801612f57565b91505092959194509250565b6000819050919050565b600061301461300f61300a84612ea2565b612fef565b612ea2565b9050919050565b600061302682612ff9565b9050919050565b60006130388261301b565b9050919050565b6130488161302d565b82525050565b6000602082019050613063600083018461303f565b92915050565b61307281612ec2565b82525050565b600081519050919050565b600082825260208201905092915050565b60005b838110156130b2578082015181840152602081019050613097565b60008484015250505050565b60006130c982613078565b6130d38185613083565b93506130e3818560208601613094565b6130ec81612b96565b840191505092915050565b7f4e487b7100000000000000000000000000000000000000000000000000000000600052602160045260246000fd5b60058110613137576131366130f7565b5b50565b600081905061314882613126565b919050565b60006131588261313a565b9050919050565b6131688161314d565b82525050565b600060e082019050613183600083018a613069565b818103602083015261319581896130be565b90506131a46040830188612deb565b6131b16060830187612deb565b6131be6080830186612deb565b6131cb60a0830185612deb565b6131d860c083018461315f565b98975050505050505050565b60006020820190506131f9600083018461315f565b92915050565b60006020828403121561321557613214612ac7565b5b600061322384828501612d70565b91505092915050565b6000806040838503121561324357613242612ac7565b5b600083013567ffffffffffffffff81111561326157613260612acc565b5b61326d85828601612ca4565b925050602061327e85828601612eeb565b9150509250929050565b6005811061329557600080fd5b50565b6000813590506132a781613288565b92915050565b600080604083850312156132c4576132c3612ac7565b5b600083013567ffffffffffffffff8111156132e2576132e1612acc565b5b6132ee85828601612ca4565b92505060206132ff85828601613298565b9150509250929050565b600082825260208201905092915050565b7f416363657373436f6e74726f6c3a2063616e206f6e6c792072656e6f756e636560008201527f20726f6c657320666f722073656c660000000000000000000000000000000000602082015250565b6000613376602f83613309565b91506133818261331a565b604082019050919050565b600060208201905081810360008301526133a581613369565b9050919050565b60006020820190506133c16000830184613069565b92915050565b6000815190506133d681612f40565b92915050565b6000602082840312156133f2576133f1612ac7565b5b6000613400848285016133c7565b91505092915050565b600081905092915050565b600061341f82613078565b6134298185613409565b9350613439818560208601613094565b80840191505092915050565b60006134518284613414565b915081905092915050565b7f43616c6c6572206973206e6f742061206d696e74657200000000000000000000600082015250565b6000613492601683613309565b915061349d8261345c565b602082019050919050565b600060208201905081810360008301526134c181613485565b9050919050565b7f4e487b7100000000000000000000000000000000000000000000000000000000600052602260045260246000fd5b6000600282049050600182168061350f57607f821691505b602082108103613522576135216134c8565b5b50919050565b7f596f7520617265206e6f742074686520686f6c646572206f662044617461444160008201527f4f204e4654000000000000000000000000000000000000000000000000000000602082015250565b6000613584602583613309565b915061358f82613528565b604082019050919050565b600060208201905081810360008301526135b381613577565b9050919050565b7f43616c6c6572206973206e6f7420612061646d696e0000000000000000000000600082015250565b60006135f0601583613309565b91506135fb826135ba565b602082019050919050565b6000602082019050818103600083015261361f816135e3565b9050919050565b600081905092915050565b7f416363657373436f6e74726f6c3a206163636f756e7420000000000000000000600082015250565b6000613667601783613626565b915061367282613631565b601782019050919050565b600081519050919050565b60006136938261367d565b61369d8185613626565b93506136ad818560208601613094565b80840191505092915050565b7f206973206d697373696e6720726f6c6520000000000000000000000000000000600082015250565b60006136ef601183613626565b91506136fa826136b9565b601182019050919050565b60006137108261365a565b915061371c8285613688565b9150613727826136e2565b91506137338284613688565b91508190509392505050565b600061374a8261367d565b6137548185613309565b9350613764818560208601613094565b61376d81612b96565b840191505092915050565b60006020820190508181036000830152613792818461373f565b905092915050565b60008190508160005260206000209050919050565b60006020601f8301049050919050565b600082821b905092915050565b6000600883026137fc7fffffffffffffffffffffffffffffffffffffffffffffffffffffffffffffffff826137bf565b61380686836137bf565b95508019841693508086168417925050509392505050565b600061383961383461382f84612de1565b612fef565b612de1565b9050919050565b6000819050919050565b6138538361381e565b61386761385f82613840565b8484546137cc565b825550505050565b600090565b61387c61386f565b61388781848461384a565b505050565b5b818110156138ab576138a0600082613874565b60018101905061388d565b5050565b601f8211156138f0576138c18161379a565b6138ca846137af565b810160208510156138d9578190505b6138ed6138e5856137af565b83018261388c565b50505b505050565b600082821c905092915050565b6000613913600019846008026138f5565b1980831691505092915050565b600061392c8383613902565b9150826002028217905092915050565b61394582613078565b67ffffffffffffffff81111561395e5761395d612ba7565b5b61396882546134f7565b6139738282856138af565b600060209050601f8311600181146139a65760008415613994578287015190505b61399e8582613920565b865550613a06565b601f1984166139b48661379a565b60005b828110156139dc578489015182556001820191506020850194506020810190506139b7565b868310156139f957848901516139f5601f891682613902565b8355505b6001600288020188555050505b505050505050565b7f4e487b7100000000000000000000000000000000000000000000000000000000600052601160045260246000fd5b6000613a4882612de1565b9150613a5383612de1565b9250828203905081811115613a6b57613a6a613a0e565b5b92915050565b7f4e487b7100000000000000000000000000000000000000000000000000000000600052601260045260246000fd5b6000613aab82612de1565b9150613ab683612de1565b925082613ac657613ac5613a71565b5b828204905092915050565b6000613adc82612de1565b9150613ae783612de1565b9250828202613af581612de1565b91508282048414831517613b0c57613b0b613a0e565b5b5092915050565b6000613b1e82612de1565b9150613b2983612de1565b9250828201905080821115613b4157613b40613a0e565b5b92915050565b7f4e487b7100000000000000000000000000000000000000000000000000000000600052603260045260246000fd5b6000613b8182612de1565b915060008203613b9457613b93613a0e565b5b600182039050919050565b7f537472696e67733a20686578206c656e67746820696e73756666696369656e74600082015250565b6000613bd5602083613309565b9150613be082613b9f565b602082019050919050565b60006020820190508181036000830152613c0481613bc8565b9050919050565b600060c082019050613c206000830189612d2f565b613c2d6020830188612deb565b613c3a6040830187612d2f565b613c476060830186612d2f565b8181036080830152613c5981856130be565b9050613c6860a0830184612d2f565b979650505050505050565b6000819050919050565b613c8681613c73565b8114613c9157600080fd5b50565b600081519050613ca381613c7d565b92915050565b600081519050613cb881612d59565b92915050565b6000613cd1613ccc84612c22565b612c07565b905082815260208101848484011115613ced57613cec612b91565b5b613cf8848285613094565b509392505050565b600082601f830112613d1557613d14612b8c565b5b8151613d25848260208601613cbe565b91505092915050565b600080600060608486031215613d4757613d46612ac7565b5b6000613d5586828701613c94565b9350506020613d6686828701613ca9565b925050604084015167ffffffffffffffff811115613d8757613d86612acc565b5b613d9386828701613d00565b9150509250925092565b7f646174612073697a65206d757374206d61746368206578706563746564000000600082015250565b6000613dd3601d83613309565b9150613dde82613d9d565b602082019050919050565b60006020820190508181036000830152613e0281613dc6565b9050919050565b7f6465616c206661696c656420706f6c69637920636865636b3a2068617320707260008201527f6f766964657220616c726561647920636c61696d65642074686973206369643f602082015250565b6000613e65604083613309565b9150613e7082613e09565b604082019050919050565b60006020820190508181036000830152613e9481613e58565b9050919050565b7f496e76616c69642043424f520000000000000000000000000000000000000000600082015250565b6000613ed1600c83613309565b9150613edc82613e9b565b602082019050919050565b60006020820190508181036000830152613f0081613ec4565b9050919050565b7f6163746f72206572726f7220636f646520000000000000000000000000000000815250565b6000613f3882613f07565b601182019150613f488284613688565b915081905092915050565b7f4e487b7100000000000000000000000000000000000000000000000000000000600052600160045260246000fd5b6000613f8d82612de1565b91507fffffffffffffffffffffffffffffffffffffffffffffffffffffffffffffffff8203613fbf57613fbe613a0e565b5b600182019050919050565b6000613fd582612de1565b9150613fe083612de1565b925082613ff057613fef613a71565b5b828206905092915050565b600060c0820190506140106000830189612d2f565b61401d6020830188612deb565b61402a6040830187612d2f565b6140376060830186612d2f565b818103608083015261404981856130be565b905081810360a083015261405d81846130be565b9050979650505050505050565b60008160011c9050919050565b6000808291508390505b60018511156140c15780860481111561409d5761409c613a0e565b5b60018516156140ac5780820291505b80810290506140ba8561406a565b9450614081565b94509492505050565b6000826140da5760019050614196565b816140e85760009050614196565b81600181146140fe576002811461410857614137565b6001915050614196565b60ff84111561411a57614119613a0e565b5b8360020a91508482111561413157614130613a0e565b5b50614196565b5060208310610133831016604e8410600b841016171561416c5782820a90508381111561416757614166613a0e565b5b614196565b6141798484846001614077565b925090508184048111156141905761418f613a0e565b5b81810290505b9392505050565b60006141a882612de1565b91506141b383612de1565b92506141e07fffffffffffffffffffffffffffffffffffffffffffffffffffffffffffffffff84846140ca565b905092915050565b7f736c6963696e67206f7574206f662072616e6765000000000000000000000000600082015250565b600061421e601483613309565b9150614229826141e8565b602082019050919050565b6000602082019050818103600083015261424d81614211565b905091905056fea2646970667358221220a38af7cbb38f5d7bd2b55d62e78c500711b65984397fdae368a5c1c7f62ef1c164736f6c63430008110033",
			"opcodes": "PUSH1 0x80 PUSH1 0x40 MSTORE CALLVALUE DUP1 ISZERO PUSH3 0x11 JUMPI PUSH1 0x0 DUP1 REVERT JUMPDEST POP PUSH1 0x40 MLOAD PUSH3 0x4715 CODESIZE SUB DUP1 PUSH3 0x4715 DUP4 CODECOPY DUP2 DUP2 ADD PUSH1 0x40 MSTORE DUP2 ADD SWAP1 PUSH3 0x37 SWAP2 SWAP1 PUSH3 0x3E6 JUMP JUMPDEST DUP2 PUSH1 0x0 JUMPDEST DUP2 MLOAD DUP2 PUSH1 0xFF AND LT ISZERO PUSH3 0xA6 JUMPI PUSH3 0x9A PUSH32 0xA49807205CE4D355092EF5A8A18F56E8913CF4A201FBE287825B095693C21775 DUP4 DUP4 PUSH1 0xFF AND DUP2 MLOAD DUP2 LT PUSH3 0x86 JUMPI PUSH3 0x85 PUSH3 0x44C JUMP JUMPDEST JUMPDEST PUSH1 0x20 MUL PUSH1 0x20 ADD ADD MLOAD PUSH3 0xF1 PUSH1 0x20 SHL PUSH1 0x20 SHR JUMP JUMPDEST DUP1 PUSH1 0x1 ADD SWAP1 POP PUSH3 0x3B JUMP JUMPDEST POP POP DUP1 PUSH1 0x3 PUSH1 0x0 PUSH2 0x100 EXP DUP2 SLOAD DUP2 PUSH20 0xFFFFFFFFFFFFFFFFFFFFFFFFFFFFFFFFFFFFFFFF MUL NOT AND SWAP1 DUP4 PUSH20 0xFFFFFFFFFFFFFFFFFFFFFFFFFFFFFFFFFFFFFFFF AND MUL OR SWAP1 SSTORE POP POP POP PUSH3 0x47B JUMP JUMPDEST PUSH3 0x103 DUP3 DUP3 PUSH3 0x107 PUSH1 0x20 SHL PUSH1 0x20 SHR JUMP JUMPDEST POP POP JUMP JUMPDEST PUSH3 0x119 DUP3 DUP3 PUSH3 0x18E PUSH1 0x20 SHL PUSH1 0x20 SHR JUMP JUMPDEST PUSH3 0x18A JUMPI PUSH1 0x1 PUSH1 0x0 DUP1 DUP5 DUP2 MSTORE PUSH1 0x20 ADD SWAP1 DUP2 MSTORE PUSH1 0x20 ADD PUSH1 0x0 KECCAK256 PUSH1 0x0 ADD PUSH1 0x0 DUP4 PUSH20 0xFFFFFFFFFFFFFFFFFFFFFFFFFFFFFFFFFFFFFFFF AND PUSH20 0xFFFFFFFFFFFFFFFFFFFFFFFFFFFFFFFFFFFFFFFF AND DUP2 MSTORE PUSH1 0x20 ADD SWAP1 DUP2 MSTORE PUSH1 0x20 ADD PUSH1 0x0 KECCAK256 PUSH1 0x0 PUSH2 0x100 EXP DUP2 SLOAD DUP2 PUSH1 0xFF MUL NOT AND SWAP1 DUP4 ISZERO ISZERO MUL OR SWAP1 SSTORE POP JUMPDEST POP POP JUMP JUMPDEST PUSH1 0x0 DUP1 PUSH1 0x0 DUP5 DUP2 MSTORE PUSH1 0x20 ADD SWAP1 DUP2 MSTORE PUSH1 0x20 ADD PUSH1 0x0 KECCAK256 PUSH1 0x0 ADD PUSH1 0x0 DUP4 PUSH20 0xFFFFFFFFFFFFFFFFFFFFFFFFFFFFFFFFFFFFFFFF AND PUSH20 0xFFFFFFFFFFFFFFFFFFFFFFFFFFFFFFFFFFFFFFFF AND DUP2 MSTORE PUSH1 0x20 ADD SWAP1 DUP2 MSTORE PUSH1 0x20 ADD PUSH1 0x0 KECCAK256 PUSH1 0x0 SWAP1 SLOAD SWAP1 PUSH2 0x100 EXP SWAP1 DIV PUSH1 0xFF AND SWAP1 POP SWAP3 SWAP2 POP POP JUMP JUMPDEST PUSH1 0x0 PUSH1 0x40 MLOAD SWAP1 POP SWAP1 JUMP JUMPDEST PUSH1 0x0 DUP1 REVERT JUMPDEST PUSH1 0x0 DUP1 REVERT JUMPDEST PUSH1 0x0 DUP1 REVERT JUMPDEST PUSH1 0x0 PUSH1 0x1F NOT PUSH1 0x1F DUP4 ADD AND SWAP1 POP SWAP2 SWAP1 POP JUMP JUMPDEST PUSH32 0x4E487B7100000000000000000000000000000000000000000000000000000000 PUSH1 0x0 MSTORE PUSH1 0x41 PUSH1 0x4 MSTORE PUSH1 0x24 PUSH1 0x0 REVERT JUMPDEST PUSH3 0x25C DUP3 PUSH3 0x211 JUMP JUMPDEST DUP2 ADD DUP2 DUP2 LT PUSH8 0xFFFFFFFFFFFFFFFF DUP3 GT OR ISZERO PUSH3 0x27E JUMPI PUSH3 0x27D PUSH3 0x222 JUMP JUMPDEST JUMPDEST DUP1 PUSH1 0x40 MSTORE POP POP POP JUMP JUMPDEST PUSH1 0x0 PUSH3 0x293 PUSH3 0x1F8 JUMP JUMPDEST SWAP1 POP PUSH3 0x2A1 DUP3 DUP3 PUSH3 0x251 JUMP JUMPDEST SWAP2 SWAP1 POP JUMP JUMPDEST PUSH1 0x0 PUSH8 0xFFFFFFFFFFFFFFFF DUP3 GT ISZERO PUSH3 0x2C4 JUMPI PUSH3 0x2C3 PUSH3 0x222 JUMP JUMPDEST JUMPDEST PUSH1 0x20 DUP3 MUL SWAP1 POP PUSH1 0x20 DUP2 ADD SWAP1 POP SWAP2 SWAP1 POP JUMP JUMPDEST PUSH1 0x0 DUP1 REVERT JUMPDEST PUSH1 0x0 PUSH20 0xFFFFFFFFFFFFFFFFFFFFFFFFFFFFFFFFFFFFFFFF DUP3 AND SWAP1 POP SWAP2 SWAP1 POP JUMP JUMPDEST PUSH1 0x0 PUSH3 0x307 DUP3 PUSH3 0x2DA JUMP JUMPDEST SWAP1 POP SWAP2 SWAP1 POP JUMP JUMPDEST PUSH3 0x319 DUP2 PUSH3 0x2FA JUMP JUMPDEST DUP2 EQ PUSH3 0x325 JUMPI PUSH1 0x0 DUP1 REVERT JUMPDEST POP JUMP JUMPDEST PUSH1 0x0 DUP2 MLOAD SWAP1 POP PUSH3 0x339 DUP2 PUSH3 0x30E JUMP JUMPDEST SWAP3 SWAP2 POP POP JUMP JUMPDEST PUSH1 0x0 PUSH3 0x356 PUSH3 0x350 DUP5 PUSH3 0x2A6 JUMP JUMPDEST PUSH3 0x287 JUMP JUMPDEST SWAP1 POP DUP1 DUP4 DUP3 MSTORE PUSH1 0x20 DUP3 ADD SWAP1 POP PUSH1 0x20 DUP5 MUL DUP4 ADD DUP6 DUP2 GT ISZERO PUSH3 0x37C JUMPI PUSH3 0x37B PUSH3 0x2D5 JUMP JUMPDEST JUMPDEST DUP4 JUMPDEST DUP2 DUP2 LT ISZERO PUSH3 0x3A9 JUMPI DUP1 PUSH3 0x394 DUP9 DUP3 PUSH3 0x328 JUMP JUMPDEST DUP5 MSTORE PUSH1 0x20 DUP5 ADD SWAP4 POP POP PUSH1 0x20 DUP2 ADD SWAP1 POP PUSH3 0x37E JUMP JUMPDEST POP POP POP SWAP4 SWAP3 POP POP POP JUMP JUMPDEST PUSH1 0x0 DUP3 PUSH1 0x1F DUP4 ADD SLT PUSH3 0x3CB JUMPI PUSH3 0x3CA PUSH3 0x20C JUMP JUMPDEST JUMPDEST DUP2 MLOAD PUSH3 0x3DD DUP5 DUP3 PUSH1 0x20 DUP7 ADD PUSH3 0x33F JUMP JUMPDEST SWAP2 POP POP SWAP3 SWAP2 POP POP JUMP JUMPDEST PUSH1 0x0 DUP1 PUSH1 0x40 DUP4 DUP6 SUB SLT ISZERO PUSH3 0x400 JUMPI PUSH3 0x3FF PUSH3 0x202 JUMP JUMPDEST JUMPDEST PUSH1 0x0 DUP4 ADD MLOAD PUSH8 0xFFFFFFFFFFFFFFFF DUP2 GT ISZERO PUSH3 0x421 JUMPI PUSH3 0x420 PUSH3 0x207 JUMP JUMPDEST JUMPDEST PUSH3 0x42F DUP6 DUP3 DUP7 ADD PUSH3 0x3B3 JUMP JUMPDEST SWAP3 POP POP PUSH1 0x20 PUSH3 0x442 DUP6 DUP3 DUP7 ADD PUSH3 0x328 JUMP JUMPDEST SWAP2 POP POP SWAP3 POP SWAP3 SWAP1 POP JUMP JUMPDEST PUSH32 0x4E487B7100000000000000000000000000000000000000000000000000000000 PUSH1 0x0 MSTORE PUSH1 0x32 PUSH1 0x4 MSTORE PUSH1 0x24 PUSH1 0x0 REVERT JUMPDEST PUSH2 0x428A DUP1 PUSH3 0x48B PUSH1 0x0 CODECOPY PUSH1 0x0 RETURN INVALID PUSH1 0x80 PUSH1 0x40 MSTORE PUSH1 0x4 CALLDATASIZE LT PUSH2 0x11F JUMPI PUSH1 0x0 CALLDATALOAD PUSH1 0xE0 SHR DUP1 PUSH4 0x91D14854 GT PUSH2 0xA0 JUMPI DUP1 PUSH4 0xD547741F GT PUSH2 0x64 JUMPI DUP1 PUSH4 0xD547741F EQ PUSH2 0x42A JUMPI DUP1 PUSH4 0xE5FCD6B8 EQ PUSH2 0x453 JUMPI DUP1 PUSH4 0xF4912450 EQ PUSH2 0x47C JUMPI DUP1 PUSH4 0xF63D13D7 EQ PUSH2 0x4B9 JUMPI DUP1 PUSH4 0xF7E88663 EQ PUSH2 0x4D0 JUMPI PUSH2 0x11F JUMP JUMPDEST DUP1 PUSH4 0x91D14854 EQ PUSH2 0x317 JUMPI DUP1 PUSH4 0x985D0B1E EQ PUSH2 0x354 JUMPI DUP1 PUSH4 0xA217FDDF EQ PUSH2 0x37F JUMPI DUP1 PUSH4 0xB22E8569 EQ PUSH2 0x3AA JUMPI DUP1 PUSH4 0xBFBD58FC EQ PUSH2 0x3ED JUMPI PUSH2 0x11F JUMP JUMPDEST DUP1 PUSH4 0x2F2FF15D GT PUSH2 0xE7 JUMPI DUP1 PUSH4 0x2F2FF15D EQ PUSH2 0x255 JUMPI DUP1 PUSH4 0x36568ABE EQ PUSH2 0x27E JUMPI DUP1 PUSH4 0x62F9F841 EQ PUSH2 0x2A7 JUMPI DUP1 PUSH4 0x6763CCBD EQ PUSH2 0x2D2 JUMPI DUP1 PUSH4 0x77DA63C4 EQ PUSH2 0x2FB JUMPI PUSH2 0x11F JUMP JUMPDEST DUP1 PUSH4 0x1FFC9A7 EQ PUSH2 0x124 JUMPI DUP1 PUSH4 0x166D4C6F EQ PUSH2 0x161 JUMPI DUP1 PUSH4 0x1A7FD6C6 EQ PUSH2 0x19E JUMPI DUP1 PUSH4 0x1E7F7E09 EQ PUSH2 0x1DB JUMPI DUP1 PUSH4 0x248A9CA3 EQ PUSH2 0x218 JUMPI JUMPDEST PUSH1 0x0 DUP1 REVERT JUMPDEST CALLVALUE DUP1 ISZERO PUSH2 0x130 JUMPI PUSH1 0x0 DUP1 REVERT JUMPDEST POP PUSH2 0x14B PUSH1 0x4 DUP1 CALLDATASIZE SUB DUP2 ADD SWAP1 PUSH2 0x146 SWAP2 SWAP1 PUSH2 0x2B29 JUMP JUMPDEST PUSH2 0x4F9 JUMP JUMPDEST PUSH1 0x40 MLOAD PUSH2 0x158 SWAP2 SWAP1 PUSH2 0x2B71 JUMP JUMPDEST PUSH1 0x40 MLOAD DUP1 SWAP2 SUB SWAP1 RETURN JUMPDEST CALLVALUE DUP1 ISZERO PUSH2 0x16D JUMPI PUSH1 0x0 DUP1 REVERT JUMPDEST POP PUSH2 0x188 PUSH1 0x4 DUP1 CALLDATASIZE SUB DUP2 ADD SWAP1 PUSH2 0x183 SWAP2 SWAP1 PUSH2 0x2CD2 JUMP JUMPDEST PUSH2 0x573 JUMP JUMPDEST PUSH1 0x40 MLOAD PUSH2 0x195 SWAP2 SWAP1 PUSH2 0x2D3E JUMP JUMPDEST PUSH1 0x40 MLOAD DUP1 SWAP2 SUB SWAP1 RETURN JUMPDEST CALLVALUE DUP1 ISZERO PUSH2 0x1AA JUMPI PUSH1 0x0 DUP1 REVERT JUMPDEST POP PUSH2 0x1C5 PUSH1 0x4 DUP1 CALLDATASIZE SUB DUP2 ADD SWAP1 PUSH2 0x1C0 SWAP2 SWAP1 PUSH2 0x2D85 JUMP JUMPDEST PUSH2 0x5B0 JUMP JUMPDEST PUSH1 0x40 MLOAD PUSH2 0x1D2 SWAP2 SWAP1 PUSH2 0x2B71 JUMP JUMPDEST PUSH1 0x40 MLOAD DUP1 SWAP2 SUB SWAP1 RETURN JUMPDEST CALLVALUE DUP1 ISZERO PUSH2 0x1E7 JUMPI PUSH1 0x0 DUP1 REVERT JUMPDEST POP PUSH2 0x202 PUSH1 0x4 DUP1 CALLDATASIZE SUB DUP2 ADD SWAP1 PUSH2 0x1FD SWAP2 SWAP1 PUSH2 0x2CD2 JUMP JUMPDEST PUSH2 0x5F5 JUMP JUMPDEST PUSH1 0x40 MLOAD PUSH2 0x20F SWAP2 SWAP1 PUSH2 0x2DFA JUMP JUMPDEST PUSH1 0x40 MLOAD DUP1 SWAP2 SUB SWAP1 RETURN JUMPDEST CALLVALUE DUP1 ISZERO PUSH2 0x224 JUMPI PUSH1 0x0 DUP1 REVERT JUMPDEST POP PUSH2 0x23F PUSH1 0x4 DUP1 CALLDATASIZE SUB DUP2 ADD SWAP1 PUSH2 0x23A SWAP2 SWAP1 PUSH2 0x2E4B JUMP JUMPDEST PUSH2 0x623 JUMP JUMPDEST PUSH1 0x40 MLOAD PUSH2 0x24C SWAP2 SWAP1 PUSH2 0x2E87 JUMP JUMPDEST PUSH1 0x40 MLOAD DUP1 SWAP2 SUB SWAP1 RETURN JUMPDEST CALLVALUE DUP1 ISZERO PUSH2 0x261 JUMPI PUSH1 0x0 DUP1 REVERT JUMPDEST POP PUSH2 0x27C PUSH1 0x4 DUP1 CALLDATASIZE SUB DUP2 ADD SWAP1 PUSH2 0x277 SWAP2 SWAP1 PUSH2 0x2F00 JUMP JUMPDEST PUSH2 0x642 JUMP JUMPDEST STOP JUMPDEST CALLVALUE DUP1 ISZERO PUSH2 0x28A JUMPI PUSH1 0x0 DUP1 REVERT JUMPDEST POP PUSH2 0x2A5 PUSH1 0x4 DUP1 CALLDATASIZE SUB DUP2 ADD SWAP1 PUSH2 0x2A0 SWAP2 SWAP1 PUSH2 0x2F00 JUMP JUMPDEST PUSH2 0x66B JUMP JUMPDEST STOP JUMPDEST CALLVALUE DUP1 ISZERO PUSH2 0x2B3 JUMPI PUSH1 0x0 DUP1 REVERT JUMPDEST POP PUSH2 0x2BC PUSH2 0x6EE JUMP JUMPDEST PUSH1 0x40 MLOAD PUSH2 0x2C9 SWAP2 SWAP1 PUSH2 0x2B71 JUMP JUMPDEST PUSH1 0x40 MLOAD DUP1 SWAP2 SUB SWAP1 RETURN JUMPDEST CALLVALUE DUP1 ISZERO PUSH2 0x2DE JUMPI PUSH1 0x0 DUP1 REVERT JUMPDEST POP PUSH2 0x2F9 PUSH1 0x4 DUP1 CALLDATASIZE SUB DUP2 ADD SWAP1 PUSH2 0x2F4 SWAP2 SWAP1 PUSH2 0x2CD2 JUMP JUMPDEST PUSH2 0x7A4 JUMP JUMPDEST STOP JUMPDEST PUSH2 0x315 PUSH1 0x4 DUP1 CALLDATASIZE SUB DUP2 ADD SWAP1 PUSH2 0x310 SWAP2 SWAP1 PUSH2 0x2F6C JUMP JUMPDEST PUSH2 0x839 JUMP JUMPDEST STOP JUMPDEST CALLVALUE DUP1 ISZERO PUSH2 0x323 JUMPI PUSH1 0x0 DUP1 REVERT JUMPDEST POP PUSH2 0x33E PUSH1 0x4 DUP1 CALLDATASIZE SUB DUP2 ADD SWAP1 PUSH2 0x339 SWAP2 SWAP1 PUSH2 0x2F00 JUMP JUMPDEST PUSH2 0x8D6 JUMP JUMPDEST PUSH1 0x40 MLOAD PUSH2 0x34B SWAP2 SWAP1 PUSH2 0x2B71 JUMP JUMPDEST PUSH1 0x40 MLOAD DUP1 SWAP2 SUB SWAP1 RETURN JUMPDEST CALLVALUE DUP1 ISZERO PUSH2 0x360 JUMPI PUSH1 0x0 DUP1 REVERT JUMPDEST POP PUSH2 0x369 PUSH2 0x940 JUMP JUMPDEST PUSH1 0x40 MLOAD PUSH2 0x376 SWAP2 SWAP1 PUSH2 0x304E JUMP JUMPDEST PUSH1 0x40 MLOAD DUP1 SWAP2 SUB SWAP1 RETURN JUMPDEST CALLVALUE DUP1 ISZERO PUSH2 0x38B JUMPI PUSH1 0x0 DUP1 REVERT JUMPDEST POP PUSH2 0x394 PUSH2 0x966 JUMP JUMPDEST PUSH1 0x40 MLOAD PUSH2 0x3A1 SWAP2 SWAP1 PUSH2 0x2E87 JUMP JUMPDEST PUSH1 0x40 MLOAD DUP1 SWAP2 SUB SWAP1 RETURN JUMPDEST CALLVALUE DUP1 ISZERO PUSH2 0x3B6 JUMPI PUSH1 0x0 DUP1 REVERT JUMPDEST POP PUSH2 0x3D1 PUSH1 0x4 DUP1 CALLDATASIZE SUB DUP2 ADD SWAP1 PUSH2 0x3CC SWAP2 SWAP1 PUSH2 0x2CD2 JUMP JUMPDEST PUSH2 0x96D JUMP JUMPDEST PUSH1 0x40 MLOAD PUSH2 0x3E4 SWAP8 SWAP7 SWAP6 SWAP5 SWAP4 SWAP3 SWAP2 SWAP1 PUSH2 0x316E JUMP JUMPDEST PUSH1 0x40 MLOAD DUP1 SWAP2 SUB SWAP1 RETURN JUMPDEST CALLVALUE DUP1 ISZERO PUSH2 0x3F9 JUMPI PUSH1 0x0 DUP1 REVERT JUMPDEST POP PUSH2 0x414 PUSH1 0x4 DUP1 CALLDATASIZE SUB DUP2 ADD SWAP1 PUSH2 0x40F SWAP2 SWAP1 PUSH2 0x2CD2 JUMP JUMPDEST PUSH2 0xA7A JUMP JUMPDEST PUSH1 0x40 MLOAD PUSH2 0x421 SWAP2 SWAP1 PUSH2 0x31E4 JUMP JUMPDEST PUSH1 0x40 MLOAD DUP1 SWAP2 SUB SWAP1 RETURN JUMPDEST CALLVALUE DUP1 ISZERO PUSH2 0x436 JUMPI PUSH1 0x0 DUP1 REVERT JUMPDEST POP PUSH2 0x451 PUSH1 0x4 DUP1 CALLDATASIZE SUB DUP2 ADD SWAP1 PUSH2 0x44C SWAP2 SWAP1 PUSH2 0x2F00 JUMP JUMPDEST PUSH2 0xB8C JUMP JUMPDEST STOP JUMPDEST CALLVALUE DUP1 ISZERO PUSH2 0x45F JUMPI PUSH1 0x0 DUP1 REVERT JUMPDEST POP PUSH2 0x47A PUSH1 0x4 DUP1 CALLDATASIZE SUB DUP2 ADD SWAP1 PUSH2 0x475 SWAP2 SWAP1 PUSH2 0x31FF JUMP JUMPDEST PUSH2 0xBB5 JUMP JUMPDEST STOP JUMPDEST CALLVALUE DUP1 ISZERO PUSH2 0x488 JUMPI PUSH1 0x0 DUP1 REVERT JUMPDEST POP PUSH2 0x4A3 PUSH1 0x4 DUP1 CALLDATASIZE SUB DUP2 ADD SWAP1 PUSH2 0x49E SWAP2 SWAP1 PUSH2 0x322C JUMP JUMPDEST PUSH2 0xC35 JUMP JUMPDEST PUSH1 0x40 MLOAD PUSH2 0x4B0 SWAP2 SWAP1 PUSH2 0x2DFA JUMP JUMPDEST PUSH1 0x40 MLOAD DUP1 SWAP2 SUB SWAP1 RETURN JUMPDEST CALLVALUE DUP1 ISZERO PUSH2 0x4C5 JUMPI PUSH1 0x0 DUP1 REVERT JUMPDEST POP PUSH2 0x4CE PUSH2 0xC70 JUMP JUMPDEST STOP JUMPDEST CALLVALUE DUP1 ISZERO PUSH2 0x4DC JUMPI PUSH1 0x0 DUP1 REVERT JUMPDEST POP PUSH2 0x4F7 PUSH1 0x4 DUP1 CALLDATASIZE SUB DUP2 ADD SWAP1 PUSH2 0x4F2 SWAP2 SWAP1 PUSH2 0x32AD JUMP JUMPDEST PUSH2 0xD7A JUMP JUMPDEST STOP JUMPDEST PUSH1 0x0 PUSH32 0x7965DB0B00000000000000000000000000000000000000000000000000000000 PUSH28 0xFFFFFFFFFFFFFFFFFFFFFFFFFFFFFFFFFFFFFFFFFFFFFFFFFFFFFFFF NOT AND DUP3 PUSH28 0xFFFFFFFFFFFFFFFFFFFFFFFFFFFFFFFFFFFFFFFFFFFFFFFFFFFFFFFF NOT AND EQ DUP1 PUSH2 0x56C JUMPI POP PUSH2 0x56B DUP3 PUSH2 0xDF1 JUMP JUMPDEST JUMPDEST SWAP1 POP SWAP2 SWAP1 POP JUMP JUMPDEST PUSH1 0x6 DUP2 DUP1 MLOAD PUSH1 0x20 DUP2 ADD DUP3 ADD DUP1 MLOAD DUP5 DUP3 MSTORE PUSH1 0x20 DUP4 ADD PUSH1 0x20 DUP6 ADD KECCAK256 DUP2 DUP4 MSTORE DUP1 SWAP6 POP POP POP POP POP POP PUSH1 0x0 SWAP2 POP SLOAD SWAP1 PUSH2 0x100 EXP SWAP1 DIV PUSH8 0xFFFFFFFFFFFFFFFF AND DUP2 JUMP JUMPDEST PUSH1 0x2 DUP3 DUP1 MLOAD PUSH1 0x20 DUP2 ADD DUP3 ADD DUP1 MLOAD DUP5 DUP3 MSTORE PUSH1 0x20 DUP4 ADD PUSH1 0x20 DUP6 ADD KECCAK256 DUP2 DUP4 MSTORE DUP1 SWAP6 POP POP POP POP POP POP PUSH1 0x20 MSTORE DUP1 PUSH1 0x0 MSTORE PUSH1 0x40 PUSH1 0x0 KECCAK256 PUSH1 0x0 SWAP2 POP SWAP2 POP SWAP1 SLOAD SWAP1 PUSH2 0x100 EXP SWAP1 DIV PUSH1 0xFF AND DUP2 JUMP JUMPDEST PUSH1 0x5 DUP2 DUP1 MLOAD PUSH1 0x20 DUP2 ADD DUP3 ADD DUP1 MLOAD DUP5 DUP3 MSTORE PUSH1 0x20 DUP4 ADD PUSH1 0x20 DUP6 ADD KECCAK256 DUP2 DUP4 MSTORE DUP1 SWAP6 POP POP POP POP POP POP PUSH1 0x0 SWAP2 POP SWAP1 POP SLOAD DUP2 JUMP JUMPDEST PUSH1 0x0 DUP1 PUSH1 0x0 DUP4 DUP2 MSTORE PUSH1 0x20 ADD SWAP1 DUP2 MSTORE PUSH1 0x20 ADD PUSH1 0x0 KECCAK256 PUSH1 0x1 ADD SLOAD SWAP1 POP SWAP2 SWAP1 POP JUMP JUMPDEST PUSH2 0x64B DUP3 PUSH2 0x623 JUMP JUMPDEST PUSH2 0x65C DUP2 PUSH2 0x657 PUSH2 0xE5B JUMP JUMPDEST PUSH2 0xE63 JUMP JUMPDEST PUSH2 0x666 DUP4 DUP4 PUSH2 0xF00 JUMP JUMPDEST POP POP POP JUMP JUMPDEST PUSH2 0x673 PUSH2 0xE5B JUMP JUMPDEST PUSH20 0xFFFFFFFFFFFFFFFFFFFFFFFFFFFFFFFFFFFFFFFF AND DUP2 PUSH20 0xFFFFFFFFFFFFFFFFFFFFFFFFFFFFFFFFFFFFFFFF AND EQ PUSH2 0x6E0 JUMPI PUSH1 0x40 MLOAD PUSH32 0x8C379A000000000000000000000000000000000000000000000000000000000 DUP2 MSTORE PUSH1 0x4 ADD PUSH2 0x6D7 SWAP1 PUSH2 0x338C JUMP JUMPDEST PUSH1 0x40 MLOAD DUP1 SWAP2 SUB SWAP1 REVERT JUMPDEST PUSH2 0x6EA DUP3 DUP3 PUSH2 0xF7E JUMP JUMPDEST POP POP JUMP JUMPDEST PUSH1 0x0 DUP1 PUSH1 0x3 PUSH1 0x0 SWAP1 SLOAD SWAP1 PUSH2 0x100 EXP SWAP1 DIV PUSH20 0xFFFFFFFFFFFFFFFFFFFFFFFFFFFFFFFFFFFFFFFF AND PUSH20 0xFFFFFFFFFFFFFFFFFFFFFFFFFFFFFFFFFFFFFFFF AND PUSH4 0x70A08231 CALLER PUSH1 0x40 MLOAD DUP3 PUSH4 0xFFFFFFFF AND PUSH1 0xE0 SHL DUP2 MSTORE PUSH1 0x4 ADD PUSH2 0x74C SWAP2 SWAP1 PUSH2 0x33AC JUMP JUMPDEST PUSH1 0x20 PUSH1 0x40 MLOAD DUP1 DUP4 SUB DUP2 DUP7 GAS STATICCALL ISZERO DUP1 ISZERO PUSH2 0x769 JUMPI RETURNDATASIZE PUSH1 0x0 DUP1 RETURNDATACOPY RETURNDATASIZE PUSH1 0x0 REVERT JUMPDEST POP POP POP POP PUSH1 0x40 MLOAD RETURNDATASIZE PUSH1 0x1F NOT PUSH1 0x1F DUP3 ADD AND DUP3 ADD DUP1 PUSH1 0x40 MSTORE POP DUP2 ADD SWAP1 PUSH2 0x78D SWAP2 SWAP1 PUSH2 0x33DC JUMP JUMPDEST GT ISZERO PUSH2 0x79C JUMPI PUSH1 0x1 SWAP1 POP PUSH2 0x7A1 JUMP JUMPDEST PUSH1 0x0 SWAP1 POP JUMPDEST SWAP1 JUMP JUMPDEST PUSH1 0x4 DUP1 DUP2 GT ISZERO PUSH2 0x7B7 JUMPI PUSH2 0x7B6 PUSH2 0x30F7 JUMP JUMPDEST JUMPDEST PUSH2 0x7C0 DUP3 PUSH2 0xA7A JUMP JUMPDEST PUSH1 0x4 DUP2 GT ISZERO PUSH2 0x7D2 JUMPI PUSH2 0x7D1 PUSH2 0x30F7 JUMP JUMPDEST JUMPDEST EQ PUSH2 0x7DC JUMPI PUSH1 0x0 DUP1 REVERT JUMPDEST PUSH2 0x836 PUSH1 0x6 DUP3 PUSH1 0x40 MLOAD PUSH2 0x7EF SWAP2 SWAP1 PUSH2 0x3445 JUMP JUMPDEST SWAP1 DUP2 MSTORE PUSH1 0x20 ADD PUSH1 0x40 MLOAD DUP1 SWAP2 SUB SWAP1 KECCAK256 PUSH1 0x0 SWAP1 SLOAD SWAP1 PUSH2 0x100 EXP SWAP1 DIV PUSH8 0xFFFFFFFFFFFFFFFF AND PUSH1 0x5 DUP4 PUSH1 0x40 MLOAD PUSH2 0x822 SWAP2 SWAP1 PUSH2 0x3445 JUMP JUMPDEST SWAP1 DUP2 MSTORE PUSH1 0x20 ADD PUSH1 0x40 MLOAD DUP1 SWAP2 SUB SWAP1 KECCAK256 SLOAD PUSH2 0x105F JUMP JUMPDEST POP JUMP JUMPDEST PUSH2 0x863 PUSH32 0x829B824E2329E205435D941C9F13BAF578548505283D29261236D8E6596D4636 CALLER PUSH2 0x8D6 JUMP JUMPDEST PUSH2 0x8A2 JUMPI PUSH1 0x40 MLOAD PUSH32 0x8C379A000000000000000000000000000000000000000000000000000000000 DUP2 MSTORE PUSH1 0x4 ADD PUSH2 0x899 SWAP1 PUSH2 0x34A8 JUMP JUMPDEST PUSH1 0x40 MLOAD DUP1 SWAP2 SUB SWAP1 REVERT JUMPDEST PUSH2 0x8AD DUP5 DUP5 DUP5 PUSH2 0x1090 JUMP JUMPDEST DUP1 PUSH1 0x5 DUP6 PUSH1 0x40 MLOAD PUSH2 0x8BE SWAP2 SWAP1 PUSH2 0x3445 JUMP JUMPDEST SWAP1 DUP2 MSTORE PUSH1 0x20 ADD PUSH1 0x40 MLOAD DUP1 SWAP2 SUB SWAP1 KECCAK256 DUP2 SWAP1 SSTORE POP POP POP POP POP JUMP JUMPDEST PUSH1 0x0 DUP1 PUSH1 0x0 DUP5 DUP2 MSTORE PUSH1 0x20 ADD SWAP1 DUP2 MSTORE PUSH1 0x20 ADD PUSH1 0x0 KECCAK256 PUSH1 0x0 ADD PUSH1 0x0 DUP4 PUSH20 0xFFFFFFFFFFFFFFFFFFFFFFFFFFFFFFFFFFFFFFFF AND PUSH20 0xFFFFFFFFFFFFFFFFFFFFFFFFFFFFFFFFFFFFFFFF AND DUP2 MSTORE PUSH1 0x20 ADD SWAP1 DUP2 MSTORE PUSH1 0x20 ADD PUSH1 0x0 KECCAK256 PUSH1 0x0 SWAP1 SLOAD SWAP1 PUSH2 0x100 EXP SWAP1 DIV PUSH1 0xFF AND SWAP1 POP SWAP3 SWAP2 POP POP JUMP JUMPDEST PUSH1 0x3 PUSH1 0x0 SWAP1 SLOAD SWAP1 PUSH2 0x100 EXP SWAP1 DIV PUSH20 0xFFFFFFFFFFFFFFFFFFFFFFFFFFFFFFFFFFFFFFFF AND DUP2 JUMP JUMPDEST PUSH1 0x0 DUP1 SHL DUP2 JUMP JUMPDEST PUSH1 0x1 DUP2 DUP1 MLOAD PUSH1 0x20 DUP2 ADD DUP3 ADD DUP1 MLOAD DUP5 DUP3 MSTORE PUSH1 0x20 DUP4 ADD PUSH1 0x20 DUP6 ADD KECCAK256 DUP2 DUP4 MSTORE DUP1 SWAP6 POP POP POP POP POP POP PUSH1 0x0 SWAP2 POP SWAP1 POP DUP1 PUSH1 0x0 ADD PUSH1 0x0 SWAP1 SLOAD SWAP1 PUSH2 0x100 EXP SWAP1 DIV PUSH20 0xFFFFFFFFFFFFFFFFFFFFFFFFFFFFFFFFFFFFFFFF AND SWAP1 DUP1 PUSH1 0x1 ADD DUP1 SLOAD PUSH2 0x9CC SWAP1 PUSH2 0x34F7 JUMP JUMPDEST DUP1 PUSH1 0x1F ADD PUSH1 0x20 DUP1 SWAP2 DIV MUL PUSH1 0x20 ADD PUSH1 0x40 MLOAD SWAP1 DUP2 ADD PUSH1 0x40 MSTORE DUP1 SWAP3 SWAP2 SWAP1 DUP2 DUP2 MSTORE PUSH1 0x20 ADD DUP3 DUP1 SLOAD PUSH2 0x9F8 SWAP1 PUSH2 0x34F7 JUMP JUMPDEST DUP1 ISZERO PUSH2 0xA45 JUMPI DUP1 PUSH1 0x1F LT PUSH2 0xA1A JUMPI PUSH2 0x100 DUP1 DUP4 SLOAD DIV MUL DUP4 MSTORE SWAP2 PUSH1 0x20 ADD SWAP2 PUSH2 0xA45 JUMP JUMPDEST DUP3 ADD SWAP2 SWAP1 PUSH1 0x0 MSTORE PUSH1 0x20 PUSH1 0x0 KECCAK256 SWAP1 JUMPDEST DUP2 SLOAD DUP2 MSTORE SWAP1 PUSH1 0x1 ADD SWAP1 PUSH1 0x20 ADD DUP1 DUP4 GT PUSH2 0xA28 JUMPI DUP3 SWAP1 SUB PUSH1 0x1F AND DUP3 ADD SWAP2 JUMPDEST POP POP POP POP POP SWAP1 DUP1 PUSH1 0x2 ADD SLOAD SWAP1 DUP1 PUSH1 0x3 ADD SLOAD SWAP1 DUP1 PUSH1 0x4 ADD SLOAD SWAP1 DUP1 PUSH1 0x5 ADD SLOAD SWAP1 DUP1 PUSH1 0x6 ADD PUSH1 0x0 SWAP1 SLOAD SWAP1 PUSH2 0x100 EXP SWAP1 DIV PUSH1 0xFF AND SWAP1 POP DUP8 JUMP JUMPDEST PUSH1 0x0 PUSH1 0x3 PUSH1 0x4 DUP2 GT ISZERO PUSH2 0xA90 JUMPI PUSH2 0xA8F PUSH2 0x30F7 JUMP JUMPDEST JUMPDEST PUSH1 0x1 DUP4 PUSH1 0x40 MLOAD PUSH2 0xAA0 SWAP2 SWAP1 PUSH2 0x3445 JUMP JUMPDEST SWAP1 DUP2 MSTORE PUSH1 0x20 ADD PUSH1 0x40 MLOAD DUP1 SWAP2 SUB SWAP1 KECCAK256 PUSH1 0x6 ADD PUSH1 0x0 SWAP1 SLOAD SWAP1 PUSH2 0x100 EXP SWAP1 DIV PUSH1 0xFF AND PUSH1 0x4 DUP2 GT ISZERO PUSH2 0xAD1 JUMPI PUSH2 0xAD0 PUSH2 0x30F7 JUMP JUMPDEST JUMPDEST EQ DUP1 ISZERO PUSH2 0xB47 JUMPI POP PUSH1 0x1 DUP3 PUSH1 0x40 MLOAD PUSH2 0xAE9 SWAP2 SWAP1 PUSH2 0x3445 JUMP JUMPDEST SWAP1 DUP2 MSTORE PUSH1 0x20 ADD PUSH1 0x40 MLOAD DUP1 SWAP2 SUB SWAP1 KECCAK256 PUSH1 0x5 ADD SLOAD PUSH2 0xB44 PUSH3 0x15180 PUSH2 0xB36 PUSH1 0x1 DUP7 PUSH1 0x40 MLOAD PUSH2 0xB15 SWAP2 SWAP1 PUSH2 0x3445 JUMP JUMPDEST SWAP1 DUP2 MSTORE PUSH1 0x20 ADD PUSH1 0x40 MLOAD DUP1 SWAP2 SUB SWAP1 KECCAK256 PUSH1 0x4 ADD SLOAD TIMESTAMP PUSH2 0x11CF SWAP1 SWAP2 SWAP1 PUSH4 0xFFFFFFFF AND JUMP JUMPDEST PUSH2 0x11E5 SWAP1 SWAP2 SWAP1 PUSH4 0xFFFFFFFF AND JUMP JUMPDEST LT ISZERO JUMPDEST ISZERO PUSH2 0xB55 JUMPI PUSH1 0x4 SWAP1 POP PUSH2 0xB87 JUMP JUMPDEST PUSH1 0x1 DUP3 PUSH1 0x40 MLOAD PUSH2 0xB65 SWAP2 SWAP1 PUSH2 0x3445 JUMP JUMPDEST SWAP1 DUP2 MSTORE PUSH1 0x20 ADD PUSH1 0x40 MLOAD DUP1 SWAP2 SUB SWAP1 KECCAK256 PUSH1 0x6 ADD PUSH1 0x0 SWAP1 SLOAD SWAP1 PUSH2 0x100 EXP SWAP1 DIV PUSH1 0xFF AND SWAP1 POP JUMPDEST SWAP2 SWAP1 POP JUMP JUMPDEST PUSH2 0xB95 DUP3 PUSH2 0x623 JUMP JUMPDEST PUSH2 0xBA6 DUP2 PUSH2 0xBA1 PUSH2 0xE5B JUMP JUMPDEST PUSH2 0xE63 JUMP JUMPDEST PUSH2 0xBB0 DUP4 DUP4 PUSH2 0xF7E JUMP JUMPDEST POP POP POP JUMP JUMPDEST PUSH1 0x0 PUSH2 0xBC0 DUP3 PUSH2 0x11FB JUMP JUMPDEST SWAP1 POP PUSH1 0x0 PUSH2 0xBE5 PUSH1 0x40 MLOAD DUP1 PUSH1 0x20 ADD PUSH1 0x40 MSTORE DUP1 DUP6 PUSH8 0xFFFFFFFFFFFFFFFF AND DUP2 MSTORE POP PUSH2 0x1313 JUMP JUMPDEST SWAP1 POP DUP2 PUSH1 0x6 DUP3 PUSH1 0x0 ADD MLOAD PUSH1 0x40 MLOAD PUSH2 0xBFC SWAP2 SWAP1 PUSH2 0x3445 JUMP JUMPDEST SWAP1 DUP2 MSTORE PUSH1 0x20 ADD PUSH1 0x40 MLOAD DUP1 SWAP2 SUB SWAP1 KECCAK256 PUSH1 0x0 PUSH2 0x100 EXP DUP2 SLOAD DUP2 PUSH8 0xFFFFFFFFFFFFFFFF MUL NOT AND SWAP1 DUP4 PUSH8 0xFFFFFFFFFFFFFFFF AND MUL OR SWAP1 SSTORE POP POP POP POP JUMP JUMPDEST PUSH1 0x4 DUP3 DUP1 MLOAD PUSH1 0x20 DUP2 ADD DUP3 ADD DUP1 MLOAD DUP5 DUP3 MSTORE PUSH1 0x20 DUP4 ADD PUSH1 0x20 DUP6 ADD KECCAK256 DUP2 DUP4 MSTORE DUP1 SWAP6 POP POP POP POP POP POP PUSH1 0x20 MSTORE DUP1 PUSH1 0x0 MSTORE PUSH1 0x40 PUSH1 0x0 KECCAK256 PUSH1 0x0 SWAP2 POP SWAP2 POP POP SLOAD DUP2 JUMP JUMPDEST PUSH1 0x0 PUSH1 0x3 PUSH1 0x0 SWAP1 SLOAD SWAP1 PUSH2 0x100 EXP SWAP1 DIV PUSH20 0xFFFFFFFFFFFFFFFFFFFFFFFFFFFFFFFFFFFFFFFF AND PUSH20 0xFFFFFFFFFFFFFFFFFFFFFFFFFFFFFFFFFFFFFFFF AND PUSH4 0x70A08231 CALLER PUSH1 0x40 MLOAD DUP3 PUSH4 0xFFFFFFFF AND PUSH1 0xE0 SHL DUP2 MSTORE PUSH1 0x4 ADD PUSH2 0xCCD SWAP2 SWAP1 PUSH2 0x33AC JUMP JUMPDEST PUSH1 0x20 PUSH1 0x40 MLOAD DUP1 DUP4 SUB DUP2 DUP7 GAS STATICCALL ISZERO DUP1 ISZERO PUSH2 0xCEA JUMPI RETURNDATASIZE PUSH1 0x0 DUP1 RETURNDATACOPY RETURNDATASIZE PUSH1 0x0 REVERT JUMPDEST POP POP POP POP PUSH1 0x40 MLOAD RETURNDATASIZE PUSH1 0x1F NOT PUSH1 0x1F DUP3 ADD AND DUP3 ADD DUP1 PUSH1 0x40 MSTORE POP DUP2 ADD SWAP1 PUSH2 0xD0E SWAP2 SWAP1 PUSH2 0x33DC JUMP JUMPDEST GT PUSH2 0xD4E JUMPI PUSH1 0x40 MLOAD PUSH32 0x8C379A000000000000000000000000000000000000000000000000000000000 DUP2 MSTORE PUSH1 0x4 ADD PUSH2 0xD45 SWAP1 PUSH2 0x359A JUMP JUMPDEST PUSH1 0x40 MLOAD DUP1 SWAP2 SUB SWAP1 REVERT JUMPDEST PUSH2 0xD78 CALLER PUSH32 0x829B824E2329E205435D941C9F13BAF578548505283D29261236D8E6596D4636 PUSH2 0x1397 JUMP JUMPDEST JUMP JUMPDEST PUSH2 0xDA4 PUSH32 0xA49807205CE4D355092EF5A8A18F56E8913CF4A201FBE287825B095693C21775 CALLER PUSH2 0x8D6 JUMP JUMPDEST PUSH2 0xDE3 JUMPI PUSH1 0x40 MLOAD PUSH32 0x8C379A000000000000000000000000000000000000000000000000000000000 DUP2 MSTORE PUSH1 0x4 ADD PUSH2 0xDDA SWAP1 PUSH2 0x3606 JUMP JUMPDEST PUSH1 0x40 MLOAD DUP1 SWAP2 SUB SWAP1 REVERT JUMPDEST PUSH2 0xDED DUP3 DUP3 PUSH2 0x13A5 JUMP JUMPDEST POP POP JUMP JUMPDEST PUSH1 0x0 PUSH32 0x1FFC9A700000000000000000000000000000000000000000000000000000000 PUSH28 0xFFFFFFFFFFFFFFFFFFFFFFFFFFFFFFFFFFFFFFFFFFFFFFFFFFFFFFFF NOT AND DUP3 PUSH28 0xFFFFFFFFFFFFFFFFFFFFFFFFFFFFFFFFFFFFFFFFFFFFFFFFFFFFFFFF NOT AND EQ SWAP1 POP SWAP2 SWAP1 POP JUMP JUMPDEST PUSH1 0x0 CALLER SWAP1 POP SWAP1 JUMP JUMPDEST PUSH2 0xE6D DUP3 DUP3 PUSH2 0x8D6 JUMP JUMPDEST PUSH2 0xEFC JUMPI PUSH2 0xE92 DUP2 PUSH20 0xFFFFFFFFFFFFFFFFFFFFFFFFFFFFFFFFFFFFFFFF AND PUSH1 0x14 PUSH2 0x1452 JUMP JUMPDEST PUSH2 0xEA0 DUP4 PUSH1 0x0 SHR PUSH1 0x20 PUSH2 0x1452 JUMP JUMPDEST PUSH1 0x40 MLOAD PUSH1 0x20 ADD PUSH2 0xEB1 SWAP3 SWAP2 SWAP1 PUSH2 0x3705 JUMP JUMPDEST PUSH1 0x40 MLOAD PUSH1 0x20 DUP2 DUP4 SUB SUB DUP2 MSTORE SWAP1 PUSH1 0x40 MSTORE PUSH1 0x40 MLOAD PUSH32 0x8C379A000000000000000000000000000000000000000000000000000000000 DUP2 MSTORE PUSH1 0x4 ADD PUSH2 0xEF3 SWAP2 SWAP1 PUSH2 0x3778 JUMP JUMPDEST PUSH1 0x40 MLOAD DUP1 SWAP2 SUB SWAP1 REVERT JUMPDEST POP POP JUMP JUMPDEST PUSH2 0xF0A DUP3 DUP3 PUSH2 0x8D6 JUMP JUMPDEST PUSH2 0xF7A JUMPI PUSH1 0x1 PUSH1 0x0 DUP1 DUP5 DUP2 MSTORE PUSH1 0x20 ADD SWAP1 DUP2 MSTORE PUSH1 0x20 ADD PUSH1 0x0 KECCAK256 PUSH1 0x0 ADD PUSH1 0x0 DUP4 PUSH20 0xFFFFFFFFFFFFFFFFFFFFFFFFFFFFFFFFFFFFFFFF AND PUSH20 0xFFFFFFFFFFFFFFFFFFFFFFFFFFFFFFFFFFFFFFFF AND DUP2 MSTORE PUSH1 0x20 ADD SWAP1 DUP2 MSTORE PUSH1 0x20 ADD PUSH1 0x0 KECCAK256 PUSH1 0x0 PUSH2 0x100 EXP DUP2 SLOAD DUP2 PUSH1 0xFF MUL NOT AND SWAP1 DUP4 ISZERO ISZERO MUL OR SWAP1 SSTORE POP JUMPDEST POP POP JUMP JUMPDEST PUSH2 0xF88 DUP3 DUP3 PUSH2 0x8D6 JUMP JUMPDEST ISZERO PUSH2 0x105B JUMPI PUSH1 0x0 DUP1 PUSH1 0x0 DUP5 DUP2 MSTORE PUSH1 0x20 ADD SWAP1 DUP2 MSTORE PUSH1 0x20 ADD PUSH1 0x0 KECCAK256 PUSH1 0x0 ADD PUSH1 0x0 DUP4 PUSH20 0xFFFFFFFFFFFFFFFFFFFFFFFFFFFFFFFFFFFFFFFF AND PUSH20 0xFFFFFFFFFFFFFFFFFFFFFFFFFFFFFFFFFFFFFFFF AND DUP2 MSTORE PUSH1 0x20 ADD SWAP1 DUP2 MSTORE PUSH1 0x20 ADD PUSH1 0x0 KECCAK256 PUSH1 0x0 PUSH2 0x100 EXP DUP2 SLOAD DUP2 PUSH1 0xFF MUL NOT AND SWAP1 DUP4 ISZERO ISZERO MUL OR SWAP1 SSTORE POP PUSH2 0x1000 PUSH2 0xE5B JUMP JUMPDEST PUSH20 0xFFFFFFFFFFFFFFFFFFFFFFFFFFFFFFFFFFFFFFFF AND DUP2 PUSH20 0xFFFFFFFFFFFFFFFFFFFFFFFFFFFFFFFFFFFFFFFF AND DUP4 PUSH32 0xF6391F5C32D9C69D2A47EA670B442974B53935D1EDC7FD64EB21E047A839171B PUSH1 0x40 MLOAD PUSH1 0x40 MLOAD DUP1 SWAP2 SUB SWAP1 LOG4 JUMPDEST POP POP JUMP JUMPDEST PUSH1 0x0 PUSH1 0x40 MLOAD DUP1 PUSH1 0x20 ADD PUSH1 0x40 MSTORE DUP1 PUSH1 0x0 DUP2 MSTORE POP SWAP1 POP PUSH1 0x60 SWAP1 POP PUSH2 0x1087 PUSH1 0x0 DUP4 PUSH1 0x0 DUP1 DUP6 DUP9 PUSH2 0x168E JUMP JUMPDEST POP POP POP POP POP POP POP JUMP JUMPDEST PUSH1 0x0 PUSH1 0x40 MLOAD DUP1 PUSH1 0xE0 ADD PUSH1 0x40 MSTORE DUP1 CALLER PUSH20 0xFFFFFFFFFFFFFFFFFFFFFFFFFFFFFFFFFFFFFFFF AND DUP2 MSTORE PUSH1 0x20 ADD DUP6 DUP2 MSTORE PUSH1 0x20 ADD DUP5 DUP2 MSTORE PUSH1 0x20 ADD PUSH1 0x0 DUP2 MSTORE PUSH1 0x20 ADD PUSH1 0x0 DUP2 MSTORE PUSH1 0x20 ADD DUP4 DUP2 MSTORE PUSH1 0x20 ADD PUSH1 0x0 PUSH1 0x4 DUP2 GT ISZERO PUSH2 0x10ED JUMPI PUSH2 0x10EC PUSH2 0x30F7 JUMP JUMPDEST JUMPDEST DUP2 MSTORE POP SWAP1 POP DUP1 PUSH1 0x1 DUP6 PUSH1 0x40 MLOAD PUSH2 0x1103 SWAP2 SWAP1 PUSH2 0x3445 JUMP JUMPDEST SWAP1 DUP2 MSTORE PUSH1 0x20 ADD PUSH1 0x40 MLOAD DUP1 SWAP2 SUB SWAP1 KECCAK256 PUSH1 0x0 DUP3 ADD MLOAD DUP2 PUSH1 0x0 ADD PUSH1 0x0 PUSH2 0x100 EXP DUP2 SLOAD DUP2 PUSH20 0xFFFFFFFFFFFFFFFFFFFFFFFFFFFFFFFFFFFFFFFF MUL NOT AND SWAP1 DUP4 PUSH20 0xFFFFFFFFFFFFFFFFFFFFFFFFFFFFFFFFFFFFFFFF AND MUL OR SWAP1 SSTORE POP PUSH1 0x20 DUP3 ADD MLOAD DUP2 PUSH1 0x1 ADD SWAP1 DUP2 PUSH2 0x116D SWAP2 SWAP1 PUSH2 0x393C JUMP JUMPDEST POP PUSH1 0x40 DUP3 ADD MLOAD DUP2 PUSH1 0x2 ADD SSTORE PUSH1 0x60 DUP3 ADD MLOAD DUP2 PUSH1 0x3 ADD SSTORE PUSH1 0x80 DUP3 ADD MLOAD DUP2 PUSH1 0x4 ADD SSTORE PUSH1 0xA0 DUP3 ADD MLOAD DUP2 PUSH1 0x5 ADD SSTORE PUSH1 0xC0 DUP3 ADD MLOAD DUP2 PUSH1 0x6 ADD PUSH1 0x0 PUSH2 0x100 EXP DUP2 SLOAD DUP2 PUSH1 0xFF MUL NOT AND SWAP1 DUP4 PUSH1 0x4 DUP2 GT ISZERO PUSH2 0x11C1 JUMPI PUSH2 0x11C0 PUSH2 0x30F7 JUMP JUMPDEST JUMPDEST MUL OR SWAP1 SSTORE POP SWAP1 POP POP POP POP POP POP JUMP JUMPDEST PUSH1 0x0 DUP2 DUP4 PUSH2 0x11DD SWAP2 SWAP1 PUSH2 0x3A3D JUMP JUMPDEST SWAP1 POP SWAP3 SWAP2 POP POP JUMP JUMPDEST PUSH1 0x0 DUP2 DUP4 PUSH2 0x11F3 SWAP2 SWAP1 PUSH2 0x3AA0 JUMP JUMPDEST SWAP1 POP SWAP3 SWAP2 POP POP JUMP JUMPDEST PUSH1 0x0 DUP1 PUSH2 0x121F PUSH1 0x40 MLOAD DUP1 PUSH1 0x20 ADD PUSH1 0x40 MSTORE DUP1 DUP6 PUSH8 0xFFFFFFFFFFFFFFFF AND DUP2 MSTORE POP PUSH2 0x1313 JUMP JUMPDEST SWAP1 POP PUSH1 0x0 PUSH2 0x1244 PUSH1 0x40 MLOAD DUP1 PUSH1 0x20 ADD PUSH1 0x40 MSTORE DUP1 DUP7 PUSH8 0xFFFFFFFFFFFFFFFF AND DUP2 MSTORE POP PUSH2 0x177C JUMP JUMPDEST SWAP1 POP PUSH2 0x1267 DUP3 PUSH1 0x0 ADD MLOAD DUP3 PUSH1 0x0 ADD MLOAD DUP5 PUSH1 0x20 ADD MLOAD PUSH8 0xFFFFFFFFFFFFFFFF AND PUSH2 0x1800 JUMP JUMPDEST PUSH1 0x0 PUSH2 0x128A PUSH1 0x40 MLOAD DUP1 PUSH1 0x20 ADD PUSH1 0x40 MSTORE DUP1 DUP8 PUSH8 0xFFFFFFFFFFFFFFFF AND DUP2 MSTORE POP PUSH2 0x196C JUMP JUMPDEST SWAP1 POP PUSH1 0x3 PUSH1 0x1 DUP5 PUSH1 0x0 ADD MLOAD PUSH1 0x40 MLOAD PUSH2 0x12A2 SWAP2 SWAP1 PUSH2 0x3445 JUMP JUMPDEST SWAP1 DUP2 MSTORE PUSH1 0x20 ADD PUSH1 0x40 MLOAD DUP1 SWAP2 SUB SWAP1 KECCAK256 PUSH1 0x6 ADD PUSH1 0x0 PUSH2 0x100 EXP DUP2 SLOAD DUP2 PUSH1 0xFF MUL NOT AND SWAP1 DUP4 PUSH1 0x4 DUP2 GT ISZERO PUSH2 0x12D5 JUMPI PUSH2 0x12D4 PUSH2 0x30F7 JUMP JUMPDEST JUMPDEST MUL OR SWAP1 SSTORE POP TIMESTAMP PUSH1 0x1 DUP5 PUSH1 0x0 ADD MLOAD PUSH1 0x40 MLOAD PUSH2 0x12EF SWAP2 SWAP1 PUSH2 0x3445 JUMP JUMPDEST SWAP1 DUP2 MSTORE PUSH1 0x20 ADD PUSH1 0x40 MLOAD DUP1 SWAP2 SUB SWAP1 KECCAK256 PUSH1 0x4 ADD DUP2 SWAP1 SSTORE POP DUP1 PUSH1 0x0 ADD MLOAD SWAP4 POP POP POP POP SWAP2 SWAP1 POP JUMP JUMPDEST PUSH2 0x131B PUSH2 0x2A25 JUMP JUMPDEST PUSH1 0x0 PUSH2 0x1326 DUP4 PUSH2 0x19F0 JUMP JUMPDEST SWAP1 POP PUSH1 0x0 PUSH2 0x136F PUSH4 0x4505760A PUSH1 0x40 MLOAD DUP1 PUSH1 0x40 ADD PUSH1 0x40 MSTORE DUP1 PUSH1 0x2 DUP2 MSTORE PUSH1 0x20 ADD PUSH31 0x5000000000000000000000000000000000000000000000000000000000000 DUP2 MSTORE POP DUP5 PUSH1 0x71 PUSH2 0x1A28 JUMP JUMPDEST SWAP1 POP PUSH2 0x1379 PUSH2 0x2A25 JUMP JUMPDEST PUSH2 0x138C DUP3 DUP3 PUSH2 0x1A53 SWAP1 SWAP2 SWAP1 PUSH4 0xFFFFFFFF AND JUMP JUMPDEST DUP1 SWAP4 POP POP POP POP SWAP2 SWAP1 POP JUMP JUMPDEST PUSH2 0x13A1 DUP2 DUP4 PUSH2 0x1AD4 JUMP JUMPDEST POP POP JUMP JUMPDEST PUSH1 0x1 PUSH1 0x4 DUP2 GT ISZERO PUSH2 0x13B9 JUMPI PUSH2 0x13B8 PUSH2 0x30F7 JUMP JUMPDEST JUMPDEST DUP2 PUSH1 0x4 DUP2 GT ISZERO PUSH2 0x13CC JUMPI PUSH2 0x13CB PUSH2 0x30F7 JUMP JUMPDEST JUMPDEST EQ DUP1 PUSH2 0x13FC JUMPI POP PUSH1 0x2 PUSH1 0x4 DUP2 GT ISZERO PUSH2 0x13E7 JUMPI PUSH2 0x13E6 PUSH2 0x30F7 JUMP JUMPDEST JUMPDEST DUP2 PUSH1 0x4 DUP2 GT ISZERO PUSH2 0x13FA JUMPI PUSH2 0x13F9 PUSH2 0x30F7 JUMP JUMPDEST JUMPDEST EQ JUMPDEST PUSH2 0x1405 JUMPI PUSH1 0x0 DUP1 REVERT JUMPDEST DUP1 PUSH1 0x1 DUP4 PUSH1 0x40 MLOAD PUSH2 0x1416 SWAP2 SWAP1 PUSH2 0x3445 JUMP JUMPDEST SWAP1 DUP2 MSTORE PUSH1 0x20 ADD PUSH1 0x40 MLOAD DUP1 SWAP2 SUB SWAP1 KECCAK256 PUSH1 0x6 ADD PUSH1 0x0 PUSH2 0x100 EXP DUP2 SLOAD DUP2 PUSH1 0xFF MUL NOT AND SWAP1 DUP4 PUSH1 0x4 DUP2 GT ISZERO PUSH2 0x1449 JUMPI PUSH2 0x1448 PUSH2 0x30F7 JUMP JUMPDEST JUMPDEST MUL OR SWAP1 SSTORE POP POP POP JUMP JUMPDEST PUSH1 0x60 PUSH1 0x0 PUSH1 0x2 DUP4 PUSH1 0x2 PUSH2 0x1465 SWAP2 SWAP1 PUSH2 0x3AD1 JUMP JUMPDEST PUSH2 0x146F SWAP2 SWAP1 PUSH2 0x3B13 JUMP JUMPDEST PUSH8 0xFFFFFFFFFFFFFFFF DUP2 GT ISZERO PUSH2 0x1488 JUMPI PUSH2 0x1487 PUSH2 0x2BA7 JUMP JUMPDEST JUMPDEST PUSH1 0x40 MLOAD SWAP1 DUP1 DUP3 MSTORE DUP1 PUSH1 0x1F ADD PUSH1 0x1F NOT AND PUSH1 0x20 ADD DUP3 ADD PUSH1 0x40 MSTORE DUP1 ISZERO PUSH2 0x14BA JUMPI DUP2 PUSH1 0x20 ADD PUSH1 0x1 DUP3 MUL DUP1 CALLDATASIZE DUP4 CALLDATACOPY DUP1 DUP3 ADD SWAP2 POP POP SWAP1 POP JUMPDEST POP SWAP1 POP PUSH32 0x3000000000000000000000000000000000000000000000000000000000000000 DUP2 PUSH1 0x0 DUP2 MLOAD DUP2 LT PUSH2 0x14F2 JUMPI PUSH2 0x14F1 PUSH2 0x3B47 JUMP JUMPDEST JUMPDEST PUSH1 0x20 ADD ADD SWAP1 PUSH31 0xFFFFFFFFFFFFFFFFFFFFFFFFFFFFFFFFFFFFFFFFFFFFFFFFFFFFFFFFFFFFFF NOT AND SWAP1 DUP2 PUSH1 0x0 BYTE SWAP1 MSTORE8 POP PUSH32 0x7800000000000000000000000000000000000000000000000000000000000000 DUP2 PUSH1 0x1 DUP2 MLOAD DUP2 LT PUSH2 0x1556 JUMPI PUSH2 0x1555 PUSH2 0x3B47 JUMP JUMPDEST JUMPDEST PUSH1 0x20 ADD ADD SWAP1 PUSH31 0xFFFFFFFFFFFFFFFFFFFFFFFFFFFFFFFFFFFFFFFFFFFFFFFFFFFFFFFFFFFFFF NOT AND SWAP1 DUP2 PUSH1 0x0 BYTE SWAP1 MSTORE8 POP PUSH1 0x0 PUSH1 0x1 DUP5 PUSH1 0x2 PUSH2 0x1596 SWAP2 SWAP1 PUSH2 0x3AD1 JUMP JUMPDEST PUSH2 0x15A0 SWAP2 SWAP1 PUSH2 0x3B13 JUMP JUMPDEST SWAP1 POP JUMPDEST PUSH1 0x1 DUP2 GT ISZERO PUSH2 0x1640 JUMPI PUSH32 0x3031323334353637383961626364656600000000000000000000000000000000 PUSH1 0xF DUP7 AND PUSH1 0x10 DUP2 LT PUSH2 0x15E2 JUMPI PUSH2 0x15E1 PUSH2 0x3B47 JUMP JUMPDEST JUMPDEST BYTE PUSH1 0xF8 SHL DUP3 DUP3 DUP2 MLOAD DUP2 LT PUSH2 0x15F9 JUMPI PUSH2 0x15F8 PUSH2 0x3B47 JUMP JUMPDEST JUMPDEST PUSH1 0x20 ADD ADD SWAP1 PUSH31 0xFFFFFFFFFFFFFFFFFFFFFFFFFFFFFFFFFFFFFFFFFFFFFFFFFFFFFFFFFFFFFF NOT AND SWAP1 DUP2 PUSH1 0x0 BYTE SWAP1 MSTORE8 POP PUSH1 0x4 DUP6 SWAP1 SHR SWAP5 POP DUP1 PUSH2 0x1639 SWAP1 PUSH2 0x3B76 JUMP JUMPDEST SWAP1 POP PUSH2 0x15A3 JUMP JUMPDEST POP PUSH1 0x0 DUP5 EQ PUSH2 0x1684 JUMPI PUSH1 0x40 MLOAD PUSH32 0x8C379A000000000000000000000000000000000000000000000000000000000 DUP2 MSTORE PUSH1 0x4 ADD PUSH2 0x167B SWAP1 PUSH2 0x3BEB JUMP JUMPDEST PUSH1 0x40 MLOAD DUP1 SWAP2 SUB SWAP1 REVERT JUMPDEST DUP1 SWAP2 POP POP SWAP3 SWAP2 POP POP JUMP JUMPDEST PUSH1 0x0 DUP1 PUSH1 0x0 PUSH1 0x60 PUSH1 0x0 DUP1 PUSH20 0xFE00000000000000000000000000000000000005 PUSH20 0xFFFFFFFFFFFFFFFFFFFFFFFFFFFFFFFFFFFFFFFF AND DUP13 DUP13 DUP13 DUP13 DUP13 DUP13 PUSH1 0x40 MLOAD PUSH1 0x20 ADD PUSH2 0x16DE SWAP7 SWAP6 SWAP5 SWAP4 SWAP3 SWAP2 SWAP1 PUSH2 0x3C0B JUMP JUMPDEST PUSH1 0x40 MLOAD PUSH1 0x20 DUP2 DUP4 SUB SUB DUP2 MSTORE SWAP1 PUSH1 0x40 MSTORE PUSH1 0x40 MLOAD PUSH2 0x16FA SWAP2 SWAP1 PUSH2 0x3445 JUMP JUMPDEST PUSH1 0x0 PUSH1 0x40 MLOAD DUP1 DUP4 SUB DUP2 DUP6 GAS DELEGATECALL SWAP2 POP POP RETURNDATASIZE DUP1 PUSH1 0x0 DUP2 EQ PUSH2 0x1735 JUMPI PUSH1 0x40 MLOAD SWAP2 POP PUSH1 0x1F NOT PUSH1 0x3F RETURNDATASIZE ADD AND DUP3 ADD PUSH1 0x40 MSTORE RETURNDATASIZE DUP3 MSTORE RETURNDATASIZE PUSH1 0x0 PUSH1 0x20 DUP5 ADD RETURNDATACOPY PUSH2 0x173A JUMP JUMPDEST PUSH1 0x60 SWAP2 POP JUMPDEST POP SWAP2 POP SWAP2 POP PUSH1 0x0 DUP1 PUSH1 0x0 DUP4 DUP1 PUSH1 0x20 ADD SWAP1 MLOAD DUP2 ADD SWAP1 PUSH2 0x1758 SWAP2 SWAP1 PUSH2 0x3D2E JUMP JUMPDEST SWAP3 POP SWAP3 POP SWAP3 POP DUP5 DUP4 DUP4 DUP4 SWAP9 POP SWAP9 POP SWAP9 POP SWAP9 POP POP POP POP POP POP SWAP7 POP SWAP7 POP SWAP7 POP SWAP7 SWAP3 POP POP POP JUMP JUMPDEST PUSH2 0x1784 PUSH2 0x2A49 JUMP JUMPDEST PUSH1 0x0 PUSH2 0x178F DUP4 PUSH2 0x1AE2 JUMP JUMPDEST SWAP1 POP PUSH1 0x0 PUSH2 0x17D8 PUSH4 0x37BC36DA PUSH1 0x40 MLOAD DUP1 PUSH1 0x40 ADD PUSH1 0x40 MSTORE DUP1 PUSH1 0x2 DUP2 MSTORE PUSH1 0x20 ADD PUSH31 0x5000000000000000000000000000000000000000000000000000000000000 DUP2 MSTORE POP DUP5 PUSH1 0x71 PUSH2 0x1A28 JUMP JUMPDEST SWAP1 POP PUSH2 0x17E2 PUSH2 0x2A49 JUMP JUMPDEST PUSH2 0x17F5 DUP3 DUP3 PUSH2 0x1B1A SWAP1 SWAP2 SWAP1 PUSH4 0xFFFFFFFF AND JUMP JUMPDEST DUP1 SWAP4 POP POP POP POP SWAP2 SWAP1 POP JUMP JUMPDEST PUSH1 0x1 PUSH1 0x4 DUP2 GT ISZERO PUSH2 0x1814 JUMPI PUSH2 0x1813 PUSH2 0x30F7 JUMP JUMPDEST JUMPDEST PUSH1 0x1 DUP5 PUSH1 0x40 MLOAD PUSH2 0x1824 SWAP2 SWAP1 PUSH2 0x3445 JUMP JUMPDEST SWAP1 DUP2 MSTORE PUSH1 0x20 ADD PUSH1 0x40 MLOAD DUP1 SWAP2 SUB SWAP1 KECCAK256 PUSH1 0x6 ADD PUSH1 0x0 SWAP1 SLOAD SWAP1 PUSH2 0x100 EXP SWAP1 DIV PUSH1 0xFF AND PUSH1 0x4 DUP2 GT ISZERO PUSH2 0x1855 JUMPI PUSH2 0x1854 PUSH2 0x30F7 JUMP JUMPDEST JUMPDEST EQ PUSH2 0x185F JUMPI PUSH1 0x0 DUP1 REVERT JUMPDEST DUP1 PUSH1 0x1 DUP5 PUSH1 0x40 MLOAD PUSH2 0x1870 SWAP2 SWAP1 PUSH2 0x3445 JUMP JUMPDEST SWAP1 DUP2 MSTORE PUSH1 0x20 ADD PUSH1 0x40 MLOAD DUP1 SWAP2 SUB SWAP1 KECCAK256 PUSH1 0x2 ADD SLOAD EQ PUSH2 0x18C2 JUMPI PUSH1 0x40 MLOAD PUSH32 0x8C379A000000000000000000000000000000000000000000000000000000000 DUP2 MSTORE PUSH1 0x4 ADD PUSH2 0x18B9 SWAP1 PUSH2 0x3DE9 JUMP JUMPDEST PUSH1 0x40 MLOAD DUP1 SWAP2 SUB SWAP1 REVERT JUMPDEST PUSH2 0x18CC DUP4 DUP4 PUSH2 0x1B55 JUMP JUMPDEST PUSH2 0x190B JUMPI PUSH1 0x40 MLOAD PUSH32 0x8C379A000000000000000000000000000000000000000000000000000000000 DUP2 MSTORE PUSH1 0x4 ADD PUSH2 0x1902 SWAP1 PUSH2 0x3E7B JUMP JUMPDEST PUSH1 0x40 MLOAD DUP1 SWAP2 SUB SWAP1 REVERT JUMPDEST PUSH1 0x1 PUSH1 0x2 DUP5 PUSH1 0x40 MLOAD PUSH2 0x191D SWAP2 SWAP1 PUSH2 0x3445 JUMP JUMPDEST SWAP1 DUP2 MSTORE PUSH1 0x20 ADD PUSH1 0x40 MLOAD DUP1 SWAP2 SUB SWAP1 KECCAK256 PUSH1 0x0 DUP5 PUSH8 0xFFFFFFFFFFFFFFFF AND PUSH8 0xFFFFFFFFFFFFFFFF AND DUP2 MSTORE PUSH1 0x20 ADD SWAP1 DUP2 MSTORE PUSH1 0x20 ADD PUSH1 0x0 KECCAK256 PUSH1 0x0 PUSH2 0x100 EXP DUP2 SLOAD DUP2 PUSH1 0xFF MUL NOT AND SWAP1 DUP4 ISZERO ISZERO MUL OR SWAP1 SSTORE POP POP POP POP JUMP JUMPDEST PUSH2 0x1974 PUSH2 0x2A66 JUMP JUMPDEST PUSH1 0x0 PUSH2 0x197F DUP4 PUSH2 0x1BB6 JUMP JUMPDEST SWAP1 POP PUSH1 0x0 PUSH2 0x19C8 PUSH4 0x7A1F051 PUSH1 0x40 MLOAD DUP1 PUSH1 0x40 ADD PUSH1 0x40 MSTORE DUP1 PUSH1 0x2 DUP2 MSTORE PUSH1 0x20 ADD PUSH31 0x5000000000000000000000000000000000000000000000000000000000000 DUP2 MSTORE POP DUP5 PUSH1 0x71 PUSH2 0x1A28 JUMP JUMPDEST SWAP1 POP PUSH2 0x19D2 PUSH2 0x2A66 JUMP JUMPDEST PUSH2 0x19E5 DUP3 DUP3 PUSH2 0x1BEE SWAP1 SWAP2 SWAP1 PUSH4 0xFFFFFFFF AND JUMP JUMPDEST DUP1 SWAP4 POP POP POP POP SWAP2 SWAP1 POP JUMP JUMPDEST PUSH1 0x60 PUSH1 0x0 PUSH2 0x19FE PUSH1 0x40 PUSH2 0x1C29 JUMP JUMPDEST SWAP1 POP PUSH2 0x1A17 DUP4 PUSH1 0x0 ADD MLOAD DUP3 PUSH2 0x1C50 SWAP1 SWAP2 SWAP1 PUSH4 0xFFFFFFFF AND JUMP JUMPDEST PUSH2 0x1A20 DUP2 PUSH2 0x1C60 JUMP JUMPDEST SWAP2 POP POP SWAP2 SWAP1 POP JUMP JUMPDEST PUSH1 0x60 PUSH2 0x1A49 PUSH2 0x1A36 DUP7 PUSH2 0x1CB9 JUMP JUMPDEST PUSH8 0xFFFFFFFFFFFFFFFF AND DUP6 DUP6 DUP6 CALLVALUE PUSH2 0x1CC3 JUMP JUMPDEST SWAP1 POP SWAP5 SWAP4 POP POP POP POP JUMP JUMPDEST PUSH1 0x0 DUP1 PUSH2 0x1A69 DUP3 DUP5 PUSH2 0x1D68 SWAP1 SWAP2 SWAP1 PUSH4 0xFFFFFFFF AND JUMP JUMPDEST DUP1 SWAP4 POP DUP2 SWAP3 POP POP POP PUSH1 0x0 DUP2 GT ISZERO PUSH2 0x1ACE JUMPI PUSH2 0x1A8D DUP3 DUP5 PUSH2 0x1DB7 SWAP1 SWAP2 SWAP1 PUSH4 0xFFFFFFFF AND JUMP JUMPDEST DUP6 PUSH1 0x0 ADD DUP2 SWAP5 POP DUP3 SWAP1 MSTORE POP POP PUSH2 0x1AAC DUP3 DUP5 PUSH2 0x1F61 SWAP1 SWAP2 SWAP1 PUSH4 0xFFFFFFFF AND JUMP JUMPDEST DUP6 PUSH1 0x20 ADD DUP2 SWAP5 POP DUP3 PUSH8 0xFFFFFFFFFFFFFFFF AND PUSH8 0xFFFFFFFFFFFFFFFF AND DUP2 MSTORE POP POP POP JUMPDEST POP POP POP POP JUMP JUMPDEST PUSH2 0x1ADE DUP3 DUP3 PUSH2 0xF00 JUMP JUMPDEST POP POP JUMP JUMPDEST PUSH1 0x60 PUSH1 0x0 PUSH2 0x1AF0 PUSH1 0x40 PUSH2 0x1C29 JUMP JUMPDEST SWAP1 POP PUSH2 0x1B09 DUP4 PUSH1 0x0 ADD MLOAD DUP3 PUSH2 0x1C50 SWAP1 SWAP2 SWAP1 PUSH4 0xFFFFFFFF AND JUMP JUMPDEST PUSH2 0x1B12 DUP2 PUSH2 0x1C60 JUMP JUMPDEST SWAP2 POP POP SWAP2 SWAP1 POP JUMP JUMPDEST PUSH1 0x0 PUSH2 0x1B2F DUP2 DUP4 PUSH2 0x1F61 SWAP1 SWAP2 SWAP1 PUSH4 0xFFFFFFFF AND JUMP JUMPDEST DUP5 PUSH1 0x0 ADD DUP2 SWAP4 POP DUP3 PUSH8 0xFFFFFFFFFFFFFFFF AND PUSH8 0xFFFFFFFFFFFFFFFF AND DUP2 MSTORE POP POP POP POP POP POP JUMP JUMPDEST PUSH1 0x0 DUP1 PUSH1 0x2 DUP5 PUSH1 0x40 MLOAD PUSH2 0x1B68 SWAP2 SWAP1 PUSH2 0x3445 JUMP JUMPDEST SWAP1 DUP2 MSTORE PUSH1 0x20 ADD PUSH1 0x40 MLOAD DUP1 SWAP2 SUB SWAP1 KECCAK256 PUSH1 0x0 DUP5 PUSH8 0xFFFFFFFFFFFFFFFF AND PUSH8 0xFFFFFFFFFFFFFFFF AND DUP2 MSTORE PUSH1 0x20 ADD SWAP1 DUP2 MSTORE PUSH1 0x20 ADD PUSH1 0x0 KECCAK256 PUSH1 0x0 SWAP1 SLOAD SWAP1 PUSH2 0x100 EXP SWAP1 DIV PUSH1 0xFF AND SWAP1 POP DUP1 ISZERO SWAP2 POP POP SWAP3 SWAP2 POP POP JUMP JUMPDEST PUSH1 0x60 PUSH1 0x0 PUSH2 0x1BC4 PUSH1 0x40 PUSH2 0x1C29 JUMP JUMPDEST SWAP1 POP PUSH2 0x1BDD DUP4 PUSH1 0x0 ADD MLOAD DUP3 PUSH2 0x1C50 SWAP1 SWAP2 SWAP1 PUSH4 0xFFFFFFFF AND JUMP JUMPDEST PUSH2 0x1BE6 DUP2 PUSH2 0x1C60 JUMP JUMPDEST SWAP2 POP POP SWAP2 SWAP1 POP JUMP JUMPDEST PUSH1 0x0 PUSH2 0x1C03 DUP2 DUP4 PUSH2 0x1F61 SWAP1 SWAP2 SWAP1 PUSH4 0xFFFFFFFF AND JUMP JUMPDEST DUP5 PUSH1 0x0 ADD DUP2 SWAP4 POP DUP3 PUSH8 0xFFFFFFFFFFFFFFFF AND PUSH8 0xFFFFFFFFFFFFFFFF AND DUP2 MSTORE POP POP POP POP POP POP JUMP JUMPDEST PUSH2 0x1C31 PUSH2 0x2A83 JUMP JUMPDEST PUSH2 0x1C3F DUP2 PUSH1 0x0 ADD MLOAD DUP4 PUSH2 0x1FB0 JUMP JUMPDEST POP PUSH1 0x0 DUP2 PUSH1 0x20 ADD DUP2 DUP2 MSTORE POP POP SWAP2 SWAP1 POP JUMP JUMPDEST PUSH2 0x1C5C DUP3 PUSH1 0x0 DUP4 PUSH2 0x2029 JUMP JUMPDEST POP POP JUMP JUMPDEST PUSH1 0x60 PUSH1 0x0 DUP3 PUSH1 0x20 ADD MLOAD EQ PUSH2 0x1CA9 JUMPI PUSH1 0x40 MLOAD PUSH32 0x8C379A000000000000000000000000000000000000000000000000000000000 DUP2 MSTORE PUSH1 0x4 ADD PUSH2 0x1CA0 SWAP1 PUSH2 0x3EE7 JUMP JUMPDEST PUSH1 0x40 MLOAD DUP1 SWAP2 SUB SWAP1 REVERT JUMPDEST DUP2 PUSH1 0x0 ADD MLOAD PUSH1 0x0 ADD MLOAD SWAP1 POP SWAP2 SWAP1 POP JUMP JUMPDEST PUSH1 0x0 DUP2 SWAP1 POP SWAP2 SWAP1 POP JUMP JUMPDEST PUSH1 0x60 PUSH1 0x0 DUP1 PUSH1 0x0 DUP1 PUSH2 0x1CE2 PUSH2 0x1CD7 DUP12 PUSH2 0x1CB9 JUMP JUMPDEST DUP8 PUSH1 0x0 DUP11 DUP13 DUP15 PUSH2 0x21D2 JUMP JUMPDEST SWAP4 POP SWAP4 POP SWAP4 POP SWAP4 POP PUSH1 0x0 DUP4 EQ PUSH2 0x1CF7 DUP5 PUSH2 0x22C0 JUMP JUMPDEST PUSH1 0x40 MLOAD PUSH1 0x20 ADD PUSH2 0x1D07 SWAP2 SWAP1 PUSH2 0x3F2D JUMP JUMPDEST PUSH1 0x40 MLOAD PUSH1 0x20 DUP2 DUP4 SUB SUB DUP2 MSTORE SWAP1 PUSH1 0x40 MSTORE SWAP1 PUSH2 0x1D57 JUMPI PUSH1 0x40 MLOAD PUSH32 0x8C379A000000000000000000000000000000000000000000000000000000000 DUP2 MSTORE PUSH1 0x4 ADD PUSH2 0x1D4E SWAP2 SWAP1 PUSH2 0x3778 JUMP JUMPDEST PUSH1 0x40 MLOAD DUP1 SWAP2 SUB SWAP1 REVERT JUMPDEST POP DUP1 SWAP5 POP POP POP POP POP SWAP6 SWAP5 POP POP POP POP POP JUMP JUMPDEST PUSH1 0x0 DUP1 PUSH1 0x0 DUP1 PUSH2 0x1D78 DUP7 DUP7 PUSH2 0x238E JUMP JUMPDEST DUP2 PUSH8 0xFFFFFFFFFFFFFFFF AND SWAP2 POP DUP1 SWAP8 POP DUP2 SWAP4 POP DUP3 SWAP5 POP POP POP POP PUSH1 0x4 PUSH1 0xFF AND DUP3 PUSH1 0xFF AND EQ PUSH2 0x1DA8 JUMPI PUSH2 0x1DA7 PUSH2 0x3F53 JUMP JUMPDEST JUMPDEST DUP1 DUP6 SWAP4 POP SWAP4 POP POP POP SWAP3 POP SWAP3 SWAP1 POP JUMP JUMPDEST PUSH1 0x60 PUSH1 0x0 DUP1 PUSH1 0x0 PUSH2 0x1DC8 DUP7 DUP7 PUSH2 0x238E JUMP JUMPDEST DUP2 PUSH8 0xFFFFFFFFFFFFFFFF AND SWAP2 POP DUP1 SWAP8 POP DUP2 SWAP4 POP DUP3 SWAP5 POP POP POP POP PUSH1 0x6 PUSH1 0xFF AND DUP3 PUSH1 0xFF AND EQ DUP1 PUSH2 0x1DFC JUMPI POP PUSH1 0x2 PUSH1 0xFF AND DUP3 PUSH1 0xFF AND EQ JUMPDEST PUSH2 0x1E09 JUMPI PUSH2 0x1E08 PUSH2 0x3F53 JUMP JUMPDEST JUMPDEST PUSH1 0x6 PUSH1 0xFF AND DUP3 PUSH1 0xFF AND SUB PUSH2 0x1E52 JUMPI PUSH2 0x1E21 DUP7 DUP7 PUSH2 0x238E JUMP JUMPDEST DUP2 PUSH8 0xFFFFFFFFFFFFFFFF AND SWAP2 POP DUP1 SWAP8 POP DUP2 SWAP4 POP DUP3 SWAP5 POP POP POP POP PUSH1 0x2 PUSH1 0xFF AND DUP3 PUSH1 0xFF AND EQ PUSH2 0x1E51 JUMPI PUSH2 0x1E50 PUSH2 0x3F53 JUMP JUMPDEST JUMPDEST JUMPDEST PUSH1 0x0 DUP2 DUP7 PUSH2 0x1E60 SWAP2 SWAP1 PUSH2 0x3B13 JUMP JUMPDEST SWAP1 POP PUSH1 0x0 DUP3 PUSH8 0xFFFFFFFFFFFFFFFF DUP2 GT ISZERO PUSH2 0x1E7E JUMPI PUSH2 0x1E7D PUSH2 0x2BA7 JUMP JUMPDEST JUMPDEST PUSH1 0x40 MLOAD SWAP1 DUP1 DUP3 MSTORE DUP1 PUSH1 0x1F ADD PUSH1 0x1F NOT AND PUSH1 0x20 ADD DUP3 ADD PUSH1 0x40 MSTORE DUP1 ISZERO PUSH2 0x1EB0 JUMPI DUP2 PUSH1 0x20 ADD PUSH1 0x1 DUP3 MUL DUP1 CALLDATASIZE DUP4 CALLDATACOPY DUP1 DUP3 ADD SWAP2 POP POP SWAP1 POP JUMPDEST POP SWAP1 POP PUSH1 0x0 DUP1 DUP9 SWAP1 POP JUMPDEST DUP4 DUP2 LT ISZERO PUSH2 0x1F43 JUMPI DUP10 DUP2 DUP2 MLOAD DUP2 LT PUSH2 0x1ED5 JUMPI PUSH2 0x1ED4 PUSH2 0x3B47 JUMP JUMPDEST JUMPDEST PUSH1 0x20 ADD ADD MLOAD PUSH1 0xF8 SHR PUSH1 0xF8 SHL DUP4 DUP4 DUP2 MLOAD DUP2 LT PUSH2 0x1EF3 JUMPI PUSH2 0x1EF2 PUSH2 0x3B47 JUMP JUMPDEST JUMPDEST PUSH1 0x20 ADD ADD SWAP1 PUSH31 0xFFFFFFFFFFFFFFFFFFFFFFFFFFFFFFFFFFFFFFFFFFFFFFFFFFFFFFFFFFFFFF NOT AND SWAP1 DUP2 PUSH1 0x0 BYTE SWAP1 MSTORE8 POP DUP2 DUP1 PUSH2 0x1F2D SWAP1 PUSH2 0x3F82 JUMP JUMPDEST SWAP3 POP POP DUP1 DUP1 PUSH2 0x1F3B SWAP1 PUSH2 0x3F82 JUMP JUMPDEST SWAP2 POP POP PUSH2 0x1EBA JUMP JUMPDEST POP DUP2 DUP5 DUP10 PUSH2 0x1F51 SWAP2 SWAP1 PUSH2 0x3B13 JUMP JUMPDEST SWAP7 POP SWAP7 POP POP POP POP POP POP SWAP3 POP SWAP3 SWAP1 POP JUMP JUMPDEST PUSH1 0x0 DUP1 PUSH1 0x0 DUP1 PUSH2 0x1F71 DUP7 DUP7 PUSH2 0x238E JUMP JUMPDEST DUP2 PUSH8 0xFFFFFFFFFFFFFFFF AND SWAP2 POP DUP1 SWAP8 POP DUP2 SWAP4 POP DUP3 SWAP5 POP POP POP POP PUSH1 0x0 PUSH1 0xFF AND DUP3 PUSH1 0xFF AND EQ PUSH2 0x1FA1 JUMPI PUSH2 0x1FA0 PUSH2 0x3F53 JUMP JUMPDEST JUMPDEST DUP1 DUP6 SWAP4 POP SWAP4 POP POP POP SWAP3 POP SWAP3 SWAP1 POP JUMP JUMPDEST PUSH2 0x1FB8 PUSH2 0x2AA3 JUMP JUMPDEST PUSH1 0x0 PUSH1 0x20 DUP4 PUSH2 0x1FC7 SWAP2 SWAP1 PUSH2 0x3FCA JUMP JUMPDEST EQ PUSH2 0x1FF3 JUMPI PUSH1 0x20 DUP3 PUSH2 0x1FD9 SWAP2 SWAP1 PUSH2 0x3FCA JUMP JUMPDEST PUSH1 0x20 PUSH2 0x1FE5 SWAP2 SWAP1 PUSH2 0x3A3D JUMP JUMPDEST DUP3 PUSH2 0x1FF0 SWAP2 SWAP1 PUSH2 0x3B13 JUMP JUMPDEST SWAP2 POP JUMPDEST DUP2 DUP4 PUSH1 0x20 ADD DUP2 DUP2 MSTORE POP POP PUSH1 0x40 MLOAD DUP1 DUP5 MSTORE PUSH1 0x0 DUP2 MSTORE DUP3 DUP2 ADD PUSH1 0x20 ADD DUP2 DUP2 LT ISZERO PUSH2 0x201A JUMPI PUSH1 0x0 DUP1 REVERT JUMPDEST DUP1 PUSH1 0x40 MSTORE POP POP DUP3 SWAP1 POP SWAP3 SWAP2 POP POP JUMP JUMPDEST PUSH1 0x17 DUP2 PUSH8 0xFFFFFFFFFFFFFFFF AND GT PUSH2 0x2064 JUMPI PUSH2 0x205E DUP2 PUSH1 0x5 DUP5 PUSH1 0xFF AND SWAP1 SHL PUSH1 0xFF AND OR DUP5 PUSH1 0x0 ADD MLOAD PUSH2 0x251C SWAP1 SWAP2 SWAP1 PUSH4 0xFFFFFFFF AND JUMP JUMPDEST POP PUSH2 0x21CD JUMP JUMPDEST PUSH1 0xFF DUP2 PUSH8 0xFFFFFFFFFFFFFFFF AND GT PUSH2 0x20C2 JUMPI PUSH2 0x2097 PUSH1 0x18 PUSH1 0x5 DUP5 PUSH1 0xFF AND SWAP1 SHL OR DUP5 PUSH1 0x0 ADD MLOAD PUSH2 0x251C SWAP1 SWAP2 SWAP1 PUSH4 0xFFFFFFFF AND JUMP JUMPDEST POP PUSH2 0x20BC DUP2 PUSH8 0xFFFFFFFFFFFFFFFF AND PUSH1 0x1 DUP6 PUSH1 0x0 ADD MLOAD PUSH2 0x2586 SWAP1 SWAP3 SWAP2 SWAP1 PUSH4 0xFFFFFFFF AND JUMP JUMPDEST POP PUSH2 0x21CC JUMP JUMPDEST PUSH2 0xFFFF DUP2 PUSH8 0xFFFFFFFFFFFFFFFF AND GT PUSH2 0x2121 JUMPI PUSH2 0x20F6 PUSH1 0x19 PUSH1 0x5 DUP5 PUSH1 0xFF AND SWAP1 SHL OR DUP5 PUSH1 0x0 ADD MLOAD PUSH2 0x251C SWAP1 SWAP2 SWAP1 PUSH4 0xFFFFFFFF AND JUMP JUMPDEST POP PUSH2 0x211B DUP2 PUSH8 0xFFFFFFFFFFFFFFFF AND PUSH1 0x2 DUP6 PUSH1 0x0 ADD MLOAD PUSH2 0x2586 SWAP1 SWAP3 SWAP2 SWAP1 PUSH4 0xFFFFFFFF AND JUMP JUMPDEST POP PUSH2 0x21CB JUMP JUMPDEST PUSH4 0xFFFFFFFF DUP2 PUSH8 0xFFFFFFFFFFFFFFFF AND GT PUSH2 0x2182 JUMPI PUSH2 0x2157 PUSH1 0x1A PUSH1 0x5 DUP5 PUSH1 0xFF AND SWAP1 SHL OR DUP5 PUSH1 0x0 ADD MLOAD PUSH2 0x251C SWAP1 SWAP2 SWAP1 PUSH4 0xFFFFFFFF AND JUMP JUMPDEST POP PUSH2 0x217C DUP2 PUSH8 0xFFFFFFFFFFFFFFFF AND PUSH1 0x4 DUP6 PUSH1 0x0 ADD MLOAD PUSH2 0x2586 SWAP1 SWAP3 SWAP2 SWAP1 PUSH4 0xFFFFFFFF AND JUMP JUMPDEST POP PUSH2 0x21CA JUMP JUMPDEST PUSH2 0x21A3 PUSH1 0x1B PUSH1 0x5 DUP5 PUSH1 0xFF AND SWAP1 SHL OR DUP5 PUSH1 0x0 ADD MLOAD PUSH2 0x251C SWAP1 SWAP2 SWAP1 PUSH4 0xFFFFFFFF AND JUMP JUMPDEST POP PUSH2 0x21C8 DUP2 PUSH8 0xFFFFFFFFFFFFFFFF AND PUSH1 0x8 DUP6 PUSH1 0x0 ADD MLOAD PUSH2 0x2586 SWAP1 SWAP3 SWAP2 SWAP1 PUSH4 0xFFFFFFFF AND JUMP JUMPDEST POP JUMPDEST JUMPDEST JUMPDEST JUMPDEST POP POP POP JUMP JUMPDEST PUSH1 0x0 DUP1 PUSH1 0x0 PUSH1 0x60 PUSH1 0x0 DUP1 PUSH20 0xFE00000000000000000000000000000000000003 PUSH20 0xFFFFFFFFFFFFFFFFFFFFFFFFFFFFFFFFFFFFFFFF AND DUP13 DUP13 DUP13 DUP13 DUP13 DUP13 PUSH1 0x40 MLOAD PUSH1 0x20 ADD PUSH2 0x2222 SWAP7 SWAP6 SWAP5 SWAP4 SWAP3 SWAP2 SWAP1 PUSH2 0x3FFB JUMP JUMPDEST PUSH1 0x40 MLOAD PUSH1 0x20 DUP2 DUP4 SUB SUB DUP2 MSTORE SWAP1 PUSH1 0x40 MSTORE PUSH1 0x40 MLOAD PUSH2 0x223E SWAP2 SWAP1 PUSH2 0x3445 JUMP JUMPDEST PUSH1 0x0 PUSH1 0x40 MLOAD DUP1 DUP4 SUB DUP2 DUP6 GAS DELEGATECALL SWAP2 POP POP RETURNDATASIZE DUP1 PUSH1 0x0 DUP2 EQ PUSH2 0x2279 JUMPI PUSH1 0x40 MLOAD SWAP2 POP PUSH1 0x1F NOT PUSH1 0x3F RETURNDATASIZE ADD AND DUP3 ADD PUSH1 0x40 MSTORE RETURNDATASIZE DUP3 MSTORE RETURNDATASIZE PUSH1 0x0 PUSH1 0x20 DUP5 ADD RETURNDATACOPY PUSH2 0x227E JUMP JUMPDEST PUSH1 0x60 SWAP2 POP JUMPDEST POP SWAP2 POP SWAP2 POP PUSH1 0x0 DUP1 PUSH1 0x0 DUP4 DUP1 PUSH1 0x20 ADD SWAP1 MLOAD DUP2 ADD SWAP1 PUSH2 0x229C SWAP2 SWAP1 PUSH2 0x3D2E JUMP JUMPDEST SWAP3 POP SWAP3 POP SWAP3 POP DUP5 DUP4 DUP4 DUP4 SWAP9 POP SWAP9 POP SWAP9 POP SWAP9 POP POP POP POP POP POP SWAP7 POP SWAP7 POP SWAP7 POP SWAP7 SWAP3 POP POP POP JUMP JUMPDEST PUSH1 0x60 PUSH1 0x0 PUSH1 0x1 PUSH2 0x22CF DUP5 PUSH2 0x2613 JUMP JUMPDEST ADD SWAP1 POP PUSH1 0x0 DUP2 PUSH8 0xFFFFFFFFFFFFFFFF DUP2 GT ISZERO PUSH2 0x22EE JUMPI PUSH2 0x22ED PUSH2 0x2BA7 JUMP JUMPDEST JUMPDEST PUSH1 0x40 MLOAD SWAP1 DUP1 DUP3 MSTORE DUP1 PUSH1 0x1F ADD PUSH1 0x1F NOT AND PUSH1 0x20 ADD DUP3 ADD PUSH1 0x40 MSTORE DUP1 ISZERO PUSH2 0x2320 JUMPI DUP2 PUSH1 0x20 ADD PUSH1 0x1 DUP3 MUL DUP1 CALLDATASIZE DUP4 CALLDATACOPY DUP1 DUP3 ADD SWAP2 POP POP SWAP1 POP JUMPDEST POP SWAP1 POP PUSH1 0x0 DUP3 PUSH1 0x20 ADD DUP3 ADD SWAP1 POP JUMPDEST PUSH1 0x1 ISZERO PUSH2 0x2383 JUMPI DUP1 DUP1 PUSH1 0x1 SWAP1 SUB SWAP2 POP POP PUSH32 0x3031323334353637383961626364656600000000000000000000000000000000 PUSH1 0xA DUP7 MOD BYTE DUP2 MSTORE8 PUSH1 0xA DUP6 DUP2 PUSH2 0x2377 JUMPI PUSH2 0x2376 PUSH2 0x3A71 JUMP JUMPDEST JUMPDEST DIV SWAP5 POP PUSH1 0x0 DUP6 SUB PUSH2 0x232E JUMPI JUMPDEST DUP2 SWAP4 POP POP POP POP SWAP2 SWAP1 POP JUMP JUMPDEST PUSH1 0x0 DUP1 PUSH1 0x0 DUP1 PUSH2 0x239E DUP7 DUP7 PUSH2 0x2766 JUMP JUMPDEST SWAP1 POP PUSH1 0x1 DUP6 PUSH2 0x23AD SWAP2 SWAP1 PUSH2 0x3B13 JUMP JUMPDEST SWAP5 POP PUSH1 0x0 PUSH1 0x5 PUSH1 0xE0 DUP4 AND PUSH1 0xFF AND SWAP1 SHR SWAP1 POP PUSH1 0x0 PUSH1 0x1F DUP4 AND SWAP1 POP PUSH1 0x1C DUP2 PUSH1 0xFF AND LT PUSH2 0x23DA JUMPI PUSH2 0x23D9 PUSH2 0x3F53 JUMP JUMPDEST JUMPDEST PUSH1 0x18 DUP2 PUSH1 0xFF AND LT ISZERO PUSH2 0x23FD JUMPI DUP2 DUP2 DUP9 DUP2 PUSH1 0xFF AND SWAP2 POP SWAP6 POP SWAP6 POP SWAP6 POP POP POP POP PUSH2 0x2515 JUMP JUMPDEST PUSH1 0x18 DUP2 PUSH1 0xFF AND SUB PUSH2 0x2452 JUMPI PUSH1 0x0 PUSH2 0x2414 DUP10 DUP10 PUSH2 0x2766 JUMP JUMPDEST SWAP1 POP PUSH1 0x1 DUP9 PUSH2 0x2423 SWAP2 SWAP1 PUSH2 0x3B13 JUMP JUMPDEST SWAP8 POP PUSH1 0x18 DUP2 PUSH1 0xFF AND LT ISZERO PUSH2 0x243A JUMPI PUSH2 0x2439 PUSH2 0x3F53 JUMP JUMPDEST JUMPDEST DUP3 DUP2 DUP10 DUP2 PUSH1 0xFF AND SWAP2 POP SWAP7 POP SWAP7 POP SWAP7 POP POP POP POP POP PUSH2 0x2515 JUMP JUMPDEST PUSH1 0x19 DUP2 PUSH1 0xFF AND SUB PUSH2 0x2493 JUMPI PUSH1 0x0 PUSH2 0x2469 DUP10 DUP10 PUSH2 0x27CD JUMP JUMPDEST SWAP1 POP PUSH1 0x2 DUP9 PUSH2 0x2478 SWAP2 SWAP1 PUSH2 0x3B13 JUMP JUMPDEST SWAP8 POP DUP3 DUP2 DUP10 DUP2 PUSH2 0xFFFF AND SWAP2 POP SWAP7 POP SWAP7 POP SWAP7 POP POP POP POP POP PUSH2 0x2515 JUMP JUMPDEST PUSH1 0x1A DUP2 PUSH1 0xFF AND SUB PUSH2 0x24D6 JUMPI PUSH1 0x0 PUSH2 0x24AA DUP10 DUP10 PUSH2 0x2834 JUMP JUMPDEST SWAP1 POP PUSH1 0x4 DUP9 PUSH2 0x24B9 SWAP2 SWAP1 PUSH2 0x3B13 JUMP JUMPDEST SWAP8 POP DUP3 DUP2 DUP10 DUP2 PUSH4 0xFFFFFFFF AND SWAP2 POP SWAP7 POP SWAP7 POP SWAP7 POP POP POP POP POP PUSH2 0x2515 JUMP JUMPDEST PUSH1 0x1B DUP2 PUSH1 0xFF AND EQ PUSH2 0x24EA JUMPI PUSH2 0x24E9 PUSH2 0x3F53 JUMP JUMPDEST JUMPDEST PUSH1 0x0 PUSH2 0x24F6 DUP10 DUP10 PUSH2 0x289B JUMP JUMPDEST SWAP1 POP PUSH1 0x8 DUP9 PUSH2 0x2505 SWAP2 SWAP1 PUSH2 0x3B13 JUMP JUMPDEST SWAP8 POP DUP3 DUP2 DUP10 SWAP7 POP SWAP7 POP SWAP7 POP POP POP POP POP JUMPDEST SWAP3 POP SWAP3 POP SWAP3 JUMP JUMPDEST PUSH2 0x2524 PUSH2 0x2AA3 JUMP JUMPDEST PUSH1 0x0 DUP4 PUSH1 0x0 ADD MLOAD MLOAD SWAP1 POP PUSH1 0x0 PUSH1 0x1 DUP3 PUSH2 0x253D SWAP2 SWAP1 PUSH2 0x3B13 JUMP JUMPDEST SWAP1 POP DUP5 PUSH1 0x20 ADD MLOAD DUP3 LT PUSH2 0x2561 JUMPI PUSH2 0x2560 DUP6 PUSH1 0x2 DUP4 PUSH2 0x255B SWAP2 SWAP1 PUSH2 0x3AD1 JUMP JUMPDEST PUSH2 0x2902 JUMP JUMPDEST JUMPDEST DUP5 MLOAD PUSH1 0x20 DUP4 DUP3 ADD ADD DUP6 DUP2 MSTORE8 DUP2 MLOAD DUP4 GT ISZERO PUSH2 0x2579 JUMPI DUP3 DUP3 MSTORE JUMPDEST POP POP DUP5 SWAP3 POP POP POP SWAP3 SWAP2 POP POP JUMP JUMPDEST PUSH2 0x258E PUSH2 0x2AA3 JUMP JUMPDEST PUSH1 0x0 DUP5 PUSH1 0x0 ADD MLOAD MLOAD SWAP1 POP PUSH1 0x0 DUP2 DUP5 PUSH2 0x25A6 SWAP2 SWAP1 PUSH2 0x3B13 JUMP JUMPDEST SWAP1 POP DUP6 PUSH1 0x20 ADD MLOAD DUP2 GT ISZERO PUSH2 0x25CB JUMPI PUSH2 0x25CA DUP7 PUSH1 0x2 DUP4 PUSH2 0x25C5 SWAP2 SWAP1 PUSH2 0x3AD1 JUMP JUMPDEST PUSH2 0x2902 JUMP JUMPDEST JUMPDEST PUSH1 0x0 PUSH1 0x1 DUP6 PUSH2 0x100 PUSH2 0x25DD SWAP2 SWAP1 PUSH2 0x419D JUMP JUMPDEST PUSH2 0x25E7 SWAP2 SWAP1 PUSH2 0x3A3D JUMP JUMPDEST SWAP1 POP DUP7 MLOAD DUP3 DUP2 ADD DUP8 DUP4 NOT DUP3 MLOAD AND OR DUP2 MSTORE DUP2 MLOAD DUP5 GT ISZERO PUSH2 0x2604 JUMPI DUP4 DUP3 MSTORE JUMPDEST POP POP DUP7 SWAP4 POP POP POP POP SWAP4 SWAP3 POP POP POP JUMP JUMPDEST PUSH1 0x0 DUP1 PUSH1 0x0 SWAP1 POP PUSH27 0x184F03E93FF9F4DAA797ED6E38ED64BF6A1F010000000000000000 DUP4 LT PUSH2 0x2671 JUMPI PUSH27 0x184F03E93FF9F4DAA797ED6E38ED64BF6A1F010000000000000000 DUP4 DUP2 PUSH2 0x2667 JUMPI PUSH2 0x2666 PUSH2 0x3A71 JUMP JUMPDEST JUMPDEST DIV SWAP3 POP PUSH1 0x40 DUP2 ADD SWAP1 POP JUMPDEST PUSH14 0x4EE2D6D415B85ACEF8100000000 DUP4 LT PUSH2 0x26AE JUMPI PUSH14 0x4EE2D6D415B85ACEF8100000000 DUP4 DUP2 PUSH2 0x26A4 JUMPI PUSH2 0x26A3 PUSH2 0x3A71 JUMP JUMPDEST JUMPDEST DIV SWAP3 POP PUSH1 0x20 DUP2 ADD SWAP1 POP JUMPDEST PUSH7 0x2386F26FC10000 DUP4 LT PUSH2 0x26DD JUMPI PUSH7 0x2386F26FC10000 DUP4 DUP2 PUSH2 0x26D3 JUMPI PUSH2 0x26D2 PUSH2 0x3A71 JUMP JUMPDEST JUMPDEST DIV SWAP3 POP PUSH1 0x10 DUP2 ADD SWAP1 POP JUMPDEST PUSH4 0x5F5E100 DUP4 LT PUSH2 0x2706 JUMPI PUSH4 0x5F5E100 DUP4 DUP2 PUSH2 0x26FC JUMPI PUSH2 0x26FB PUSH2 0x3A71 JUMP JUMPDEST JUMPDEST DIV SWAP3 POP PUSH1 0x8 DUP2 ADD SWAP1 POP JUMPDEST PUSH2 0x2710 DUP4 LT PUSH2 0x272B JUMPI PUSH2 0x2710 DUP4 DUP2 PUSH2 0x2721 JUMPI PUSH2 0x2720 PUSH2 0x3A71 JUMP JUMPDEST JUMPDEST DIV SWAP3 POP PUSH1 0x4 DUP2 ADD SWAP1 POP JUMPDEST PUSH1 0x64 DUP4 LT PUSH2 0x274E JUMPI PUSH1 0x64 DUP4 DUP2 PUSH2 0x2744 JUMPI PUSH2 0x2743 PUSH2 0x3A71 JUMP JUMPDEST JUMPDEST DIV SWAP3 POP PUSH1 0x2 DUP2 ADD SWAP1 POP JUMPDEST PUSH1 0xA DUP4 LT PUSH2 0x275D JUMPI PUSH1 0x1 DUP2 ADD SWAP1 POP JUMPDEST DUP1 SWAP2 POP POP SWAP2 SWAP1 POP JUMP JUMPDEST PUSH1 0x0 PUSH1 0x1 DUP3 PUSH2 0x2775 SWAP2 SWAP1 PUSH2 0x3B13 JUMP JUMPDEST DUP4 MLOAD LT ISZERO PUSH2 0x27B8 JUMPI PUSH1 0x40 MLOAD PUSH32 0x8C379A000000000000000000000000000000000000000000000000000000000 DUP2 MSTORE PUSH1 0x4 ADD PUSH2 0x27AF SWAP1 PUSH2 0x4234 JUMP JUMPDEST PUSH1 0x40 MLOAD DUP1 SWAP2 SUB SWAP1 REVERT JUMPDEST PUSH1 0x0 DUP3 PUSH1 0x1 ADD DUP5 ADD MLOAD SWAP1 POP DUP1 SWAP2 POP POP SWAP3 SWAP2 POP POP JUMP JUMPDEST PUSH1 0x0 PUSH1 0x2 DUP3 PUSH2 0x27DC SWAP2 SWAP1 PUSH2 0x3B13 JUMP JUMPDEST DUP4 MLOAD LT ISZERO PUSH2 0x281F JUMPI PUSH1 0x40 MLOAD PUSH32 0x8C379A000000000000000000000000000000000000000000000000000000000 DUP2 MSTORE PUSH1 0x4 ADD PUSH2 0x2816 SWAP1 PUSH2 0x4234 JUMP JUMPDEST PUSH1 0x40 MLOAD DUP1 SWAP2 SUB SWAP1 REVERT JUMPDEST PUSH1 0x0 DUP3 PUSH1 0x2 ADD DUP5 ADD MLOAD SWAP1 POP DUP1 SWAP2 POP POP SWAP3 SWAP2 POP POP JUMP JUMPDEST PUSH1 0x0 PUSH1 0x4 DUP3 PUSH2 0x2843 SWAP2 SWAP1 PUSH2 0x3B13 JUMP JUMPDEST DUP4 MLOAD LT ISZERO PUSH2 0x2886 JUMPI PUSH1 0x40 MLOAD PUSH32 0x8C379A000000000000000000000000000000000000000000000000000000000 DUP2 MSTORE PUSH1 0x4 ADD PUSH2 0x287D SWAP1 PUSH2 0x4234 JUMP JUMPDEST PUSH1 0x40 MLOAD DUP1 SWAP2 SUB SWAP1 REVERT JUMPDEST PUSH1 0x0 DUP3 PUSH1 0x4 ADD DUP5 ADD MLOAD SWAP1 POP DUP1 SWAP2 POP POP SWAP3 SWAP2 POP POP JUMP JUMPDEST PUSH1 0x0 PUSH1 0x8 DUP3 PUSH2 0x28AA SWAP2 SWAP1 PUSH2 0x3B13 JUMP JUMPDEST DUP4 MLOAD LT ISZERO PUSH2 0x28ED JUMPI PUSH1 0x40 MLOAD PUSH32 0x8C379A000000000000000000000000000000000000000000000000000000000 DUP2 MSTORE PUSH1 0x4 ADD PUSH2 0x28E4 SWAP1 PUSH2 0x4234 JUMP JUMPDEST PUSH1 0x40 MLOAD DUP1 SWAP2 SUB SWAP1 REVERT JUMPDEST PUSH1 0x0 DUP3 PUSH1 0x8 ADD DUP5 ADD MLOAD SWAP1 POP DUP1 SWAP2 POP POP SWAP3 SWAP2 POP POP JUMP JUMPDEST PUSH1 0x0 DUP3 PUSH1 0x0 ADD MLOAD SWAP1 POP PUSH2 0x2915 DUP4 DUP4 PUSH2 0x1FB0 JUMP JUMPDEST POP PUSH2 0x2920 DUP4 DUP3 PUSH2 0x2926 JUMP JUMPDEST POP POP POP POP JUMP JUMPDEST PUSH2 0x292E PUSH2 0x2AA3 JUMP JUMPDEST PUSH2 0x293A DUP4 DUP4 DUP5 MLOAD PUSH2 0x2942 JUMP JUMPDEST SWAP1 POP SWAP3 SWAP2 POP POP JUMP JUMPDEST PUSH2 0x294A PUSH2 0x2AA3 JUMP JUMPDEST DUP3 MLOAD DUP3 GT ISZERO PUSH2 0x2958 JUMPI PUSH1 0x0 DUP1 REVERT JUMPDEST PUSH1 0x0 DUP5 PUSH1 0x0 ADD MLOAD MLOAD SWAP1 POP PUSH1 0x0 DUP4 DUP3 PUSH2 0x2970 SWAP2 SWAP1 PUSH2 0x3B13 JUMP JUMPDEST SWAP1 POP DUP6 PUSH1 0x20 ADD MLOAD DUP2 GT ISZERO PUSH2 0x2995 JUMPI PUSH2 0x2994 DUP7 PUSH1 0x2 DUP4 PUSH2 0x298F SWAP2 SWAP1 PUSH2 0x3AD1 JUMP JUMPDEST PUSH2 0x2902 JUMP JUMPDEST JUMPDEST PUSH1 0x0 DUP1 DUP8 MLOAD DUP1 MLOAD DUP6 PUSH1 0x20 DUP4 ADD ADD SWAP4 POP DUP1 DUP6 GT ISZERO PUSH2 0x29B0 JUMPI DUP5 DUP3 MSTORE JUMPDEST PUSH1 0x20 DUP10 ADD SWAP3 POP POP POP JUMPDEST PUSH1 0x20 DUP7 LT PUSH2 0x29F7 JUMPI DUP1 MLOAD DUP3 MSTORE PUSH1 0x20 DUP3 PUSH2 0x29D2 SWAP2 SWAP1 PUSH2 0x3B13 JUMP JUMPDEST SWAP2 POP PUSH1 0x20 DUP2 PUSH2 0x29E1 SWAP2 SWAP1 PUSH2 0x3B13 JUMP JUMPDEST SWAP1 POP PUSH1 0x20 DUP7 PUSH2 0x29F0 SWAP2 SWAP1 PUSH2 0x3A3D JUMP JUMPDEST SWAP6 POP PUSH2 0x29B9 JUMP JUMPDEST PUSH1 0x0 PUSH1 0x1 DUP8 PUSH1 0x20 SUB PUSH2 0x100 EXP SUB SWAP1 POP DUP1 NOT DUP3 MLOAD AND DUP2 DUP5 MLOAD AND DUP2 DUP2 OR DUP6 MSTORE POP POP POP DUP8 SWAP5 POP POP POP POP POP SWAP4 SWAP3 POP POP POP JUMP JUMPDEST PUSH1 0x40 MLOAD DUP1 PUSH1 0x40 ADD PUSH1 0x40 MSTORE DUP1 PUSH1 0x60 DUP2 MSTORE PUSH1 0x20 ADD PUSH1 0x0 PUSH8 0xFFFFFFFFFFFFFFFF AND DUP2 MSTORE POP SWAP1 JUMP JUMPDEST PUSH1 0x40 MLOAD DUP1 PUSH1 0x20 ADD PUSH1 0x40 MSTORE DUP1 PUSH1 0x0 PUSH8 0xFFFFFFFFFFFFFFFF AND DUP2 MSTORE POP SWAP1 JUMP JUMPDEST PUSH1 0x40 MLOAD DUP1 PUSH1 0x20 ADD PUSH1 0x40 MSTORE DUP1 PUSH1 0x0 PUSH8 0xFFFFFFFFFFFFFFFF AND DUP2 MSTORE POP SWAP1 JUMP JUMPDEST PUSH1 0x40 MLOAD DUP1 PUSH1 0x40 ADD PUSH1 0x40 MSTORE DUP1 PUSH2 0x2A96 PUSH2 0x2AA3 JUMP JUMPDEST DUP2 MSTORE PUSH1 0x20 ADD PUSH1 0x0 DUP2 MSTORE POP SWAP1 JUMP JUMPDEST PUSH1 0x40 MLOAD DUP1 PUSH1 0x40 ADD PUSH1 0x40 MSTORE DUP1 PUSH1 0x60 DUP2 MSTORE PUSH1 0x20 ADD PUSH1 0x0 DUP2 MSTORE POP SWAP1 JUMP JUMPDEST PUSH1 0x0 PUSH1 0x40 MLOAD SWAP1 POP SWAP1 JUMP JUMPDEST PUSH1 0x0 DUP1 REVERT JUMPDEST PUSH1 0x0 DUP1 REVERT JUMPDEST PUSH1 0x0 PUSH32 0xFFFFFFFF00000000000000000000000000000000000000000000000000000000 DUP3 AND SWAP1 POP SWAP2 SWAP1 POP JUMP JUMPDEST PUSH2 0x2B06 DUP2 PUSH2 0x2AD1 JUMP JUMPDEST DUP2 EQ PUSH2 0x2B11 JUMPI PUSH1 0x0 DUP1 REVERT JUMPDEST POP JUMP JUMPDEST PUSH1 0x0 DUP2 CALLDATALOAD SWAP1 POP PUSH2 0x2B23 DUP2 PUSH2 0x2AFD JUMP JUMPDEST SWAP3 SWAP2 POP POP JUMP JUMPDEST PUSH1 0x0 PUSH1 0x20 DUP3 DUP5 SUB SLT ISZERO PUSH2 0x2B3F JUMPI PUSH2 0x2B3E PUSH2 0x2AC7 JUMP JUMPDEST JUMPDEST PUSH1 0x0 PUSH2 0x2B4D DUP5 DUP3 DUP6 ADD PUSH2 0x2B14 JUMP JUMPDEST SWAP2 POP POP SWAP3 SWAP2 POP POP JUMP JUMPDEST PUSH1 0x0 DUP2 ISZERO ISZERO SWAP1 POP SWAP2 SWAP1 POP JUMP JUMPDEST PUSH2 0x2B6B DUP2 PUSH2 0x2B56 JUMP JUMPDEST DUP3 MSTORE POP POP JUMP JUMPDEST PUSH1 0x0 PUSH1 0x20 DUP3 ADD SWAP1 POP PUSH2 0x2B86 PUSH1 0x0 DUP4 ADD DUP5 PUSH2 0x2B62 JUMP JUMPDEST SWAP3 SWAP2 POP POP JUMP JUMPDEST PUSH1 0x0 DUP1 REVERT JUMPDEST PUSH1 0x0 DUP1 REVERT JUMPDEST PUSH1 0x0 PUSH1 0x1F NOT PUSH1 0x1F DUP4 ADD AND SWAP1 POP SWAP2 SWAP1 POP JUMP JUMPDEST PUSH32 0x4E487B7100000000000000000000000000000000000000000000000000000000 PUSH1 0x0 MSTORE PUSH1 0x41 PUSH1 0x4 MSTORE PUSH1 0x24 PUSH1 0x0 REVERT JUMPDEST PUSH2 0x2BDF DUP3 PUSH2 0x2B96 JUMP JUMPDEST DUP2 ADD DUP2 DUP2 LT PUSH8 0xFFFFFFFFFFFFFFFF DUP3 GT OR ISZERO PUSH2 0x2BFE JUMPI PUSH2 0x2BFD PUSH2 0x2BA7 JUMP JUMPDEST JUMPDEST DUP1 PUSH1 0x40 MSTORE POP POP POP JUMP JUMPDEST PUSH1 0x0 PUSH2 0x2C11 PUSH2 0x2ABD JUMP JUMPDEST SWAP1 POP PUSH2 0x2C1D DUP3 DUP3 PUSH2 0x2BD6 JUMP JUMPDEST SWAP2 SWAP1 POP JUMP JUMPDEST PUSH1 0x0 PUSH8 0xFFFFFFFFFFFFFFFF DUP3 GT ISZERO PUSH2 0x2C3D JUMPI PUSH2 0x2C3C PUSH2 0x2BA7 JUMP JUMPDEST JUMPDEST PUSH2 0x2C46 DUP3 PUSH2 0x2B96 JUMP JUMPDEST SWAP1 POP PUSH1 0x20 DUP2 ADD SWAP1 POP SWAP2 SWAP1 POP JUMP JUMPDEST DUP3 DUP2 DUP4 CALLDATACOPY PUSH1 0x0 DUP4 DUP4 ADD MSTORE POP POP POP JUMP JUMPDEST PUSH1 0x0 PUSH2 0x2C75 PUSH2 0x2C70 DUP5 PUSH2 0x2C22 JUMP JUMPDEST PUSH2 0x2C07 JUMP JUMPDEST SWAP1 POP DUP3 DUP2 MSTORE PUSH1 0x20 DUP2 ADD DUP5 DUP5 DUP5 ADD GT ISZERO PUSH2 0x2C91 JUMPI PUSH2 0x2C90 PUSH2 0x2B91 JUMP JUMPDEST JUMPDEST PUSH2 0x2C9C DUP5 DUP3 DUP6 PUSH2 0x2C53 JUMP JUMPDEST POP SWAP4 SWAP3 POP POP POP JUMP JUMPDEST PUSH1 0x0 DUP3 PUSH1 0x1F DUP4 ADD SLT PUSH2 0x2CB9 JUMPI PUSH2 0x2CB8 PUSH2 0x2B8C JUMP JUMPDEST JUMPDEST DUP2 CALLDATALOAD PUSH2 0x2CC9 DUP5 DUP3 PUSH1 0x20 DUP7 ADD PUSH2 0x2C62 JUMP JUMPDEST SWAP2 POP POP SWAP3 SWAP2 POP POP JUMP JUMPDEST PUSH1 0x0 PUSH1 0x20 DUP3 DUP5 SUB SLT ISZERO PUSH2 0x2CE8 JUMPI PUSH2 0x2CE7 PUSH2 0x2AC7 JUMP JUMPDEST JUMPDEST PUSH1 0x0 DUP3 ADD CALLDATALOAD PUSH8 0xFFFFFFFFFFFFFFFF DUP2 GT ISZERO PUSH2 0x2D06 JUMPI PUSH2 0x2D05 PUSH2 0x2ACC JUMP JUMPDEST JUMPDEST PUSH2 0x2D12 DUP5 DUP3 DUP6 ADD PUSH2 0x2CA4 JUMP JUMPDEST SWAP2 POP POP SWAP3 SWAP2 POP POP JUMP JUMPDEST PUSH1 0x0 PUSH8 0xFFFFFFFFFFFFFFFF DUP3 AND SWAP1 POP SWAP2 SWAP1 POP JUMP JUMPDEST PUSH2 0x2D38 DUP2 PUSH2 0x2D1B JUMP JUMPDEST DUP3 MSTORE POP POP JUMP JUMPDEST PUSH1 0x0 PUSH1 0x20 DUP3 ADD SWAP1 POP PUSH2 0x2D53 PUSH1 0x0 DUP4 ADD DUP5 PUSH2 0x2D2F JUMP JUMPDEST SWAP3 SWAP2 POP POP JUMP JUMPDEST PUSH2 0x2D62 DUP2 PUSH2 0x2D1B JUMP JUMPDEST DUP2 EQ PUSH2 0x2D6D JUMPI PUSH1 0x0 DUP1 REVERT JUMPDEST POP JUMP JUMPDEST PUSH1 0x0 DUP2 CALLDATALOAD SWAP1 POP PUSH2 0x2D7F DUP2 PUSH2 0x2D59 JUMP JUMPDEST SWAP3 SWAP2 POP POP JUMP JUMPDEST PUSH1 0x0 DUP1 PUSH1 0x40 DUP4 DUP6 SUB SLT ISZERO PUSH2 0x2D9C JUMPI PUSH2 0x2D9B PUSH2 0x2AC7 JUMP JUMPDEST JUMPDEST PUSH1 0x0 DUP4 ADD CALLDATALOAD PUSH8 0xFFFFFFFFFFFFFFFF DUP2 GT ISZERO PUSH2 0x2DBA JUMPI PUSH2 0x2DB9 PUSH2 0x2ACC JUMP JUMPDEST JUMPDEST PUSH2 0x2DC6 DUP6 DUP3 DUP7 ADD PUSH2 0x2CA4 JUMP JUMPDEST SWAP3 POP POP PUSH1 0x20 PUSH2 0x2DD7 DUP6 DUP3 DUP7 ADD PUSH2 0x2D70 JUMP JUMPDEST SWAP2 POP POP SWAP3 POP SWAP3 SWAP1 POP JUMP JUMPDEST PUSH1 0x0 DUP2 SWAP1 POP SWAP2 SWAP1 POP JUMP JUMPDEST PUSH2 0x2DF4 DUP2 PUSH2 0x2DE1 JUMP JUMPDEST DUP3 MSTORE POP POP JUMP JUMPDEST PUSH1 0x0 PUSH1 0x20 DUP3 ADD SWAP1 POP PUSH2 0x2E0F PUSH1 0x0 DUP4 ADD DUP5 PUSH2 0x2DEB JUMP JUMPDEST SWAP3 SWAP2 POP POP JUMP JUMPDEST PUSH1 0x0 DUP2 SWAP1 POP SWAP2 SWAP1 POP JUMP JUMPDEST PUSH2 0x2E28 DUP2 PUSH2 0x2E15 JUMP JUMPDEST DUP2 EQ PUSH2 0x2E33 JUMPI PUSH1 0x0 DUP1 REVERT JUMPDEST POP JUMP JUMPDEST PUSH1 0x0 DUP2 CALLDATALOAD SWAP1 POP PUSH2 0x2E45 DUP2 PUSH2 0x2E1F JUMP JUMPDEST SWAP3 SWAP2 POP POP JUMP JUMPDEST PUSH1 0x0 PUSH1 0x20 DUP3 DUP5 SUB SLT ISZERO PUSH2 0x2E61 JUMPI PUSH2 0x2E60 PUSH2 0x2AC7 JUMP JUMPDEST JUMPDEST PUSH1 0x0 PUSH2 0x2E6F DUP5 DUP3 DUP6 ADD PUSH2 0x2E36 JUMP JUMPDEST SWAP2 POP POP SWAP3 SWAP2 POP POP JUMP JUMPDEST PUSH2 0x2E81 DUP2 PUSH2 0x2E15 JUMP JUMPDEST DUP3 MSTORE POP POP JUMP JUMPDEST PUSH1 0x0 PUSH1 0x20 DUP3 ADD SWAP1 POP PUSH2 0x2E9C PUSH1 0x0 DUP4 ADD DUP5 PUSH2 0x2E78 JUMP JUMPDEST SWAP3 SWAP2 POP POP JUMP JUMPDEST PUSH1 0x0 PUSH20 0xFFFFFFFFFFFFFFFFFFFFFFFFFFFFFFFFFFFFFFFF DUP3 AND SWAP1 POP SWAP2 SWAP1 POP JUMP JUMPDEST PUSH1 0x0 PUSH2 0x2ECD DUP3 PUSH2 0x2EA2 JUMP JUMPDEST SWAP1 POP SWAP2 SWAP1 POP JUMP JUMPDEST PUSH2 0x2EDD DUP2 PUSH2 0x2EC2 JUMP JUMPDEST DUP2 EQ PUSH2 0x2EE8 JUMPI PUSH1 0x0 DUP1 REVERT JUMPDEST POP JUMP JUMPDEST PUSH1 0x0 DUP2 CALLDATALOAD SWAP1 POP PUSH2 0x2EFA DUP2 PUSH2 0x2ED4 JUMP JUMPDEST SWAP3 SWAP2 POP POP JUMP JUMPDEST PUSH1 0x0 DUP1 PUSH1 0x40 DUP4 DUP6 SUB SLT ISZERO PUSH2 0x2F17 JUMPI PUSH2 0x2F16 PUSH2 0x2AC7 JUMP JUMPDEST JUMPDEST PUSH1 0x0 PUSH2 0x2F25 DUP6 DUP3 DUP7 ADD PUSH2 0x2E36 JUMP JUMPDEST SWAP3 POP POP PUSH1 0x20 PUSH2 0x2F36 DUP6 DUP3 DUP7 ADD PUSH2 0x2EEB JUMP JUMPDEST SWAP2 POP POP SWAP3 POP SWAP3 SWAP1 POP JUMP JUMPDEST PUSH2 0x2F49 DUP2 PUSH2 0x2DE1 JUMP JUMPDEST DUP2 EQ PUSH2 0x2F54 JUMPI PUSH1 0x0 DUP1 REVERT JUMPDEST POP JUMP JUMPDEST PUSH1 0x0 DUP2 CALLDATALOAD SWAP1 POP PUSH2 0x2F66 DUP2 PUSH2 0x2F40 JUMP JUMPDEST SWAP3 SWAP2 POP POP JUMP JUMPDEST PUSH1 0x0 DUP1 PUSH1 0x0 DUP1 PUSH1 0x80 DUP6 DUP8 SUB SLT ISZERO PUSH2 0x2F86 JUMPI PUSH2 0x2F85 PUSH2 0x2AC7 JUMP JUMPDEST JUMPDEST PUSH1 0x0 DUP6 ADD CALLDATALOAD PUSH8 0xFFFFFFFFFFFFFFFF DUP2 GT ISZERO PUSH2 0x2FA4 JUMPI PUSH2 0x2FA3 PUSH2 0x2ACC JUMP JUMPDEST JUMPDEST PUSH2 0x2FB0 DUP8 DUP3 DUP9 ADD PUSH2 0x2CA4 JUMP JUMPDEST SWAP5 POP POP PUSH1 0x20 PUSH2 0x2FC1 DUP8 DUP3 DUP9 ADD PUSH2 0x2F57 JUMP JUMPDEST SWAP4 POP POP PUSH1 0x40 PUSH2 0x2FD2 DUP8 DUP3 DUP9 ADD PUSH2 0x2F57 JUMP JUMPDEST SWAP3 POP POP PUSH1 0x60 PUSH2 0x2FE3 DUP8 DUP3 DUP9 ADD PUSH2 0x2F57 JUMP JUMPDEST SWAP2 POP POP SWAP3 SWAP6 SWAP2 SWAP5 POP SWAP3 POP JUMP JUMPDEST PUSH1 0x0 DUP2 SWAP1 POP SWAP2 SWAP1 POP JUMP JUMPDEST PUSH1 0x0 PUSH2 0x3014 PUSH2 0x300F PUSH2 0x300A DUP5 PUSH2 0x2EA2 JUMP JUMPDEST PUSH2 0x2FEF JUMP JUMPDEST PUSH2 0x2EA2 JUMP JUMPDEST SWAP1 POP SWAP2 SWAP1 POP JUMP JUMPDEST PUSH1 0x0 PUSH2 0x3026 DUP3 PUSH2 0x2FF9 JUMP JUMPDEST SWAP1 POP SWAP2 SWAP1 POP JUMP JUMPDEST PUSH1 0x0 PUSH2 0x3038 DUP3 PUSH2 0x301B JUMP JUMPDEST SWAP1 POP SWAP2 SWAP1 POP JUMP JUMPDEST PUSH2 0x3048 DUP2 PUSH2 0x302D JUMP JUMPDEST DUP3 MSTORE POP POP JUMP JUMPDEST PUSH1 0x0 PUSH1 0x20 DUP3 ADD SWAP1 POP PUSH2 0x3063 PUSH1 0x0 DUP4 ADD DUP5 PUSH2 0x303F JUMP JUMPDEST SWAP3 SWAP2 POP POP JUMP JUMPDEST PUSH2 0x3072 DUP2 PUSH2 0x2EC2 JUMP JUMPDEST DUP3 MSTORE POP POP JUMP JUMPDEST PUSH1 0x0 DUP2 MLOAD SWAP1 POP SWAP2 SWAP1 POP JUMP JUMPDEST PUSH1 0x0 DUP3 DUP3 MSTORE PUSH1 0x20 DUP3 ADD SWAP1 POP SWAP3 SWAP2 POP POP JUMP JUMPDEST PUSH1 0x0 JUMPDEST DUP4 DUP2 LT ISZERO PUSH2 0x30B2 JUMPI DUP1 DUP3 ADD MLOAD DUP2 DUP5 ADD MSTORE PUSH1 0x20 DUP2 ADD SWAP1 POP PUSH2 0x3097 JUMP JUMPDEST PUSH1 0x0 DUP5 DUP5 ADD MSTORE POP POP POP POP JUMP JUMPDEST PUSH1 0x0 PUSH2 0x30C9 DUP3 PUSH2 0x3078 JUMP JUMPDEST PUSH2 0x30D3 DUP2 DUP6 PUSH2 0x3083 JUMP JUMPDEST SWAP4 POP PUSH2 0x30E3 DUP2 DUP6 PUSH1 0x20 DUP7 ADD PUSH2 0x3094 JUMP JUMPDEST PUSH2 0x30EC DUP2 PUSH2 0x2B96 JUMP JUMPDEST DUP5 ADD SWAP2 POP POP SWAP3 SWAP2 POP POP JUMP JUMPDEST PUSH32 0x4E487B7100000000000000000000000000000000000000000000000000000000 PUSH1 0x0 MSTORE PUSH1 0x21 PUSH1 0x4 MSTORE PUSH1 0x24 PUSH1 0x0 REVERT JUMPDEST PUSH1 0x5 DUP2 LT PUSH2 0x3137 JUMPI PUSH2 0x3136 PUSH2 0x30F7 JUMP JUMPDEST JUMPDEST POP JUMP JUMPDEST PUSH1 0x0 DUP2 SWAP1 POP PUSH2 0x3148 DUP3 PUSH2 0x3126 JUMP JUMPDEST SWAP2 SWAP1 POP JUMP JUMPDEST PUSH1 0x0 PUSH2 0x3158 DUP3 PUSH2 0x313A JUMP JUMPDEST SWAP1 POP SWAP2 SWAP1 POP JUMP JUMPDEST PUSH2 0x3168 DUP2 PUSH2 0x314D JUMP JUMPDEST DUP3 MSTORE POP POP JUMP JUMPDEST PUSH1 0x0 PUSH1 0xE0 DUP3 ADD SWAP1 POP PUSH2 0x3183 PUSH1 0x0 DUP4 ADD DUP11 PUSH2 0x3069 JUMP JUMPDEST DUP2 DUP2 SUB PUSH1 0x20 DUP4 ADD MSTORE PUSH2 0x3195 DUP2 DUP10 PUSH2 0x30BE JUMP JUMPDEST SWAP1 POP PUSH2 0x31A4 PUSH1 0x40 DUP4 ADD DUP9 PUSH2 0x2DEB JUMP JUMPDEST PUSH2 0x31B1 PUSH1 0x60 DUP4 ADD DUP8 PUSH2 0x2DEB JUMP JUMPDEST PUSH2 0x31BE PUSH1 0x80 DUP4 ADD DUP7 PUSH2 0x2DEB JUMP JUMPDEST PUSH2 0x31CB PUSH1 0xA0 DUP4 ADD DUP6 PUSH2 0x2DEB JUMP JUMPDEST PUSH2 0x31D8 PUSH1 0xC0 DUP4 ADD DUP5 PUSH2 0x315F JUMP JUMPDEST SWAP9 SWAP8 POP POP POP POP POP POP POP POP JUMP JUMPDEST PUSH1 0x0 PUSH1 0x20 DUP3 ADD SWAP1 POP PUSH2 0x31F9 PUSH1 0x0 DUP4 ADD DUP5 PUSH2 0x315F JUMP JUMPDEST SWAP3 SWAP2 POP POP JUMP JUMPDEST PUSH1 0x0 PUSH1 0x20 DUP3 DUP5 SUB SLT ISZERO PUSH2 0x3215 JUMPI PUSH2 0x3214 PUSH2 0x2AC7 JUMP JUMPDEST JUMPDEST PUSH1 0x0 PUSH2 0x3223 DUP5 DUP3 DUP6 ADD PUSH2 0x2D70 JUMP JUMPDEST SWAP2 POP POP SWAP3 SWAP2 POP POP JUMP JUMPDEST PUSH1 0x0 DUP1 PUSH1 0x40 DUP4 DUP6 SUB SLT ISZERO PUSH2 0x3243 JUMPI PUSH2 0x3242 PUSH2 0x2AC7 JUMP JUMPDEST JUMPDEST PUSH1 0x0 DUP4 ADD CALLDATALOAD PUSH8 0xFFFFFFFFFFFFFFFF DUP2 GT ISZERO PUSH2 0x3261 JUMPI PUSH2 0x3260 PUSH2 0x2ACC JUMP JUMPDEST JUMPDEST PUSH2 0x326D DUP6 DUP3 DUP7 ADD PUSH2 0x2CA4 JUMP JUMPDEST SWAP3 POP POP PUSH1 0x20 PUSH2 0x327E DUP6 DUP3 DUP7 ADD PUSH2 0x2EEB JUMP JUMPDEST SWAP2 POP POP SWAP3 POP SWAP3 SWAP1 POP JUMP JUMPDEST PUSH1 0x5 DUP2 LT PUSH2 0x3295 JUMPI PUSH1 0x0 DUP1 REVERT JUMPDEST POP JUMP JUMPDEST PUSH1 0x0 DUP2 CALLDATALOAD SWAP1 POP PUSH2 0x32A7 DUP2 PUSH2 0x3288 JUMP JUMPDEST SWAP3 SWAP2 POP POP JUMP JUMPDEST PUSH1 0x0 DUP1 PUSH1 0x40 DUP4 DUP6 SUB SLT ISZERO PUSH2 0x32C4 JUMPI PUSH2 0x32C3 PUSH2 0x2AC7 JUMP JUMPDEST JUMPDEST PUSH1 0x0 DUP4 ADD CALLDATALOAD PUSH8 0xFFFFFFFFFFFFFFFF DUP2 GT ISZERO PUSH2 0x32E2 JUMPI PUSH2 0x32E1 PUSH2 0x2ACC JUMP JUMPDEST JUMPDEST PUSH2 0x32EE DUP6 DUP3 DUP7 ADD PUSH2 0x2CA4 JUMP JUMPDEST SWAP3 POP POP PUSH1 0x20 PUSH2 0x32FF DUP6 DUP3 DUP7 ADD PUSH2 0x3298 JUMP JUMPDEST SWAP2 POP POP SWAP3 POP SWAP3 SWAP1 POP JUMP JUMPDEST PUSH1 0x0 DUP3 DUP3 MSTORE PUSH1 0x20 DUP3 ADD SWAP1 POP SWAP3 SWAP2 POP POP JUMP JUMPDEST PUSH32 0x416363657373436F6E74726F6C3A2063616E206F6E6C792072656E6F756E6365 PUSH1 0x0 DUP3 ADD MSTORE PUSH32 0x20726F6C657320666F722073656C660000000000000000000000000000000000 PUSH1 0x20 DUP3 ADD MSTORE POP JUMP JUMPDEST PUSH1 0x0 PUSH2 0x3376 PUSH1 0x2F DUP4 PUSH2 0x3309 JUMP JUMPDEST SWAP2 POP PUSH2 0x3381 DUP3 PUSH2 0x331A JUMP JUMPDEST PUSH1 0x40 DUP3 ADD SWAP1 POP SWAP2 SWAP1 POP JUMP JUMPDEST PUSH1 0x0 PUSH1 0x20 DUP3 ADD SWAP1 POP DUP2 DUP2 SUB PUSH1 0x0 DUP4 ADD MSTORE PUSH2 0x33A5 DUP2 PUSH2 0x3369 JUMP JUMPDEST SWAP1 POP SWAP2 SWAP1 POP JUMP JUMPDEST PUSH1 0x0 PUSH1 0x20 DUP3 ADD SWAP1 POP PUSH2 0x33C1 PUSH1 0x0 DUP4 ADD DUP5 PUSH2 0x3069 JUMP JUMPDEST SWAP3 SWAP2 POP POP JUMP JUMPDEST PUSH1 0x0 DUP2 MLOAD SWAP1 POP PUSH2 0x33D6 DUP2 PUSH2 0x2F40 JUMP JUMPDEST SWAP3 SWAP2 POP POP JUMP JUMPDEST PUSH1 0x0 PUSH1 0x20 DUP3 DUP5 SUB SLT ISZERO PUSH2 0x33F2 JUMPI PUSH2 0x33F1 PUSH2 0x2AC7 JUMP JUMPDEST JUMPDEST PUSH1 0x0 PUSH2 0x3400 DUP5 DUP3 DUP6 ADD PUSH2 0x33C7 JUMP JUMPDEST SWAP2 POP POP SWAP3 SWAP2 POP POP JUMP JUMPDEST PUSH1 0x0 DUP2 SWAP1 POP SWAP3 SWAP2 POP POP JUMP JUMPDEST PUSH1 0x0 PUSH2 0x341F DUP3 PUSH2 0x3078 JUMP JUMPDEST PUSH2 0x3429 DUP2 DUP6 PUSH2 0x3409 JUMP JUMPDEST SWAP4 POP PUSH2 0x3439 DUP2 DUP6 PUSH1 0x20 DUP7 ADD PUSH2 0x3094 JUMP JUMPDEST DUP1 DUP5 ADD SWAP2 POP POP SWAP3 SWAP2 POP POP JUMP JUMPDEST PUSH1 0x0 PUSH2 0x3451 DUP3 DUP5 PUSH2 0x3414 JUMP JUMPDEST SWAP2 POP DUP2 SWAP1 POP SWAP3 SWAP2 POP POP JUMP JUMPDEST PUSH32 0x43616C6C6572206973206E6F742061206D696E74657200000000000000000000 PUSH1 0x0 DUP3 ADD MSTORE POP JUMP JUMPDEST PUSH1 0x0 PUSH2 0x3492 PUSH1 0x16 DUP4 PUSH2 0x3309 JUMP JUMPDEST SWAP2 POP PUSH2 0x349D DUP3 PUSH2 0x345C JUMP JUMPDEST PUSH1 0x20 DUP3 ADD SWAP1 POP SWAP2 SWAP1 POP JUMP JUMPDEST PUSH1 0x0 PUSH1 0x20 DUP3 ADD SWAP1 POP DUP2 DUP2 SUB PUSH1 0x0 DUP4 ADD MSTORE PUSH2 0x34C1 DUP2 PUSH2 0x3485 JUMP JUMPDEST SWAP1 POP SWAP2 SWAP1 POP JUMP JUMPDEST PUSH32 0x4E487B7100000000000000000000000000000000000000000000000000000000 PUSH1 0x0 MSTORE PUSH1 0x22 PUSH1 0x4 MSTORE PUSH1 0x24 PUSH1 0x0 REVERT JUMPDEST PUSH1 0x0 PUSH1 0x2 DUP3 DIV SWAP1 POP PUSH1 0x1 DUP3 AND DUP1 PUSH2 0x350F JUMPI PUSH1 0x7F DUP3 AND SWAP2 POP JUMPDEST PUSH1 0x20 DUP3 LT DUP2 SUB PUSH2 0x3522 JUMPI PUSH2 0x3521 PUSH2 0x34C8 JUMP JUMPDEST JUMPDEST POP SWAP2 SWAP1 POP JUMP JUMPDEST PUSH32 0x596F7520617265206E6F742074686520686F6C646572206F6620446174614441 PUSH1 0x0 DUP3 ADD MSTORE PUSH32 0x4F204E4654000000000000000000000000000000000000000000000000000000 PUSH1 0x20 DUP3 ADD MSTORE POP JUMP JUMPDEST PUSH1 0x0 PUSH2 0x3584 PUSH1 0x25 DUP4 PUSH2 0x3309 JUMP JUMPDEST SWAP2 POP PUSH2 0x358F DUP3 PUSH2 0x3528 JUMP JUMPDEST PUSH1 0x40 DUP3 ADD SWAP1 POP SWAP2 SWAP1 POP JUMP JUMPDEST PUSH1 0x0 PUSH1 0x20 DUP3 ADD SWAP1 POP DUP2 DUP2 SUB PUSH1 0x0 DUP4 ADD MSTORE PUSH2 0x35B3 DUP2 PUSH2 0x3577 JUMP JUMPDEST SWAP1 POP SWAP2 SWAP1 POP JUMP JUMPDEST PUSH32 0x43616C6C6572206973206E6F7420612061646D696E0000000000000000000000 PUSH1 0x0 DUP3 ADD MSTORE POP JUMP JUMPDEST PUSH1 0x0 PUSH2 0x35F0 PUSH1 0x15 DUP4 PUSH2 0x3309 JUMP JUMPDEST SWAP2 POP PUSH2 0x35FB DUP3 PUSH2 0x35BA JUMP JUMPDEST PUSH1 0x20 DUP3 ADD SWAP1 POP SWAP2 SWAP1 POP JUMP JUMPDEST PUSH1 0x0 PUSH1 0x20 DUP3 ADD SWAP1 POP DUP2 DUP2 SUB PUSH1 0x0 DUP4 ADD MSTORE PUSH2 0x361F DUP2 PUSH2 0x35E3 JUMP JUMPDEST SWAP1 POP SWAP2 SWAP1 POP JUMP JUMPDEST PUSH1 0x0 DUP2 SWAP1 POP SWAP3 SWAP2 POP POP JUMP JUMPDEST PUSH32 0x416363657373436F6E74726F6C3A206163636F756E7420000000000000000000 PUSH1 0x0 DUP3 ADD MSTORE POP JUMP JUMPDEST PUSH1 0x0 PUSH2 0x3667 PUSH1 0x17 DUP4 PUSH2 0x3626 JUMP JUMPDEST SWAP2 POP PUSH2 0x3672 DUP3 PUSH2 0x3631 JUMP JUMPDEST PUSH1 0x17 DUP3 ADD SWAP1 POP SWAP2 SWAP1 POP JUMP JUMPDEST PUSH1 0x0 DUP2 MLOAD SWAP1 POP SWAP2 SWAP1 POP JUMP JUMPDEST PUSH1 0x0 PUSH2 0x3693 DUP3 PUSH2 0x367D JUMP JUMPDEST PUSH2 0x369D DUP2 DUP6 PUSH2 0x3626 JUMP JUMPDEST SWAP4 POP PUSH2 0x36AD DUP2 DUP6 PUSH1 0x20 DUP7 ADD PUSH2 0x3094 JUMP JUMPDEST DUP1 DUP5 ADD SWAP2 POP POP SWAP3 SWAP2 POP POP JUMP JUMPDEST PUSH32 0x206973206D697373696E6720726F6C6520000000000000000000000000000000 PUSH1 0x0 DUP3 ADD MSTORE POP JUMP JUMPDEST PUSH1 0x0 PUSH2 0x36EF PUSH1 0x11 DUP4 PUSH2 0x3626 JUMP JUMPDEST SWAP2 POP PUSH2 0x36FA DUP3 PUSH2 0x36B9 JUMP JUMPDEST PUSH1 0x11 DUP3 ADD SWAP1 POP SWAP2 SWAP1 POP JUMP JUMPDEST PUSH1 0x0 PUSH2 0x3710 DUP3 PUSH2 0x365A JUMP JUMPDEST SWAP2 POP PUSH2 0x371C DUP3 DUP6 PUSH2 0x3688 JUMP JUMPDEST SWAP2 POP PUSH2 0x3727 DUP3 PUSH2 0x36E2 JUMP JUMPDEST SWAP2 POP PUSH2 0x3733 DUP3 DUP5 PUSH2 0x3688 JUMP JUMPDEST SWAP2 POP DUP2 SWAP1 POP SWAP4 SWAP3 POP POP POP JUMP JUMPDEST PUSH1 0x0 PUSH2 0x374A DUP3 PUSH2 0x367D JUMP JUMPDEST PUSH2 0x3754 DUP2 DUP6 PUSH2 0x3309 JUMP JUMPDEST SWAP4 POP PUSH2 0x3764 DUP2 DUP6 PUSH1 0x20 DUP7 ADD PUSH2 0x3094 JUMP JUMPDEST PUSH2 0x376D DUP2 PUSH2 0x2B96 JUMP JUMPDEST DUP5 ADD SWAP2 POP POP SWAP3 SWAP2 POP POP JUMP JUMPDEST PUSH1 0x0 PUSH1 0x20 DUP3 ADD SWAP1 POP DUP2 DUP2 SUB PUSH1 0x0 DUP4 ADD MSTORE PUSH2 0x3792 DUP2 DUP5 PUSH2 0x373F JUMP JUMPDEST SWAP1 POP SWAP3 SWAP2 POP POP JUMP JUMPDEST PUSH1 0x0 DUP2 SWAP1 POP DUP2 PUSH1 0x0 MSTORE PUSH1 0x20 PUSH1 0x0 KECCAK256 SWAP1 POP SWAP2 SWAP1 POP JUMP JUMPDEST PUSH1 0x0 PUSH1 0x20 PUSH1 0x1F DUP4 ADD DIV SWAP1 POP SWAP2 SWAP1 POP JUMP JUMPDEST PUSH1 0x0 DUP3 DUP3 SHL SWAP1 POP SWAP3 SWAP2 POP POP JUMP JUMPDEST PUSH1 0x0 PUSH1 0x8 DUP4 MUL PUSH2 0x37FC PUSH32 0xFFFFFFFFFFFFFFFFFFFFFFFFFFFFFFFFFFFFFFFFFFFFFFFFFFFFFFFFFFFFFFFF DUP3 PUSH2 0x37BF JUMP JUMPDEST PUSH2 0x3806 DUP7 DUP4 PUSH2 0x37BF JUMP JUMPDEST SWAP6 POP DUP1 NOT DUP5 AND SWAP4 POP DUP1 DUP7 AND DUP5 OR SWAP3 POP POP POP SWAP4 SWAP3 POP POP POP JUMP JUMPDEST PUSH1 0x0 PUSH2 0x3839 PUSH2 0x3834 PUSH2 0x382F DUP5 PUSH2 0x2DE1 JUMP JUMPDEST PUSH2 0x2FEF JUMP JUMPDEST PUSH2 0x2DE1 JUMP JUMPDEST SWAP1 POP SWAP2 SWAP1 POP JUMP JUMPDEST PUSH1 0x0 DUP2 SWAP1 POP SWAP2 SWAP1 POP JUMP JUMPDEST PUSH2 0x3853 DUP4 PUSH2 0x381E JUMP JUMPDEST PUSH2 0x3867 PUSH2 0x385F DUP3 PUSH2 0x3840 JUMP JUMPDEST DUP5 DUP5 SLOAD PUSH2 0x37CC JUMP JUMPDEST DUP3 SSTORE POP POP POP POP JUMP JUMPDEST PUSH1 0x0 SWAP1 JUMP JUMPDEST PUSH2 0x387C PUSH2 0x386F JUMP JUMPDEST PUSH2 0x3887 DUP2 DUP5 DUP5 PUSH2 0x384A JUMP JUMPDEST POP POP POP JUMP JUMPDEST JUMPDEST DUP2 DUP2 LT ISZERO PUSH2 0x38AB JUMPI PUSH2 0x38A0 PUSH1 0x0 DUP3 PUSH2 0x3874 JUMP JUMPDEST PUSH1 0x1 DUP2 ADD SWAP1 POP PUSH2 0x388D JUMP JUMPDEST POP POP JUMP JUMPDEST PUSH1 0x1F DUP3 GT ISZERO PUSH2 0x38F0 JUMPI PUSH2 0x38C1 DUP2 PUSH2 0x379A JUMP JUMPDEST PUSH2 0x38CA DUP5 PUSH2 0x37AF JUMP JUMPDEST DUP2 ADD PUSH1 0x20 DUP6 LT ISZERO PUSH2 0x38D9 JUMPI DUP2 SWAP1 POP JUMPDEST PUSH2 0x38ED PUSH2 0x38E5 DUP6 PUSH2 0x37AF JUMP JUMPDEST DUP4 ADD DUP3 PUSH2 0x388C JUMP JUMPDEST POP POP JUMPDEST POP POP POP JUMP JUMPDEST PUSH1 0x0 DUP3 DUP3 SHR SWAP1 POP SWAP3 SWAP2 POP POP JUMP JUMPDEST PUSH1 0x0 PUSH2 0x3913 PUSH1 0x0 NOT DUP5 PUSH1 0x8 MUL PUSH2 0x38F5 JUMP JUMPDEST NOT DUP1 DUP4 AND SWAP2 POP POP SWAP3 SWAP2 POP POP JUMP JUMPDEST PUSH1 0x0 PUSH2 0x392C DUP4 DUP4 PUSH2 0x3902 JUMP JUMPDEST SWAP2 POP DUP3 PUSH1 0x2 MUL DUP3 OR SWAP1 POP SWAP3 SWAP2 POP POP JUMP JUMPDEST PUSH2 0x3945 DUP3 PUSH2 0x3078 JUMP JUMPDEST PUSH8 0xFFFFFFFFFFFFFFFF DUP2 GT ISZERO PUSH2 0x395E JUMPI PUSH2 0x395D PUSH2 0x2BA7 JUMP JUMPDEST JUMPDEST PUSH2 0x3968 DUP3 SLOAD PUSH2 0x34F7 JUMP JUMPDEST PUSH2 0x3973 DUP3 DUP3 DUP6 PUSH2 0x38AF JUMP JUMPDEST PUSH1 0x0 PUSH1 0x20 SWAP1 POP PUSH1 0x1F DUP4 GT PUSH1 0x1 DUP2 EQ PUSH2 0x39A6 JUMPI PUSH1 0x0 DUP5 ISZERO PUSH2 0x3994 JUMPI DUP3 DUP8 ADD MLOAD SWAP1 POP JUMPDEST PUSH2 0x399E DUP6 DUP3 PUSH2 0x3920 JUMP JUMPDEST DUP7 SSTORE POP PUSH2 0x3A06 JUMP JUMPDEST PUSH1 0x1F NOT DUP5 AND PUSH2 0x39B4 DUP7 PUSH2 0x379A JUMP JUMPDEST PUSH1 0x0 JUMPDEST DUP3 DUP2 LT ISZERO PUSH2 0x39DC JUMPI DUP5 DUP10 ADD MLOAD DUP3 SSTORE PUSH1 0x1 DUP3 ADD SWAP2 POP PUSH1 0x20 DUP6 ADD SWAP5 POP PUSH1 0x20 DUP2 ADD SWAP1 POP PUSH2 0x39B7 JUMP JUMPDEST DUP7 DUP4 LT ISZERO PUSH2 0x39F9 JUMPI DUP5 DUP10 ADD MLOAD PUSH2 0x39F5 PUSH1 0x1F DUP10 AND DUP3 PUSH2 0x3902 JUMP JUMPDEST DUP4 SSTORE POP JUMPDEST PUSH1 0x1 PUSH1 0x2 DUP9 MUL ADD DUP9 SSTORE POP POP POP JUMPDEST POP POP POP POP POP POP JUMP JUMPDEST PUSH32 0x4E487B7100000000000000000000000000000000000000000000000000000000 PUSH1 0x0 MSTORE PUSH1 0x11 PUSH1 0x4 MSTORE PUSH1 0x24 PUSH1 0x0 REVERT JUMPDEST PUSH1 0x0 PUSH2 0x3A48 DUP3 PUSH2 0x2DE1 JUMP JUMPDEST SWAP2 POP PUSH2 0x3A53 DUP4 PUSH2 0x2DE1 JUMP JUMPDEST SWAP3 POP DUP3 DUP3 SUB SWAP1 POP DUP2 DUP2 GT ISZERO PUSH2 0x3A6B JUMPI PUSH2 0x3A6A PUSH2 0x3A0E JUMP JUMPDEST JUMPDEST SWAP3 SWAP2 POP POP JUMP JUMPDEST PUSH32 0x4E487B7100000000000000000000000000000000000000000000000000000000 PUSH1 0x0 MSTORE PUSH1 0x12 PUSH1 0x4 MSTORE PUSH1 0x24 PUSH1 0x0 REVERT JUMPDEST PUSH1 0x0 PUSH2 0x3AAB DUP3 PUSH2 0x2DE1 JUMP JUMPDEST SWAP2 POP PUSH2 0x3AB6 DUP4 PUSH2 0x2DE1 JUMP JUMPDEST SWAP3 POP DUP3 PUSH2 0x3AC6 JUMPI PUSH2 0x3AC5 PUSH2 0x3A71 JUMP JUMPDEST JUMPDEST DUP3 DUP3 DIV SWAP1 POP SWAP3 SWAP2 POP POP JUMP JUMPDEST PUSH1 0x0 PUSH2 0x3ADC DUP3 PUSH2 0x2DE1 JUMP JUMPDEST SWAP2 POP PUSH2 0x3AE7 DUP4 PUSH2 0x2DE1 JUMP JUMPDEST SWAP3 POP DUP3 DUP3 MUL PUSH2 0x3AF5 DUP2 PUSH2 0x2DE1 JUMP JUMPDEST SWAP2 POP DUP3 DUP3 DIV DUP5 EQ DUP4 ISZERO OR PUSH2 0x3B0C JUMPI PUSH2 0x3B0B PUSH2 0x3A0E JUMP JUMPDEST JUMPDEST POP SWAP3 SWAP2 POP POP JUMP JUMPDEST PUSH1 0x0 PUSH2 0x3B1E DUP3 PUSH2 0x2DE1 JUMP JUMPDEST SWAP2 POP PUSH2 0x3B29 DUP4 PUSH2 0x2DE1 JUMP JUMPDEST SWAP3 POP DUP3 DUP3 ADD SWAP1 POP DUP1 DUP3 GT ISZERO PUSH2 0x3B41 JUMPI PUSH2 0x3B40 PUSH2 0x3A0E JUMP JUMPDEST JUMPDEST SWAP3 SWAP2 POP POP JUMP JUMPDEST PUSH32 0x4E487B7100000000000000000000000000000000000000000000000000000000 PUSH1 0x0 MSTORE PUSH1 0x32 PUSH1 0x4 MSTORE PUSH1 0x24 PUSH1 0x0 REVERT JUMPDEST PUSH1 0x0 PUSH2 0x3B81 DUP3 PUSH2 0x2DE1 JUMP JUMPDEST SWAP2 POP PUSH1 0x0 DUP3 SUB PUSH2 0x3B94 JUMPI PUSH2 0x3B93 PUSH2 0x3A0E JUMP JUMPDEST JUMPDEST PUSH1 0x1 DUP3 SUB SWAP1 POP SWAP2 SWAP1 POP JUMP JUMPDEST PUSH32 0x537472696E67733A20686578206C656E67746820696E73756666696369656E74 PUSH1 0x0 DUP3 ADD MSTORE POP JUMP JUMPDEST PUSH1 0x0 PUSH2 0x3BD5 PUSH1 0x20 DUP4 PUSH2 0x3309 JUMP JUMPDEST SWAP2 POP PUSH2 0x3BE0 DUP3 PUSH2 0x3B9F JUMP JUMPDEST PUSH1 0x20 DUP3 ADD SWAP1 POP SWAP2 SWAP1 POP JUMP JUMPDEST PUSH1 0x0 PUSH1 0x20 DUP3 ADD SWAP1 POP DUP2 DUP2 SUB PUSH1 0x0 DUP4 ADD MSTORE PUSH2 0x3C04 DUP2 PUSH2 0x3BC8 JUMP JUMPDEST SWAP1 POP SWAP2 SWAP1 POP JUMP JUMPDEST PUSH1 0x0 PUSH1 0xC0 DUP3 ADD SWAP1 POP PUSH2 0x3C20 PUSH1 0x0 DUP4 ADD DUP10 PUSH2 0x2D2F JUMP JUMPDEST PUSH2 0x3C2D PUSH1 0x20 DUP4 ADD DUP9 PUSH2 0x2DEB JUMP JUMPDEST PUSH2 0x3C3A PUSH1 0x40 DUP4 ADD DUP8 PUSH2 0x2D2F JUMP JUMPDEST PUSH2 0x3C47 PUSH1 0x60 DUP4 ADD DUP7 PUSH2 0x2D2F JUMP JUMPDEST DUP2 DUP2 SUB PUSH1 0x80 DUP4 ADD MSTORE PUSH2 0x3C59 DUP2 DUP6 PUSH2 0x30BE JUMP JUMPDEST SWAP1 POP PUSH2 0x3C68 PUSH1 0xA0 DUP4 ADD DUP5 PUSH2 0x2D2F JUMP JUMPDEST SWAP8 SWAP7 POP POP POP POP POP POP POP JUMP JUMPDEST PUSH1 0x0 DUP2 SWAP1 POP SWAP2 SWAP1 POP JUMP JUMPDEST PUSH2 0x3C86 DUP2 PUSH2 0x3C73 JUMP JUMPDEST DUP2 EQ PUSH2 0x3C91 JUMPI PUSH1 0x0 DUP1 REVERT JUMPDEST POP JUMP JUMPDEST PUSH1 0x0 DUP2 MLOAD SWAP1 POP PUSH2 0x3CA3 DUP2 PUSH2 0x3C7D JUMP JUMPDEST SWAP3 SWAP2 POP POP JUMP JUMPDEST PUSH1 0x0 DUP2 MLOAD SWAP1 POP PUSH2 0x3CB8 DUP2 PUSH2 0x2D59 JUMP JUMPDEST SWAP3 SWAP2 POP POP JUMP JUMPDEST PUSH1 0x0 PUSH2 0x3CD1 PUSH2 0x3CCC DUP5 PUSH2 0x2C22 JUMP JUMPDEST PUSH2 0x2C07 JUMP JUMPDEST SWAP1 POP DUP3 DUP2 MSTORE PUSH1 0x20 DUP2 ADD DUP5 DUP5 DUP5 ADD GT ISZERO PUSH2 0x3CED JUMPI PUSH2 0x3CEC PUSH2 0x2B91 JUMP JUMPDEST JUMPDEST PUSH2 0x3CF8 DUP5 DUP3 DUP6 PUSH2 0x3094 JUMP JUMPDEST POP SWAP4 SWAP3 POP POP POP JUMP JUMPDEST PUSH1 0x0 DUP3 PUSH1 0x1F DUP4 ADD SLT PUSH2 0x3D15 JUMPI PUSH2 0x3D14 PUSH2 0x2B8C JUMP JUMPDEST JUMPDEST DUP2 MLOAD PUSH2 0x3D25 DUP5 DUP3 PUSH1 0x20 DUP7 ADD PUSH2 0x3CBE JUMP JUMPDEST SWAP2 POP POP SWAP3 SWAP2 POP POP JUMP JUMPDEST PUSH1 0x0 DUP1 PUSH1 0x0 PUSH1 0x60 DUP5 DUP7 SUB SLT ISZERO PUSH2 0x3D47 JUMPI PUSH2 0x3D46 PUSH2 0x2AC7 JUMP JUMPDEST JUMPDEST PUSH1 0x0 PUSH2 0x3D55 DUP7 DUP3 DUP8 ADD PUSH2 0x3C94 JUMP JUMPDEST SWAP4 POP POP PUSH1 0x20 PUSH2 0x3D66 DUP7 DUP3 DUP8 ADD PUSH2 0x3CA9 JUMP JUMPDEST SWAP3 POP POP PUSH1 0x40 DUP5 ADD MLOAD PUSH8 0xFFFFFFFFFFFFFFFF DUP2 GT ISZERO PUSH2 0x3D87 JUMPI PUSH2 0x3D86 PUSH2 0x2ACC JUMP JUMPDEST JUMPDEST PUSH2 0x3D93 DUP7 DUP3 DUP8 ADD PUSH2 0x3D00 JUMP JUMPDEST SWAP2 POP POP SWAP3 POP SWAP3 POP SWAP3 JUMP JUMPDEST PUSH32 0x646174612073697A65206D757374206D61746368206578706563746564000000 PUSH1 0x0 DUP3 ADD MSTORE POP JUMP JUMPDEST PUSH1 0x0 PUSH2 0x3DD3 PUSH1 0x1D DUP4 PUSH2 0x3309 JUMP JUMPDEST SWAP2 POP PUSH2 0x3DDE DUP3 PUSH2 0x3D9D JUMP JUMPDEST PUSH1 0x20 DUP3 ADD SWAP1 POP SWAP2 SWAP1 POP JUMP JUMPDEST PUSH1 0x0 PUSH1 0x20 DUP3 ADD SWAP1 POP DUP2 DUP2 SUB PUSH1 0x0 DUP4 ADD MSTORE PUSH2 0x3E02 DUP2 PUSH2 0x3DC6 JUMP JUMPDEST SWAP1 POP SWAP2 SWAP1 POP JUMP JUMPDEST PUSH32 0x6465616C206661696C656420706F6C69637920636865636B3A20686173207072 PUSH1 0x0 DUP3 ADD MSTORE PUSH32 0x6F766964657220616C726561647920636C61696D65642074686973206369643F PUSH1 0x20 DUP3 ADD MSTORE POP JUMP JUMPDEST PUSH1 0x0 PUSH2 0x3E65 PUSH1 0x40 DUP4 PUSH2 0x3309 JUMP JUMPDEST SWAP2 POP PUSH2 0x3E70 DUP3 PUSH2 0x3E09 JUMP JUMPDEST PUSH1 0x40 DUP3 ADD SWAP1 POP SWAP2 SWAP1 POP JUMP JUMPDEST PUSH1 0x0 PUSH1 0x20 DUP3 ADD SWAP1 POP DUP2 DUP2 SUB PUSH1 0x0 DUP4 ADD MSTORE PUSH2 0x3E94 DUP2 PUSH2 0x3E58 JUMP JUMPDEST SWAP1 POP SWAP2 SWAP1 POP JUMP JUMPDEST PUSH32 0x496E76616C69642043424F520000000000000000000000000000000000000000 PUSH1 0x0 DUP3 ADD MSTORE POP JUMP JUMPDEST PUSH1 0x0 PUSH2 0x3ED1 PUSH1 0xC DUP4 PUSH2 0x3309 JUMP JUMPDEST SWAP2 POP PUSH2 0x3EDC DUP3 PUSH2 0x3E9B JUMP JUMPDEST PUSH1 0x20 DUP3 ADD SWAP1 POP SWAP2 SWAP1 POP JUMP JUMPDEST PUSH1 0x0 PUSH1 0x20 DUP3 ADD SWAP1 POP DUP2 DUP2 SUB PUSH1 0x0 DUP4 ADD MSTORE PUSH2 0x3F00 DUP2 PUSH2 0x3EC4 JUMP JUMPDEST SWAP1 POP SWAP2 SWAP1 POP JUMP JUMPDEST PUSH32 0x6163746F72206572726F7220636F646520000000000000000000000000000000 DUP2 MSTORE POP JUMP JUMPDEST PUSH1 0x0 PUSH2 0x3F38 DUP3 PUSH2 0x3F07 JUMP JUMPDEST PUSH1 0x11 DUP3 ADD SWAP2 POP PUSH2 0x3F48 DUP3 DUP5 PUSH2 0x3688 JUMP JUMPDEST SWAP2 POP DUP2 SWAP1 POP SWAP3 SWAP2 POP POP JUMP JUMPDEST PUSH32 0x4E487B7100000000000000000000000000000000000000000000000000000000 PUSH1 0x0 MSTORE PUSH1 0x1 PUSH1 0x4 MSTORE PUSH1 0x24 PUSH1 0x0 REVERT JUMPDEST PUSH1 0x0 PUSH2 0x3F8D DUP3 PUSH2 0x2DE1 JUMP JUMPDEST SWAP2 POP PUSH32 0xFFFFFFFFFFFFFFFFFFFFFFFFFFFFFFFFFFFFFFFFFFFFFFFFFFFFFFFFFFFFFFFF DUP3 SUB PUSH2 0x3FBF JUMPI PUSH2 0x3FBE PUSH2 0x3A0E JUMP JUMPDEST JUMPDEST PUSH1 0x1 DUP3 ADD SWAP1 POP SWAP2 SWAP1 POP JUMP JUMPDEST PUSH1 0x0 PUSH2 0x3FD5 DUP3 PUSH2 0x2DE1 JUMP JUMPDEST SWAP2 POP PUSH2 0x3FE0 DUP4 PUSH2 0x2DE1 JUMP JUMPDEST SWAP3 POP DUP3 PUSH2 0x3FF0 JUMPI PUSH2 0x3FEF PUSH2 0x3A71 JUMP JUMPDEST JUMPDEST DUP3 DUP3 MOD SWAP1 POP SWAP3 SWAP2 POP POP JUMP JUMPDEST PUSH1 0x0 PUSH1 0xC0 DUP3 ADD SWAP1 POP PUSH2 0x4010 PUSH1 0x0 DUP4 ADD DUP10 PUSH2 0x2D2F JUMP JUMPDEST PUSH2 0x401D PUSH1 0x20 DUP4 ADD DUP9 PUSH2 0x2DEB JUMP JUMPDEST PUSH2 0x402A PUSH1 0x40 DUP4 ADD DUP8 PUSH2 0x2D2F JUMP JUMPDEST PUSH2 0x4037 PUSH1 0x60 DUP4 ADD DUP7 PUSH2 0x2D2F JUMP JUMPDEST DUP2 DUP2 SUB PUSH1 0x80 DUP4 ADD MSTORE PUSH2 0x4049 DUP2 DUP6 PUSH2 0x30BE JUMP JUMPDEST SWAP1 POP DUP2 DUP2 SUB PUSH1 0xA0 DUP4 ADD MSTORE PUSH2 0x405D DUP2 DUP5 PUSH2 0x30BE JUMP JUMPDEST SWAP1 POP SWAP8 SWAP7 POP POP POP POP POP POP POP JUMP JUMPDEST PUSH1 0x0 DUP2 PUSH1 0x1 SHR SWAP1 POP SWAP2 SWAP1 POP JUMP JUMPDEST PUSH1 0x0 DUP1 DUP3 SWAP2 POP DUP4 SWAP1 POP JUMPDEST PUSH1 0x1 DUP6 GT ISZERO PUSH2 0x40C1 JUMPI DUP1 DUP7 DIV DUP2 GT ISZERO PUSH2 0x409D JUMPI PUSH2 0x409C PUSH2 0x3A0E JUMP JUMPDEST JUMPDEST PUSH1 0x1 DUP6 AND ISZERO PUSH2 0x40AC JUMPI DUP1 DUP3 MUL SWAP2 POP JUMPDEST DUP1 DUP2 MUL SWAP1 POP PUSH2 0x40BA DUP6 PUSH2 0x406A JUMP JUMPDEST SWAP5 POP PUSH2 0x4081 JUMP JUMPDEST SWAP5 POP SWAP5 SWAP3 POP POP POP JUMP JUMPDEST PUSH1 0x0 DUP3 PUSH2 0x40DA JUMPI PUSH1 0x1 SWAP1 POP PUSH2 0x4196 JUMP JUMPDEST DUP2 PUSH2 0x40E8 JUMPI PUSH1 0x0 SWAP1 POP PUSH2 0x4196 JUMP JUMPDEST DUP2 PUSH1 0x1 DUP2 EQ PUSH2 0x40FE JUMPI PUSH1 0x2 DUP2 EQ PUSH2 0x4108 JUMPI PUSH2 0x4137 JUMP JUMPDEST PUSH1 0x1 SWAP2 POP POP PUSH2 0x4196 JUMP JUMPDEST PUSH1 0xFF DUP5 GT ISZERO PUSH2 0x411A JUMPI PUSH2 0x4119 PUSH2 0x3A0E JUMP JUMPDEST JUMPDEST DUP4 PUSH1 0x2 EXP SWAP2 POP DUP5 DUP3 GT ISZERO PUSH2 0x4131 JUMPI PUSH2 0x4130 PUSH2 0x3A0E JUMP JUMPDEST JUMPDEST POP PUSH2 0x4196 JUMP JUMPDEST POP PUSH1 0x20 DUP4 LT PUSH2 0x133 DUP4 LT AND PUSH1 0x4E DUP5 LT PUSH1 0xB DUP5 LT AND OR ISZERO PUSH2 0x416C JUMPI DUP3 DUP3 EXP SWAP1 POP DUP4 DUP2 GT ISZERO PUSH2 0x4167 JUMPI PUSH2 0x4166 PUSH2 0x3A0E JUMP JUMPDEST JUMPDEST PUSH2 0x4196 JUMP JUMPDEST PUSH2 0x4179 DUP5 DUP5 DUP5 PUSH1 0x1 PUSH2 0x4077 JUMP JUMPDEST SWAP3 POP SWAP1 POP DUP2 DUP5 DIV DUP2 GT ISZERO PUSH2 0x4190 JUMPI PUSH2 0x418F PUSH2 0x3A0E JUMP JUMPDEST JUMPDEST DUP2 DUP2 MUL SWAP1 POP JUMPDEST SWAP4 SWAP3 POP POP POP JUMP JUMPDEST PUSH1 0x0 PUSH2 0x41A8 DUP3 PUSH2 0x2DE1 JUMP JUMPDEST SWAP2 POP PUSH2 0x41B3 DUP4 PUSH2 0x2DE1 JUMP JUMPDEST SWAP3 POP PUSH2 0x41E0 PUSH32 0xFFFFFFFFFFFFFFFFFFFFFFFFFFFFFFFFFFFFFFFFFFFFFFFFFFFFFFFFFFFFFFFF DUP5 DUP5 PUSH2 0x40CA JUMP JUMPDEST SWAP1 POP SWAP3 SWAP2 POP POP JUMP JUMPDEST PUSH32 0x736C6963696E67206F7574206F662072616E6765000000000000000000000000 PUSH1 0x0 DUP3 ADD MSTORE POP JUMP JUMPDEST PUSH1 0x0 PUSH2 0x421E PUSH1 0x14 DUP4 PUSH2 0x3309 JUMP JUMPDEST SWAP2 POP PUSH2 0x4229 DUP3 PUSH2 0x41E8 JUMP JUMPDEST PUSH1 0x20 DUP3 ADD SWAP1 POP SWAP2 SWAP1 POP JUMP JUMPDEST PUSH1 0x0 PUSH1 0x20 DUP3 ADD SWAP1 POP DUP2 DUP2 SUB PUSH1 0x0 DUP4 ADD MSTORE PUSH2 0x424D DUP2 PUSH2 0x4211 JUMP JUMPDEST SWAP1 POP SWAP2 SWAP1 POP JUMP INVALID LOG2 PUSH5 0x6970667358 0x22 SLT KECCAK256 LOG3 DUP11 0xF7 0xCB 0xB3 DUP16 0x5D PUSH28 0xD2B55D62E78C500711B65984397FDAE368A5C1C7F62EF1C164736F6C PUSH4 0x43000811 STOP CALLER "
		},
		"gasEstimates": {
			"creation": {
				"codeDepositCost": "3406800",
				"executionCost": "infinite",
				"totalCost": "infinite"
			},
			"external": {
				"DEFAULT_ADMIN_ROLE()": "402",
				"activateDataSetDealBySP(uint64)": "infinite",
				"approveOrRejectDataSet(bytes,uint8)": "infinite",
				"cidProviders(bytes,uint64)": "infinite",
				"createDataSetDealProposal(bytes,uint256,uint256,uint256)": "infinite",
				"dealClient(bytes)": "infinite",
				"dealStorageFees(bytes)": "infinite",
				"deals(bytes)": "infinite",
				"fundings(bytes,address)": "infinite",
				"getDealState(bytes)": "infinite",
				"getRoleAdmin(bytes32)": "infinite",
				"grantRole(bytes32,address)": "infinite",
				"hasRole(bytes32,address)": "3163",
				"isDAOMember()": "infinite",
				"joinDAO()": "infinite",
				"membershipNFT()": "infinite",
				"renounceRole(bytes32,address)": "infinite",
				"revokeRole(bytes32,address)": "infinite",
				"supportsInterface(bytes4)": "751",
				"withdrawReward(bytes)": "infinite"
			}
		},
		"methodIdentifiers": {
			"DEFAULT_ADMIN_ROLE()": "a217fddf",
			"activateDataSetDealBySP(uint64)": "e5fcd6b8",
			"approveOrRejectDataSet(bytes,uint8)": "f7e88663",
			"cidProviders(bytes,uint64)": "1a7fd6c6",
			"createDataSetDealProposal(bytes,uint256,uint256,uint256)": "77da63c4",
			"dealClient(bytes)": "166d4c6f",
			"dealStorageFees(bytes)": "1e7f7e09",
			"deals(bytes)": "b22e8569",
			"fundings(bytes,address)": "f4912450",
			"getDealState(bytes)": "bfbd58fc",
			"getRoleAdmin(bytes32)": "248a9ca3",
			"grantRole(bytes32,address)": "2f2ff15d",
			"hasRole(bytes32,address)": "91d14854",
			"isDAOMember()": "62f9f841",
			"joinDAO()": "f63d13d7",
			"membershipNFT()": "985d0b1e",
			"renounceRole(bytes32,address)": "36568abe",
			"revokeRole(bytes32,address)": "d547741f",
			"supportsInterface(bytes4)": "01ffc9a7",
			"withdrawReward(bytes)": "6763ccbd"
		}
	},
	"abi": [
		{
			"inputs": [
				{
					"internalType": "address[]",
					"name": "admins",
					"type": "address[]"
				},
				{
					"internalType": "address",
					"name": "_membershipNFT",
					"type": "address"
				}
			],
			"stateMutability": "nonpayable",
			"type": "constructor"
		},
		{
			"inputs": [],
			"name": "DataDAO_CallerIsNotMember",
			"type": "error"
		},
		{
			"inputs": [],
			"name": "DataDAO__CallerIsNotAdmin",
			"type": "error"
		},
		{
			"inputs": [],
			"name": "DataDAO__DataSizeNotMatched",
			"type": "error"
		},
		{
			"inputs": [],
			"name": "DataDAO__DealProposalPolicyCheckFailed",
			"type": "error"
		},
		{
			"inputs": [],
			"name": "DataDAO__DealProposalWasNotApproved",
			"type": "error"
		},
		{
			"anonymous": false,
			"inputs": [
				{
					"indexed": false,
					"internalType": "address",
					"name": "adminAddress",
					"type": "address"
				}
			],
			"name": "AdminAdded",
			"type": "event"
		},
		{
			"anonymous": false,
			"inputs": [
				{
					"indexed": false,
					"internalType": "bytes",
					"name": "cidraw",
					"type": "bytes"
				},
				{
					"indexed": false,
					"internalType": "uint256",
					"name": "dealStartBlockStamp",
					"type": "uint256"
				},
				{
					"indexed": false,
					"internalType": "uint256",
					"name": "dealDurationInDays",
					"type": "uint256"
				}
			],
			"name": "DealAcivated",
			"type": "event"
		},
		{
			"anonymous": false,
			"inputs": [
				{
					"indexed": false,
					"internalType": "bytes",
					"name": "cidraw",
					"type": "bytes"
				},
				{
					"indexed": false,
					"internalType": "bytes32",
					"name": "decision",
					"type": "bytes32"
				}
			],
			"name": "DealApproval",
			"type": "event"
		},
		{
			"anonymous": false,
			"inputs": [
				{
					"indexed": false,
					"internalType": "bytes",
					"name": "cidraw",
					"type": "bytes"
				},
				{
					"indexed": false,
					"internalType": "uint256",
					"name": "size",
					"type": "uint256"
				}
			],
			"name": "DealProposed",
			"type": "event"
		},
		{
			"anonymous": false,
			"inputs": [
				{
					"indexed": false,
					"internalType": "address",
					"name": "memberAddress",
					"type": "address"
				}
			],
			"name": "MemberAdded",
			"type": "event"
		},
		{
			"anonymous": false,
			"inputs": [
				{
					"indexed": true,
					"internalType": "bytes32",
					"name": "role",
					"type": "bytes32"
				},
				{
					"indexed": true,
					"internalType": "bytes32",
					"name": "previousAdminRole",
					"type": "bytes32"
				},
				{
					"indexed": true,
					"internalType": "bytes32",
					"name": "newAdminRole",
					"type": "bytes32"
				}
			],
			"name": "RoleAdminChanged",
			"type": "event"
		},
		{
			"anonymous": false,
			"inputs": [
				{
					"indexed": true,
					"internalType": "bytes32",
					"name": "role",
					"type": "bytes32"
				},
				{
					"indexed": true,
					"internalType": "address",
					"name": "account",
					"type": "address"
				},
				{
					"indexed": true,
					"internalType": "address",
					"name": "sender",
					"type": "address"
				}
			],
			"name": "RoleGranted",
			"type": "event"
		},
		{
			"anonymous": false,
			"inputs": [
				{
					"indexed": true,
					"internalType": "bytes32",
					"name": "role",
					"type": "bytes32"
				},
				{
					"indexed": true,
					"internalType": "address",
					"name": "account",
					"type": "address"
				},
				{
					"indexed": true,
					"internalType": "address",
					"name": "sender",
					"type": "address"
				}
			],
			"name": "RoleRevoked",
			"type": "event"
		},
		{
			"inputs": [],
			"name": "DEFAULT_ADMIN_ROLE",
			"outputs": [
				{
					"internalType": "bytes32",
					"name": "",
					"type": "bytes32"
				}
			],
			"stateMutability": "view",
			"type": "function"
		},
		{
			"inputs": [
				{
					"internalType": "uint64",
					"name": "_networkDealID",
					"type": "uint64"
				}
			],
			"name": "activateDataSetDealBySP",
			"outputs": [],
			"stateMutability": "nonpayable",
			"type": "function"
		},
		{
			"inputs": [
				{
					"internalType": "bytes",
					"name": "_cidraw",
					"type": "bytes"
				},
				{
					"internalType": "enum IDataDAO.DealState",
					"name": "_choice",
					"type": "uint8"
				}
			],
			"name": "approveOrRejectDataSet",
			"outputs": [],
			"stateMutability": "nonpayable",
			"type": "function"
		},
		{
			"inputs": [
				{
					"internalType": "bytes",
					"name": "",
					"type": "bytes"
				},
				{
					"internalType": "uint64",
					"name": "",
					"type": "uint64"
				}
			],
			"name": "cidProviders",
			"outputs": [
				{
					"internalType": "bool",
					"name": "",
					"type": "bool"
				}
			],
			"stateMutability": "view",
			"type": "function"
		},
		{
			"inputs": [
				{
					"internalType": "bytes",
					"name": "_cidraw",
					"type": "bytes"
				},
				{
					"internalType": "uint256",
					"name": "_size",
					"type": "uint256"
				},
				{
					"internalType": "uint256",
					"name": "_dealDurationInDays",
					"type": "uint256"
				},
				{
					"internalType": "uint256",
					"name": "_dealStorageFees",
					"type": "uint256"
				}
			],
			"name": "createDataSetDealProposal",
			"outputs": [],
			"stateMutability": "payable",
			"type": "function"
		},
		{
			"inputs": [
				{
					"internalType": "bytes",
					"name": "",
					"type": "bytes"
				}
			],
			"name": "dealClient",
			"outputs": [
				{
					"internalType": "uint64",
					"name": "",
					"type": "uint64"
				}
			],
			"stateMutability": "view",
			"type": "function"
		},
		{
			"inputs": [
				{
					"internalType": "bytes",
					"name": "",
					"type": "bytes"
				}
			],
			"name": "dealStorageFees",
			"outputs": [
				{
					"internalType": "uint256",
					"name": "",
					"type": "uint256"
				}
			],
			"stateMutability": "view",
			"type": "function"
		},
		{
			"inputs": [
				{
					"internalType": "bytes",
					"name": "",
					"type": "bytes"
				}
			],
			"name": "deals",
			"outputs": [
				{
					"internalType": "address",
					"name": "proposedBy",
					"type": "address"
				},
				{
					"internalType": "bytes",
					"name": "cidraw",
					"type": "bytes"
				},
				{
					"internalType": "uint256",
					"name": "size",
					"type": "uint256"
				},
				{
					"internalType": "uint256",
					"name": "storageFees",
					"type": "uint256"
				},
				{
					"internalType": "uint256",
					"name": "dealStartBlockStamp",
					"type": "uint256"
				},
				{
					"internalType": "uint256",
					"name": "dealDurationInDays",
					"type": "uint256"
				},
				{
					"internalType": "enum IDataDAO.DealState",
					"name": "dealState",
					"type": "uint8"
				}
			],
			"stateMutability": "view",
			"type": "function"
		},
		{
			"inputs": [
				{
					"internalType": "bytes",
					"name": "",
					"type": "bytes"
				},
				{
					"internalType": "address",
					"name": "",
					"type": "address"
				}
			],
			"name": "fundings",
			"outputs": [
				{
					"internalType": "uint256",
					"name": "",
					"type": "uint256"
				}
			],
			"stateMutability": "view",
			"type": "function"
		},
		{
			"inputs": [
				{
					"internalType": "bytes",
					"name": "_cidraw",
					"type": "bytes"
				}
			],
			"name": "getDealState",
			"outputs": [
				{
					"internalType": "enum IDataDAO.DealState",
					"name": "",
					"type": "uint8"
				}
			],
			"stateMutability": "view",
			"type": "function"
		},
		{
			"inputs": [
				{
					"internalType": "bytes32",
					"name": "role",
					"type": "bytes32"
				}
			],
			"name": "getRoleAdmin",
			"outputs": [
				{
					"internalType": "bytes32",
					"name": "",
					"type": "bytes32"
				}
			],
			"stateMutability": "view",
			"type": "function"
		},
		{
			"inputs": [
				{
					"internalType": "bytes32",
					"name": "role",
					"type": "bytes32"
				},
				{
					"internalType": "address",
					"name": "account",
					"type": "address"
				}
			],
			"name": "grantRole",
			"outputs": [],
			"stateMutability": "nonpayable",
			"type": "function"
		},
		{
			"inputs": [
				{
					"internalType": "bytes32",
					"name": "role",
					"type": "bytes32"
				},
				{
					"internalType": "address",
					"name": "account",
					"type": "address"
				}
			],
			"name": "hasRole",
			"outputs": [
				{
					"internalType": "bool",
					"name": "",
					"type": "bool"
				}
			],
			"stateMutability": "view",
			"type": "function"
		},
		{
			"inputs": [],
			"name": "isDAOMember",
			"outputs": [
				{
					"internalType": "bool",
					"name": "",
					"type": "bool"
				}
			],
			"stateMutability": "view",
			"type": "function"
		},
		{
			"inputs": [],
			"name": "joinDAO",
			"outputs": [],
			"stateMutability": "nonpayable",
			"type": "function"
		},
		{
			"inputs": [],
			"name": "membershipNFT",
			"outputs": [
				{
					"internalType": "contract IERC721",
					"name": "",
					"type": "address"
				}
			],
			"stateMutability": "view",
			"type": "function"
		},
		{
			"inputs": [
				{
					"internalType": "bytes32",
					"name": "role",
					"type": "bytes32"
				},
				{
					"internalType": "address",
					"name": "account",
					"type": "address"
				}
			],
			"name": "renounceRole",
			"outputs": [],
			"stateMutability": "nonpayable",
			"type": "function"
		},
		{
			"inputs": [
				{
					"internalType": "bytes32",
					"name": "role",
					"type": "bytes32"
				},
				{
					"internalType": "address",
					"name": "account",
					"type": "address"
				}
			],
			"name": "revokeRole",
			"outputs": [],
			"stateMutability": "nonpayable",
			"type": "function"
		},
		{
			"inputs": [
				{
					"internalType": "bytes4",
					"name": "interfaceId",
					"type": "bytes4"
				}
			],
			"name": "supportsInterface",
			"outputs": [
				{
					"internalType": "bool",
					"name": "",
					"type": "bool"
				}
			],
			"stateMutability": "view",
			"type": "function"
		},
		{
			"inputs": [
				{
					"internalType": "bytes",
					"name": "_cidraw",
					"type": "bytes"
				}
			],
			"name": "withdrawReward",
			"outputs": [],
			"stateMutability": "nonpayable",
			"type": "function"
		}
	]
}