{
  "_format": "hh-sol-artifact-1",
  "contractName": "DataDAO",
  "sourceName": "contracts/my-data-dao/data-dao/DataDAO.sol",
  "abi": [
    {
      "inputs": [
        {
          "internalType": "address[]",
          "name": "_admins",
          "type": "address[]"
        }
      ],
      "stateMutability": "nonpayable",
      "type": "constructor"
    },
    {
      "inputs": [],
      "name": "DataDAO_CallerIsNotMember",
      "type": "error"
    },
    {
      "inputs": [],
      "name": "DataDAO__CallerIsNotAdmin",
      "type": "error"
    },
    {
      "inputs": [],
      "name": "DataDAO__DataSizeNotMatched",
      "type": "error"
    },
    {
      "inputs": [],
      "name": "DataDAO__DealProposalPolicyCheckFailed",
      "type": "error"
    },
    {
      "inputs": [],
      "name": "DataDAO__DealProposalWasNotApproved",
      "type": "error"
    },
    {
      "anonymous": false,
      "inputs": [
        {
          "indexed": false,
          "internalType": "address",
          "name": "adminAddress",
          "type": "address"
        }
      ],
      "name": "AdminAdded",
      "type": "event"
    },
    {
      "anonymous": false,
      "inputs": [
        {
          "indexed": false,
          "internalType": "bytes",
          "name": "cidraw",
          "type": "bytes"
        },
        {
          "indexed": false,
          "internalType": "uint256",
          "name": "dealStartBlockStamp",
          "type": "uint256"
        },
        {
          "indexed": false,
          "internalType": "uint256",
          "name": "dealDurationInDays",
          "type": "uint256"
        }
      ],
      "name": "DealAcivated",
      "type": "event"
    },
    {
      "anonymous": false,
      "inputs": [
        {
          "indexed": false,
          "internalType": "bytes",
          "name": "cidraw",
          "type": "bytes"
        },
        {
          "indexed": false,
          "internalType": "bytes32",
          "name": "decision",
          "type": "bytes32"
        }
      ],
      "name": "DealApproval",
      "type": "event"
    },
    {
      "anonymous": false,
      "inputs": [
        {
          "indexed": false,
          "internalType": "bytes",
          "name": "cidraw",
          "type": "bytes"
        },
        {
          "indexed": false,
          "internalType": "uint256",
          "name": "size",
          "type": "uint256"
        }
      ],
      "name": "DealProposed",
      "type": "event"
    },
    {
      "anonymous": false,
      "inputs": [
        {
          "indexed": false,
          "internalType": "address",
          "name": "memberAddress",
          "type": "address"
        }
      ],
      "name": "MemberAdded",
      "type": "event"
    },
    {
      "anonymous": false,
      "inputs": [
        {
          "indexed": true,
          "internalType": "bytes32",
          "name": "role",
          "type": "bytes32"
        },
        {
          "indexed": true,
          "internalType": "bytes32",
          "name": "previousAdminRole",
          "type": "bytes32"
        },
        {
          "indexed": true,
          "internalType": "bytes32",
          "name": "newAdminRole",
          "type": "bytes32"
        }
      ],
      "name": "RoleAdminChanged",
      "type": "event"
    },
    {
      "anonymous": false,
      "inputs": [
        {
          "indexed": true,
          "internalType": "bytes32",
          "name": "role",
          "type": "bytes32"
        },
        {
          "indexed": true,
          "internalType": "address",
          "name": "account",
          "type": "address"
        },
        {
          "indexed": true,
          "internalType": "address",
          "name": "sender",
          "type": "address"
        }
      ],
      "name": "RoleGranted",
      "type": "event"
    },
    {
      "anonymous": false,
      "inputs": [
        {
          "indexed": true,
          "internalType": "bytes32",
          "name": "role",
          "type": "bytes32"
        },
        {
          "indexed": true,
          "internalType": "address",
          "name": "account",
          "type": "address"
        },
        {
          "indexed": true,
          "internalType": "address",
          "name": "sender",
          "type": "address"
        }
      ],
      "name": "RoleRevoked",
      "type": "event"
    },
    {
      "inputs": [],
      "name": "DEFAULT_ADMIN_ROLE",
      "outputs": [
        {
          "internalType": "bytes32",
          "name": "",
          "type": "bytes32"
        }
      ],
      "stateMutability": "view",
      "type": "function"
    },
    {
      "inputs": [
        {
          "internalType": "bytes",
          "name": "",
          "type": "bytes"
        },
        {
          "internalType": "uint64",
          "name": "",
          "type": "uint64"
        }
      ],
      "name": "cidProviders",
      "outputs": [
        {
          "internalType": "bool",
          "name": "",
          "type": "bool"
        }
      ],
      "stateMutability": "view",
      "type": "function"
    },
    {
      "inputs": [
        {
          "internalType": "bytes",
          "name": "",
          "type": "bytes"
        }
      ],
      "name": "deals",
      "outputs": [
        {
          "internalType": "address",
          "name": "proposedBy",
          "type": "address"
        },
        {
          "internalType": "bytes",
          "name": "cidraw",
          "type": "bytes"
        },
        {
          "internalType": "uint256",
          "name": "size",
          "type": "uint256"
        },
        {
          "internalType": "uint256",
          "name": "storageFees",
          "type": "uint256"
        },
        {
          "internalType": "uint256",
          "name": "dealStartBlockStamp",
          "type": "uint256"
        },
        {
          "internalType": "uint256",
          "name": "dealDurationInDays",
          "type": "uint256"
        },
        {
          "internalType": "enum IDataDAO.DealState",
          "name": "dealState",
          "type": "uint8"
        }
      ],
      "stateMutability": "view",
      "type": "function"
    },
    {
      "inputs": [
        {
          "internalType": "bytes",
          "name": "_cidraw",
          "type": "bytes"
        }
      ],
      "name": "getDealState",
      "outputs": [
        {
          "internalType": "enum IDataDAO.DealState",
          "name": "",
          "type": "uint8"
        }
      ],
      "stateMutability": "view",
      "type": "function"
    },
    {
      "inputs": [
        {
          "internalType": "bytes32",
          "name": "role",
          "type": "bytes32"
        }
      ],
      "name": "getRoleAdmin",
      "outputs": [
        {
          "internalType": "bytes32",
          "name": "",
          "type": "bytes32"
        }
      ],
      "stateMutability": "view",
      "type": "function"
    },
    {
      "inputs": [
        {
          "internalType": "bytes32",
          "name": "role",
          "type": "bytes32"
        },
        {
          "internalType": "address",
          "name": "account",
          "type": "address"
        }
      ],
      "name": "grantRole",
      "outputs": [],
      "stateMutability": "nonpayable",
      "type": "function"
    },
    {
      "inputs": [
        {
          "internalType": "bytes32",
          "name": "role",
          "type": "bytes32"
        },
        {
          "internalType": "address",
          "name": "account",
          "type": "address"
        }
      ],
      "name": "hasRole",
      "outputs": [
        {
          "internalType": "bool",
          "name": "",
          "type": "bool"
        }
      ],
      "stateMutability": "view",
      "type": "function"
    },
    {
      "inputs": [
        {
          "internalType": "bytes32",
          "name": "role",
          "type": "bytes32"
        },
        {
          "internalType": "address",
          "name": "account",
          "type": "address"
        }
      ],
      "name": "renounceRole",
      "outputs": [],
      "stateMutability": "nonpayable",
      "type": "function"
    },
    {
      "inputs": [
        {
          "internalType": "bytes32",
          "name": "role",
          "type": "bytes32"
        },
        {
          "internalType": "address",
          "name": "account",
          "type": "address"
        }
      ],
      "name": "revokeRole",
      "outputs": [],
      "stateMutability": "nonpayable",
      "type": "function"
    },
    {
      "inputs": [
        {
          "internalType": "bytes4",
          "name": "interfaceId",
          "type": "bytes4"
        }
      ],
      "name": "supportsInterface",
      "outputs": [
        {
          "internalType": "bool",
          "name": "",
          "type": "bool"
        }
      ],
      "stateMutability": "view",
      "type": "function"
    }
  ],
  "bytecode": "0x60806040523480156200001157600080fd5b5060405162001a5738038062001a578339818101604052810190620000379190620003a2565b60005b81518160ff161015620000a557620000997fa49807205ce4d355092ef5a8a18f56e8913cf4a201fbe287825b095693c21775838360ff1681518110620000855762000084620003f3565b5b6020026020010151620000ad60201b60201c565b8060010190506200003a565b505062000422565b620000bf8282620000c360201b60201c565b5050565b620000d582826200014a60201b60201c565b6200014657600160008084815260200190815260200160002060000160008373ffffffffffffffffffffffffffffffffffffffff1673ffffffffffffffffffffffffffffffffffffffff16815260200190815260200160002060006101000a81548160ff0219169083151502179055505b5050565b600080600084815260200190815260200160002060000160008373ffffffffffffffffffffffffffffffffffffffff1673ffffffffffffffffffffffffffffffffffffffff16815260200190815260200160002060009054906101000a900460ff16905092915050565b6000604051905090565b600080fd5b600080fd5b600080fd5b6000601f19601f8301169050919050565b7f4e487b7100000000000000000000000000000000000000000000000000000000600052604160045260246000fd5b6200021882620001cd565b810181811067ffffffffffffffff821117156200023a5762000239620001de565b5b80604052505050565b60006200024f620001b4565b90506200025d82826200020d565b919050565b600067ffffffffffffffff82111562000280576200027f620001de565b5b602082029050602081019050919050565b600080fd5b600073ffffffffffffffffffffffffffffffffffffffff82169050919050565b6000620002c38262000296565b9050919050565b620002d581620002b6565b8114620002e157600080fd5b50565b600081519050620002f581620002ca565b92915050565b6000620003126200030c8462000262565b62000243565b9050808382526020820190506020840283018581111562000338576200033762000291565b5b835b81811015620003655780620003508882620002e4565b8452602084019350506020810190506200033a565b5050509392505050565b600082601f830112620003875762000386620001c8565b5b815162000399848260208601620002fb565b91505092915050565b600060208284031215620003bb57620003ba620001be565b5b600082015167ffffffffffffffff811115620003dc57620003db620001c3565b5b620003ea848285016200036f565b91505092915050565b7f4e487b7100000000000000000000000000000000000000000000000000000000600052603260045260246000fd5b61162580620004326000396000f3fe608060405234801561001057600080fd5b506004361061009e5760003560e01c806391d148541161006657806391d148541461016b578063a217fddf1461019b578063b22e8569146101b9578063bfbd58fc146101ef578063d547741f1461021f5761009e565b806301ffc9a7146100a35780631a7fd6c6146100d3578063248a9ca3146101035780632f2ff15d1461013357806336568abe1461014f575b600080fd5b6100bd60048036038101906100b89190610bc0565b61023b565b6040516100ca9190610c08565b60405180910390f35b6100ed60048036038101906100e89190610da9565b6102b5565b6040516100fa9190610c08565b60405180910390f35b61011d60048036038101906101189190610e3b565b6102fa565b60405161012a9190610e77565b60405180910390f35b61014d60048036038101906101489190610ef0565b610319565b005b61016960048036038101906101649190610ef0565b610342565b005b61018560048036038101906101809190610ef0565b6103c5565b6040516101929190610c08565b60405180910390f35b6101a361042f565b6040516101b09190610e77565b60405180910390f35b6101d360048036038101906101ce9190610f30565b610436565b6040516101e69796959493929190611097565b60405180910390f35b61020960048036038101906102049190610f30565b610543565b604051610216919061110d565b60405180910390f35b61023960048036038101906102349190610ef0565b610655565b005b60007f7965db0b000000000000000000000000000000000000000000000000000000007bffffffffffffffffffffffffffffffffffffffffffffffffffffffff1916827bffffffffffffffffffffffffffffffffffffffffffffffffffffffff191614806102ae57506102ad8261067e565b5b9050919050565b6002828051602081018201805184825260208301602085012081835280955050505050506020528060005260406000206000915091509054906101000a900460ff1681565b6000806000838152602001908152602001600020600101549050919050565b610322826102fa565b6103338161032e6106e8565b6106f0565b61033d838361078d565b505050565b61034a6106e8565b73ffffffffffffffffffffffffffffffffffffffff168173ffffffffffffffffffffffffffffffffffffffff16146103b7576040517f08c379a00000000000000000000000000000000000000000000000000000000081526004016103ae906111ab565b60405180910390fd5b6103c1828261080b565b5050565b600080600084815260200190815260200160002060000160008373ffffffffffffffffffffffffffffffffffffffff1673ffffffffffffffffffffffffffffffffffffffff16815260200190815260200160002060009054906101000a900460ff16905092915050565b6000801b81565b6001818051602081018201805184825260208301602085012081835280955050505050506000915090508060000160009054906101000a900473ffffffffffffffffffffffffffffffffffffffff1690806001018054610495906111fa565b80601f01602080910402602001604051908101604052809291908181526020018280546104c1906111fa565b801561050e5780601f106104e35761010080835404028352916020019161050e565b820191906000526020600020905b8154815290600101906020018083116104f157829003601f168201915b5050505050908060020154908060030154908060040154908060050154908060060160009054906101000a900460ff16905087565b60006003600481111561055957610558611020565b5b6001836040516105699190611267565b908152602001604051809103902060060160009054906101000a900460ff16600481111561059a57610599611020565b5b14801561061057506001826040516105b29190611267565b90815260200160405180910390206005015461060d620151806105ff6001866040516105de9190611267565b908152602001604051809103902060040154426108ec90919063ffffffff16565b61090290919063ffffffff16565b10155b1561061e5760049050610650565b60018260405161062e9190611267565b908152602001604051809103902060060160009054906101000a900460ff1690505b919050565b61065e826102fa565b61066f8161066a6106e8565b6106f0565b610679838361080b565b505050565b60007f01ffc9a7000000000000000000000000000000000000000000000000000000007bffffffffffffffffffffffffffffffffffffffffffffffffffffffff1916827bffffffffffffffffffffffffffffffffffffffffffffffffffffffff1916149050919050565b600033905090565b6106fa82826103c5565b6107895761071f8173ffffffffffffffffffffffffffffffffffffffff166014610918565b61072d8360001c6020610918565b60405160200161073e92919061135d565b6040516020818303038152906040526040517f08c379a000000000000000000000000000000000000000000000000000000000815260040161078091906113d0565b60405180910390fd5b5050565b61079782826103c5565b61080757600160008084815260200190815260200160002060000160008373ffffffffffffffffffffffffffffffffffffffff1673ffffffffffffffffffffffffffffffffffffffff16815260200190815260200160002060006101000a81548160ff0219169083151502179055505b5050565b61081582826103c5565b156108e857600080600084815260200190815260200160002060000160008373ffffffffffffffffffffffffffffffffffffffff1673ffffffffffffffffffffffffffffffffffffffff16815260200190815260200160002060006101000a81548160ff02191690831515021790555061088d6106e8565b73ffffffffffffffffffffffffffffffffffffffff168173ffffffffffffffffffffffffffffffffffffffff16837ff6391f5c32d9c69d2a47ea670b442974b53935d1edc7fd64eb21e047a839171b60405160405180910390a45b5050565b600081836108fa9190611421565b905092915050565b600081836109109190611484565b905092915050565b60606000600283600261092b91906114b5565b61093591906114f7565b67ffffffffffffffff81111561094e5761094d610c3e565b5b6040519080825280601f01601f1916602001820160405280156109805781602001600182028036833780820191505090505b5090507f3000000000000000000000000000000000000000000000000000000000000000816000815181106109b8576109b761152b565b5b60200101907effffffffffffffffffffffffffffffffffffffffffffffffffffffffffffff1916908160001a9053507f780000000000000000000000000000000000000000000000000000000000000081600181518110610a1c57610a1b61152b565b5b60200101907effffffffffffffffffffffffffffffffffffffffffffffffffffffffffffff1916908160001a90535060006001846002610a5c91906114b5565b610a6691906114f7565b90505b6001811115610b06577f3031323334353637383961626364656600000000000000000000000000000000600f861660108110610aa857610aa761152b565b5b1a60f81b828281518110610abf57610abe61152b565b5b60200101907effffffffffffffffffffffffffffffffffffffffffffffffffffffffffffff1916908160001a905350600485901c945080610aff9061155a565b9050610a69565b5060008414610b4a576040517f08c379a0000000000000000000000000000000000000000000000000000000008152600401610b41906115cf565b60405180910390fd5b8091505092915050565b6000604051905090565b600080fd5b600080fd5b60007fffffffff0000000000000000000000000000000000000000000000000000000082169050919050565b610b9d81610b68565b8114610ba857600080fd5b50565b600081359050610bba81610b94565b92915050565b600060208284031215610bd657610bd5610b5e565b5b6000610be484828501610bab565b91505092915050565b60008115159050919050565b610c0281610bed565b82525050565b6000602082019050610c1d6000830184610bf9565b92915050565b600080fd5b600080fd5b6000601f19601f8301169050919050565b7f4e487b7100000000000000000000000000000000000000000000000000000000600052604160045260246000fd5b610c7682610c2d565b810181811067ffffffffffffffff82111715610c9557610c94610c3e565b5b80604052505050565b6000610ca8610b54565b9050610cb48282610c6d565b919050565b600067ffffffffffffffff821115610cd457610cd3610c3e565b5b610cdd82610c2d565b9050602081019050919050565b82818337600083830152505050565b6000610d0c610d0784610cb9565b610c9e565b905082815260208101848484011115610d2857610d27610c28565b5b610d33848285610cea565b509392505050565b600082601f830112610d5057610d4f610c23565b5b8135610d60848260208601610cf9565b91505092915050565b600067ffffffffffffffff82169050919050565b610d8681610d69565b8114610d9157600080fd5b50565b600081359050610da381610d7d565b92915050565b60008060408385031215610dc057610dbf610b5e565b5b600083013567ffffffffffffffff811115610dde57610ddd610b63565b5b610dea85828601610d3b565b9250506020610dfb85828601610d94565b9150509250929050565b6000819050919050565b610e1881610e05565b8114610e2357600080fd5b50565b600081359050610e3581610e0f565b92915050565b600060208284031215610e5157610e50610b5e565b5b6000610e5f84828501610e26565b91505092915050565b610e7181610e05565b82525050565b6000602082019050610e8c6000830184610e68565b92915050565b600073ffffffffffffffffffffffffffffffffffffffff82169050919050565b6000610ebd82610e92565b9050919050565b610ecd81610eb2565b8114610ed857600080fd5b50565b600081359050610eea81610ec4565b92915050565b60008060408385031215610f0757610f06610b5e565b5b6000610f1585828601610e26565b9250506020610f2685828601610edb565b9150509250929050565b600060208284031215610f4657610f45610b5e565b5b600082013567ffffffffffffffff811115610f6457610f63610b63565b5b610f7084828501610d3b565b91505092915050565b610f8281610eb2565b82525050565b600081519050919050565b600082825260208201905092915050565b60005b83811015610fc2578082015181840152602081019050610fa7565b60008484015250505050565b6000610fd982610f88565b610fe38185610f93565b9350610ff3818560208601610fa4565b610ffc81610c2d565b840191505092915050565b6000819050919050565b61101a81611007565b82525050565b7f4e487b7100000000000000000000000000000000000000000000000000000000600052602160045260246000fd5b600581106110605761105f611020565b5b50565b60008190506110718261104f565b919050565b600061108182611063565b9050919050565b61109181611076565b82525050565b600060e0820190506110ac600083018a610f79565b81810360208301526110be8189610fce565b90506110cd6040830188611011565b6110da6060830187611011565b6110e76080830186611011565b6110f460a0830185611011565b61110160c0830184611088565b98975050505050505050565b60006020820190506111226000830184611088565b92915050565b600082825260208201905092915050565b7f416363657373436f6e74726f6c3a2063616e206f6e6c792072656e6f756e636560008201527f20726f6c657320666f722073656c660000000000000000000000000000000000602082015250565b6000611195602f83611128565b91506111a082611139565b604082019050919050565b600060208201905081810360008301526111c481611188565b9050919050565b7f4e487b7100000000000000000000000000000000000000000000000000000000600052602260045260246000fd5b6000600282049050600182168061121257607f821691505b602082108103611225576112246111cb565b5b50919050565b600081905092915050565b600061124182610f88565b61124b818561122b565b935061125b818560208601610fa4565b80840191505092915050565b60006112738284611236565b915081905092915050565b600081905092915050565b7f416363657373436f6e74726f6c3a206163636f756e7420000000000000000000600082015250565b60006112bf60178361127e565b91506112ca82611289565b601782019050919050565b600081519050919050565b60006112eb826112d5565b6112f5818561127e565b9350611305818560208601610fa4565b80840191505092915050565b7f206973206d697373696e6720726f6c6520000000000000000000000000000000600082015250565b600061134760118361127e565b915061135282611311565b601182019050919050565b6000611368826112b2565b915061137482856112e0565b915061137f8261133a565b915061138b82846112e0565b91508190509392505050565b60006113a2826112d5565b6113ac8185611128565b93506113bc818560208601610fa4565b6113c581610c2d565b840191505092915050565b600060208201905081810360008301526113ea8184611397565b905092915050565b7f4e487b7100000000000000000000000000000000000000000000000000000000600052601160045260246000fd5b600061142c82611007565b915061143783611007565b925082820390508181111561144f5761144e6113f2565b5b92915050565b7f4e487b7100000000000000000000000000000000000000000000000000000000600052601260045260246000fd5b600061148f82611007565b915061149a83611007565b9250826114aa576114a9611455565b5b828204905092915050565b60006114c082611007565b91506114cb83611007565b92508282026114d981611007565b915082820484148315176114f0576114ef6113f2565b5b5092915050565b600061150282611007565b915061150d83611007565b9250828201905080821115611525576115246113f2565b5b92915050565b7f4e487b7100000000000000000000000000000000000000000000000000000000600052603260045260246000fd5b600061156582611007565b915060008203611578576115776113f2565b5b600182039050919050565b7f537472696e67733a20686578206c656e67746820696e73756666696369656e74600082015250565b60006115b9602083611128565b91506115c482611583565b602082019050919050565b600060208201905081810360008301526115e8816115ac565b905091905056fea2646970667358221220de64b76bedf50f935ba7be3e8948abfb104d9ed987b61e3991b4b6b0ec8a27b164736f6c63430008110033",
  "linkReferences": {},
  "deployedLinkReferences": {}
}