{
  "_format": "hh-sol-artifact-1",
  "contractName": "DataDAOExample",
  "sourceName": "contracts/my-data-dao/data-dao/DataDAOCheck.sol",
  "abi": [
    {
      "inputs": [
        {
          "internalType": "address[]",
          "name": "admins",
          "type": "address[]"
        },
        {
          "internalType": "address",
          "name": "_membershipNFT",
          "type": "address"
        }
      ],
      "stateMutability": "nonpayable",
      "type": "constructor"
    },
    {
      "inputs": [],
      "name": "DataDAO_CallerIsNotMember",
      "type": "error"
    },
    {
      "inputs": [],
      "name": "DataDAO__CallerIsNotAdmin",
      "type": "error"
    },
    {
      "inputs": [],
      "name": "DataDAO__DataSizeNotMatched",
      "type": "error"
    },
    {
      "inputs": [],
      "name": "DataDAO__DealProposalPolicyCheckFailed",
      "type": "error"
    },
    {
      "inputs": [],
      "name": "DataDAO__DealProposalWasNotApproved",
      "type": "error"
    },
    {
      "anonymous": false,
      "inputs": [
        {
          "indexed": false,
          "internalType": "address",
          "name": "adminAddress",
          "type": "address"
        }
      ],
      "name": "AdminAdded",
      "type": "event"
    },
    {
      "anonymous": false,
      "inputs": [
        {
          "indexed": false,
          "internalType": "bytes",
          "name": "cidraw",
          "type": "bytes"
        },
        {
          "indexed": false,
          "internalType": "uint256",
          "name": "dealStartBlockStamp",
          "type": "uint256"
        },
        {
          "indexed": false,
          "internalType": "uint256",
          "name": "dealDurationInDays",
          "type": "uint256"
        }
      ],
      "name": "DealAcivated",
      "type": "event"
    },
    {
      "anonymous": false,
      "inputs": [
        {
          "indexed": false,
          "internalType": "bytes",
          "name": "cidraw",
          "type": "bytes"
        },
        {
          "indexed": false,
          "internalType": "bytes32",
          "name": "decision",
          "type": "bytes32"
        }
      ],
      "name": "DealApproval",
      "type": "event"
    },
    {
      "anonymous": false,
      "inputs": [
        {
          "indexed": false,
          "internalType": "bytes",
          "name": "cidraw",
          "type": "bytes"
        },
        {
          "indexed": false,
          "internalType": "uint256",
          "name": "size",
          "type": "uint256"
        }
      ],
      "name": "DealProposed",
      "type": "event"
    },
    {
      "anonymous": false,
      "inputs": [
        {
          "indexed": false,
          "internalType": "address",
          "name": "memberAddress",
          "type": "address"
        }
      ],
      "name": "MemberAdded",
      "type": "event"
    },
    {
      "anonymous": false,
      "inputs": [
        {
          "indexed": true,
          "internalType": "bytes32",
          "name": "role",
          "type": "bytes32"
        },
        {
          "indexed": true,
          "internalType": "bytes32",
          "name": "previousAdminRole",
          "type": "bytes32"
        },
        {
          "indexed": true,
          "internalType": "bytes32",
          "name": "newAdminRole",
          "type": "bytes32"
        }
      ],
      "name": "RoleAdminChanged",
      "type": "event"
    },
    {
      "anonymous": false,
      "inputs": [
        {
          "indexed": true,
          "internalType": "bytes32",
          "name": "role",
          "type": "bytes32"
        },
        {
          "indexed": true,
          "internalType": "address",
          "name": "account",
          "type": "address"
        },
        {
          "indexed": true,
          "internalType": "address",
          "name": "sender",
          "type": "address"
        }
      ],
      "name": "RoleGranted",
      "type": "event"
    },
    {
      "anonymous": false,
      "inputs": [
        {
          "indexed": true,
          "internalType": "bytes32",
          "name": "role",
          "type": "bytes32"
        },
        {
          "indexed": true,
          "internalType": "address",
          "name": "account",
          "type": "address"
        },
        {
          "indexed": true,
          "internalType": "address",
          "name": "sender",
          "type": "address"
        }
      ],
      "name": "RoleRevoked",
      "type": "event"
    },
    {
      "inputs": [],
      "name": "DEFAULT_ADMIN_ROLE",
      "outputs": [
        {
          "internalType": "bytes32",
          "name": "",
          "type": "bytes32"
        }
      ],
      "stateMutability": "view",
      "type": "function"
    },
    {
      "inputs": [
        {
          "internalType": "uint64",
          "name": "_networkDealID",
          "type": "uint64"
        }
      ],
      "name": "activateDataSetDealBySP",
      "outputs": [],
      "stateMutability": "nonpayable",
      "type": "function"
    },
    {
      "inputs": [
        {
          "internalType": "bytes",
          "name": "_cidraw",
          "type": "bytes"
        },
        {
          "internalType": "enum IDataDAO.DealState",
          "name": "_choice",
          "type": "uint8"
        }
      ],
      "name": "approveOrRejectDataSet",
      "outputs": [],
      "stateMutability": "nonpayable",
      "type": "function"
    },
    {
      "inputs": [
        {
          "internalType": "bytes",
          "name": "",
          "type": "bytes"
        },
        {
          "internalType": "uint64",
          "name": "",
          "type": "uint64"
        }
      ],
      "name": "cidProviders",
      "outputs": [
        {
          "internalType": "bool",
          "name": "",
          "type": "bool"
        }
      ],
      "stateMutability": "view",
      "type": "function"
    },
    {
      "inputs": [
        {
          "internalType": "bytes",
          "name": "_cidraw",
          "type": "bytes"
        },
        {
          "internalType": "uint256",
          "name": "_size",
          "type": "uint256"
        },
        {
          "internalType": "uint256",
          "name": "_dealDurationInDays",
          "type": "uint256"
        },
        {
          "internalType": "uint256",
          "name": "_dealStorageFees",
          "type": "uint256"
        }
      ],
      "name": "createDataSetDealProposal",
      "outputs": [],
      "stateMutability": "payable",
      "type": "function"
    },
    {
      "inputs": [
        {
          "internalType": "bytes",
          "name": "",
          "type": "bytes"
        }
      ],
      "name": "dealClient",
      "outputs": [
        {
          "internalType": "uint64",
          "name": "",
          "type": "uint64"
        }
      ],
      "stateMutability": "view",
      "type": "function"
    },
    {
      "inputs": [
        {
          "internalType": "bytes",
          "name": "",
          "type": "bytes"
        }
      ],
      "name": "dealStorageFees",
      "outputs": [
        {
          "internalType": "uint256",
          "name": "",
          "type": "uint256"
        }
      ],
      "stateMutability": "view",
      "type": "function"
    },
    {
      "inputs": [
        {
          "internalType": "bytes",
          "name": "",
          "type": "bytes"
        }
      ],
      "name": "deals",
      "outputs": [
        {
          "internalType": "address",
          "name": "proposedBy",
          "type": "address"
        },
        {
          "internalType": "bytes",
          "name": "cidraw",
          "type": "bytes"
        },
        {
          "internalType": "uint256",
          "name": "size",
          "type": "uint256"
        },
        {
          "internalType": "uint256",
          "name": "storageFees",
          "type": "uint256"
        },
        {
          "internalType": "uint256",
          "name": "dealStartBlockStamp",
          "type": "uint256"
        },
        {
          "internalType": "uint256",
          "name": "dealDurationInDays",
          "type": "uint256"
        },
        {
          "internalType": "enum IDataDAO.DealState",
          "name": "dealState",
          "type": "uint8"
        }
      ],
      "stateMutability": "view",
      "type": "function"
    },
    {
      "inputs": [
        {
          "internalType": "bytes",
          "name": "",
          "type": "bytes"
        },
        {
          "internalType": "address",
          "name": "",
          "type": "address"
        }
      ],
      "name": "fundings",
      "outputs": [
        {
          "internalType": "uint256",
          "name": "",
          "type": "uint256"
        }
      ],
      "stateMutability": "view",
      "type": "function"
    },
    {
      "inputs": [
        {
          "internalType": "bytes",
          "name": "_cidraw",
          "type": "bytes"
        }
      ],
      "name": "getDealState",
      "outputs": [
        {
          "internalType": "enum IDataDAO.DealState",
          "name": "",
          "type": "uint8"
        }
      ],
      "stateMutability": "view",
      "type": "function"
    },
    {
      "inputs": [
        {
          "internalType": "bytes32",
          "name": "role",
          "type": "bytes32"
        }
      ],
      "name": "getRoleAdmin",
      "outputs": [
        {
          "internalType": "bytes32",
          "name": "",
          "type": "bytes32"
        }
      ],
      "stateMutability": "view",
      "type": "function"
    },
    {
      "inputs": [
        {
          "internalType": "bytes32",
          "name": "role",
          "type": "bytes32"
        },
        {
          "internalType": "address",
          "name": "account",
          "type": "address"
        }
      ],
      "name": "grantRole",
      "outputs": [],
      "stateMutability": "nonpayable",
      "type": "function"
    },
    {
      "inputs": [
        {
          "internalType": "bytes32",
          "name": "role",
          "type": "bytes32"
        },
        {
          "internalType": "address",
          "name": "account",
          "type": "address"
        }
      ],
      "name": "hasRole",
      "outputs": [
        {
          "internalType": "bool",
          "name": "",
          "type": "bool"
        }
      ],
      "stateMutability": "view",
      "type": "function"
    },
    {
      "inputs": [],
      "name": "isDAOMember",
      "outputs": [
        {
          "internalType": "bool",
          "name": "",
          "type": "bool"
        }
      ],
      "stateMutability": "view",
      "type": "function"
    },
    {
      "inputs": [],
      "name": "joinDAO",
      "outputs": [],
      "stateMutability": "nonpayable",
      "type": "function"
    },
    {
      "inputs": [],
      "name": "leaveDAO",
      "outputs": [],
      "stateMutability": "nonpayable",
      "type": "function"
    },
    {
      "inputs": [],
      "name": "membershipNFT",
      "outputs": [
        {
          "internalType": "contract IERC721",
          "name": "",
          "type": "address"
        }
      ],
      "stateMutability": "view",
      "type": "function"
    },
    {
      "inputs": [
        {
          "internalType": "bytes32",
          "name": "role",
          "type": "bytes32"
        },
        {
          "internalType": "address",
          "name": "account",
          "type": "address"
        }
      ],
      "name": "renounceRole",
      "outputs": [],
      "stateMutability": "nonpayable",
      "type": "function"
    },
    {
      "inputs": [
        {
          "internalType": "bytes32",
          "name": "role",
          "type": "bytes32"
        },
        {
          "internalType": "address",
          "name": "account",
          "type": "address"
        }
      ],
      "name": "revokeRole",
      "outputs": [],
      "stateMutability": "nonpayable",
      "type": "function"
    },
    {
      "inputs": [
        {
          "internalType": "bytes4",
          "name": "interfaceId",
          "type": "bytes4"
        }
      ],
      "name": "supportsInterface",
      "outputs": [
        {
          "internalType": "bool",
          "name": "",
          "type": "bool"
        }
      ],
      "stateMutability": "view",
      "type": "function"
    },
    {
      "inputs": [
        {
          "internalType": "bytes",
          "name": "_cidraw",
          "type": "bytes"
        }
      ],
      "name": "withdrawReward",
      "outputs": [],
      "stateMutability": "nonpayable",
      "type": "function"
    }
  ],
  "bytecode": "0x60806040523480156200001157600080fd5b506040516200484f3803806200484f8339818101604052810190620000379190620003e6565b8160005b81518160ff161015620000a6576200009a7fa49807205ce4d355092ef5a8a18f56e8913cf4a201fbe287825b095693c21775838360ff16815181106200008657620000856200044c565b5b6020026020010151620000f160201b60201c565b8060010190506200003b565b505080600360006101000a81548173ffffffffffffffffffffffffffffffffffffffff021916908373ffffffffffffffffffffffffffffffffffffffff16021790555050506200047b565b6200010382826200010760201b60201c565b5050565b6200011982826200018e60201b60201c565b6200018a57600160008084815260200190815260200160002060000160008373ffffffffffffffffffffffffffffffffffffffff1673ffffffffffffffffffffffffffffffffffffffff16815260200190815260200160002060006101000a81548160ff0219169083151502179055505b5050565b600080600084815260200190815260200160002060000160008373ffffffffffffffffffffffffffffffffffffffff1673ffffffffffffffffffffffffffffffffffffffff16815260200190815260200160002060009054906101000a900460ff16905092915050565b6000604051905090565b600080fd5b600080fd5b600080fd5b6000601f19601f8301169050919050565b7f4e487b7100000000000000000000000000000000000000000000000000000000600052604160045260246000fd5b6200025c8262000211565b810181811067ffffffffffffffff821117156200027e576200027d62000222565b5b80604052505050565b600062000293620001f8565b9050620002a1828262000251565b919050565b600067ffffffffffffffff821115620002c457620002c362000222565b5b602082029050602081019050919050565b600080fd5b600073ffffffffffffffffffffffffffffffffffffffff82169050919050565b60006200030782620002da565b9050919050565b6200031981620002fa565b81146200032557600080fd5b50565b60008151905062000339816200030e565b92915050565b6000620003566200035084620002a6565b62000287565b905080838252602082019050602084028301858111156200037c576200037b620002d5565b5b835b81811015620003a9578062000394888262000328565b8452602084019350506020810190506200037e565b5050509392505050565b600082601f830112620003cb57620003ca6200020c565b5b8151620003dd8482602086016200033f565b91505092915050565b600080604083850312156200040057620003ff62000202565b5b600083015167ffffffffffffffff81111562000421576200042062000207565b5b6200042f85828601620003b3565b9250506020620004428582860162000328565b9150509250929050565b7f4e487b7100000000000000000000000000000000000000000000000000000000600052603260045260246000fd5b6143c4806200048b6000396000f3fe60806040526004361061012a5760003560e01c806377da63c4116100ab578063bfbd58fc1161006f578063bfbd58fc1461040f578063d547741f1461044c578063e5fcd6b814610475578063f49124501461049e578063f63d13d7146104db578063f7e88663146104f25761012a565b806377da63c41461031d57806391d1485414610339578063985d0b1e14610376578063a217fddf146103a1578063b22e8569146103cc5761012a565b8063248a9ca3116100f2578063248a9ca31461023a5780632f2ff15d1461027757806336568abe146102a057806362f9f841146102c95780636763ccbd146102f45761012a565b806301ffc9a71461012f578063166d4c6f1461016c5780631a7fd6c6146101a95780631de7df41146101e65780631e7f7e09146101fd575b600080fd5b34801561013b57600080fd5b5061015660048036038101906101519190612c63565b61051b565b6040516101639190612cab565b60405180910390f35b34801561017857600080fd5b50610193600480360381019061018e9190612e0c565b610595565b6040516101a09190612e78565b60405180910390f35b3480156101b557600080fd5b506101d060048036038101906101cb9190612ebf565b6105d2565b6040516101dd9190612cab565b60405180910390f35b3480156101f257600080fd5b506101fb610617565b005b34801561020957600080fd5b50610224600480360381019061021f9190612e0c565b610721565b6040516102319190612f34565b60405180910390f35b34801561024657600080fd5b50610261600480360381019061025c9190612f85565b61074f565b60405161026e9190612fc1565b60405180910390f35b34801561028357600080fd5b5061029e6004803603810190610299919061303a565b61076e565b005b3480156102ac57600080fd5b506102c760048036038101906102c2919061303a565b610797565b005b3480156102d557600080fd5b506102de61081a565b6040516102eb9190612cab565b60405180910390f35b34801561030057600080fd5b5061031b60048036038101906103169190612e0c565b6108d0565b005b610337600480360381019061033291906130a6565b610965565b005b34801561034557600080fd5b50610360600480360381019061035b919061303a565b610a02565b60405161036d9190612cab565b60405180910390f35b34801561038257600080fd5b5061038b610a6c565b6040516103989190613188565b60405180910390f35b3480156103ad57600080fd5b506103b6610a92565b6040516103c39190612fc1565b60405180910390f35b3480156103d857600080fd5b506103f360048036038101906103ee9190612e0c565b610a99565b60405161040697969594939291906132a8565b60405180910390f35b34801561041b57600080fd5b5061043660048036038101906104319190612e0c565b610ba6565b604051610443919061331e565b60405180910390f35b34801561045857600080fd5b50610473600480360381019061046e919061303a565b610cb8565b005b34801561048157600080fd5b5061049c60048036038101906104979190613339565b610ce1565b005b3480156104aa57600080fd5b506104c560048036038101906104c09190613366565b610d61565b6040516104d29190612f34565b60405180910390f35b3480156104e757600080fd5b506104f0610d9c565b005b3480156104fe57600080fd5b50610519600480360381019061051491906133e7565b610ea6565b005b60007f7965db0b000000000000000000000000000000000000000000000000000000007bffffffffffffffffffffffffffffffffffffffffffffffffffffffff1916827bffffffffffffffffffffffffffffffffffffffffffffffffffffffff1916148061058e575061058d82610f1d565b5b9050919050565b6006818051602081018201805184825260208301602085012081835280955050505050506000915054906101000a900467ffffffffffffffff1681565b6002828051602081018201805184825260208301602085012081835280955050505050506020528060005260406000206000915091509054906101000a900460ff1681565b6000600360009054906101000a900473ffffffffffffffffffffffffffffffffffffffff1673ffffffffffffffffffffffffffffffffffffffff166370a08231336040518263ffffffff1660e01b81526004016106749190613443565b602060405180830381865afa158015610691573d6000803e3d6000fd5b505050506040513d601f19601f820116820180604052508101906106b59190613473565b116106f5576040517f08c379a00000000000000000000000000000000000000000000000000000000081526004016106ec90613523565b60405180910390fd5b61071f337f829b824e2329e205435d941c9f13baf578548505283d29261236d8e6596d4636610f87565b565b6005818051602081018201805184825260208301602085012081835280955050505050506000915090505481565b6000806000838152602001908152602001600020600101549050919050565b6107778261074f565b61078881610783610f95565b610f9d565b610792838361103a565b505050565b61079f610f95565b73ffffffffffffffffffffffffffffffffffffffff168173ffffffffffffffffffffffffffffffffffffffff161461080c576040517f08c379a0000000000000000000000000000000000000000000000000000000008152600401610803906135b5565b60405180910390fd5b61081682826110b8565b5050565b600080600360009054906101000a900473ffffffffffffffffffffffffffffffffffffffff1673ffffffffffffffffffffffffffffffffffffffff166370a08231336040518263ffffffff1660e01b81526004016108789190613443565b602060405180830381865afa158015610895573d6000803e3d6000fd5b505050506040513d601f19601f820116820180604052508101906108b99190613473565b11156108c857600190506108cd565b600090505b90565b6004808111156108e3576108e2613231565b5b6108ec82610ba6565b60048111156108fe576108fd613231565b5b1461090857600080fd5b61096260068260405161091b9190613611565b908152602001604051809103902060009054906101000a900467ffffffffffffffff1660058360405161094e9190613611565b908152602001604051809103902054611199565b50565b61098f7f829b824e2329e205435d941c9f13baf578548505283d29261236d8e6596d463633610a02565b6109ce576040517f08c379a00000000000000000000000000000000000000000000000000000000081526004016109c590613674565b60405180910390fd5b6109d98484846111ca565b806005856040516109ea9190613611565b90815260200160405180910390208190555050505050565b600080600084815260200190815260200160002060000160008373ffffffffffffffffffffffffffffffffffffffff1673ffffffffffffffffffffffffffffffffffffffff16815260200190815260200160002060009054906101000a900460ff16905092915050565b600360009054906101000a900473ffffffffffffffffffffffffffffffffffffffff1681565b6000801b81565b6001818051602081018201805184825260208301602085012081835280955050505050506000915090508060000160009054906101000a900473ffffffffffffffffffffffffffffffffffffffff1690806001018054610af8906136c3565b80601f0160208091040260200160405190810160405280929190818152602001828054610b24906136c3565b8015610b715780601f10610b4657610100808354040283529160200191610b71565b820191906000526020600020905b815481529060010190602001808311610b5457829003601f168201915b5050505050908060020154908060030154908060040154908060050154908060060160009054906101000a900460ff16905087565b600060036004811115610bbc57610bbb613231565b5b600183604051610bcc9190613611565b908152602001604051809103902060060160009054906101000a900460ff166004811115610bfd57610bfc613231565b5b148015610c735750600182604051610c159190613611565b908152602001604051809103902060050154610c7062015180610c62600186604051610c419190613611565b9081526020016040518091039020600401544261130990919063ffffffff16565b61131f90919063ffffffff16565b10155b15610c815760049050610cb3565b600182604051610c919190613611565b908152602001604051809103902060060160009054906101000a900460ff1690505b919050565b610cc18261074f565b610cd281610ccd610f95565b610f9d565b610cdc83836110b8565b505050565b6000610cec82611335565b90506000610d1160405180602001604052808567ffffffffffffffff1681525061144d565b90508160068260000151604051610d289190613611565b908152602001604051809103902060006101000a81548167ffffffffffffffff021916908367ffffffffffffffff160217905550505050565b600482805160208101820180518482526020830160208501208183528095505050505050602052806000526040600020600091509150505481565b6000600360009054906101000a900473ffffffffffffffffffffffffffffffffffffffff1673ffffffffffffffffffffffffffffffffffffffff166370a08231336040518263ffffffff1660e01b8152600401610df99190613443565b602060405180830381865afa158015610e16573d6000803e3d6000fd5b505050506040513d601f19601f82011682018060405250810190610e3a9190613473565b11610e7a576040517f08c379a0000000000000000000000000000000000000000000000000000000008152600401610e7190613523565b60405180910390fd5b610ea4337f829b824e2329e205435d941c9f13baf578548505283d29261236d8e6596d46366114d1565b565b610ed07fa49807205ce4d355092ef5a8a18f56e8913cf4a201fbe287825b095693c2177533610a02565b610f0f576040517f08c379a0000000000000000000000000000000000000000000000000000000008152600401610f0690613740565b60405180910390fd5b610f1982826114df565b5050565b60007f01ffc9a7000000000000000000000000000000000000000000000000000000007bffffffffffffffffffffffffffffffffffffffffffffffffffffffff1916827bffffffffffffffffffffffffffffffffffffffffffffffffffffffff1916149050919050565b610f9181836110b8565b5050565b600033905090565b610fa78282610a02565b61103657610fcc8173ffffffffffffffffffffffffffffffffffffffff16601461158c565b610fda8360001c602061158c565b604051602001610feb92919061383f565b6040516020818303038152906040526040517f08c379a000000000000000000000000000000000000000000000000000000000815260040161102d91906138b2565b60405180910390fd5b5050565b6110448282610a02565b6110b457600160008084815260200190815260200160002060000160008373ffffffffffffffffffffffffffffffffffffffff1673ffffffffffffffffffffffffffffffffffffffff16815260200190815260200160002060006101000a81548160ff0219169083151502179055505b5050565b6110c28282610a02565b1561119557600080600084815260200190815260200160002060000160008373ffffffffffffffffffffffffffffffffffffffff1673ffffffffffffffffffffffffffffffffffffffff16815260200190815260200160002060006101000a81548160ff02191690831515021790555061113a610f95565b73ffffffffffffffffffffffffffffffffffffffff168173ffffffffffffffffffffffffffffffffffffffff16837ff6391f5c32d9c69d2a47ea670b442974b53935d1edc7fd64eb21e047a839171b60405160405180910390a45b5050565b6000604051806020016040528060008152509050606090506111c160008360008085886117c8565b50505050505050565b60006040518060e001604052803373ffffffffffffffffffffffffffffffffffffffff16815260200185815260200184815260200160008152602001600081526020018381526020016000600481111561122757611226613231565b5b81525090508060018560405161123d9190613611565b908152602001604051809103902060008201518160000160006101000a81548173ffffffffffffffffffffffffffffffffffffffff021916908373ffffffffffffffffffffffffffffffffffffffff16021790555060208201518160010190816112a79190613a76565b5060408201518160020155606082015181600301556080820151816004015560a0820151816005015560c08201518160060160006101000a81548160ff021916908360048111156112fb576112fa613231565b5b021790555090505050505050565b600081836113179190613b77565b905092915050565b6000818361132d9190613bda565b905092915050565b60008061135960405180602001604052808567ffffffffffffffff1681525061144d565b9050600061137e60405180602001604052808667ffffffffffffffff168152506118b6565b90506113a182600001518260000151846020015167ffffffffffffffff1661193a565b60006113c460405180602001604052808767ffffffffffffffff16815250611aa6565b90506003600184600001516040516113dc9190613611565b908152602001604051809103902060060160006101000a81548160ff0219169083600481111561140f5761140e613231565b5b021790555042600184600001516040516114299190613611565b90815260200160405180910390206004018190555080600001519350505050919050565b611455612b5f565b600061146083611b2a565b905060006114a9634505760a6040518060400160405280600281526020017e05000000000000000000000000000000000000000000000000000000000000815250846071611b62565b90506114b3612b5f565b6114c68282611b8d90919063ffffffff16565b809350505050919050565b6114db8183611c0e565b5050565b600160048111156114f3576114f2613231565b5b81600481111561150657611505613231565b5b148061153657506002600481111561152157611520613231565b5b81600481111561153457611533613231565b5b145b61153f57600080fd5b806001836040516115509190613611565b908152602001604051809103902060060160006101000a81548160ff0219169083600481111561158357611582613231565b5b02179055505050565b60606000600283600261159f9190613c0b565b6115a99190613c4d565b67ffffffffffffffff8111156115c2576115c1612ce1565b5b6040519080825280601f01601f1916602001820160405280156115f45781602001600182028036833780820191505090505b5090507f30000000000000000000000000000000000000000000000000000000000000008160008151811061162c5761162b613c81565b5b60200101907effffffffffffffffffffffffffffffffffffffffffffffffffffffffffffff1916908160001a9053507f7800000000000000000000000000000000000000000000000000000000000000816001815181106116905761168f613c81565b5b60200101907effffffffffffffffffffffffffffffffffffffffffffffffffffffffffffff1916908160001a905350600060018460026116d09190613c0b565b6116da9190613c4d565b90505b600181111561177a577f3031323334353637383961626364656600000000000000000000000000000000600f86166010811061171c5761171b613c81565b5b1a60f81b82828151811061173357611732613c81565b5b60200101907effffffffffffffffffffffffffffffffffffffffffffffffffffffffffffff1916908160001a905350600485901c94508061177390613cb0565b90506116dd565b50600084146117be576040517f08c379a00000000000000000000000000000000000000000000000000000000081526004016117b590613d25565b60405180910390fd5b8091505092915050565b6000806000606060008073fe0000000000000000000000000000000000000573ffffffffffffffffffffffffffffffffffffffff168c8c8c8c8c8c60405160200161181896959493929190613d45565b6040516020818303038152906040526040516118349190613611565b600060405180830381855af49150503d806000811461186f576040519150601f19603f3d011682016040523d82523d6000602084013e611874565b606091505b50915091506000806000838060200190518101906118929190613e68565b92509250925084838383985098509850985050505050509650965096509692505050565b6118be612b83565b60006118c983611c1c565b905060006119126337bc36da6040518060400160405280600281526020017e05000000000000000000000000000000000000000000000000000000000000815250846071611b62565b905061191c612b83565b61192f8282611c5490919063ffffffff16565b809350505050919050565b6001600481111561194e5761194d613231565b5b60018460405161195e9190613611565b908152602001604051809103902060060160009054906101000a900460ff16600481111561198f5761198e613231565b5b1461199957600080fd5b806001846040516119aa9190613611565b908152602001604051809103902060020154146119fc576040517f08c379a00000000000000000000000000000000000000000000000000000000081526004016119f390613f23565b60405180910390fd5b611a068383611c8f565b611a45576040517f08c379a0000000000000000000000000000000000000000000000000000000008152600401611a3c90613fb5565b60405180910390fd5b6001600284604051611a579190613611565b908152602001604051809103902060008467ffffffffffffffff1667ffffffffffffffff16815260200190815260200160002060006101000a81548160ff021916908315150217905550505050565b611aae612ba0565b6000611ab983611cf0565b90506000611b026307a1f0516040518060400160405280600281526020017e05000000000000000000000000000000000000000000000000000000000000815250846071611b62565b9050611b0c612ba0565b611b1f8282611d2890919063ffffffff16565b809350505050919050565b60606000611b386040611d63565b9050611b51836000015182611d8a90919063ffffffff16565b611b5a81611d9a565b915050919050565b6060611b83611b7086611df3565b67ffffffffffffffff1685858534611dfd565b9050949350505050565b600080611ba38284611ea290919063ffffffff16565b80935081925050506000811115611c0857611bc78284611ef190919063ffffffff16565b856000018194508290525050611be6828461209b90919063ffffffff16565b856020018194508267ffffffffffffffff1667ffffffffffffffff1681525050505b50505050565b611c18828261103a565b5050565b60606000611c2a6040611d63565b9050611c43836000015182611d8a90919063ffffffff16565b611c4c81611d9a565b915050919050565b6000611c69818361209b90919063ffffffff16565b846000018193508267ffffffffffffffff1667ffffffffffffffff168152505050505050565b600080600284604051611ca29190613611565b908152602001604051809103902060008467ffffffffffffffff1667ffffffffffffffff16815260200190815260200160002060009054906101000a900460ff169050801591505092915050565b60606000611cfe6040611d63565b9050611d17836000015182611d8a90919063ffffffff16565b611d2081611d9a565b915050919050565b6000611d3d818361209b90919063ffffffff16565b846000018193508267ffffffffffffffff1667ffffffffffffffff168152505050505050565b611d6b612bbd565b611d798160000151836120ea565b506000816020018181525050919050565b611d9682600083612163565b5050565b60606000826020015114611de3576040517f08c379a0000000000000000000000000000000000000000000000000000000008152600401611dda90614021565b60405180910390fd5b8160000151600001519050919050565b6000819050919050565b6060600080600080611e1c611e118b611df3565b8760008a8c8e61230c565b935093509350935060008314611e31846123fa565b604051602001611e419190614067565b60405160208183030381529060405290611e91576040517f08c379a0000000000000000000000000000000000000000000000000000000008152600401611e8891906138b2565b60405180910390fd5b508094505050505095945050505050565b600080600080611eb286866124c8565b8167ffffffffffffffff169150809750819350829450505050600460ff168260ff1614611ee257611ee161408d565b5b80859350935050509250929050565b60606000806000611f0286866124c8565b8167ffffffffffffffff169150809750819350829450505050600660ff168260ff161480611f365750600260ff168260ff16145b611f4357611f4261408d565b5b600660ff168260ff1603611f8c57611f5b86866124c8565b8167ffffffffffffffff169150809750819350829450505050600260ff168260ff1614611f8b57611f8a61408d565b5b5b60008186611f9a9190613c4d565b905060008267ffffffffffffffff811115611fb857611fb7612ce1565b5b6040519080825280601f01601f191660200182016040528015611fea5781602001600182028036833780820191505090505b5090506000808890505b8381101561207d5789818151811061200f5761200e613c81565b5b602001015160f81c60f81b83838151811061202d5761202c613c81565b5b60200101907effffffffffffffffffffffffffffffffffffffffffffffffffffffffffffff1916908160001a9053508180612067906140bc565b9250508080612075906140bc565b915050611ff4565b5081848961208b9190613c4d565b9650965050505050509250929050565b6000806000806120ab86866124c8565b8167ffffffffffffffff169150809750819350829450505050600060ff168260ff16146120db576120da61408d565b5b80859350935050509250929050565b6120f2612bdd565b60006020836121019190614104565b1461212d576020826121139190614104565b602061211f9190613b77565b8261212a9190613c4d565b91505b81836020018181525050604051808452600081528281016020018181101561215457600080fd5b80604052505082905092915050565b60178167ffffffffffffffff161161219e576121988160058460ff16901b60ff1617846000015161265690919063ffffffff16565b50612307565b60ff8167ffffffffffffffff16116121fc576121d1601860058460ff16901b17846000015161265690919063ffffffff16565b506121f68167ffffffffffffffff16600185600001516126c09092919063ffffffff16565b50612306565b61ffff8167ffffffffffffffff161161225b57612230601960058460ff16901b17846000015161265690919063ffffffff16565b506122558167ffffffffffffffff16600285600001516126c09092919063ffffffff16565b50612305565b63ffffffff8167ffffffffffffffff16116122bc57612291601a60058460ff16901b17846000015161265690919063ffffffff16565b506122b68167ffffffffffffffff16600485600001516126c09092919063ffffffff16565b50612304565b6122dd601b60058460ff16901b17846000015161265690919063ffffffff16565b506123028167ffffffffffffffff16600885600001516126c09092919063ffffffff16565b505b5b5b5b505050565b6000806000606060008073fe0000000000000000000000000000000000000373ffffffffffffffffffffffffffffffffffffffff168c8c8c8c8c8c60405160200161235c96959493929190614135565b6040516020818303038152906040526040516123789190613611565b600060405180830381855af49150503d80600081146123b3576040519150601f19603f3d011682016040523d82523d6000602084013e6123b8565b606091505b50915091506000806000838060200190518101906123d69190613e68565b92509250925084838383985098509850985050505050509650965096509692505050565b6060600060016124098461274d565b01905060008167ffffffffffffffff81111561242857612427612ce1565b5b6040519080825280601f01601f19166020018201604052801561245a5781602001600182028036833780820191505090505b509050600082602001820190505b6001156124bd578080600190039150507f3031323334353637383961626364656600000000000000000000000000000000600a86061a8153600a85816124b1576124b0613bab565b5b04945060008503612468575b819350505050919050565b6000806000806124d886866128a0565b90506001856124e79190613c4d565b94506000600560e0831660ff16901c90506000601f83169050601c8160ff16106125145761251361408d565b5b60188160ff161015612537578181888160ff16915095509550955050505061264f565b60188160ff160361258c57600061254e89896128a0565b905060018861255d9190613c4d565b975060188160ff1610156125745761257361408d565b5b8281898160ff1691509650965096505050505061264f565b60198160ff16036125cd5760006125a38989612907565b90506002886125b29190613c4d565b97508281898161ffff1691509650965096505050505061264f565b601a8160ff16036126105760006125e4898961296e565b90506004886125f39190613c4d565b97508281898163ffffffff1691509650965096505050505061264f565b601b8160ff16146126245761262361408d565b5b600061263089896129d5565b905060088861263f9190613c4d565b9750828189965096509650505050505b9250925092565b61265e612bdd565b6000836000015151905060006001826126779190613c4d565b90508460200151821061269b5761269a856002836126959190613c0b565b612a3c565b5b845160208382010185815381518311156126b3578282525b5050849250505092915050565b6126c8612bdd565b60008460000151519050600081846126e09190613c4d565b9050856020015181111561270557612704866002836126ff9190613c0b565b612a3c565b5b600060018561010061271791906142d7565b6127219190613b77565b90508651828101878319825116178152815184111561273e578382525b50508693505050509392505050565b600080600090507a184f03e93ff9f4daa797ed6e38ed64bf6a1f01000000000000000083106127ab577a184f03e93ff9f4daa797ed6e38ed64bf6a1f01000000000000000083816127a1576127a0613bab565b5b0492506040810190505b6d04ee2d6d415b85acef810000000083106127e8576d04ee2d6d415b85acef810000000083816127de576127dd613bab565b5b0492506020810190505b662386f26fc10000831061281757662386f26fc10000838161280d5761280c613bab565b5b0492506010810190505b6305f5e1008310612840576305f5e100838161283657612835613bab565b5b0492506008810190505b612710831061286557612710838161285b5761285a613bab565b5b0492506004810190505b60648310612888576064838161287e5761287d613bab565b5b0492506002810190505b600a8310612897576001810190505b80915050919050565b60006001826128af9190613c4d565b835110156128f2576040517f08c379a00000000000000000000000000000000000000000000000000000000081526004016128e99061436e565b60405180910390fd5b60008260010184015190508091505092915050565b60006002826129169190613c4d565b83511015612959576040517f08c379a00000000000000000000000000000000000000000000000000000000081526004016129509061436e565b60405180910390fd5b60008260020184015190508091505092915050565b600060048261297d9190613c4d565b835110156129c0576040517f08c379a00000000000000000000000000000000000000000000000000000000081526004016129b79061436e565b60405180910390fd5b60008260040184015190508091505092915050565b60006008826129e49190613c4d565b83511015612a27576040517f08c379a0000000000000000000000000000000000000000000000000000000008152600401612a1e9061436e565b60405180910390fd5b60008260080184015190508091505092915050565b600082600001519050612a4f83836120ea565b50612a5a8382612a60565b50505050565b612a68612bdd565b612a7483838451612a7c565b905092915050565b612a84612bdd565b8251821115612a9257600080fd5b6000846000015151905060008382612aaa9190613c4d565b90508560200151811115612acf57612ace86600283612ac99190613c0b565b612a3c565b5b60008087518051856020830101935080851115612aea578482525b60208901925050505b60208610612b315780518252602082612b0c9190613c4d565b9150602081612b1b9190613c4d565b9050602086612b2a9190613b77565b9550612af3565b60006001876020036101000a0390508019825116818451168181178552505050879450505050509392505050565b604051806040016040528060608152602001600067ffffffffffffffff1681525090565b6040518060200160405280600067ffffffffffffffff1681525090565b6040518060200160405280600067ffffffffffffffff1681525090565b6040518060400160405280612bd0612bdd565b8152602001600081525090565b604051806040016040528060608152602001600081525090565b6000604051905090565b600080fd5b600080fd5b60007fffffffff0000000000000000000000000000000000000000000000000000000082169050919050565b612c4081612c0b565b8114612c4b57600080fd5b50565b600081359050612c5d81612c37565b92915050565b600060208284031215612c7957612c78612c01565b5b6000612c8784828501612c4e565b91505092915050565b60008115159050919050565b612ca581612c90565b82525050565b6000602082019050612cc06000830184612c9c565b92915050565b600080fd5b600080fd5b6000601f19601f8301169050919050565b7f4e487b7100000000000000000000000000000000000000000000000000000000600052604160045260246000fd5b612d1982612cd0565b810181811067ffffffffffffffff82111715612d3857612d37612ce1565b5b80604052505050565b6000612d4b612bf7565b9050612d578282612d10565b919050565b600067ffffffffffffffff821115612d7757612d76612ce1565b5b612d8082612cd0565b9050602081019050919050565b82818337600083830152505050565b6000612daf612daa84612d5c565b612d41565b905082815260208101848484011115612dcb57612dca612ccb565b5b612dd6848285612d8d565b509392505050565b600082601f830112612df357612df2612cc6565b5b8135612e03848260208601612d9c565b91505092915050565b600060208284031215612e2257612e21612c01565b5b600082013567ffffffffffffffff811115612e4057612e3f612c06565b5b612e4c84828501612dde565b91505092915050565b600067ffffffffffffffff82169050919050565b612e7281612e55565b82525050565b6000602082019050612e8d6000830184612e69565b92915050565b612e9c81612e55565b8114612ea757600080fd5b50565b600081359050612eb981612e93565b92915050565b60008060408385031215612ed657612ed5612c01565b5b600083013567ffffffffffffffff811115612ef457612ef3612c06565b5b612f0085828601612dde565b9250506020612f1185828601612eaa565b9150509250929050565b6000819050919050565b612f2e81612f1b565b82525050565b6000602082019050612f496000830184612f25565b92915050565b6000819050919050565b612f6281612f4f565b8114612f6d57600080fd5b50565b600081359050612f7f81612f59565b92915050565b600060208284031215612f9b57612f9a612c01565b5b6000612fa984828501612f70565b91505092915050565b612fbb81612f4f565b82525050565b6000602082019050612fd66000830184612fb2565b92915050565b600073ffffffffffffffffffffffffffffffffffffffff82169050919050565b600061300782612fdc565b9050919050565b61301781612ffc565b811461302257600080fd5b50565b6000813590506130348161300e565b92915050565b6000806040838503121561305157613050612c01565b5b600061305f85828601612f70565b925050602061307085828601613025565b9150509250929050565b61308381612f1b565b811461308e57600080fd5b50565b6000813590506130a08161307a565b92915050565b600080600080608085870312156130c0576130bf612c01565b5b600085013567ffffffffffffffff8111156130de576130dd612c06565b5b6130ea87828801612dde565b94505060206130fb87828801613091565b935050604061310c87828801613091565b925050606061311d87828801613091565b91505092959194509250565b6000819050919050565b600061314e61314961314484612fdc565b613129565b612fdc565b9050919050565b600061316082613133565b9050919050565b600061317282613155565b9050919050565b61318281613167565b82525050565b600060208201905061319d6000830184613179565b92915050565b6131ac81612ffc565b82525050565b600081519050919050565b600082825260208201905092915050565b60005b838110156131ec5780820151818401526020810190506131d1565b60008484015250505050565b6000613203826131b2565b61320d81856131bd565b935061321d8185602086016131ce565b61322681612cd0565b840191505092915050565b7f4e487b7100000000000000000000000000000000000000000000000000000000600052602160045260246000fd5b6005811061327157613270613231565b5b50565b600081905061328282613260565b919050565b600061329282613274565b9050919050565b6132a281613287565b82525050565b600060e0820190506132bd600083018a6131a3565b81810360208301526132cf81896131f8565b90506132de6040830188612f25565b6132eb6060830187612f25565b6132f86080830186612f25565b61330560a0830185612f25565b61331260c0830184613299565b98975050505050505050565b60006020820190506133336000830184613299565b92915050565b60006020828403121561334f5761334e612c01565b5b600061335d84828501612eaa565b91505092915050565b6000806040838503121561337d5761337c612c01565b5b600083013567ffffffffffffffff81111561339b5761339a612c06565b5b6133a785828601612dde565b92505060206133b885828601613025565b9150509250929050565b600581106133cf57600080fd5b50565b6000813590506133e1816133c2565b92915050565b600080604083850312156133fe576133fd612c01565b5b600083013567ffffffffffffffff81111561341c5761341b612c06565b5b61342885828601612dde565b9250506020613439858286016133d2565b9150509250929050565b600060208201905061345860008301846131a3565b92915050565b60008151905061346d8161307a565b92915050565b60006020828403121561348957613488612c01565b5b60006134978482850161345e565b91505092915050565b600082825260208201905092915050565b7f596f7520617265206e6f742074686520686f6c646572206f662044617461444160008201527f4f204e4654000000000000000000000000000000000000000000000000000000602082015250565b600061350d6025836134a0565b9150613518826134b1565b604082019050919050565b6000602082019050818103600083015261353c81613500565b9050919050565b7f416363657373436f6e74726f6c3a2063616e206f6e6c792072656e6f756e636560008201527f20726f6c657320666f722073656c660000000000000000000000000000000000602082015250565b600061359f602f836134a0565b91506135aa82613543565b604082019050919050565b600060208201905081810360008301526135ce81613592565b9050919050565b600081905092915050565b60006135eb826131b2565b6135f581856135d5565b93506136058185602086016131ce565b80840191505092915050565b600061361d82846135e0565b915081905092915050565b7f43616c6c6572206973206e6f742061206d696e74657200000000000000000000600082015250565b600061365e6016836134a0565b915061366982613628565b602082019050919050565b6000602082019050818103600083015261368d81613651565b9050919050565b7f4e487b7100000000000000000000000000000000000000000000000000000000600052602260045260246000fd5b600060028204905060018216806136db57607f821691505b6020821081036136ee576136ed613694565b5b50919050565b7f43616c6c6572206973206e6f7420612061646d696e0000000000000000000000600082015250565b600061372a6015836134a0565b9150613735826136f4565b602082019050919050565b600060208201905081810360008301526137598161371d565b9050919050565b600081905092915050565b7f416363657373436f6e74726f6c3a206163636f756e7420000000000000000000600082015250565b60006137a1601783613760565b91506137ac8261376b565b601782019050919050565b600081519050919050565b60006137cd826137b7565b6137d78185613760565b93506137e78185602086016131ce565b80840191505092915050565b7f206973206d697373696e6720726f6c6520000000000000000000000000000000600082015250565b6000613829601183613760565b9150613834826137f3565b601182019050919050565b600061384a82613794565b915061385682856137c2565b91506138618261381c565b915061386d82846137c2565b91508190509392505050565b6000613884826137b7565b61388e81856134a0565b935061389e8185602086016131ce565b6138a781612cd0565b840191505092915050565b600060208201905081810360008301526138cc8184613879565b905092915050565b60008190508160005260206000209050919050565b60006020601f8301049050919050565b600082821b905092915050565b6000600883026139367fffffffffffffffffffffffffffffffffffffffffffffffffffffffffffffffff826138f9565b61394086836138f9565b95508019841693508086168417925050509392505050565b600061397361396e61396984612f1b565b613129565b612f1b565b9050919050565b6000819050919050565b61398d83613958565b6139a16139998261397a565b848454613906565b825550505050565b600090565b6139b66139a9565b6139c1818484613984565b505050565b5b818110156139e5576139da6000826139ae565b6001810190506139c7565b5050565b601f821115613a2a576139fb816138d4565b613a04846138e9565b81016020851015613a13578190505b613a27613a1f856138e9565b8301826139c6565b50505b505050565b600082821c905092915050565b6000613a4d60001984600802613a2f565b1980831691505092915050565b6000613a668383613a3c565b9150826002028217905092915050565b613a7f826131b2565b67ffffffffffffffff811115613a9857613a97612ce1565b5b613aa282546136c3565b613aad8282856139e9565b600060209050601f831160018114613ae05760008415613ace578287015190505b613ad88582613a5a565b865550613b40565b601f198416613aee866138d4565b60005b82811015613b1657848901518255600182019150602085019450602081019050613af1565b86831015613b335784890151613b2f601f891682613a3c565b8355505b6001600288020188555050505b505050505050565b7f4e487b7100000000000000000000000000000000000000000000000000000000600052601160045260246000fd5b6000613b8282612f1b565b9150613b8d83612f1b565b9250828203905081811115613ba557613ba4613b48565b5b92915050565b7f4e487b7100000000000000000000000000000000000000000000000000000000600052601260045260246000fd5b6000613be582612f1b565b9150613bf083612f1b565b925082613c0057613bff613bab565b5b828204905092915050565b6000613c1682612f1b565b9150613c2183612f1b565b9250828202613c2f81612f1b565b91508282048414831517613c4657613c45613b48565b5b5092915050565b6000613c5882612f1b565b9150613c6383612f1b565b9250828201905080821115613c7b57613c7a613b48565b5b92915050565b7f4e487b7100000000000000000000000000000000000000000000000000000000600052603260045260246000fd5b6000613cbb82612f1b565b915060008203613cce57613ccd613b48565b5b600182039050919050565b7f537472696e67733a20686578206c656e67746820696e73756666696369656e74600082015250565b6000613d0f6020836134a0565b9150613d1a82613cd9565b602082019050919050565b60006020820190508181036000830152613d3e81613d02565b9050919050565b600060c082019050613d5a6000830189612e69565b613d676020830188612f25565b613d746040830187612e69565b613d816060830186612e69565b8181036080830152613d9381856131f8565b9050613da260a0830184612e69565b979650505050505050565b6000819050919050565b613dc081613dad565b8114613dcb57600080fd5b50565b600081519050613ddd81613db7565b92915050565b600081519050613df281612e93565b92915050565b6000613e0b613e0684612d5c565b612d41565b905082815260208101848484011115613e2757613e26612ccb565b5b613e328482856131ce565b509392505050565b600082601f830112613e4f57613e4e612cc6565b5b8151613e5f848260208601613df8565b91505092915050565b600080600060608486031215613e8157613e80612c01565b5b6000613e8f86828701613dce565b9350506020613ea086828701613de3565b925050604084015167ffffffffffffffff811115613ec157613ec0612c06565b5b613ecd86828701613e3a565b9150509250925092565b7f646174612073697a65206d757374206d61746368206578706563746564000000600082015250565b6000613f0d601d836134a0565b9150613f1882613ed7565b602082019050919050565b60006020820190508181036000830152613f3c81613f00565b9050919050565b7f6465616c206661696c656420706f6c69637920636865636b3a2068617320707260008201527f6f766964657220616c726561647920636c61696d65642074686973206369643f602082015250565b6000613f9f6040836134a0565b9150613faa82613f43565b604082019050919050565b60006020820190508181036000830152613fce81613f92565b9050919050565b7f496e76616c69642043424f520000000000000000000000000000000000000000600082015250565b600061400b600c836134a0565b915061401682613fd5565b602082019050919050565b6000602082019050818103600083015261403a81613ffe565b9050919050565b7f6163746f72206572726f7220636f646520000000000000000000000000000000815250565b600061407282614041565b60118201915061408282846137c2565b915081905092915050565b7f4e487b7100000000000000000000000000000000000000000000000000000000600052600160045260246000fd5b60006140c782612f1b565b91507fffffffffffffffffffffffffffffffffffffffffffffffffffffffffffffffff82036140f9576140f8613b48565b5b600182019050919050565b600061410f82612f1b565b915061411a83612f1b565b92508261412a57614129613bab565b5b828206905092915050565b600060c08201905061414a6000830189612e69565b6141576020830188612f25565b6141646040830187612e69565b6141716060830186612e69565b818103608083015261418381856131f8565b905081810360a083015261419781846131f8565b9050979650505050505050565b60008160011c9050919050565b6000808291508390505b60018511156141fb578086048111156141d7576141d6613b48565b5b60018516156141e65780820291505b80810290506141f4856141a4565b94506141bb565b94509492505050565b60008261421457600190506142d0565b8161422257600090506142d0565b8160018114614238576002811461424257614271565b60019150506142d0565b60ff84111561425457614253613b48565b5b8360020a91508482111561426b5761426a613b48565b5b506142d0565b5060208310610133831016604e8410600b84101617156142a65782820a9050838111156142a1576142a0613b48565b5b6142d0565b6142b384848460016141b1565b925090508184048111156142ca576142c9613b48565b5b81810290505b9392505050565b60006142e282612f1b565b91506142ed83612f1b565b925061431a7fffffffffffffffffffffffffffffffffffffffffffffffffffffffffffffffff8484614204565b905092915050565b7f736c6963696e67206f7574206f662072616e6765000000000000000000000000600082015250565b60006143586014836134a0565b915061436382614322565b602082019050919050565b600060208201905081810360008301526143878161434b565b905091905056fea2646970667358221220a96f44192e8f80cd418a008cedab66e14de672058527960cb3f55c8ec3a68caf64736f6c63430008110033",
  "linkReferences": {},
  "deployedLinkReferences": {}
}