{
  "_format": "hh-sol-artifact-1",
  "contractName": "MarketMockAPI",
  "sourceName": "contracts/my-data-dao/filecoin-solidity/v0.8/mocks/MarketMockAPI.sol",
  "abi": [
    {
      "inputs": [],
      "stateMutability": "nonpayable",
      "type": "constructor"
    },
    {
      "inputs": [
        {
          "internalType": "bytes",
          "name": "provider_or_client",
          "type": "bytes"
        }
      ],
      "name": "addBalance",
      "outputs": [],
      "stateMutability": "payable",
      "type": "function"
    },
    {
      "inputs": [
        {
          "internalType": "bytes",
          "name": "addr",
          "type": "bytes"
        }
      ],
      "name": "getBalance",
      "outputs": [
        {
          "components": [
            {
              "components": [
                {
                  "internalType": "bytes",
                  "name": "val",
                  "type": "bytes"
                },
                {
                  "internalType": "bool",
                  "name": "neg",
                  "type": "bool"
                }
              ],
              "internalType": "struct BigInt",
              "name": "balance",
              "type": "tuple"
            },
            {
              "components": [
                {
                  "internalType": "bytes",
                  "name": "val",
                  "type": "bytes"
                },
                {
                  "internalType": "bool",
                  "name": "neg",
                  "type": "bool"
                }
              ],
              "internalType": "struct BigInt",
              "name": "locked",
              "type": "tuple"
            }
          ],
          "internalType": "struct MarketTypes.GetBalanceReturn",
          "name": "",
          "type": "tuple"
        }
      ],
      "stateMutability": "view",
      "type": "function"
    },
    {
      "inputs": [
        {
          "internalType": "uint64",
          "name": "dealID",
          "type": "uint64"
        }
      ],
      "name": "getDealActivation",
      "outputs": [
        {
          "components": [
            {
              "internalType": "int64",
              "name": "activated",
              "type": "int64"
            },
            {
              "internalType": "int64",
              "name": "terminated",
              "type": "int64"
            }
          ],
          "internalType": "struct MarketTypes.GetDealActivationReturn",
          "name": "",
          "type": "tuple"
        }
      ],
      "stateMutability": "view",
      "type": "function"
    },
    {
      "inputs": [
        {
          "internalType": "uint64",
          "name": "dealID",
          "type": "uint64"
        }
      ],
      "name": "getDealClient",
      "outputs": [
        {
          "components": [
            {
              "internalType": "uint64",
              "name": "client",
              "type": "uint64"
            }
          ],
          "internalType": "struct MarketTypes.GetDealClientReturn",
          "name": "",
          "type": "tuple"
        }
      ],
      "stateMutability": "view",
      "type": "function"
    },
    {
      "inputs": [
        {
          "internalType": "uint64",
          "name": "dealID",
          "type": "uint64"
        }
      ],
      "name": "getDealClientCollateral",
      "outputs": [
        {
          "components": [
            {
              "components": [
                {
                  "internalType": "bytes",
                  "name": "val",
                  "type": "bytes"
                },
                {
                  "internalType": "bool",
                  "name": "neg",
                  "type": "bool"
                }
              ],
              "internalType": "struct BigInt",
              "name": "collateral",
              "type": "tuple"
            }
          ],
          "internalType": "struct MarketTypes.GetDealClientCollateralReturn",
          "name": "",
          "type": "tuple"
        }
      ],
      "stateMutability": "view",
      "type": "function"
    },
    {
      "inputs": [
        {
          "internalType": "uint64",
          "name": "dealID",
          "type": "uint64"
        }
      ],
      "name": "getDealDataCommitment",
      "outputs": [
        {
          "components": [
            {
              "internalType": "bytes",
              "name": "data",
              "type": "bytes"
            },
            {
              "internalType": "uint64",
              "name": "size",
              "type": "uint64"
            }
          ],
          "internalType": "struct MarketTypes.GetDealDataCommitmentReturn",
          "name": "",
          "type": "tuple"
        }
      ],
      "stateMutability": "view",
      "type": "function"
    },
    {
      "inputs": [
        {
          "internalType": "uint64",
          "name": "dealID",
          "type": "uint64"
        }
      ],
      "name": "getDealLabel",
      "outputs": [
        {
          "components": [
            {
              "internalType": "string",
              "name": "label",
              "type": "string"
            }
          ],
          "internalType": "struct MarketTypes.GetDealLabelReturn",
          "name": "",
          "type": "tuple"
        }
      ],
      "stateMutability": "view",
      "type": "function"
    },
    {
      "inputs": [
        {
          "internalType": "uint64",
          "name": "dealID",
          "type": "uint64"
        }
      ],
      "name": "getDealProvider",
      "outputs": [
        {
          "components": [
            {
              "internalType": "uint64",
              "name": "provider",
              "type": "uint64"
            }
          ],
          "internalType": "struct MarketTypes.GetDealProviderReturn",
          "name": "",
          "type": "tuple"
        }
      ],
      "stateMutability": "view",
      "type": "function"
    },
    {
      "inputs": [
        {
          "internalType": "uint64",
          "name": "dealID",
          "type": "uint64"
        }
      ],
      "name": "getDealProviderCollateral",
      "outputs": [
        {
          "components": [
            {
              "components": [
                {
                  "internalType": "bytes",
                  "name": "val",
                  "type": "bytes"
                },
                {
                  "internalType": "bool",
                  "name": "neg",
                  "type": "bool"
                }
              ],
              "internalType": "struct BigInt",
              "name": "collateral",
              "type": "tuple"
            }
          ],
          "internalType": "struct MarketTypes.GetDealProviderCollateralReturn",
          "name": "",
          "type": "tuple"
        }
      ],
      "stateMutability": "view",
      "type": "function"
    },
    {
      "inputs": [
        {
          "internalType": "uint64",
          "name": "dealID",
          "type": "uint64"
        }
      ],
      "name": "getDealTerm",
      "outputs": [
        {
          "components": [
            {
              "internalType": "int64",
              "name": "start",
              "type": "int64"
            },
            {
              "internalType": "int64",
              "name": "end",
              "type": "int64"
            }
          ],
          "internalType": "struct MarketTypes.GetDealTermReturn",
          "name": "",
          "type": "tuple"
        }
      ],
      "stateMutability": "view",
      "type": "function"
    },
    {
      "inputs": [
        {
          "internalType": "uint64",
          "name": "dealID",
          "type": "uint64"
        }
      ],
      "name": "getDealTotalPrice",
      "outputs": [
        {
          "components": [
            {
              "components": [
                {
                  "internalType": "bytes",
                  "name": "val",
                  "type": "bytes"
                },
                {
                  "internalType": "bool",
                  "name": "neg",
                  "type": "bool"
                }
              ],
              "internalType": "struct BigInt",
              "name": "price_per_epoch",
              "type": "tuple"
            }
          ],
          "internalType": "struct MarketTypes.GetDealEpochPriceReturn",
          "name": "",
          "type": "tuple"
        }
      ],
      "stateMutability": "view",
      "type": "function"
    },
    {
      "inputs": [
        {
          "internalType": "uint64",
          "name": "dealID",
          "type": "uint64"
        }
      ],
      "name": "getDealVerified",
      "outputs": [
        {
          "components": [
            {
              "internalType": "bool",
              "name": "verified",
              "type": "bool"
            }
          ],
          "internalType": "struct MarketTypes.GetDealVerifiedReturn",
          "name": "",
          "type": "tuple"
        }
      ],
      "stateMutability": "view",
      "type": "function"
    },
    {
      "inputs": [
        {
          "internalType": "bytes",
          "name": "raw_auth_params",
          "type": "bytes"
        },
        {
          "internalType": "address",
          "name": "callee",
          "type": "address"
        }
      ],
      "name": "publishStorageDeals",
      "outputs": [],
      "stateMutability": "nonpayable",
      "type": "function"
    },
    {
      "inputs": [
        {
          "components": [
            {
              "internalType": "bytes",
              "name": "provider_or_client",
              "type": "bytes"
            },
            {
              "components": [
                {
                  "internalType": "bytes",
                  "name": "val",
                  "type": "bytes"
                },
                {
                  "internalType": "bool",
                  "name": "neg",
                  "type": "bool"
                }
              ],
              "internalType": "struct BigInt",
              "name": "tokenAmount",
              "type": "tuple"
            }
          ],
          "internalType": "struct MarketTypes.WithdrawBalanceParams",
          "name": "params",
          "type": "tuple"
        }
      ],
      "name": "withdrawBalance",
      "outputs": [
        {
          "components": [
            {
              "components": [
                {
                  "internalType": "bytes",
                  "name": "val",
                  "type": "bytes"
                },
                {
                  "internalType": "bool",
                  "name": "neg",
                  "type": "bool"
                }
              ],
              "internalType": "struct BigInt",
              "name": "amount_withdrawn",
              "type": "tuple"
            }
          ],
          "internalType": "struct MarketTypes.WithdrawBalanceReturn",
          "name": "",
          "type": "tuple"
        }
      ],
      "stateMutability": "nonpayable",
      "type": "function"
    }
  ],
  "bytecode": "0x60806040523480156200001157600080fd5b50620000226200002860201b60201c565b6200090f565b62000032620003b2565b6043816000019067ffffffffffffffff16908167ffffffffffffffff168152505060405180606001604052806040815260200162003a4660409139816020018190525062800000816040019067ffffffffffffffff16908167ffffffffffffffff168152505060008160600190151590811515815250506065816080019067ffffffffffffffff16908167ffffffffffffffff168152505060678160a0019067ffffffffffffffff16908167ffffffffffffffff168152505060405180606001604052806034815260200162003a86603491398160c0018190525061629d8160e0019060070b908160070b815250506208517e81610100019060070b908160070b815250506501001d1bf80081610120018181525050600081610140018181525050600081610160018181525050600181610180019060070b908160070b815250506000816101a0019060070b908160070b815250508060016000836000015167ffffffffffffffff1667ffffffffffffffff16815260200190815260200160002060008201518160000160006101000a81548167ffffffffffffffff021916908367ffffffffffffffff1602179055506020820151816001019081620001fa9190620006d1565b5060408201518160020160006101000a81548167ffffffffffffffff021916908367ffffffffffffffff16021790555060608201518160020160086101000a81548160ff02191690831515021790555060808201518160020160096101000a81548167ffffffffffffffff021916908367ffffffffffffffff16021790555060a08201518160020160116101000a81548167ffffffffffffffff021916908367ffffffffffffffff16021790555060c0820151816003019081620002bf919062000828565b5060e08201518160040160006101000a81548167ffffffffffffffff021916908360070b67ffffffffffffffff1602179055506101008201518160040160086101000a81548167ffffffffffffffff021916908360070b67ffffffffffffffff1602179055506101208201518160050155610140820151816006015561016082015181600701556101808201518160080160006101000a81548167ffffffffffffffff021916908360070b67ffffffffffffffff1602179055506101a08201518160080160086101000a81548167ffffffffffffffff021916908360070b67ffffffffffffffff16021790555090505050565b604051806101c00160405280600067ffffffffffffffff16815260200160608152602001600067ffffffffffffffff168152602001600015158152602001600067ffffffffffffffff168152602001600067ffffffffffffffff16815260200160608152602001600060070b8152602001600060070b8152602001600081526020016000815260200160008152602001600060070b8152602001600060070b81525090565b600081519050919050565b7f4e487b7100000000000000000000000000000000000000000000000000000000600052604160045260246000fd5b7f4e487b7100000000000000000000000000000000000000000000000000000000600052602260045260246000fd5b60006002820490506001821680620004d957607f821691505b602082108103620004ef57620004ee62000491565b5b50919050565b60008190508160005260206000209050919050565b60006020601f8301049050919050565b600082821b905092915050565b600060088302620005597fffffffffffffffffffffffffffffffffffffffffffffffffffffffffffffffff826200051a565b6200056586836200051a565b95508019841693508086168417925050509392505050565b6000819050919050565b6000819050919050565b6000620005b2620005ac620005a6846200057d565b62000587565b6200057d565b9050919050565b6000819050919050565b620005ce8362000591565b620005e6620005dd82620005b9565b84845462000527565b825550505050565b600090565b620005fd620005ee565b6200060a818484620005c3565b505050565b5b81811015620006325762000626600082620005f3565b60018101905062000610565b5050565b601f82111562000681576200064b81620004f5565b62000656846200050a565b8101602085101562000666578190505b6200067e62000675856200050a565b8301826200060f565b50505b505050565b600082821c905092915050565b6000620006a66000198460080262000686565b1980831691505092915050565b6000620006c1838362000693565b9150826002028217905092915050565b620006dc8262000457565b67ffffffffffffffff811115620006f857620006f762000462565b5b620007048254620004c0565b6200071182828562000636565b600060209050601f83116001811462000749576000841562000734578287015190505b620007408582620006b3565b865550620007b0565b601f1984166200075986620004f5565b60005b8281101562000783578489015182556001820191506020850194506020810190506200075c565b86831015620007a357848901516200079f601f89168262000693565b8355505b6001600288020188555050505b505050505050565b600081519050919050565b60008190508160005260206000209050919050565b601f8211156200082357620007ed81620007c3565b620007f8846200050a565b8101602085101562000808578190505b6200082062000817856200050a565b8301826200060f565b50505b505050565b6200083382620007b8565b67ffffffffffffffff8111156200084f576200084e62000462565b5b6200085b8254620004c0565b62000868828285620007d8565b600060209050601f831160018114620008a057600084156200088b578287015190505b620008978582620006b3565b86555062000907565b601f198416620008b086620007c3565b60005b82811015620008da57848901518255600182019150602085019450602081019050620008b3565b86831015620008fa5784890151620008f6601f89168262000693565b8355505b6001600288020188555050505b505050505050565b613127806200091f6000396000f3fe6080604052600436106100dd5760003560e01c806375d94e9a1161007f578063c9505aa211610059578063c9505aa214610344578063d0fc350114610360578063d4254e8f1461039d578063d6d58e37146103da576100dd565b806375d94e9a1461028d5780639b921f34146102ca578063b91b14b414610307576100dd565b8063312f3286116100bb578063312f3286146101995780634a0379dc146101d657806358b07bc9146102135780635de4d19814610250576100dd565b8063119ec8d9146100e25780631a329cbc1461011f5780631e1ebc4e1461015c575b600080fd5b3480156100ee57600080fd5b50610109600480360381019061010491906121ca565b610403565b6040516101169190612309565b60405180910390f35b34801561012b57600080fd5b50610146600480360381019061014191906121ca565b6104ce565b6040516101539190612376565b60405180910390f35b34801561016857600080fd5b50610183600480360381019061017e91906121ca565b6105bb565b60405161019091906123bc565b60405180910390f35b3480156101a557600080fd5b506101c060048036038101906101bb9190612636565b610676565b6040516101cd91906126a9565b60405180910390f35b3480156101e257600080fd5b506101fd60048036038101906101f891906121ca565b6108ad565b60405161020a919061274a565b60405180910390f35b34801561021f57600080fd5b5061023a600480360381019061023591906121ca565b6109d2565b6040516102479190612796565b60405180910390f35b34801561025c57600080fd5b50610277600480360381019061027291906121ca565b610a9d565b60405161028491906127d4565b60405180910390f35b34801561029957600080fd5b506102b460048036038101906102af91906121ca565b610b58565b6040516102c1919061282c565b60405180910390f35b3480156102d657600080fd5b506102f160048036038101906102ec91906121ca565b610c4e565b6040516102fe919061287d565b60405180910390f35b34801561031357600080fd5b5061032e600480360381019061032991906121ca565b610d3b565b60405161033b91906128b4565b60405180910390f35b61035e600480360381019061035991906128cf565b610de7565b005b34801561036c57600080fd5b50610387600480360381019061038291906128cf565b610f44565b604051610394919061295c565b60405180910390f35b3480156103a957600080fd5b506103c460048036038101906103bf91906121ca565b611095565b6040516103d191906129a8565b60405180910390f35b3480156103e657600080fd5b5061040160048036038101906103fc9190612a28565b611160565b005b61040b611fe7565b6000600160008467ffffffffffffffff1667ffffffffffffffff16815260200190815260200160002060000160009054906101000a900467ffffffffffffffff1667ffffffffffffffff161161046057600080fd5b6000610497600160008567ffffffffffffffff1667ffffffffffffffff1681526020019081526020016000206006015460006112a8565b9050604051806020016040528060405180604001604052808460000151815260200184602001511515815250815250915050919050565b6104d6612000565b6000600160008467ffffffffffffffff1667ffffffffffffffff16815260200190815260200160002060000160009054906101000a900467ffffffffffffffff1667ffffffffffffffff161161052b57600080fd5b6040518060400160405280600160008567ffffffffffffffff1667ffffffffffffffff16815260200190815260200160002060040160009054906101000a900460070b60070b8152602001600160008567ffffffffffffffff1667ffffffffffffffff16815260200190815260200160002060040160089054906101000a900460070b60070b8152509050919050565b6105c3612020565b6000600160008467ffffffffffffffff1667ffffffffffffffff16815260200190815260200160002060000160009054906101000a900467ffffffffffffffff1667ffffffffffffffff161161061857600080fd5b6040518060200160405280600160008567ffffffffffffffff1667ffffffffffffffff16815260200190815260200160002060020160119054906101000a900467ffffffffffffffff1667ffffffffffffffff168152509050919050565b61067e61203d565b60008083600001516040516106939190612ac0565b90815260200160405180910390206040518060600160405290816000820180546106bc90612b06565b80601f01602080910402602001604051908101604052809291908181526020018280546106e890612b06565b80156107355780601f1061070a57610100808354040283529160200191610735565b820191906000526020600020905b81548152906001019060200180831161071857829003601f168201915b505050505081526020016001820160009054906101000a900460ff16151515158152602001600282015481525050905060006107818460200151600001518560200151602001516112e3565b905061078d82826112ff565b156108095761079c8282611336565b600085600001516040516107b09190612ac0565b908152602001604051809103902060008201518160000190816107d39190612ced565b5060208201518160010160006101000a81548160ff02191690831515021790555060408201518160020155905050809150610877565b610811611585565b600085600001516040516108259190612ac0565b908152602001604051809103902060008201518160000190816108489190612ced565b5060208201518160010160006101000a81548160ff021916908315150217905550604082015181600201559050505b60405180602001604052806040518060400160405280856000015181526020018560200151151581525081525092505050919050565b6108b5612056565b6000600160008467ffffffffffffffff1667ffffffffffffffff16815260200190815260200160002060000160009054906101000a900467ffffffffffffffff1667ffffffffffffffff161161090a57600080fd5b6040518060200160405280600160008567ffffffffffffffff1667ffffffffffffffff168152602001908152602001600020600301805461094a90612b06565b80601f016020809104026020016040519081016040528092919081815260200182805461097690612b06565b80156109c35780601f10610998576101008083540402835291602001916109c3565b820191906000526020600020905b8154815290600101906020018083116109a657829003601f168201915b50505050508152509050919050565b6109da612069565b6000600160008467ffffffffffffffff1667ffffffffffffffff16815260200190815260200160002060000160009054906101000a900467ffffffffffffffff1667ffffffffffffffff1611610a2f57600080fd5b6000610a66600160008567ffffffffffffffff1667ffffffffffffffff1681526020019081526020016000206005015460006112a8565b9050604051806020016040528060405180604001604052808460000151815260200184602001511515815250815250915050919050565b610aa5612082565b6000600160008467ffffffffffffffff1667ffffffffffffffff16815260200190815260200160002060000160009054906101000a900467ffffffffffffffff1667ffffffffffffffff1611610afa57600080fd5b6040518060200160405280600160008567ffffffffffffffff1667ffffffffffffffff16815260200190815260200160002060020160099054906101000a900467ffffffffffffffff1667ffffffffffffffff168152509050919050565b610b6061209f565b6000600160008467ffffffffffffffff1667ffffffffffffffff16815260200190815260200160002060000160009054906101000a900467ffffffffffffffff1667ffffffffffffffff1611610bb557600080fd5b60405180604001604052806040518060400160405280600881526020017f30783131313131310000000000000000000000000000000000000000000000008152508152602001600160008567ffffffffffffffff1667ffffffffffffffff16815260200190815260200160002060020160009054906101000a900467ffffffffffffffff1667ffffffffffffffff168152509050919050565b610c566120c3565b6000600160008467ffffffffffffffff1667ffffffffffffffff16815260200190815260200160002060000160009054906101000a900467ffffffffffffffff1667ffffffffffffffff1611610cab57600080fd5b6040518060400160405280600160008567ffffffffffffffff1667ffffffffffffffff16815260200190815260200160002060080160009054906101000a900460070b60070b8152602001600160008567ffffffffffffffff1667ffffffffffffffff16815260200190815260200160002060080160089054906101000a900460070b60070b8152509050919050565b610d436120e3565b6000600160008467ffffffffffffffff1667ffffffffffffffff16815260200190815260200160002060000160009054906101000a900467ffffffffffffffff1667ffffffffffffffff1611610d9857600080fd5b6040518060200160405280600160008567ffffffffffffffff1667ffffffffffffffff16815260200190815260200160002060020160089054906101000a900460ff1615158152509050919050565b6000610df43460006112a8565b9050610edf600083604051610e099190612ac0565b9081526020016040518091039020604051806060016040529081600082018054610e3290612b06565b80601f0160208091040260200160405190810160405280929190818152602001828054610e5e90612b06565b8015610eab5780601f10610e8057610100808354040283529160200191610eab565b820191906000526020600020905b815481529060010190602001808311610e8e57829003601f168201915b505050505081526020016001820160009054906101000a900460ff16151515158152602001600282015481525050826115c7565b600083604051610eef9190612ac0565b90815260200160405180910390206000820151816000019081610f129190612ced565b5060208201518160010160006101000a81548160ff021916908315150217905550604082015181600201559050505050565b610f4c6120f8565b60008083604051610f5d9190612ac0565b9081526020016040518091039020604051806060016040529081600082018054610f8690612b06565b80601f0160208091040260200160405190810160405280929190818152602001828054610fb290612b06565b8015610fff5780601f10610fd457610100808354040283529160200191610fff565b820191906000526020600020905b815481529060010190602001808311610fe257829003601f168201915b505050505081526020016001820160009054906101000a900460ff1615151515815260200160028201548152505090506000611039611585565b905060405180604001604052806040518060400160405280856000015181526020018560200151151581525081526020016040518060400160405280846000015181526020018460200151151581525081525092505050919050565b61109d61211e565b6000600160008467ffffffffffffffff1667ffffffffffffffff16815260200190815260200160002060000160009054906101000a900467ffffffffffffffff1667ffffffffffffffff16116110f257600080fd5b6000611129600160008567ffffffffffffffff1667ffffffffffffffff1681526020019081526020016000206007015460006112a8565b9050604051806020016040528060405180604001604052808460000151815260200184602001511515815250815250915050919050565b60008173ffffffffffffffffffffffffffffffffffffffff166000639d8b06788560405160240161119393929190612e9c565b6040516020818303038152906040527f868e10c4000000000000000000000000000000000000000000000000000000007bffffffffffffffffffffffffffffffffffffffffffffffffffffffff19166020820180517bffffffffffffffffffffffffffffffffffffffffffffffffffffffff838183161783525050505060405161121d9190612f16565b6000604051808303816000865af19150503d806000811461125a576040519150601f19603f3d011682016040523d82523d6000602084013e61125f565b606091505b50509050806112a3576040517f08c379a000000000000000000000000000000000000000000000000000000000815260040161129a90612fb0565b60405180910390fd5b505050565b6112b0612137565b6112db836040516020016112c49190612ff1565b6040516020818303038152906040528360006117ef565b905092915050565b6112eb612137565b6112f7838360006117ef565b905092915050565b60008061130e848460016118bc565b9050600181148061131f5750600081145b61132a57600061132d565b60015b91505092915050565b61133e612137565b60008360400151148015611356575060008260400151145b1561136a57611363611585565b905061157f565b606060008061137b868660006118bc565b915085602001518061138e575084602001515b156114c557856020015180156113a5575084602001515b1561145157600182036113e2576113c486600001518660000151611a99565b8092508194505050600184602001901515908115158152505061144c565b7fffffffffffffffffffffffffffffffffffffffffffffffffffffffffffffffff82036114395761141b85600001518760000151611a99565b8092508194505050600084602001901515908115158152505061144b565b611441611585565b935050505061157f565b5b6114c0565b6000821261147d57611470866000015186600001518860400151611bc4565b809250819450505061149d565b611494856000015187600001518760400151611bc4565b80925081945050505b85602001516114ad5760006114b0565b60015b8460200190151590811515815250505b611568565b600182036114fd576114df86600001518660000151611a99565b80925081945050506000846020019015159081151581525050611567565b7fffffffffffffffffffffffffffffffffffffffffffffffffffffffffffffffff82036115545761153685600001518760000151611a99565b80925081945050506001846020019015159081151581525050611566565b61155c611585565b935050505061157f565b5b5b828460000181905250808460400181815250505050505b92915050565b61158d612137565b6040518060600160405280604051806040016040528060208152602001600081525081526020016000151581526020016000815250905090565b6115cf612137565b600083604001511480156115e7575060008260400151145b156115fb576115f4611585565b90506117e9565b600083604001510361160f578190506117e9565b6000826040015103611623578290506117e9565b6060600080611634868660006118bc565b9050856020015180611647575084602001515b15611774578560200151801561165e575084602001515b156116c5576000811261168f57611682866000015186600001518860400151611bc4565b80935081945050506116af565b6116a6856000015187600001518760400151611bc4565b80935081945050505b600184602001901515908115158152505061176f565b60018103611700576116df86600001518660000151611a99565b8093508194505050856020015184602001901515908115158152505061176e565b7fffffffffffffffffffffffffffffffffffffffffffffffffffffffffffffffff810361175b5761173985600001518760000151611a99565b809350819450505085602001511584602001901515908115158152505061176d565b611763611585565b93505050506117e9565b5b5b6117d2565b600081126117a057611793866000015186600001518860400151611bc4565b80935081945050506117c0565b6117b7856000015187600001518760400151611bc4565b80935081945050505b60008460200190151590811515815250505b828460000181905250818460400181815250505050505b92915050565b6117f7612137565b602084018451600059600060208406146001811461182957602084066020036020818401019350808501835250611833565b6020820192508382525b508282848660046101c2fa506020815101810160405280515b6000602082140361187f5760006020830151146001811461186d575061187f565b6020830192505060208103905061184c565b80825281865287602087015250505050506000821461189e57816118ac565b6118ab8160000151611cfa565b5b8160400181815250509392505050565b60008060019050821561198757846020015180156118db575083602001515b15611908577fffffffffffffffffffffffffffffffffffffffffffffffffffffffffffffffff9050611986565b600015158560200151151514801561192857506001151584602001511515145b15611937576001915050611a92565b600115158560200151151514801561195757506000151584602001511515145b15611985577fffffffffffffffffffffffffffffffffffffffffffffffffffffffffffffffff915050611a92565b5b5b8360400151856040015111156119a05780915050611a92565b8460400151846040015111156119e457807fffffffffffffffffffffffffffffffffffffffffffffffffffffffffffffffff6119dc9190613045565b915050611a92565b6000806000806000896000015151905060208a510194506020895101935060005b81811015611a865780860151935080850151925082841115611a305786975050505050505050611a92565b83831115611a7257867fffffffffffffffffffffffffffffffffffffffffffffffffffffffffffffffff611a649190613045565b975050505050505050611a92565b602081611a7f91906130bd565b9050611a05565b50600096505050505050505b9392505050565b6060600060606000807fffffffffffffffffffffffffffffffffffffffffffffffffffffffffffffffff90505987518751808203828b01828b0184860160208101865b600080821403611b6c57845186821160018114611b1d578c8203855260018d14600083141660018114611b125760009d50611b17565b60019d505b50611b53565b85518d81840303865260018e148d8214168e820184101760018114611b455760009e50611b4a565b60019e505b50602087039650505b5060208403935060208603955050602081039050611adc565b506020820191505b6000825103611b9457602088019750602087039650602082019150611b74565b879a50868b528060405250505050505050506000611bb184611cfa565b9050838195509550505050509250929050565b606060006060596000600160000388518901885189018a5160208601018b515b600080821403611c905783518c518e5103821160018114611c28578782018452600188148288141660018114611c1d5760009850611c22565b600198505b50611c77565b8451888184010185528881038803831160018114611c69576000821160008b11178985141660018114611c5e5760009a50611c63565b60019a505b50611c6e565b600199505b50602086039550505b5060208303925060208503945050602081039050611be4565b506000851460018114611ca65760018252611cad565b6020870196505b50859650846020028c510187526020875101870160405260208701516001816101008d061c14600182141715611ce45760018b019a505b5050505050505080849250925050935093915050565b6000611d0582611d3a565b15611d135760009050611d35565b600060208301519050611d2581611d91565b9150600860208451030282019150505b919050565b600080600060208401905060005b8451811015611d8457815192506000831115611d6a5760009350505050611d8c565b602082019150602081611d7d91906130bd565b9050611d48565b506001925050505b919050565b600080821460018114611fdc578260018403935060028404841793506004840484179350601084048417935061010084048417935062010000840484179350640100000000840484179350680100000000000000008404841793507001000000000000000000000000000000008404841793506001840193506040517ff8f9cbfae6cc78fbefe7cdc3a1793dfcf4f0e8bbd8cec470b6a28a7a5a3e1efd81527ff5ecf1b3e9debc68e1d9cfabc5997135bfb7a7a3938b7b606b5b4b3f2f1f0ffe60208201527ff6e4ed9ff2d6b458eadcdf97bd91692de2d4da8fd2d0ac50c6ae9a827252361660408201527fc8c0b887b0a8a4489c948c7f847c6125746c645c544c444038302820181008ff60608201527ff7cae577eec2a03cf3bad76fb589591debb2dd67e0aa9834bea6925f6a4a2e0e60808201527fe39ed557db96902cd38ed14fad815115c786af479b7e8324736353433727170760a08201527fc976c13bb96e881cb166a933a55e490d9d56952b8d4e801485467d236242260660c08201527f753a6d1b65325d0c552a4d1345224105391a310b29122104190a11030902010060e082015261010081016040527e818283848586878898a8b8c8d8e8f929395969799a9b9d9e9faaeb6bedeeff7f01000000000000000000000000000000000000000000000000000000000000008082880204818160ff038501510496507f800000000000000000000000000000000000000000000000000000000000000085116101000287019650600060018603861603611fd2576001870196505b5050505050611fe1565b600091505b50919050565b6040518060200160405280611ffa61215a565b81525090565b6040518060400160405280600060070b8152602001600060070b81525090565b6040518060200160405280600067ffffffffffffffff1681525090565b604051806020016040528061205061215a565b81525090565b6040518060200160405280606081525090565b604051806020016040528061207c61215a565b81525090565b6040518060200160405280600067ffffffffffffffff1681525090565b604051806040016040528060608152602001600067ffffffffffffffff1681525090565b6040518060400160405280600060070b8152602001600060070b81525090565b60405180602001604052806000151581525090565b604051806040016040528061210b61215a565b815260200161211861215a565b81525090565b604051806020016040528061213161215a565b81525090565b604051806060016040528060608152602001600015158152602001600081525090565b6040518060400160405280606081526020016000151581525090565b6000604051905090565b600080fd5b600080fd5b600067ffffffffffffffff82169050919050565b6121a78161218a565b81146121b257600080fd5b50565b6000813590506121c48161219e565b92915050565b6000602082840312156121e0576121df612180565b5b60006121ee848285016121b5565b91505092915050565b600081519050919050565b600082825260208201905092915050565b60005b83811015612231578082015181840152602081019050612216565b60008484015250505050565b6000601f19601f8301169050919050565b6000612259826121f7565b6122638185612202565b9350612273818560208601612213565b61227c8161223d565b840191505092915050565b60008115159050919050565b61229c81612287565b82525050565b600060408301600083015184820360008601526122bf828261224e565b91505060208301516122d46020860182612293565b508091505092915050565b600060208301600083015184820360008601526122fc82826122a2565b9150508091505092915050565b6000602082019050818103600083015261232381846122df565b905092915050565b60008160070b9050919050565b6123418161232b565b82525050565b60408201600082015161235d6000850182612338565b5060208201516123706020850182612338565b50505050565b600060408201905061238b6000830184612347565b92915050565b61239a8161218a565b82525050565b6020820160008201516123b66000850182612391565b50505050565b60006020820190506123d160008301846123a0565b92915050565b600080fd5b7f4e487b7100000000000000000000000000000000000000000000000000000000600052604160045260246000fd5b6124148261223d565b810181811067ffffffffffffffff82111715612433576124326123dc565b5b80604052505050565b6000612446612176565b9050612452828261240b565b919050565b600080fd5b600080fd5b600080fd5b600067ffffffffffffffff821115612481576124806123dc565b5b61248a8261223d565b9050602081019050919050565b82818337600083830152505050565b60006124b96124b484612466565b61243c565b9050828152602081018484840111156124d5576124d4612461565b5b6124e0848285612497565b509392505050565b600082601f8301126124fd576124fc61245c565b5b813561250d8482602086016124a6565b91505092915050565b61251f81612287565b811461252a57600080fd5b50565b60008135905061253c81612516565b92915050565b600060408284031215612558576125576123d7565b5b612562604061243c565b9050600082013567ffffffffffffffff81111561258257612581612457565b5b61258e848285016124e8565b60008301525060206125a28482850161252d565b60208301525092915050565b6000604082840312156125c4576125c36123d7565b5b6125ce604061243c565b9050600082013567ffffffffffffffff8111156125ee576125ed612457565b5b6125fa848285016124e8565b600083015250602082013567ffffffffffffffff81111561261e5761261d612457565b5b61262a84828501612542565b60208301525092915050565b60006020828403121561264c5761264b612180565b5b600082013567ffffffffffffffff81111561266a57612669612185565b5b612676848285016125ae565b91505092915050565b6000602083016000830151848203600086015261269c82826122a2565b9150508091505092915050565b600060208201905081810360008301526126c3818461267f565b905092915050565b600081519050919050565b600082825260208201905092915050565b60006126f2826126cb565b6126fc81856126d6565b935061270c818560208601612213565b6127158161223d565b840191505092915050565b6000602083016000830151848203600086015261273d82826126e7565b9150508091505092915050565b600060208201905081810360008301526127648184612720565b905092915050565b6000602083016000830151848203600086015261278982826122a2565b9150508091505092915050565b600060208201905081810360008301526127b0818461276c565b905092915050565b6020820160008201516127ce6000850182612391565b50505050565b60006020820190506127e960008301846127b8565b92915050565b6000604083016000830151848203600086015261280c828261224e565b91505060208301516128216020860182612391565b508091505092915050565b6000602082019050818103600083015261284681846127ef565b905092915050565b6040820160008201516128646000850182612338565b5060208201516128776020850182612338565b50505050565b6000604082019050612892600083018461284e565b92915050565b6020820160008201516128ae6000850182612293565b50505050565b60006020820190506128c96000830184612898565b92915050565b6000602082840312156128e5576128e4612180565b5b600082013567ffffffffffffffff81111561290357612902612185565b5b61290f848285016124e8565b91505092915050565b6000604083016000830151848203600086015261293582826122a2565b9150506020830151848203602086015261294f82826122a2565b9150508091505092915050565b600060208201905081810360008301526129768184612918565b905092915050565b6000602083016000830151848203600086015261299b82826122a2565b9150508091505092915050565b600060208201905081810360008301526129c2818461297e565b905092915050565b600073ffffffffffffffffffffffffffffffffffffffff82169050919050565b60006129f5826129ca565b9050919050565b612a05816129ea565b8114612a1057600080fd5b50565b600081359050612a22816129fc565b92915050565b60008060408385031215612a3f57612a3e612180565b5b600083013567ffffffffffffffff811115612a5d57612a5c612185565b5b612a69858286016124e8565b9250506020612a7a85828601612a13565b9150509250929050565b600081905092915050565b6000612a9a826126cb565b612aa48185612a84565b9350612ab4818560208601612213565b80840191505092915050565b6000612acc8284612a8f565b915081905092915050565b7f4e487b7100000000000000000000000000000000000000000000000000000000600052602260045260246000fd5b60006002820490506001821680612b1e57607f821691505b602082108103612b3157612b30612ad7565b5b50919050565b60008190508160005260206000209050919050565b60006020601f8301049050919050565b600082821b905092915050565b600060088302612b997fffffffffffffffffffffffffffffffffffffffffffffffffffffffffffffffff82612b5c565b612ba38683612b5c565b95508019841693508086168417925050509392505050565b6000819050919050565b6000819050919050565b6000612bea612be5612be084612bbb565b612bc5565b612bbb565b9050919050565b6000819050919050565b612c0483612bcf565b612c18612c1082612bf1565b848454612b69565b825550505050565b600090565b612c2d612c20565b612c38818484612bfb565b505050565b5b81811015612c5c57612c51600082612c25565b600181019050612c3e565b5050565b601f821115612ca157612c7281612b37565b612c7b84612b4c565b81016020851015612c8a578190505b612c9e612c9685612b4c565b830182612c3d565b50505b505050565b600082821c905092915050565b6000612cc460001984600802612ca6565b1980831691505092915050565b6000612cdd8383612cb3565b9150826002028217905092915050565b612cf6826121f7565b67ffffffffffffffff811115612d0f57612d0e6123dc565b5b612d198254612b06565b612d24828285612c60565b600060209050601f831160018114612d575760008415612d45578287015190505b612d4f8582612cd1565b865550612db7565b601f198416612d6586612b37565b60005b82811015612d8d57848901518255600182019150602085019450602081019050612d68565b86831015612daa5784890151612da6601f891682612cb3565b8355505b6001600288020188555050505b505050505050565b6000819050919050565b600060ff82169050919050565b6000612df1612dec612de784612dbf565b612bc5565b612dc9565b9050919050565b612e0181612dd6565b82525050565b6000819050919050565b600063ffffffff82169050919050565b6000612e3c612e37612e3284612e07565b612bc5565b612e11565b9050919050565b612e4c81612e21565b82525050565b600082825260208201905092915050565b6000612e6e826121f7565b612e788185612e52565b9350612e88818560208601612213565b612e918161223d565b840191505092915050565b6000606082019050612eb16000830186612df8565b612ebe6020830185612e43565b8181036040830152612ed08184612e63565b9050949350505050565b600081905092915050565b6000612ef0826121f7565b612efa8185612eda565b9350612f0a818560208601612213565b80840191505092915050565b6000612f228284612ee5565b915081905092915050565b600082825260208201905092915050565b7f636c69656e7420636f6e7472616374206661696c656420746f20617574686f7260008201527f697a65206465616c207075626c69736800000000000000000000000000000000602082015250565b6000612f9a603083612f2d565b9150612fa582612f3e565b604082019050919050565b60006020820190508181036000830152612fc981612f8d565b9050919050565b6000819050919050565b612feb612fe682612bbb565b612fd0565b82525050565b6000612ffd8284612fda565b60208201915081905092915050565b6000819050919050565b7f4e487b7100000000000000000000000000000000000000000000000000000000600052601160045260246000fd5b60006130508261300c565b915061305b8361300c565b92508282026130698161300c565b91507f800000000000000000000000000000000000000000000000000000000000000084146000841216156130a1576130a0613016565b5b82820584148315176130b6576130b5613016565b5b5092915050565b60006130c882612bbb565b91506130d383612bbb565b92508282019050808211156130eb576130ea613016565b5b9291505056fea2646970667358221220c31967d385b8ea79d12585199db0bf780f893f39282db924510597ef26165b4464736f6c634300081100336261676136656134736561716c6b67366d737335717335366a7174616a673579637268706b6a326236366367646b756b6632716a6d6d7a7a3661796b737563696d41584367354149673859425862466a7464427931695a6a704459417752537430656c474c463547765471756c4569693156634d",
  "linkReferences": {},
  "deployedLinkReferences": {}
}