{
  "_format": "hh-sol-artifact-1",
  "contractName": "SimpleCoin",
  "sourceName": "contracts/basic-solidity-examples/SimpleCoin.sol",
  "abi": [
    {
      "inputs": [
        {
          "internalType": "uint256",
          "name": "tokensToBeMinted",
          "type": "uint256"
        }
      ],
      "stateMutability": "nonpayable",
      "type": "constructor"
    },
    {
      "inputs": [],
      "name": "SimpleCoin__NotEnoughBalance",
      "type": "error"
    },
    {
      "anonymous": false,
      "inputs": [
        {
          "indexed": true,
          "internalType": "uint256",
          "name": "numberTokensMinted",
          "type": "uint256"
        },
        {
          "indexed": false,
          "internalType": "address",
          "name": "owner",
          "type": "address"
        }
      ],
      "name": "tokensMinted",
      "type": "event"
    },
    {
      "inputs": [
        {
          "internalType": "address",
          "name": "",
          "type": "address"
        }
      ],
      "name": "balances",
      "outputs": [
        {
          "internalType": "uint256",
          "name": "",
          "type": "uint256"
        }
      ],
      "stateMutability": "view",
      "type": "function"
    },
    {
      "inputs": [
        {
          "internalType": "address",
          "name": "addr",
          "type": "address"
        }
      ],
      "name": "getBalance",
      "outputs": [
        {
          "internalType": "uint256",
          "name": "",
          "type": "uint256"
        }
      ],
      "stateMutability": "view",
      "type": "function"
    },
    {
      "inputs": [],
      "name": "getMintedTokenBalance",
      "outputs": [
        {
          "internalType": "uint256",
          "name": "",
          "type": "uint256"
        }
      ],
      "stateMutability": "view",
      "type": "function"
    },
    {
      "inputs": [
        {
          "internalType": "address",
          "name": "receiver",
          "type": "address"
        },
        {
          "internalType": "uint256",
          "name": "amount",
          "type": "uint256"
        }
      ],
      "name": "sendCoin",
      "outputs": [
        {
          "internalType": "bool",
          "name": "sufficient",
          "type": "bool"
        }
      ],
      "stateMutability": "nonpayable",
      "type": "function"
    }
  ],
  "bytecode": "0x608060405234801561001057600080fd5b50604051610855380380610855833981810160405281019061003291906100f5565b806000803273ffffffffffffffffffffffffffffffffffffffff1673ffffffffffffffffffffffffffffffffffffffff1681526020019081526020016000208190555080600181905550807f98f1e05ac89e19c9c4e467fdf3269e120060140cd5907933dc7e099cea61900b336040516100ac9190610163565b60405180910390a25061017e565b600080fd5b6000819050919050565b6100d2816100bf565b81146100dd57600080fd5b50565b6000815190506100ef816100c9565b92915050565b60006020828403121561010b5761010a6100ba565b5b6000610119848285016100e0565b91505092915050565b600073ffffffffffffffffffffffffffffffffffffffff82169050919050565b600061014d82610122565b9050919050565b61015d81610142565b82525050565b60006020820190506101786000830184610154565b92915050565b6106c88061018d6000396000f3fe608060405234801561001057600080fd5b506004361061004c5760003560e01c806327e235e31461005157806337a151b81461008157806390b98a111461009f578063f8b2cb4f146100cf575b600080fd5b61006b600480360381019061006691906103e9565b6100ff565b604051610078919061042f565b60405180910390f35b610089610117565b604051610096919061042f565b60405180910390f35b6100b960048036038101906100b49190610476565b610121565b6040516100c691906104d1565b60405180910390f35b6100e960048036038101906100e491906103e9565b610273565b6040516100f6919061042f565b60405180910390f35b60006020528060005260406000206000915090505481565b6000600154905090565b6000816000803373ffffffffffffffffffffffffffffffffffffffff1673ffffffffffffffffffffffffffffffffffffffff16815260200190815260200160002054101561019b576040517f86e25f3100000000000000000000000000000000000000000000000000000000815260040160405180910390fd5b816000803373ffffffffffffffffffffffffffffffffffffffff1673ffffffffffffffffffffffffffffffffffffffff16815260200190815260200160002060008282546101e9919061051b565b92505081905550816000808573ffffffffffffffffffffffffffffffffffffffff1673ffffffffffffffffffffffffffffffffffffffff168152602001908152602001600020600082825461023e919061054f565b9250508190555061026960405180606001604052806024815260200161066f602491393385856102bb565b6001905092915050565b60008060008373ffffffffffffffffffffffffffffffffffffffff1673ffffffffffffffffffffffffffffffffffffffff168152602001908152602001600020549050919050565b610357848484846040516024016102d59493929190610622565b6040516020818303038152906040527f8ef3f399000000000000000000000000000000000000000000000000000000007bffffffffffffffffffffffffffffffffffffffffffffffffffffffff19166020820180517bffffffffffffffffffffffffffffffffffffffffffffffffffffffff838183161783525050505061035d565b50505050565b60008151905060006a636f6e736f6c652e6c6f679050602083016000808483855afa5050505050565b600080fd5b600073ffffffffffffffffffffffffffffffffffffffff82169050919050565b60006103b68261038b565b9050919050565b6103c6816103ab565b81146103d157600080fd5b50565b6000813590506103e3816103bd565b92915050565b6000602082840312156103ff576103fe610386565b5b600061040d848285016103d4565b91505092915050565b6000819050919050565b61042981610416565b82525050565b60006020820190506104446000830184610420565b92915050565b61045381610416565b811461045e57600080fd5b50565b6000813590506104708161044a565b92915050565b6000806040838503121561048d5761048c610386565b5b600061049b858286016103d4565b92505060206104ac85828601610461565b9150509250929050565b60008115159050919050565b6104cb816104b6565b82525050565b60006020820190506104e660008301846104c2565b92915050565b7f4e487b7100000000000000000000000000000000000000000000000000000000600052601160045260246000fd5b600061052682610416565b915061053183610416565b9250828203905081811115610549576105486104ec565b5b92915050565b600061055a82610416565b915061056583610416565b925082820190508082111561057d5761057c6104ec565b5b92915050565b600081519050919050565b600082825260208201905092915050565b60005b838110156105bd5780820151818401526020810190506105a2565b60008484015250505050565b6000601f19601f8301169050919050565b60006105e582610583565b6105ef818561058e565b93506105ff81856020860161059f565b610608816105c9565b840191505092915050565b61061c816103ab565b82525050565b6000608082019050818103600083015261063c81876105da565b905061064b6020830186610613565b6106586040830185610613565b6106656060830184610420565b9594505050505056fe5472616e7366657272696e672066726f6d20257320746f20257320257320746f6b656e73a2646970667358221220d309669cededb8cf6eeba5219ab10c6b42fb5678738abcbe91b017357327985a64736f6c63430008110033",
  "linkReferences": {},
  "deployedLinkReferences": {}
}